:020000040800F2
:10000000683E0020852A0008ED2A0008ED2A000835
:10001000ED2A0008ED2A0008ED2A00080000000083
:10002000000000000000000000000000BD98000873
:10003000ED2A000800000000C1990008FD990008A1
:10004000ED2A000875C20008ED2A0008ED2A000814
:10005000ED2A0008ED2A0008095000081D5100088B
:10006000ED2A0008ED2A0008ED2A0008ED2A000814
:10007000ED2A0008ED2A0008ED2A0008ED2A000804
:10008000ED2A0008ED2A0008ED2A0008ED2A0008F4
:10009000ED2A0008ED2A0008ED2A0008ED2A0008E4
:1000A000ED2A0008ED2A0008ED2A0008ED2A0008D4
:1000B00095170008ED2A000821750008ED2A0008B0
:1000C000ED2A0008ED2A0008ED2A0008ED2A0008B4
:1000D000ED2A0008ED2A0008ED2A0008ED2A0008A4
:1000E000ED2A0008ED2A000875860008ED2A0008B0
:1000F000ED2A0008ED2A0008ED2A0008ED2A000884
:10010000ED2A0008ED2A0008ED2A0008ED2A000873
:10011000ED2A0008ED2A0008ED2A0008ED2A000863
:10012000ED2A0008ED2A0008ED2A0008ED2A000853
:10013000ED2A0008ED2A0008ED2A0008ED2A000843
:10014000ED2A0008ED2A0008ED2A0008B98600080B
:10015000ED2A0008ED2A0008ED2A0008ED2A000823
:10016000ED2A0008ED2A0008ED2A0008ED2A000813
:10017000ED2A0008ED2A0008ED2A0008ED2A000803
:10018000ED2A0008ED2A000890B484B000AF0246C2
:100190000B46FA71BB714FF00003FB60BB7903F0B3
:1001A00003034FEA83034FF00F0202FA03F3FB60ED
:1001B0004FF46053C4F20103BA794FEA9202D2B20B
:1001C00010464FF46052C4F20102B9794FEA91012E
:1001D000C9B201F1020152F821201146FA686FEA12
:1001E0000202114000F1020243F822104FF4605362
:1001F000C4F20103BA794FEA9202D2B210464FF428
:100200006052C4F20102B9794FEA9101C9B201F119
:10021000020152F821201146FC79BA7902F003025A
:100220004FEA820204FA02F2114300F1020243F89B
:10023000221007F11007BD4690BC704780B485B00E
:1002400000AF78604FF00003FB607B68DB684FF025
:10025000FF325A607B68DB684FF0FF325A61FB68FF
:1002600043F00043FB60FB6843F40063FB607B6882
:10027000DB68FA689A6107F11407BD4680BC7047D5
:1002800080B586B000AF78604FF00003FB744FF08C
:1002900000037B614FF00003FB604FF0030008F0A8
:1002A000ADF97B68DB681B69FB607B6903F10103C7
:1002B0007B617A694FF45463C0F203039A4202D916
:1002C0004FF000032AE0FB6803F00043002BE4D06A
:1002D0004FF000037B61FB6843F00103FB607B6828
:1002E000DB68FA681A617B68DB681B69FB607B6905
:1002F00003F101037B617A694FF45463C0F2030395
:100300009A4205D8FB6803F00103002BEBD100E013
:1003100000BF4FF0030008F071F9FB7C184607F1AD
:100320001807BD4680BD00BF80B489B000AFF8603B
:10033000B960FA71BB804FF00003FB76FB68DB7895
:10034000002B2DD14FF000037B614FF00003FB61C8
:10035000BB8803F1030303F10302002BB8BF13466C
:100360004FEAA3037B61FB79FA6803F132034FEA9A
:100370008303D3189B683B614FF00003FB610BE0E4
:10038000BB681A683B691A60FB6903F10103FB61F2
:10039000BB6803F10403BB60FA697B699A42EFD33F
:1003A000FB7E184607F12407BD4680BC704700BF9E
:1003B00080B489B000AFF860B9601346FB804FF09D
:1003C0000003FB61FB8803F1030303F10302002B2D
:1003D000B8BF13464FEAA303BB61FB68D3F8D03024
:1003E0007B614FF00003FB610BE0BB687A69126828
:1003F0001A60FB6903F10103FB61BB6803F10403AD
:10040000BB60FA69BB699A42EFD3BB68184607F133
:100410002407BD4680BC704780B487B000AF7860C9
:100420000B46FB704FF000033B614FF00003FB7382
:100430007B684FF00002DA707B684FF001029A701F
:100440007B684FF040029A80FB78012B17D14FF068
:10045000A0433B617B684FF00102DA727B684FF08A
:1004600008021A707B684FF004025A707B684FF4E0
:10047000A072DA807B684FF002021A7217E0FB78F4
:10048000002B14D14FF00003C4F204033B617B68DE
:100490004FF00002DA727B684FF00C021A707B6832
:1004A0004FF006025A707B684FF4A062DA803A6916
:1004B0007B68DA603B6903F500631A467B681A6162
:1004C0004FF000037B6123E07B694FEA43123B69F5
:1004D000D31803F510631A4679687B6903F10403A6
:1004E0004FEA8303CB189A607B694FEA43123B695A
:1004F000D31803F530631A4679687B6903F1140356
:100500004FEA8303CB185A607B6903F101037B61D7
:100510007B685B781A467B699A42D5D83B6903F5BC
:1005200080631A467B685A613B6903F588631A4603
:100530007B68C3F8CC204FF000037B6113E07B693C
:100540004FEA43123B69D31803F5A0631A46796852
:100550007B6903F122034FEA8303CB189A607B691E
:1005600003F101037B617B681B781A467B699A4221
:10057000E5D84FF000037B6113E07B694FEA03325B
:100580003B69D31803F580531A4679687B6903F1F8
:1005900032034FEA8303CB189A607B6903F10103AE
:1005A0007B617B681B781A467B699A42E5D83B6978
:1005B00003F560631A467B68C3F80C21FB7B184681
:1005C00007F11C07BD4680BC704700BF80B588B0EE
:1005D00000AF78604FF00003FB774FF00003BB6182
:1005E0004FF000037B614FF00003FB607B681B7AD8
:1005F000012B51D17B68DB689B6B7B617B696FF35F
:1006000010437B617B685B7A002B03D07B6943F4EA
:1006100080137B617B68DB687A699A634FF0000323
:10062000BB617B68DB68DB68BB61BB696FF386130A
:10063000BB61BB696FF39653BB61BB6943F01003A9
:10064000BB61BB696FF3C303BB61BB696FF3C713C6
:10065000BB61BB696FF35143BB61BB696FF3D343AC
:10066000BB617B68DB68BA69DA607868FFF708FE0F
:100670007B68DB78012B40F08980FB684FF0050236
:1006800062F34403FB60FB6843F02003FB607B687C
:10069000DB68FA689A6079E07B68DB68DB68BB61DD
:1006A000BB6943F04003BB617B68DB68BA69DA6011
:1006B0007868FFF7E5FD4FF000037B617B6943F449
:1006C00080337B617B681B7A032B03D17B6943F406
:1006D00000337B617B6943F480237B617B6943F456
:1006E00000237B617B6943F400137B617B685B7A49
:1006F000002B03D07B6943F480137B617B68DB684C
:100700007A699A634FF0140007F0A4FF7B68DB68F6
:10071000DB68BB617B681B7A032B03D1BB6943F4A5
:100720008033BB617B68DB68BA69DA607B681B7AFF
:10073000032B2BD17B68DB681B6B3B613B694FF064
:10074000010262F39B633B613B696FF3D7533B61EB
:100750003B6943F080533B613B694FF02D0262F3EC
:1007600016433B617B68DB683A691A634FF0C80047
:1007700007F070FF3B6943F400033B617B68DB6873
:100780003A691A634FF0C80007F064FF7B68DB78B2
:10079000012B11D17B68DB689B68FB60FB684FF025
:1007A000050262F34403FB60FB6843F02003FB6037
:1007B0007B68DB68FA689A60FB7F184607F12007C0
:1007C000BD4680BD80B485B000AF78604FF00003B7
:1007D000FB734FF00003BB60BB6843F00103BB60D9
:1007E0007B68DB687A68D26892681146BA6841EA29
:1007F00002029A60FB7B184607F11407BD4680BCD5
:10080000704700BF80B485B000AF78604FF0000340
:10081000FB734FF00003BB60BB6843F00103BB6098
:100820007B68DB687A68D26892681146BA686FEABA
:10083000020201EA02029A60FB7B184607F11407E4
:10084000BD4680BC704700BF80B586B000AF786001
:1008500039604FF00003FB744FF000037B614FF0F1
:100860000003FB60FB6843F02003FB603B68DBB2E6
:1008700003F01F03DAB2FB6862F38A13FB607B6844
:10088000DB68FA681A617B68DB681B69FB607B695F
:1008900003F101037B617A694FF45463C0F20303EF
:1008A0009A4205D8FB6803F02003002BEBD100E04F
:1008B00000BF4FF0030007F0A1FEFB7C184607F1D4
:1008C0001807BD4680BD00BF80B586B000AF786018
:1008D0004FF00003FB744FF000037B614FF0000307
:1008E000FB60FB6843F01003FB607B68DB68FA6821
:1008F0001A617B68DB681B69FB607B6903F101039C
:100900007B617A694FF45463C0F203039A4205D8BD
:10091000FB6803F01003002BEBD100E000BF4FF0A9
:10092000030007F06BFEFB7C184607F11807BD4675
:1009300080BD00BF80B584B000AF78600B46FB700F
:100940004FF00003FB737B68DB68DB68BB60BB6850
:100950006FF35D73BB60BB686FF39E73BB60FB7826
:10096000012B04D1BB6843F00053BB6006E0FB7869
:10097000002B03D1BB6843F08043BB607B68DB681E
:10098000BA68DA604FF0320007F064FEFB7B18466D
:1009900007F11007BD4680BD80B483B000AF78601A
:1009A0007B68DB685B6903F00103184607F10C07FD
:1009B000BD4680BC704700BF80B582B000AF786094
:1009C0007868FFF7E9FF0346012B0CBF00230123E2
:1009D000DBB2184607F10807BD4680BD80B485B07C
:1009E00000AF78604FF00003FB607B68DB685B69F9
:1009F000FB607B68DB689B69FA6802EA0303FB60C3
:100A0000FB68184607F11407BD4680BC704700BF5D
:100A100080B485B000AF78600B46FB707B681B69C3
:100A20001B68FB60FB7803F00303DAB2FB6862F338
:100A30000103FB607B681B69FA681A6007F1140701
:100A4000BD4680BC704700BF80B58CB000AF7860F9
:100A50004FF0000387F82B304FF000037B624FF01C
:100A600000033B624FF00003FB614FF00003BB61EA
:100A70004FF000037B617B68D3F80C314FF000022C
:100A80001A607B681B691B683B623B6A6FF3CC236F
:100A90003B627B681B693A6A1A607B68DB7A012BD0
:100AA00040D178684FF00301FFF7B2FF7B68DB6845
:100AB0004FF080025A624FF02003FB834FF0800317
:100AC000BB837B68DB68FA699A62BA8BFB8BD318AD
:100AD0009BB23B834FF080037B837B68DB68BA6902
:100AE000C3F804213A8B7B8BD3189BB23B834FF026
:100AF00020037B837B68DB6803F5827303F10403C7
:100B0000BA691A603A8B7B8BD3189BB23B834FF048
:100B100000037B837B68DB6803F5827303F10803C2
:100B2000BA691A6078684FF01001FFF78DFE786897
:100B3000FFF7CAFE7B681B694FF000021A617B68F1
:100B40001B694FF000025A617B681B694FF0FF324E
:100B50009A617B681B694FF00002DA614FF0000375
:100B6000FB6243E07A68FB6A03F104034FEA830304
:100B7000D3189B681B687B6297F8273023F07F03AC
:100B8000DBB2002B0BD04FF000037B627B6A43F09B
:100B900080437B627B6A43F000637B6202E04FF03C
:100BA00000037B627A68FB6A03F104034FEA830364
:100BB000D3189B687A6A1A607A68FB6A03F10403A7
:100BC0004FEA8303D3189B684FF000021A617A68DA
:100BD000FB6A03F104034FEA8303D3189B684FF0C9
:100BE000FF029A60FB6A03F10103FB627B685B789A
:100BF0001A46FB6A9A42B5D84FF00003FB6242E006
:100C00007A68FB6A03F114034FEA8303D3185B6825
:100C10001B68FB60FB7B23F07F03DBB2002B0BD058
:100C20004FF00003FB60FB6843F08043FB60FB6810
:100C300043F00063FB6002E04FF00003FB607A6862
:100C4000FB6A03F114034FEA8303D3185B68FA6865
:100C50001A607A68FB6A03F114034FEA8303D3181E
:100C60005B684FF000021A617A68FB6A03F11403B3
:100C70004FEA8303D3185B684FF0FF029A60FB6A68
:100C800003F10103FB627B685B781A46FB6A9A42B8
:100C9000B6D84FF000037B617B6943F480737B61BE
:100CA0007B681B697A681269126911467A696FEA72
:100CB000020211407A6941EA02021A617B68DB781C
:100CC000012B1ED14FF000033B613B6943F0010350
:100CD0003B613B6943F002033B613B694FF04002DB
:100CE00062F38A033B613B6943F480333B613B69B8
:100CF0004FF0400262F359433B617B681B693A69DC
:100D00001A63786800F008F897F82B30184607F156
:100D10003007BD4680BD00BF80B584B000AF7860AD
:100D20004FF00003FB734FF00003BB607B68DB6890
:100D30004FF000029A617B68DB684FF0FF325A6126
:100D40007868FFF77BFA7B68DB78002B03D1BB6800
:100D500043F01003BB60BB6843F40063BB60BB6837
:100D600043F48053BB60BB6843F40053BB60BB6873
:100D700043F48023BB60BB6843F40023BB60BB68C3
:100D800043F00803BB60BB6843F48013BB60BB68DF
:100D900043F40013BB607B68DB687A68D2689269B1
:100DA0001146BA686FEA02021140BA6841EA0202CB
:100DB0009A61FB7B184607F11007BD4680BD00BF56
:100DC00080B485B000AF78604FF00003FB737B68A0
:100DD0001B699B68BB60BB68C3F34103DBB2022B9A
:100DE0000BD0032B05D0012B03D04FF00303FB7373
:100DF00007E04FF00203FB7303E04FF00103FB73C6
:100E000000BFFB7B184607F11407BD4680BC704746
:100E100080B487B000AF78604FF00003FB754FF0EF
:100E20000003BB607B681B699B683B617B689B69B7
:100E30001B68FB603B69C3F34103DBB2022B04D0A8
:100E4000FB686FF30A03FB6006E0FB684FF00302E8
:100E500062F30A03FB6000BF7B689B69FA681A6053
:100E6000BB6843F48073BB607B681B697A68126956
:100E700052681146BA686FEA02021140BA6841EA44
:100E800002025A60FB7D184607F11C07BD4680BC74
:100E9000704700BF80B487B000AF786039604FF012
:100EA0000003FB744FF00003FB604FF00003BB60D6
:100EB0003B685B78012B12D13B681B787A6803F1A1
:100EC00004034FEA8303D3189B687B613B681B785C
:100ED0004FF0010202FA03F39BB23B8111E03B6841
:100EE0001B787A6803F114034FEA8303D3185B6815
:100EF0007B613B681B784FF0010202FA03F39BB25F
:100F00007B817B691B68FB607B7B23F07F03DBB20B
:100F1000002B29D13B689B689BB24FEA43534FEAB1
:100F200053539AB2FB6862F30A03FB603B68DB78B9
:100F300003F00303DAB2FB6862F39343FB603B68A0
:100F4000DB88DBB203F00F03DAB2FB6862F399537C
:100F5000FB60FB6843F08053FB60FB6843F4004395
:100F6000FB60FA687B691A607B681B697A681269A2
:100F7000D2691146BA6841EA0202DA61FB7C18467E
:100F800007F11C07BD4680BC704700BF80B487B026
:100F900000AF786039604FF00003FB744FF000033E
:100FA000FB604FF00003BB603B685B78012B12D104
:100FB0003B681B787A6803F104034FEA8303D31874
:100FC0009B687B613B681B784FF0010202FA03F3D8
:100FD0009BB23B8111E03B681B787A6803F11403F4
:100FE0004FEA8303D3185B687B613B681B784FF043
:100FF000010202FA03F39BB27B81FB686FF3CF33EC
:10100000FB60FA687B691A607B681B697A68126901
:10101000D2691146BA686FEA020201EA0202DA6195
:10102000FB7C184607F11C07BD4680BC704700BF1B
:1010300080B588B000AF786039604FF00003FB776F
:101040004FF00003BB614FF000037B614FF00003E2
:101050003B613B685B78012B40F0BF803B681B78AD
:101060007A6803F104034FEA8303D3189B681B6873
:101070007B613B681B787A6803F104034FEA8303C2
:10108000D3189B681B693B613B685B69002B0AD1E5
:101090003B696FF312033B613B694FF0010262F35E
:1010A000DC433B6128E03B685B6923F07F4222F42C
:1010B00078023B6962F312033B613B685A693B6803
:1010C0009B68D31803F1FF323B689B68B2FBF3F3D4
:1010D0009BB24FEA83534FEA93539AB23B6962F350
:1010E000DC433B613B68DB78012B05D13B694FF06A
:1010F000010262F35E733B613B681B787A6803F11F
:1011000004034FEA8303D3189B683A691A617B682A
:10111000DB78012B0CD13B681B787A6803F1040360
:101120004FEA8303D3189B683A6812695A6118E042
:101130003B68DB78012B14D03B685B69002B10D037
:101140003B681B784FF0010202FA03F3BB617B6836
:101150001B697A681269526B1146BA6941EA020248
:101160005A633B68DB78012B14D17B681B699B6851
:10117000FB60FB68C3F30D239BB203F00103002B5C
:1011800004D17B6943F000537B6103E07B6943F04A
:1011900080537B617B6943F080637B617B6943F0B3
:1011A00000437B613B681B787A6803F104034FEAD4
:1011B0008303D3189B687A691A603B68DB78012B3C
:1011C00040F09A803B68D9683B681A783B685B6955
:1011D0009BB27868FFF7A8F88EE03B681B787A68C6
:1011E00003F114034FEA8303D3185B681B687B6128
:1011F0003B681B787A6803F114034FEA8303D31822
:101200005B681B693B613B685B69002B10D13B68E5
:101210009B6823F07F4222F478023B6962F3120359
:101220003B613B694FF0010262F3DC433B6124E028
:101230003B685A693B689B68D31803F1FF323B68EF
:101240009B68B2FBF3F39BB24FEA83534FEA93538D
:101250009AB23B6962F3DC433B613B69C3F3C94328
:101260009BB23A68926802FB03F323F07F4222F4B8
:1012700078023B6962F312033B613B681B787A6832
:1012800003F114034FEA8303D3185B683A691A61C8
:101290007B68DB78012B0BD13B681B787A6803F104
:1012A00014034FEA8303D3185B683A6812695A61E2
:1012B0003B68DB78012B0CD13B685B79002B04D0B9
:1012C0007B6943F000537B6103E07B6943F080530B
:1012D0007B617B6943F080637B617B6943F0004302
:1012E0007B613B681B787A6803F114034FEA830340
:1012F000D3185B687A691A60FB7F184607F12007EC
:10130000BD4680BD80B489B000AF786039604FF0D1
:101310000003FB774FF00003BB614FF000033B611C
:101320004FF00003BB603B685B78012B79D17B6891
:101330009B697B617B691B683B617B691B69BB6047
:101340003B685B69002B0AD13B7A6FF306033B7263
:10135000BB7A4FF0010262F3C403BB7224E03B6826
:101360005A693B689B689A420ED93B689A683B6809
:101370005A613B689B68DBB203F07F03DAB23B7AC9
:1013800062F306033B7209E03B685B69DBB203F082
:101390007F03DAB23B7A62F306033B72BB7A4FF00B
:1013A000010262F3C403BB72BA687B691A617B688D
:1013B000DB78012B0BD13B681B787A6803F10403BF
:1013C0004FEA8303D3189B683A6812695A613B69F4
:1013D00043F080633B613B6943F000433B613A6902
:1013E0007B691A607B68DB78002B40F087803B6864
:1013F0005B69002B00F082803B681B784FF0010294
:1014000002FA03F3BA6942EA0303BB617B681B6912
:101410007A681269526B1146BA6941EA02025A634C
:101420006CE03B681B787A6803F114034FEA83038E
:10143000D3185B681B683B613B681B787A6803F1D3
:1014400014034FEA8303D3185B681B69BB603B68D6
:101450005B69002B10D13B689B68DBB203F07F0314
:10146000DAB23B7A62F306033B72BB7A4FF00102B9
:1014700062F3C403BB7213E03B689A683B685A612D
:101480003B689B68DBB203F07F03DAB23B7A62F31E
:1014900006033B72BB7A4FF0010262F3C403BB72D6
:1014A0003B681B787A6803F114034FEA8303D3186F
:1014B0005B68BA681A617B68DB78012B0BD13B68EB
:1014C0001B787A6803F114034FEA8303D3185B682F
:1014D0003A6812695A613B6943F080633B613B693A
:1014E00043F000433B613B681B787A6803F11403C7
:1014F0004FEA8303D3185B683A691A60FB7F18468A
:1015000007F12407BD4680BC704700BF80B487B098
:1015100000AF786039604FF00003FB754FF00003B7
:10152000FB603B685B78012B1ED13B681B787A68B7
:1015300003F104034FEA8303D3189B683B613B69C3
:101540001B68FB60FB7B23F07F03DBB2002B03D027
:10155000FB6843F08043FB60FB6843F40013FB60CF
:10156000FA683B691A6013E03B681B787A6803F1FC
:1015700014034FEA8303D3185B683B613B691B6824
:10158000FB60FB6843F40013FB60FA683B691A6078
:10159000FB7D184607F11C07BD4680BC704700BFA5
:1015A00080B487B000AF786039604FF00003FB74FF
:1015B0004FF00003FB603B685B78012B0AD13B686E
:1015C0001B787A6803F104034FEA8303D3189B68FE
:1015D0007B6109E03B681B787A6803F114034FEAEA
:1015E0008303D3185B687B617B691B68FB60FB68C6
:1015F0006FF35553FB603B68DB78032B03D03B68EC
:10160000DB78022B03D1FB6843F08053FB60FA6860
:101610007B691A60FB7C184607F11C07BD4680BC3D
:10162000704700BF80B485B000AF78607B681B69ED
:101630009B69FB607B681B69DB69FA6802EA03034C
:10164000FB60FB684FEA1343184607F11407BD46D9
:1016500080BC704780B485B000AF78600B46FB70EB
:10166000FB787A6803F114034FEA8303D3185B68AD
:101670009B68FB607B681B695B69FA6802EA03038D
:10168000FB60FB68184607F11407BD4680BC704735
:1016900080B485B000AF78607B681B699B69FB6094
:1016A0007B681B69DB69FA6802EA0303FB60FB687D
:1016B0004FEA03434FEA1343184607F11407BD46A8
:1016C00080BC704780B487B000AF78604FF00003F3
:1016D0003B61FB7C43F0C003FB74BB7C4FF0010219
:1016E00062F3C403BB743B7C4FF0180262F3060341
:1016F0003B747B685B6D3A691A617B68DB78012B10
:1017000019D14FF00003FB607B685B6D7A6802F5CE
:10171000B9625A617B685B6D1B68FB60FB6843F0D4
:101720000043FB604FF40043C8F20003FB607B689A
:101730005B6DFA681A6007F11C07BD4680BC7047F4
:1017400080B485B000AF78607B689B7A002B1BD09B
:101750007B681B699B68FB603B7B03F00103DBB28A
:10176000002B11D07B6803F586731B68BB60BB68D8
:101770006FF34103BB60BB686FF30003BB607B6822
:10178000D3F80C31BA681A6007F11407BD4680BC63
:10179000704700BF80B500AF4FF080404FF00101AF
:1017A0000AF0FCFC40F21423C2F200031B6803F1B0
:1017B000010240F21423C2F200031A6040F218231F
:1017C000C2F200031B68002B0BD040F21823C2F2B8
:1017D00000031B6803F1FF3240F21823C2F200033A
:1017E0001A6080BD80B500AF40F21C23C2F2000336
:1017F0001B78002B09D100F00BF840F21C23C2F239
:1018000000034FF001021A7000E000BF80BD00BF6E
:1018100080B58AB000AF3B464FF08040194609F0D2
:10182000CFFA3B46184622A3D3E9002309F05AFB1E
:101830004FF0804009F008FC4FF00003BB844FF0EC
:101840000003FB8340F2E7333B624FF00003BB83AE
:101850004FF0000387F8263007F11C034FF080405B
:1018600019460AF0ABFB4FF080404FF001014FF0FA
:1018700001020AF06DFC4FF01C033B764FF00103B0
:10188000FB764FF00E037B764FF00003BB7607F13B
:101890001803184609F0AEFF4FF080404FF00101E9
:1018A0000AF036FC07F12807BD4680BDAFF3008083
:1018B0000000000080842E4180B400AFBD4680BC93
:1018C000704700BF80B400AFBD4680BC704700BF0A
:1018D00080B485B000AF786013460A467A803B80BA
:1018E0004FF00003FB7340F21803C2F200031B78B1
:1018F0007A889A4244D37A883B88D21840F21803F7
:10190000C2F200031B78194640F21A03C2F2000328
:101910001B78CB189A4233DC7A8840F22023C2F23B
:1019200000031B78D31ABB6026E040F20003C2F22A
:101930000003BA6833F812304FEA13239BB2DAB2CD
:101940007B681A707B6803F101037B6040F200033F
:10195000C2F20003BA6833F81230DAB27B681A7048
:101960007B6803F101037B60BB6803F10103BB608B
:101970003B8803F1FF333B803B88002BD5D102E04D
:101980004FF00103FB73FB7B184607F11407BD46BC
:1019900080BC704790B48CB000AFF86079813A8118
:1019A000FB714FF0000387F82F30FB687B6240F239
:1019B0001903C2F200031B787A899A4263D37A89A9
:1019C0003B89D21840F21903C2F200031B78194672
:1019D00040F21B03C2F200031B78CB189A4252DC80
:1019E0007A8940F22123C2F200031B78D31ABB622A
:1019F000FB79002B20D0012B41D048E040F21403AA
:101A0000C2F200031A68BB6A4FEA4303D3181B886B
:101A1000BA6A02F10102BA623B623B6A5CBAFC61DB
:101A2000FB699AB27B6A1A807B6A03F102037B62CC
:101A30003B8903F1FF333B813B89002BDED100BFA3
:101A400025E040F21403C2F200031A68BB6A4FEAB1
:101A50004303D3187A6A1288796A01F10201796224
:101A6000BA61BA6954BA7C617A6992B21A80BB6A67
:101A700003F10103BB623B8903F1FF333B813B89E7
:101A8000002BDED103E04FF0010387F82F3097F8E9
:101A90002F30184607F13007BD4690BC704700BF95
:101AA00080B485B000AFF86079813A81FB714FF066
:101AB0000103184607F11407BD4680BC704700BFFC
:101AC00080B483B000AF786013460A467A803B80CA
:101AD0004FF00103184607F10C07BD4680BC704764
:101AE00080B584B000AF3B600346FB710B46BB7111
:101AF00013467B714FF00003FB73BB79002B05D0BD
:101B0000BB79002B02D0BB79F72B03D94FF002032E
:101B1000FB7379E040F22423C2F20003BA791A7011
:101B2000FB79002B54D140F22C23C2F2000347F67C
:101B3000D112C0F600021A6040F23023C2F2000354
:101B400047F6FD12C0F600021A6040F22823C2F2E6
:101B5000000347F6B922C0F600021A6040F23423AF
:101B6000C2F2000347F61D22C0F600021A6040F2DE
:101B70003823C2F200034FF000021A6041F6F873F6
:101B8000C2F2000347F6DD32C0F600021A6041F6E9
:101B9000F073C2F2000347F6CD42C0F600021A60AD
:101BA00041F6F473C2F2000347F67152C0F6000228
:101BB0001A6040F22423C2F2000319787A793B7E3E
:101BC000084611463A6805F0C1FE0346FB7302E081
:101BD0004FF00203FB73FB7B002B15D100F0B2FC2E
:101BE0000346002B03D14FF00303FB730CE040F2DC
:101BF0002523C2F20003FA791A7040F21C03C2F2E4
:101C000000034FF001021A70FB7B184607F1100722
:101C1000BD4680BD80B582B000AF4FF00003FB71C0
:101C200040F21C03C2F200031B78012B0DD140F2DD
:101C30002C23C2F200031B68984740F21C03C2F237
:101C400000034FF000021A7002E04FF00603FB7130
:101C5000FB79184607F10807BD4680BD90B583B0F3
:101C600000AF4FF00003FB7040F21C03C2F2000310
:101C70001B78002B02D04FF0060308E107F10203A6
:101C8000184600F089FC0346012B40F0FE80BB782B
:101C9000032B00F2FA8001A252F823F08B1E0008F9
:101CA000AD1C00080F1D00088B1E000840F23423F5
:101CB000C2F200031B6840F23C20C2F2000040F276
:101CC0004021C2F2000140F24422C2F200029847D1
:101CD0000346FB70FB78002B40F0D28040F23C239F
:101CE000C2F200031A7840F22423C2F200031B78E8
:101CF0009A4207D040F23C23C2F200031B78002B2B
:101D000040F0C0804FF0020000F02CFCBDE040F23B
:101D10004023C2F200031B681A7840F24623C2F245
:101D200000031A7040F24723C2F200034FF0010291
:101D30001A704FF000037B6036E040F22003C2F2DD
:101D400000037A6813F83230002B31D040F22003C0
:101D5000C2F200037A6813F8322040F24623C2F23E
:101D600000031B789A421BD140F22002C2F200020B
:101D70007B684FEAC303D3185A6840F24023C2F28B
:101D800000031B68184640F24421C2F2000190474C
:101D900003461A4640F24723C2F200031A7008E0D5
:101DA0007B6803F101037B607B680F2BC5DD00E0DE
:101DB00000BF40F23C23C2F200031B78002B63D02B
:101DC00040F24723C2F200031B78002B3DD040F2C3
:101DD0004423C2F200034FF000021A8040F2402375
:101DE000C2F20003196840F24423C2F200031A88C9
:101DF0001346C91840F24623C2F200031B7863F071
:101E00007F03DBB20B7002F101039AB240F244236C
:101E1000C2F200031A8040F24023C2F200031968A4
:101E200040F24423C2F200031A881346C91840F254
:101E30004723C2F200031B780B7002F101039AB230
:101E400040F24423C2F200031A8040F22823C2F277
:101E500000031C6840F22423C2F20003197840F208
:101E60004023C2F200031A6840F24423C2F2000386
:101E70001B88084611461A46A0470346FB7004E03B
:101E800000BF02E000BF00E000BF4FF000031846B3
:101E900007F10C07BD4690BD80B500AF0448054969
:101EA000054A42F20403C2F2000300F007F880BDC5
:101EB0000000F042000040400000000080B58AB001
:101EC00004AFF860B9607A603B603B68344A5A609E
:101ED0003B68334A1A603B68FA689A603B68BA68A4
:101EE000DA603B687A681A613B689B6818462D493E
:101EF0000AF098FE03462C4819460BF04FF80346AB
:101F00001A463B685A613B68DB68184625490AF067
:101F100089FE0346254819460BF040F803461A4649
:101F20003B689A614FF002004FF0010102F0ACF8FB
:101F30004FF000033B754FF00003BB754FF00103FA
:101F4000FB754FF000037B754FF440733B6107F165
:101F500010034FF48060C4F20200194605F0CAF87D
:101F60004DF22453C0F600034FF0010200924FF0EF
:101F7000000201924FF0000202924FF00002039221
:101F800042F28910C0F6000019464FF080024FF06F
:101F9000000303F05DFE07F11807BD4680BD00BFDA
:101FA000000000000000803F000070420000F0418F
:101FB00090B58BB000AFF860B9607A60F868B96826
:101FC0000AF02EFE0346BB617B685B694FF001029D
:101FD00014461846B9690BF0CBF80346002B02D122
:101FE0004FF000031C46E3B2002B02D0614B7B6232
:101FF00028E07B685B6983F000434FF001021446E0
:102000001846B9690BF0D2F80346002B02D14FF005
:1020100000031C46E3B2002B02D0574B7B6211E059
:102020007B689B681846B9690AF004FF03461846A6
:102030000BF0C6F803469BB21BB218460AF0A6FE88
:1020400003467B627B685B681846B9690AF0EAFD63
:1020500003467B617B689B694FF00102144618467A
:1020600079690BF085F80346002B02D14FF000038D
:102070001C46E3B2002B06D0404B3B627B689A695A
:102080007B685A6029E07B689B6983F000434FF0CE
:1020900001021446184679690BF088F80346002BB4
:1020A00002D14FF000031C46E3B2002B08D0344BA2
:1020B0003B627B689B6983F000427B685A600CE05E
:1020C0007B687A695A607B68DA687B685B6810466F
:1020D00019460AF0AFFE03463B627B681C697B68C9
:1020E0001B681846B9680AF09BFD0346204619464E
:1020F0000AF0A0FE03463B617B68BA681A60786A02
:10210000396A0AF08FFD0346184639690AF08AFDDC
:102110000346FB614FF001031C46F86915490BF0BB
:1021200045F80346002B02D14FF000031C46E3B2F2
:10213000002B02D00F4BFB6111E04FF001031C4656
:10214000F86910490BF014F80346002B02D14FF048
:1021500000031C46E3B2002B01D00A4BFB61F86977
:102160000BF02EF803469BB21BB2184607F12C0762
:10217000BD4690BD00007042000070C20000F041FA
:102180000000F0C10000000080B582B000AF7860B0
:1021900000E000BF42F60833C2F200031B68184695
:1021A0004FF000014FF0FF324FF0000307F070F9DD
:1021B0000346012BEDD14FF48060C4F202004FF4CE
:1021C000007105F061F80346002B5AD140F2482314
:1021D000C2F200031B68002B3CD040F24823C2F23D
:1021E00000034FF000021A6042F20403C2F200033F
:1021F000514A5A6042F20403C2F200034E4A1A6086
:1022000042F20403C2F200039B6818464B490AF0ED
:1022100009FD03464A4819460AF0C0FE03461A461D
:1022200042F20403C2F200035A6142F20403C2F212
:102230000003DB68184641490AF0F4FC03464148B4
:1022400019460AF0ABFE03461A4642F20403C2F2F4
:1022500000039A6142F23803C2F200031B68184679
:1022600000F02AFE03463848194642F20402C2F240
:102270000002FFF79DFE0346DBB2184602F098FE0F
:1022800088E740F24823C2F200031B68012B3CD0D0
:1022900040F24823C2F200034FF001021A6042F2FA
:1022A0000403C2F20003244A5A6042F20403C2F259
:1022B0000003214A1A6042F20403C2F200039B6841
:1022C00018461E490AF0AEFC03461D4819460AF09E
:1022D00065FE03461A4642F20403C2F200035A6145
:1022E00042F20403C2F20003DB68184613490AF005
:1022F00099FC0346134819460AF050FE03461A4655
:1023000042F20403C2F200039A6142F23803C2F2BD
:1023100000031B68184600F0CFFD03460B48194622
:1023200042F20402C2F20002FFF742FE0346DBB2B1
:10233000184602F03DFE2DE7000000000000803F3F
:10234000000070420000F04100008C420000484252
:1023500080B586B004AF4FF0000300934FF000004B
:102360004FF00A014FF000024FF46143FFF7B8FB52
:102370000346FB714DF22853C0F600034FF00102F3
:1023800000924FF0000201924FF0000202924FF0D3
:102390000002039242F2B530C0F6000019464FF435
:1023A00080724FF0000303F053FC07F10807BD46AD
:1023B00080BD00BF80B582B000AF7860FFF72AFC17
:1023C000FFF74CFC4FF00A0003F03EFDF8E700BFBA
:1023D00080B586B000AF786039604FF00003BB7500
:1023E0003B681B88052B40F082807B6803F101036A
:1023F0001B784FEA0323BB827B6803F102031B783F
:102400001A46BB8A42EA0303BB82BB8A03F101037B
:10241000BB827B6803F103031B784FEA03237B82B3
:102420007B6803F104031B781A467B8A42EA0303A4
:102430007B827B8A002B56D07A8A40F2CF739A42F5
:1024400051D87B68FB603B684FF000021A80FB6844
:102450004FF002021A70FB6803F10103FB603B6856
:102460001B8803F101039AB23B681A807B8A03F050
:102470000703002B08D07B8A4FEAD3039BB2DBB261
:1024800003F10103FB7504E07B8A4FEAD3039BB29F
:10249000FB75FB68FA7D1A70FB6803F10103FB60B2
:1024A0003B681B8803F101039AB23B681A80BA8A21
:1024B0007B8AF86811461A46FFF702FB0346FB7257
:1024C000FB7A002B06D0FB7A184600F0B7FA0346D9
:1024D000BB750FE03B681A88FB7D9BB2D3189AB29C
:1024E0003B681A8006E04FF00303BB7502E04FF033
:1024F0000303BB75BB7D184607F11807BD4680BDB9
:1025000080B400AFBD4680BC704700BF80B483B0CC
:1025100000AF0346FB7107F10C07BD4680BC704756
:1025200080B400AFBD4680BC704700BF80B400AF30
:10253000BD4680BC704700BF80B400AFBD4680BCC4
:10254000704700BF80B400AF40F24D23C2F20003D9
:102550004FF000021A704FF001031846BD4680BCD0
:10256000704700BF80B483B000AF0346FB7140F2F8
:102570004D23C2F200034FF001021A7040F24C23C7
:10258000C2F20003FA791A704FF00103184607F1FE
:102590000C07BD4680BC704780B485B000AF786042
:1025A0004FF00003FB7340F24D23C2F200031B788F
:1025B000002B10D040F24C23C2F200031A787B6843
:1025C0001A7040F24D23C2F200034FF000021A705D
:1025D0004FF00103FB73FB7B184607F11407BD4660
:1025E00080BC704780B586B004AF4FF002004FF05A
:1025F000010101F049FD4FF004004FF0010101F02D
:1026000043FD4FF480633B604FF000037B714FF05C
:1026100001033B714FF00003BB714FF00003FB71EE
:102620003B464FF48060C4F20200194604F062FD9C
:102630004FF48060C4F202004FF480614FF000025A
:1026400004F042FE4DF23053C0F600034FF0010299
:10265000009242F22002C2F2000201924FF0000208
:1026600002924FF00002039242F28960C0F600002D
:1026700019464FF040024FF0000303F0E9FA07F16A
:102680000807BD4680BD00BF80B582B000AF78604E
:1026900042F22403C2F200031B78012B40F00881B0
:1026A00042F22403C2F200035B78072B00F2FC80A5
:1026B00001A252F823F000BFD92600081327000812
:1026C0004D27000887270008C1270008FB270008BE
:1026D000352800086F2800084FF48060C4F202001B
:1026E0004FF480614FF0010204F0EEFD4FF4FA70F8
:1026F00003F0AAFB4FF48060C4F202004FF4806143
:102700004FF0000204F0E0FD4FF4FA7003F09CFB80
:10271000CEE04FF48060C4F202004FF480614FF0CD
:10272000010204F0D1FD4FF0640003F08DFB4FF483
:102730008060C4F202004FF480614FF0000204F0A8
:10274000C3FD4FF0C80003F07FFBB1E04FF48060A1
:10275000C4F202004FF480614FF0010204F0B4FDB6
:102760004FF0640003F070FB4FF48060C4F202008D
:102770004FF480614FF0000204F0A6FD4FF0C80056
:1027800003F062FB94E04FF48060C4F202004FF467
:1027900080614FF0010204F097FD4FF0640003F0F8
:1027A00053FB4FF48060C4F202004FF480614FF09D
:1027B000000204F089FD4FF0C80003F045FB77E00C
:1027C0004FF48060C4F202004FF480614FF00102C8
:1027D00004F07AFD4FF0640003F036FB4FF48060A4
:1027E000C4F202004FF480614FF0000204F06CFD6F
:1027F0004FF0C80003F028FB5AE04FF48060C4F2A9
:1028000002004FF480614FF0010204F05DFD4FF0D3
:10281000640003F019FB4FF48060C4F202004FF42F
:1028200080614FF0000204F04FFD4FF0C80003F04C
:102830000BFB3DE04FF48060C4F202004FF4806176
:102840004FF0010204F040FD4FF0640003F0FCFA89
:102850004FF48060C4F202004FF480614FF0000238
:1028600004F032FD4FF0C80003F0EEFA20E04FF420
:102870008060C4F202004FF480614FF0010204F066
:1028800023FD4FF0640003F0DFFA4FF48060C4F2E0
:1028900002004FF480614FF0000204F015FD4FF08C
:1028A000C80003F0D1FA03E04FF4FA7003F0CCFA59
:1028B00042F61433C2F200039B6803F1010242F6B0
:1028C0001433C2F200039A60E2E600BF80B582B022
:1028D00000AF02460B46FA71BB71BB7903F00103EE
:1028E000DBB2002B1DD042F22403C2F200031B789E
:1028F000002B0ED142F22003C2F200031B681846DF
:1029000003F060FB42F22403C2F200034FF0010225
:102910001A7042F61433C2F200034FF000021A7329
:1029200026E042F22403C2F200031B78012B0ED1F1
:1029300042F22003C2F200031B68184603F0B2FA09
:1029400042F22403C2F200034FF000021A7042F672
:102950001433C2F200034FF001021A734FF4806087
:10296000C4F202004FF480614FF0000204F0ACFCAE
:10297000FB7903F00703DAB242F22403C2F2000348
:102980005A7007F10807BD4680BD00BF80B582B010
:1029900000AF786039607B6803F1010240F2702378
:1029A000C2F200031B88104640F25021C2F200011F
:1029B0001A460AF077FC40F27023C2F200031B882B
:1029C00003F101039AB23B681A804FF000031846E6
:1029D00007F10807BD4680BD80B485B000AF7860C0
:1029E0004FF00003FB604FF4E043C4F200031B68A8
:1029F000FB60FB6823F0E003FB60FA687B6842EA57
:102A00000303FB604FF4E043C4F20003FA681A606A
:102A100007F11407BD4680BC704700BF80B483B087
:102A200000AF0346FB714FF01003C4F20E23FA7996
:102A30001A6007F10C07BD4680BC704780B485B0B2
:102A400000AF0346FB71FB79012B07D0072B09D0A0
:102A5000002B0BD14FF00003FB730BE04FF0020390
:102A6000FB7307E04FF00603FB7303E04FF0040332
:102A7000FB7300BFFB7B184607F11407BD4680BC03
:102A8000704700BF80B582B000AF4DF6C003C0F6FE
:102A900000037B6040F20003C2F200033B600BE0E6
:102AA0007B681A683B681A603B6803F104033B606B
:102AB0007B6803F104037B603A6840F21023C2F2A2
:102AC00000039A42ECD3074807494FF000028842BE
:102AD000B8BF40F8042BFADB00F06AFE07F10807E4
:102AE000BD4680BD100200206836002080B400AFD3
:102AF000FEE700BF80B584B004AF00F021F84DF2CE
:102B00003853C0F600034FF0010200924FF000026C
:102B100001924FF0000202924FF00002039242F63F
:102B20002550C0F6000019464FF080024FF0000318
:102B300003F08EF84FF000031846BD4680BD00BF7D
:102B400080B588B000AF4FF002004FF0010101F0F6
:102B50009BFA4FF480404FF0010101F0F1FA4FF47D
:102B60002043BB614FF002037B774FF002033B77BA
:102B70004FF00003BB774FF00003FB7707F118031A
:102B80004FF48060C4F20200194604F0B3FA4FF427
:102B90008043BB614FF002037B774FF002033B772A
:102BA0004FF00003BB774FF00003FB7707F11803EA
:102BB0004FF48060C4F20200194604F09BFA4FF40F
:102BC0008053BB614FF001033B774FF00003BB77AD
:102BD0004FF00003FB774FF002037B7707F11803F8
:102BE0004FF48060C4F20200194604F083FA4FF4F7
:102BF0008060C4F202004FF00D014FF0050204F0B6
:102C00007BFB4FF48060C4F202004FF00F014FF0E5
:102C1000050204F071FB4FF48060C4F202004FF033
:102C20000E014FF0050204F067FB4FF00003BB807C
:102C30004FF48273FB804FF000033B814FF00003A1
:102C40007B814FF00103BB814FF40073FB814FF098
:102C500028033B824FF000037B8207F104034FF40B
:102C60006050C4F20000194608F0BAFA4FF4605000
:102C7000C4F200004FF0000108F01EFB4FF460505A
:102C8000C4F200004FF0010108F0F6FA4FF480633F
:102C9000C4F202034FF48062C4F20202128B92B2B9
:102CA00042F4805292B21A8307F12007BD4680BDDC
:102CB00080B483B000AF0346FB7100BF4FF4605394
:102CC000C4F200031B899BB203F00203002BF5D072
:102CD0004FF46053C4F20003FA7992B29A8100BFB4
:102CE0004FF46053C4F200031B899BB203F001034D
:102CF000002BF5D04FF46053C4F200039B899BB2C4
:102D0000DBB2184607F10C07BD4680BC704700BF18
:102D100080B500AF4FF0FF00FFF7CAFF034618462B
:102D200080BD00BF80B582B000AF786042F238034A
:102D3000C2F200034FF0000283F824204FF48063B6
:102D4000C4F202034FF48062C4F20202528B92B2C8
:102D500042F4805292B25A834FF00600FFF7A8FF68
:102D60004FF00A0003F070F84FF04000FFF7A0FFAB
:102D70004FF00600FFF79CFF4FF00A0003F064F8E5
:102D80004FF04800FFF794FF4FF05600FFF790FF19
:102D90004FF00A0003F058F84FF04C00FFF788FF9F
:102DA0004FF06200FFF784FF4FF00A0003F04CF889
:102DB0004FF00800FFF77CFF00BF4FF48060C4F2C3
:102DC00002004FF4804104F05FFA0346012BF4D077
:102DD000FFF79EFF03461A4642F23403C2F2000395
:102DE0001A6042F23403C2F200031B684FEA032266
:102DF00042F23403C2F200031A60FFF789FF034670
:102E00001A4642F23403C2F200031B681A4342F22C
:102E10003403C2F200031A6042F23403C2F2000328
:102E20001B684FEA032242F23403C2F200031A6025
:102E3000FFF76EFF03461A4642F23403C2F2000364
:102E40001B681A4342F23403C2F200031A6042F2D2
:102E50003403C2F200031A684FF6FF73C0F27F0317
:102E60009A420ED942F23403C2F200031B6803F106
:102E70007F4202F1010242F22803C2F200031A600B
:102E80000AE042F23403C2F200031B681A4642F21F
:102E90002803C2F200031A6042F22803C2F20003C0
:102EA0001A6842F23803C2F200031A604FF064005D
:102EB00002F0CAFF7CE700BFB0B586B000AF786013
:102EC000244B7B6142F66253C0F233033B614FF007
:102ED0001803C0F25A03FB607A683B69D31A18469C
:102EE00009F054FF0346184609F038FB02460B462A
:102EF000104619464FF000024FF0804303F5D2030D
:102F000009F080FB02460B4614461D46FA683B69F1
:102F1000D31A184609F010FB02460B4620462946F4
:102F200009F09AFC02460B46104619464FF0000283
:102F30004FF0000309F0B4F902460B46104619465B
:102F400009F01AFE03467B617B69184607F11807F2
:102F5000BD46B0BD0000000080B584B000AF786011
:102F600039604FF00003FB733B681B88052B2BD1A6
:102F70007B6803F101031B784FEA0323BB817B6865
:102F800003F102031B781A46BB8942EA0303BB81A3
:102F9000BB8903F10103BB817B6803F10302BB8999
:102FA000104619464FF001024FF00103FEF7F2FC04
:102FB0000346FB72FB7A002B09D0FB7A1846FFF719
:102FC0003DFD0346FB7302E04FF00303FB73FB7B05
:102FD000184607F11007BD4680BD00BF80B584B01C
:102FE00000AF786039604FF00003FB733B681B88CB
:102FF000052B57D97B6803F101031B784FEA0323A4
:10300000BB817B6803F102031B781A46BB8942EA45
:103010000303BB81BB8903F10103BB817B6803F11F
:1030200003031B784FEA03237B817B6803F10403CE
:103030001B781A467B8942EA03037B817B6803F194
:1030400005031B787B727B89002B27D07B89782B2B
:1030500024D87B89DBB24FEA4303DBB27A7A9A4207
:103060001CD17B6803F10601BA897B8908461146A9
:103070001A464FF00103FEF78DFC03463B723B7A84
:10308000002B06D03B7A1846FFF7D8FC0346FB73AB
:103090000BE03B684FF005021A8006E04FF0030397
:1030A000FB7302E04FF00303FB73FB7B184607F151
:1030B0001007BD4680BD00BF80B586B000AF786008
:1030C00039604FF00003FB753B681B88052B70D1FE
:1030D0007B6803F101031B784FEA0323BB827B6803
:1030E00003F102031B781A46BB8A42EA0303BB8240
:1030F000BB8A03F10103BB827B6803F103031B78E6
:103100004FEA03237B827B6803F104031B787B82F5
:103110007B8A002B49D07B8A7D2B46D87B68FB605D
:103120003B684FF000021A80FB684FF003021A70F0
:10313000FB6803F10103FB603B681B8803F101039B
:103140009AB23B681A807B8ADBB24FEA4303DAB259
:10315000FB681A70FB6803F10103FB603B681B8886
:1031600003F101039AB23B681A80BA8A7B8AF86835
:1031700011461A464FF00003FEF70CFC0346FB72A3
:10318000FB7A002B06D0FB7A1846FFF757FC034664
:10319000FB7511E03B681A887B8A4FEA43039BB2B8
:1031A000D3189AB23B681A8006E04FF00303FB7510
:1031B00002E04FF00303FB75FB7D184607F118078B
:1031C000BD4680BD80B586B000AF786039604FF0F5
:1031D0000003FB753B681B88092B40F2BC807B68B1
:1031E00003F101031B784FEA0323BB827B6803F1E1
:1031F00002031B781A46BB8A42EA0303BB82BB8ADE
:1032000003F10103BB827B6803F103031B784FEAE0
:1032100003237B827B6803F104031B781A467B8AB5
:1032200042EA03037B827B6803F105031B784FEAC4
:1032300003233B827B6803F106031B781A463B8A13
:1032400042EA03033B823B8A03F101033B827B6832
:1032500003F107031B784FEA0323FB817B6803F12B
:1032600008031B781A46FB8942EA0303FB817B684B
:1032700003F109031B787B737B8A002B68D07B8A60
:103280007D2B65D8FB89002B62D0FB89792B5FD819
:10329000FB894FEA43027B7B9A4259D17B6803F159
:1032A0000A013A8AFB89084611461A464FF0010383
:1032B000FEF770FB0346BB75BB7D002B3ED17B68E0
:1032C000BB603B684FF000021A80BB684FF01702EA
:1032D0001A70BB6803F10103BB603B681B8803F1F4
:1032E00001039AB23B681A807B8ADBB24FEA430340
:1032F000DAB2BB681A70BB6803F10103BB603B68BC
:103300001B8803F101039AB23B681A80BA8A7B8A50
:10331000B86811461A464FF00003FEF73BFB034620
:10332000BB75BB7D002B09D13B681A887B8A4FEAAD
:1033300043039BB2D3189AB23B681A80BB7D002B23
:1033400009D0BB7D1846FFF779FB0346FB7502E009
:103350004FF00303FB75FB7D184607F11807BD46C8
:1033600080BD00BF80B584B000AFF8607A603B607C
:103370000B46FB72F86805F0A3F8F86800F01EF839
:10338000FB683A68C3F8E025FB68BA69C3F8E4252E
:10339000FB687A68C3F8E825FB7AF868194608F0F4
:1033A0009DFAFB68D3F8E4351B689847F86805F088
:1033B00007F907F11007BD4680BD00BF80B483B098
:1033C00000AF78604FF00003184607F10C07BD46C8
:1033D00080BC704780B584B000AF786007F1080307
:1033E0007868194605F0AAFD3B7A03F01F03012B0C
:1033F0000AD0022B0FD0002B14D107F108037868F4
:10340000194605F063F916E007F1080378681946D4
:1034100005F0AEF90FE007F108037868194605F0EA
:10342000DFF908E03B7A23F07F03DBB278681946C6
:1034300008F006FC00BF4FF00003184607F1100724
:10344000BD4680BD80B584B000AF78600B46FB7090
:10345000FB78002B45D17B6803F55C73FB607B68D0
:1034600093F81131032B4FD1FB68DA69FB689B6835
:103470009A4221D9FB68DA69FB689B68D21AFB681B
:10348000DA617B68DB78012B06D1FB68DA68FB68C0
:103490009B68D218FB68DA60FB68DA68FB68996899
:1034A000FB68DB69994238BF0B469BB278681146CE
:1034B0001A4608F02FFD27E07B68D3F8E0351B693A
:1034C000002B0AD07B6893F81231032B05D17B685F
:1034D000D3F8E0351B6978689847786808F032FDC2
:1034E00012E07B68D3F8E0359B69002B0CD07B6839
:1034F00093F81231032B07D17B68D3F8E0359B6931
:10350000FA787868114698474FF00003184607F19B
:103510001007BD4680BD00BF80B584B000AF7860A5
:103520000B46FB70FB78002B63D17B6803F58C7333
:10353000FB607B6893F81131022B6ED1FB68DA696E
:10354000FB689B689A421CD9FB68DA69FB689B6838
:10355000D21AFB68DA617B68DB78012B06D1FB6845
:10356000DA68FB689B68D218FB68DA60FB68DA6887
:10357000FB68DB699BB2786811461A4608F08EFC3E
:103580004CE0FB681B6AFA689268B3FBF2F102FB3D
:1035900001F29B1A002B17D1FB681A6AFB689B6823
:1035A0009A4211D3FB681A6AFB685B6A9A420BD293
:1035B00078684FF000014FF0000208F06FFCFB68E4
:1035C0004FF000025A6229E07B68D3F8E035DB68EF
:1035D000002B0AD07B6893F81231032B05D17B684E
:1035E000D3F8E035DB6878689847786808F0C8FC5D
:1035F00014E07B68D3F8E0355B69002B0ED07B6864
:1036000093F81231032B09D17B68D3F8E0355B695D
:10361000FA7878681146984700E000BF4FF0000341
:10362000184607F11007BD4680BD00BF80B582B0C7
:1036300000AF786078684FF000014FF040024FF023
:10364000000308F0E1F978684FF080014FF0400284
:103650004FF0000308F0D8F97B684FF0010283F8BF
:1036600012217B68D3F8E4355B687A68927810465B
:1036700098474FF00003184607F10807BD4680BD84
:1036800080B582B000AF78607B68D3F8E4351B6901
:1036900098477B684FF0030283F812214FF0000334
:1036A000184607F10807BD4680BD00BF80B582B04F
:1036B00000AF78607B684FF0040283F812217B68CA
:1036C000D3F8E435DB6898474FF00003184607F15C
:1036D0000807BD4680BD00BF80B582B000AF7860EE
:1036E0007B68D3F8E035DB69002B05D07B68D3F825
:1036F000E035DB69786898474FF00003184607F11A
:103700000807BD4680BD00BF80B582B000AF7860BD
:103710000B46FB707B68D3F8E0351B68FA78786855
:10372000114698477B68D3F8E4359B6898474FF07B
:103730000003184607F10807BD4680BD80B582B07A
:1037400000AF78600B46FB707B68D3F8E0355B68B0
:10375000FA787868114698474FF00003184607F149
:103760000807BD4680BD00BF80B582B000AF78605D
:103770007B68D3F8E0351B6A786898474FF0000300
:10378000184607F10807BD4680BD00BF80B582B06E
:1037900000AF78607B68D3F8E0355B6A786898475B
:1037A0004FF00003184607F10807BD4680BD00BF73
:1037B00080B582B002AF04F00BFBFEF713FF08F0F8
:1037C00019FD01F03BFB01F0C5FCFFF793F904F094
:1037D000F1FBFEF761FB00F07DF8FEF703FF03F05D
:1037E00065FB40F2A003C2F20003009342F26000C6
:1037F000C2F200004FF0010140F23012C2F20002AA
:1038000040F2E413C2F20003FFF7ACFDFEF7A0FDA7
:1038100002F036FCFEE700BF80B400AFFEE700BF59
:1038200080B483B000AF78603960FEE780B582B0C5
:1038300000AF08F001FB03467B607B6807F10807D7
:10384000BD4680BD80B485B000AF78600B467B80FC
:103850004FF0FF03FB734FF0FF03BB731DE07B686A
:103860001A78BB7B82EA0303DBB2BB607B6803F19F
:1038700001037B604DF24853C0F60003BA689B1801
:103880001A78FB7B82EA0303BB734DF24863C0F6F0
:103890000003BA689B181B78FB737B88002B0CBF56
:1038A00000230123DBB27A8802F1FF327A80002BF9
:1038B000D5D1FB7B4FEA03239AB2BB7B9BB242EA92
:1038C00003039BB29BB2184607F11407BD4680BCA8
:1038D000704700BF80B586B004AF4FF00003FB71A6
:1038E0004FF00003BB714FF00003FB7168E0FA7901
:1038F00042F25063C2F200034FF0A80101FB02F252
:103900009B1803F1A0034FF002021A71FA7942F2F8
:103910005063C2F200034FF0A80101FB02F29B18B2
:1039200003F188034FF000029A80FA7942F2506363
:10393000C2F200034FF0A80101FB02F29B1803F151
:103940008803344A1A60FA7942F25063C2F20003E3
:103950004FF0A80101FB02F29B1803F188034FF01E
:103960000002DA80F979FB7903F10103DAB242F25D
:103970005063C2F200034FF0A80000FB01F15B1896
:103980001A704FF00003BB7113E0F979BB7942F272
:103990005062C2F200024FF02A0000FB01F1CB1886
:1039A0004FEA8303D3181C4A5A60BB7903F1010321
:1039B000BB71BB791F2BE8D9FB7903F10103FB71C4
:1039C000FB79062B93D942F25063C2F200034FF009
:1039D000000283F8B4244DF24873C0F600034FF0A0
:1039E000010200924FF0000201924FF00002029299
:1039F0004FF00002039243F61D20C0F60000194666
:103A00004FF080024FF0000302F022F907F108079F
:103A1000BD4680BD000000000000484380B584B072
:103A200000AF78604FF00003FB7300E000BF42F688
:103A3000B443C2F200031B6818464FF000014FF078
:103A4000FF324FF0000305F023FD0346012BEDD1BB
:103A50004FF00003FB7310E0FB7B4FF0A80202FB6A
:103A600003F242F25063C2F20003D318184600F08A
:103A70009FF9FB7B03F10103FB73FB7B062BEBD967
:103A8000D5E700BF90B589B000AF78600B46FB70FA
:103A90004FF00003FB774FF00003BB774FF00003BC
:103AA0007B774FF000033B774FF00003FB7624E079
:103AB000FB7E7A684FF0A80101FB03F3D31803F1F2
:103AC000A0031B79012B14D1FA7F7968FB7E4FF09C
:103AD000A80000FB03F3C9187B6802F5937243F852
:103AE0002210FB7F03F10103FB77BB7F03F101038E
:103AF000BB77FB7E03F10103FB76FA7EFB789A42EB
:103B0000D6D3BB7F002B47D0FB7F03F1FF33FB767F
:103B10003FE04FF00003BB7633E0BA7E7B6802F5EE
:103B2000937253F822301A78BB7E03F101017B684F
:103B300001F5937153F821301B789A421DD9BA7E52
:103B40007B6802F5937253F822307B61BA7EBB7EAC
:103B500003F101017B6801F5937153F821107B6833
:103B600002F5937243F82210BB7E03F101027969DA
:103B70007B6802F5937243F82210BB7E03F10103C8
:103B8000BB76BA7EFB7E9A42C7D3FB7E03F1FF333E
:103B9000FB76FB7E002BBCD14FF00003FB7624E0CC
:103BA000FB7E7A684FF0A80101FB03F3D31803F101
:103BB000A0031B79002B14D1FA7F7968FB7E4FF0AC
:103BC000A80000FB03F3C9187B6802F5937243F861
:103BD0002210FB7F03F10103FB777B7F03F10103DD
:103BE0007B77FB7E03F10103FB76FA7EFB789A423A
:103BF000D6D37B7F002B5BD0FB7F03F1FF33FB76BB
:103C000050E0FA7F7B7FD31ABB7643E0BA7E7B68B5
:103C100002F5937253F82230D3F88820BB7E03F16B
:103C200001017B6801F5937153F82130D3F8883096
:103C30004FF001010C461046194609F0B7FA034649
:103C4000002B02D14FF000031C46E3B2002B1DD025
:103C5000BA7E7B6802F5937253F822303B61BA7EDC
:103C6000BB7E03F101017B6801F5937153F82110CC
:103C70007B6802F5937243F82210BB7E03F10102C8
:103C800039697B6802F5937243F82210BB7E03F119
:103C90000103BB76BA7EFB7E9A42B7D3FB7E03F16B
:103CA000FF33FB76FA7EF97F7B7FCB1A9A42A8DC42
:103CB0004FF00003FB7624E0FB7E7A684FF0A8010A
:103CC00001FB03F3D31803F1A0031B79022B14D1DA
:103CD000FA7F7968FB7E4FF0A80000FB03F3C91858
:103CE0007B6802F5937243F82210FB7F03F1010316
:103CF000FB773B7F03F101033B77FB7E03F101037D
:103D0000FB76FA7EFB789A42D6D33B7F002B4BD0D2
:103D1000FB7F03F1FF33FB7640E0FA7F3B7FD31A52
:103D2000BB7633E0BA7E7B6802F5937253F822309B
:103D30001A78BB7E03F101017B6801F5937153F89A
:103D400021301B789A421DD9BA7E7B6802F59372A6
:103D500053F82230FB60BA7EBB7E03F101017B6821
:103D600001F5937153F821107B6802F5937243F8C3
:103D70002210BB7E03F10102F9687B6802F59372A1
:103D800043F82210BB7E03F10103BB76BA7EFB7EB3
:103D90009A42C7D3FB7E03F1FF33FB76FA7EF97FAD
:103DA0003B7FCB1A9A42B8DC07F12407BD4690BD91
:103DB00090B585B000AF78607B6893F8A430012B94
:103DC00066D0022B02D0002B43D068E07B6893F8CA
:103DD00084307A684FEA8303D3185A687B6893F873
:103DE0008430A3F10A0303F01F0379684FEA8303C9
:103DF000CB185B681046194608F012FF0346FB60BB
:103E00004FF001031C46F868274909F0CFF9034633
:103E1000002B02D14FF000031C46E3B2002B39D037
:103E20007B68D3F888304FF00102144618461F49CA
:103E300009F0BCF90346002B02D14FF000031C46E9
:103E4000E3B2002B28D07B684FF0000283F8A42057
:103E500025E07B68D3F888304FF0010214461846FD
:103E6000134909F0A3F90346002B02D14FF00003D8
:103E70001C46E3B2002B11D07B684FF0010283F89F
:103E8000A4204FF000004FF00101FEF71FFD06E0F7
:103E900000BF04E000BF02E000BF00E000BF184622
:103EA00007F11407BD4690BD0000204100004842C4
:103EB0000000904280B489B000AF78604FF00003FA
:103EC000BB614FF000037B614FF00003FB614FF0DB
:103ED00002033B614FF00003FB604FF00203BB6045
:103EE0004FF46053C4F202039B6803F00C03BB6100
:103EF000BB69042B0AD0082B0FD0002B64D17A6841
:103F00004FF41053C0F2F403136064E07A6847F68C
:103F10004003C0F27D1313605DE04FF46053C4F2C0
:103F200002035B6803F480034FEA9353FB604FF492
:103F30006053C4F202035B6803F03F03BB60FB689D
:103F4000002B16D047F64003C0F27D13BA68B3FBCE
:103F5000F2F24FF46053C4F202035B68194647F66D
:103F6000C07301EA03034FEA931303FB02F3FB61FF
:103F700015E04FF41053C0F2F403BA68B3FBF2F249
:103F80004FF46053C4F202035B68194647F6C073EE
:103F900001EA03034FEA931303FB02F3FB614FF4BF
:103FA0006053C4F202035B6803F440334FEA1343E7
:103FB00003F101034FEA43033B61FA693B69B2FB3A
:103FC000F3F27B681A6006E07A684FF41053C0F28F
:103FD000F403136000BF4FF46053C4F202039B6804
:103FE00003F0F003BB61BB694FEA1313BB6140F2FE
:103FF000EC03C2F20003BA699B181B78DBB27B6149
:104000007B681A687B6922FA03F27B685A604FF476
:104010006053C4F202039B6803F4E053BB61BB69C5
:104020004FEA9323BB6140F2EC03C2F20003BA698A
:104030009B181B78DBB27B617B685A687B6922FA2C
:1040400003F27B689A604FF46053C4F202039B68EA
:1040500003F46043BB61BB694FEA5333BB6140F279
:10406000EC03C2F20003BA699B181B78DBB27B61D8
:104070007B685A687B6922FA03F27B68DA6007F191
:104080002407BD4680BC704780B483B000AF786021
:104090000B46FB70FB78002B0ED04FF46053C4F23C
:1040A00002034FF46052C4F20202126B11467A68A6
:1040B00041EA02021A630FE04FF46053C4F20203B4
:1040C0004FF46052C4F20202126B11467A686FEA32
:1040D000020201EA02021A6307F10C07BD4680BC26
:1040E000704700BF80B483B000AF78600B46FB70B0
:1040F000FB78002B0ED04FF46053C4F202034FF450
:104100006052C4F20202526B11467A6841EA02021E
:104110005A630FE04FF46053C4F202034FF460524D
:10412000C4F20202526B11467A686FEA020201EA97
:1041300002025A6307F10C07BD4680BC704700BFFE
:1041400080B483B000AF78600B46FB70FB78002B27
:104150000ED04FF46053C4F202034FF46052C4F225
:104160000202126C11467A6841EA02021A640FE0F8
:104170004FF46053C4F202034FF46052C4F20202DF
:10418000126C11467A686FEA020201EA02021A64AE
:1041900007F10C07BD4680BC704700BF80B483B0F8
:1041A00000AF78600B46FB70FB78002B0ED04FF40D
:1041B0006053C4F202034FF46052C4F20202526C24
:1041C00011467A6841EA02025A640FE04FF46053E4
:1041D000C4F202034FF46052C4F20202526C114660
:1041E0007A686FEA020201EA02025A6407F10C07D8
:1041F000BD4680BC704700BF80B483B000AF78601C
:104200000B46FB70FB78002B0ED04FF46053C4F2CA
:1042100002034FF46052C4F20202126A11467A6835
:1042200041EA02021A620FE04FF46053C4F2020343
:104230004FF46052C4F20202126A11467A686FEAC1
:10424000020201EA02021A6207F10C07BD4680BCB5
:10425000704700BF80B483B000AF78600B46FB703E
:10426000FB78002B0ED04FF46053C4F202034FF4DE
:104270006052C4F20202526A11467A6841EA0202AE
:104280005A620FE04FF46053C4F202034FF46052DD
:10429000C4F20202526A11467A686FEA020201EA27
:1042A00002025A6207F10C07BD4680BC704700BF8E
:1042B00080B500AF4FF480704FF00101FFF7CAFFE7
:1042C0004FF480704FF00001FFF7C4FF80BD00BFC6
:1042D00080B485B000AF786039604FF00003FB60B8
:1042E0004FF00003FB727B685B68FB60FB6823F0A8
:1042F000407323F48073FB603B681B794FEA032211
:104300003B681B6842EA0303FA6842EA0303FB6066
:104310007B68FA685A607B689B68FB60FA684FF2BA
:10432000FD73CCF2FF0302EA0303FB603B681A69EA
:104330003B68DB681A433B689B681A433B685B79C0
:104340004FEA430342EA0303FA6842EA0303FB60CD
:104350007B68FA689A607B68DB6AFB60FB6823F421
:104360007003FB603B681B7D03F1FF33DAB2FB7A1D
:1043700042EA0303FB72FB7A4FEA0353FA6842EA0C
:104380000303FB607B68FA68DA6207F11407BD4635
:1043900080BC704780B483B000AF78607B684FF01A
:1043A00000021A607B684FF000021A717B684FF0C0
:1043B00000025A717B684FF000029A607B684FF0F0
:1043C0000002DA607B684FF000021A617B684FF0F0
:1043D00001021A7507F10C07BD4680BC704700BF8B
:1043E00080B485B000AF78604FF00003FB604FF4FD
:1043F0000C53C4F201035B68FB60FA6843F2E0030C
:10440000CFF6FC7302EA0303FB607B681A687B68E3
:104410005B681A437B689B681A437B68DB6842EAE7
:104420000303FA6842EA0303FB604FF40C53C4F23F
:104430000103FA685A6007F11407BD4680BC704753
:1044400080B483B000AF78607B684FF000021A60E0
:104450007B684FF000025A607B684FF000029A6060
:104460007B684FF00002DA6007F10C07BD4680BCA4
:10447000704700BF80B483B000AF78600B46FB701C
:10448000FB78002B06D07B689B6843F001027B68B9
:104490009A6005E07B689B6823F001027B689A6064
:1044A00007F10C07BD4680BC704700BF80B485B0E3
:1044B00000AF7860F970BA707B704FF00003FB605A
:1044C0004FF00003BB60FB78092B29D97B68DB68C0
:1044D000FB60FA7813464FEA43039B18A3F11E03CF
:1044E0004FF0070202FA03F3BB60BB686FEA0303F5
:1044F000FA6802EA0303FB607978FA7813464FEA18
:1045000043039B18A3F11E0301FA03F3BB60FA688F
:10451000BB6842EA0303FB607B68FA68DA6024E068
:104520007B681B69FB60FA7813464FEA43039B18CC
:104530004FF0070202FA03F3BB60BB686FEA0303A4
:10454000FA6802EA0303FB607978FA7813464FEAC7
:1045500043039B1801FA03F3BB60FA68BB6842EAA5
:104560000303FB607B68FA681A61BB78062B29D8C5
:104570007B685B6BFB60BB7803F1FF3213464FEA4D
:1045800083039B184FF01F0202FA03F3BB60BB6862
:104590006FEA0303FA6802EA0303FB60F978BB7869
:1045A00003F1FF3213464FEA83039B1801FA03F32A
:1045B000BB60FA68BB6842EA0303FB607B68FA6889
:1045C0005A6355E0BB780C2B29D87B681B6BFB60CA
:1045D000BA7813464FEA83039B18A3F123034FF0E5
:1045E0001F0202FA03F3BB60BB686FEA0303FA68B9
:1045F00002EA0303FB60F978BA7813464FEA8303B3
:104600009B18A3F1230301FA03F3BB60FA68BB68AC
:1046100042EA0303FB607B68FA681A6328E07B6860
:10462000DB6AFB60BA7813464FEA83039B18A3F159
:1046300041034FF01F0202FA03F3BB60BB686FEA4D
:104640000303FA6802EA0303FB60F978BA781346B9
:104650004FEA83039B18A3F1410301FA03F3BB6004
:10466000FA68BB6842EA0303FB607B68FA68DA62B7
:1046700007F11407BD4680BC704700BF80B485B009
:1046800000AF78600B46FB704FF00003FB737B6854
:104690001B681A46FB7802EA0303002B03D04FF095
:1046A0000103FB7302E04FF00003FB73FB7B184632
:1046B00007F11407BD4680BC704700BF80B586B0C7
:1046C00000AF786039604FF00003FB753B681B88D2
:1046D000052B72D17B6803F101031B784FEA03239A
:1046E000BB827B6803F102031B781A46BB8A42EA4D
:1046F0000303BB82BB8A03F10103BB827B6803F126
:1047000003031B784FEA03237B827B6803F10403D6
:104710001B781A467B8A42EA03037B827B8A002B42
:1047200047D07B8A7C2B44D87B68FB603B684FF08A
:1047300000021A80FB684FF004021A70FB6803F154
:104740000103FB603B681B8803F101039AB23B68DD
:104750001A807B8ADBB24FEA4303DAB2FB681A7035
:10476000FB6803F10103FB603B681B8803F1010355
:104770009AB23B681A80BA8A7B8AF86811461A4650
:10478000FDF7A6F80346FB72FB7A002B06D0FB7AF6
:104790001846FEF753F90346FB7511E03B681A888B
:1047A0007B8A4FEA43039BB2D3189AB23B681A80C4
:1047B00006E04FF00303FB7502E04FF00303FB75C7
:1047C000FB7D184607F11807BD4680BD80B483B055
:1047D00000AF78600B46FB707B68FA781A704FF078
:1047E0000103184607F10C07BD4680BC704700BFA7
:1047F00080B485B000AF786039604FF00003FB6093
:104800000FE03B681A787B681A707B6803F101033C
:104810007B603B6803F101033B60FB6803F101032C
:10482000FB603B681B78002BEBD1FB68184607F157
:104830001407BD4680BC704780B586B000AFF860F5
:104840007A603B600B46FB724FF000037B617B6834
:1048500003F1FF337B603B68092B25D93A684CF69E
:10486000CD43CCF6CC43A3FB02134FEAD303FA7A31
:10487000F86811467A68FFF7DFFF78617B69FA68AC
:10488000D318FB6013E0FB7AF8681946FFF79EFF28
:10489000FB6803F10103FB607B6903F101037B61AA
:1048A0007B6803F1FF337B607B68002BEBDC3968AE
:1048B0004CF6CD43CCF6CC43A3FB01234FEAD30205
:1048C00013464FEA83039B184FEA4303CA1AD3B235
:1048D00003F13003DBB2F8681946FFF777FF0346B0
:1048E0007A69D3187B617B69184607F11807BD46C2
:1048F00080BD00BF80B586B000AFF8607A603B60D5
:104900000B46FB724FF000037B613B68002B04DA1F
:104910003B68C3F100033B6101E03B683B617B689E
:1049200003F1FF337B603B69092B2AD93B68002BDD
:1049300012DA3A694CF6CD43CCF6CC43A3FB021312
:104940004FEAD303C3F10003FA7AF86811467A6894
:10495000FFF7D0FF78610FE03A694CF6CD43CCF613
:10496000CC43A3FB02134FEAD303FA7AF86811464B
:104970007A68FFF7BFFF78617B69FA68D318FB603C
:104980002BE03B68002B15DA7B6803F1FF337B607B
:1049900010E0FB7AF8681946FFF718FFFB6803F18F
:1049A0000103FB607B6903F101037B617B6803F119
:1049B000FF337B607B68002BEBDC3B68002B0CDA61
:1049C000F8684FF02D01FFF701FF03467A69D3180D
:1049D0007B61FB6803F10103FB6039694CF6CD4351
:1049E000CCF6CC43A3FB01234FEAD30213464FEA94
:1049F00083039B184FEA4303CA1AD3B203F130036F
:104A0000DBB2F8681946FFF7E1FE03467A69D3186E
:104A10007B617B69184607F11807BD4680BD00BF62
:104A200080B588B002AFF8607A600A46FA72FB700F
:104A30004FF000037B617B6803F1FF337B603B6ACF
:104A40004FEA1313002B24D03B6A4FEA1311FA7A72
:104A5000FB780091F86811467A68FFF7E1FF03469A
:104A60007A69D3187B617B69FA68D318FB6013E01D
:104A7000FB7AF8681946FFF7A9FEFB6803F101030A
:104A8000FB607B6903F101037B617B6803F1FF330A
:104A90007B607B68002BEBDC3B6A03F00F03092B88
:104AA0000CD83B6ADBB203F00F03DBB203F1300337
:104AB000DBB2F8681946FFF789FE1BE0FB78002B94
:104AC0000CD03B6ADBB203F00F03DBB203F1370318
:104AD000DBB2F8681946FFF779FE0BE03B6ADBB200
:104AE00003F00F03DBB203F15703DBB2F86819469A
:104AF000FFF76CFE7B6903F101037B617B6918465C
:104B000007F11807BD4680BD80B58AB002AFF860D6
:104B1000B9607A603B604FF00003BB614FF0000367
:104B20007B61FB68002B00F01C81FB684FF00002EA
:104B30001A7017E17B681B78252B10D07B681A78D8
:104B4000FB681A70FB6803F10103FB607B6803F1EB
:104B500001037B607B6903F101037B6102E17B68F8
:104B600003F101031B78252B10D1FB684FF02502C0
:104B70001A70FB6803F10103FB607B6803F1020319
:104B80007B607B6903F101037B61EBE04FF0200365
:104B9000FB774FF00003BB777B6803F101037B6079
:104BA0007B681B78302B1BD14FF03003FB777B6881
:104BB00003F101037B6014E0BB7F1A464FEA8202D7
:104BC000D3184FEA4303DAB27B681B78D318DBB201
:104BD000A3F13003BB777B6803F101037B6000E046
:104BE00000BF7B681B782F2B03D97B681B78392B80
:104BF000E2D9BA7F7B69D3181A46BB689A4205D9B5
:104C0000BB68DAB27B69DBB2D31ABB777B681B78EF
:104C1000A3F15803202B00F2948001A252F823F054
:104C2000F54C0008434D0008434D0008434D000873
:104C3000434D0008434D0008434D0008434D000814
:104C4000434D0008434D0008434D00082B4D00081C
:104C5000A54C0008434D0008434D0008434D000893
:104C6000434D0008A54C0008434D0008434D000883
:104C7000434D0008434D0008434D0008434D0008D4
:104C8000434D0008434D0008434D0008154D0008F2
:104C9000434D0008BD4C0008434D0008434D00083B
:104CA000D54C0008BA7F3B6803F1040139601B68EA
:104CB000F97FF868FFF71EFEB86145E0BA7F3B68F0
:104CC00003F1040139601B68F97FF868FFF7B4FD50
:104CD000B86139E0BA7F3B6803F1040139601968B3
:104CE000FB7F0091F86819464FF00003FFF798FE2C
:104CF000B86129E0BA7F3B6803F1040139601968A3
:104D0000FB7F0091F86819464FF00103FFF788FE1A
:104D1000B86119E03B6803F104023A601B68F86867
:104D20001946FFF765FDB8610EE03B6803F1040228
:104D30003A601B68DBB2F8681946FFF747FDB861B7
:104D400002E04FF0FF332CE07B6803F101037B604E
:104D5000BB69FA68D318FB607A69BB69D3187B61B9
:104D600000E000BF7B681B78002B04D07A69BB6829
:104D70009A42FFF4DFAE7A69BB689A4204D2FB68BC
:104D80004FF000021A700BE0FB6803F1FF33FB6089
:104D9000FB684FF000021A707B6903F1FF337B61FF
:104DA0007B69184607F12007BD4680BD80B584B0F9
:104DB00000AFF860B9607A60F8684FF06401BA68D3
:104DC0007B68FFF7A1FE0346184607F11007BD46B2
:104DD00080BD00BF0EB480B585B000AF786007F12C
:104DE0002003BB607868F969BA68FFF7DFFFF860F5
:104DF000FB68184607F11407BD46BDE8804003B0C4
:104E0000704700BF80B483B000AF0346FB714FF41E
:104E10006143CEF2000397F907204FEA5212F97965
:104E200001F01F014FF0010000FA01F143F82210D8
:104E300007F10C07BD4680BC704700BF80B586B047
:104E400000AF4FF002004FF00101FFF71DF94FF4E2
:104E500080404FF00101FFF7A1F94FF003033B61E0
:104E60004FF000033B754FF00103FB7507F1100392
:104E70004FF48060C4F20200194602F03BF94FF093
:104E800004033B614FF001033B754FF00203FB75D8
:104E900007F110034FF48060C4F20200194602F0DB
:104EA00029F94FF001004FF00001FBF76DF94FF0C9
:104EB0000103BB604FF000033B734FF008037B73AB
:104EC0004FF00103BB7307F10803184606F092FB8D
:104ED0004FF001004FF00101FBF756F94FF00203CC
:104EE000BB604FF000033B734FF008037B734FF040
:104EF0000103BB7307F10803184606F07BFB4FF470
:104F0000407006F063FC4FF006033B714FF00E0358
:104F10007B714FF00103BB714FF00103FB7107F18F
:104F20000403184606F066FC4FF007033B714FF090
:104F30000E037B714FF00103BB714FF00103FB7156
:104F400007F10403184606F055FC4FF00600FFF782
:104F500059FF4FF00700FFF755FF4FF001004FF0EA
:104F600000014FF0030204F039F9024642F608331B
:104F7000C2F200031A6042F60833C2F200031B6853
:104F8000002B0DD042F60833C2F200031B6818460E
:104F90004FF000014FF000024FF0000304F066F9FB
:104FA0004FF0050000F004F807F11807BD4680BD7A
:104FB00080B483B000AF0346FB71FB793C2B11D862
:104FC0004FF47053C4F201034FF47052C4F2010263
:104FD000126822F001021A6042F60C33C2F200039A
:104FE000FA791A714FF47053C4F201034FF47052FE
:104FF000C4F20102126842F001021A6007F10C07C4
:10500000BD4680BC704700BF80B500AF40F278233A
:10501000C2F200034FF000021A604FF0010006F0E8
:1050200095FB0346002B77D04FF0010006F0BEFB46
:1050300042F60C33C2F200031B8803F101039AB25B
:1050400042F60C33C2F200031A8042F60C33C2F26D
:1050500000031A7940F27423C2F200031B78DBB21A
:105060009A420ED94FF48063C4F202034FF4806277
:10507000C4F20202128B92B242F0040292B21A837C
:105080003CE04FF48063C4F202034FF48062C4F248
:105090000202528B92B242F0040292B25A8340F260
:1050A0007423C2F200031B78DBB23B2B26D940F2FB
:1050B0007423C2F200034FF000021A7042F6083364
:1050C000C2F200031B6818464FF0000140F278223C
:1050D000C2F200024FF0000304F074F940F27823AA
:1050E000C2F200031B68002B08D040F27823C2F202
:1050F00000031B68002B01D004F024FC40F2742351
:10510000C2F200031B78DBB203F10103DAB240F212
:105110007423C2F200031A7080BD00BF80B500AFD7
:105120004FF0020006F012FB0346002B10D04FF0A8
:10513000020006F03BFB42F60C33C2F200035B8830
:1051400003F101039AB242F60C33C2F200035A8013
:1051500080BD00BF80B584B004AF4FF014004FF0A5
:10516000040100F069FA4DF25C73C0F600034FF0E1
:10517000010200924FF0000201924FF000020292F1
:105180004FF00002039245F2A110C0F6000019464C
:105190004FF080024FF0000300F05AFDBD4680BD85
:1051A000B0B588B002AF78604FF4967000F04CFE56
:1051B00040F27C23C2F200031B889BB2022B0DD964
:1051C0004FF014004FF0040100F0BEFA40F27C23CF
:1051D000C2F200034FF000021A800DE040F27C237F
:1051E000C2F200031B889BB203F101039AB240F2A2
:1051F0007C23C2F200031A8042F25060C2F2000027
:105200004FF00701FEF73EFC4FF00003FB7542F242
:105210005063C2F2000393F8B434032B00F2DC8134
:1052200001A151F823F000BF39520008395300089A
:1052300081540008D75500084FF00003FB7577E054
:10524000FA7D42F25063C2F2000302F5937253F802
:105250002230D3F888303B614FF001031C46386997
:10526000E24907F085FF0346002B02D14FF000030F
:105270001C46E3B2002B01D0DC4B3B61FA7D42F2CD
:105280005063C2F2000302F5937253F822301B7888
:105290001D46386907F0BAFF03469BB21C463869C1
:1052A000D34907F0C7FD0346184607F0AFFF034692
:1052B0009AB24CF6CD43CCF6CC43A3FB02134FEA93
:1052C000D3010B464FEA83035B184FEA4303D31A1B
:1052D0009BB21A46F97D42F25063C2F2000301F517
:1052E000937153F8213093F8A4304FEA031140F240
:1052F000FC03C2F20003CB180092019340F280201D
:10530000C2F200004DF26C71C0F600012A4623463D
:10531000FFF760FDFB7D4FF00000194640F2802250
:10532000C2F2000200F0EEFBFB7D03F10103FB750E
:10533000FB7D032B84D958E14FF00403FB757AE021
:10534000FA7D42F25063C2F2000302F5937253F801
:105350002230D3F88830FB604FF001031C46F86818
:10536000A24907F005FF0346002B02D14FF00003CE
:105370001C46E3B2002B01D09C4BFB60FA7D42F24D
:105380005063C2F2000302F5937253F822301B7887
:105390001D46F86807F03AFF03469BB21C46F868C2
:1053A000934907F047FD0346184607F02FFF0346D1
:1053B0009AB24CF6CD43CCF6CC43A3FB02134FEA92
:1053C000D3010B464FEA83035B184FEA4303D31A1A
:1053D0009BB21A46F97D42F25063C2F2000301F516
:1053E000937153F8213093F8A4304FEA031140F23F
:1053F000FC03C2F20003CB180092019340F280201C
:10540000C2F200004DF26C71C0F600012A4623463C
:10541000FFF7E0FCFB7DA3F10403DBB24FF00000DB
:10542000194640F28022C2F2000200F06BFBFB7DC5
:1054300003F10103FB75FB7D062B81D94FF00303BC
:10544000FB7519E040F28020C2F200004DF280713D
:10545000C0F600014FF0150207F024FFFB7D4FF06E
:105460000000194640F28022C2F2000200F04AFB1E
:10547000FB7D03F10103FB75FB7D032BE2D9B4E057
:1054800042F23803C2F200031B681846FDF714FD10
:10549000B8604FF001031C46B868544907F07CFE21
:1054A0000346002B02D14FF000031C46E3B2002B51
:1054B0002BD0B86807F0AAFE03469BB21C46B8681A
:1054C0004B4907F0B7FC0346184607F09FFE03461A
:1054D0009AB24CF6CD43CCF6CC43A3FB02134FEA71
:1054E000D3010B464FEA83035B184FEA4303D31AF9
:1054F0009BB240F28020C2F200004DF29871C0F6DB
:1055000000012246FFF766FC30E0BB6883F00043F1
:10551000184607F07BFE03469BB21C46BB6883F02F
:1055200000431846324907F085FC0346184607F049
:105530006DFE03469AB24CF6CD43CCF6CC43A3FBAA
:1055400002134FEAD3010B464FEA83035B184FEA7D
:105550004303D31A9BB240F28020C2F200004DF206
:10556000B471C0F600012246FFF734FC4FF0000092
:105570004FF0000140F28022C2F2000200F0C2FAB5
:1055800040F28020C2F200004DF28071C0F60001AE
:105590004FF0150207F086FE4FF000004FF00101BA
:1055A00040F28022C2F2000200F0ACFA4FF000009C
:1055B0004FF0020140F28022C2F2000200F0A2FA93
:1055C0004FF000004FF0030140F28022C2F20002CF
:1055D00000F098FA09E008E042F25063C2F20003DA
:1055E0004FF0000283F8B424DEE5DDE500000000A2
:1055F0000000204180B485B000AF78604FF0804358
:105600005B6AFB6000BF00E000BF4FF080435B6A55
:105610001A46FB689A42F8D04FF080435B6AFB6001
:105620007B6803F1FF337B607B68002BECD107F1D3
:105630001407BD4680BC704780B582B000AF0246FB
:105640000B46FA71BB71FCF7CDF800F0FDF849F696
:105650004040FFF7CFFF42F62433C2F20003BA798D
:10566000DA7042F62433C2F20003FA791A7142F674
:105670002433C2F200034FF000025A7142F6243381
:10568000C2F200034FF000029A7142F62433C2F2D4
:1056900000034FF010025A70BB79012B0CD942F66F
:1056A0002433C2F200035B7843F00803DAB242F617
:1056B0002433C2F200035A704FF0030000F038F9AF
:1056C00041F29410FFF796FF4FF0030000F030F91D
:1056D0004FF09600FFF78EFF4FF0030000F028F91F
:1056E0004FF0FA00FFF786FF42F62433C2F20003C0
:1056F0005B7843F02003DBB2184600F0F1F842F685
:105700002433C2F200034FF004021A7000F084FA4E
:1057100000F0DAF842F62433C2F200034FF002023E
:105720009A7042F62433C2F200039B7843F00403DC
:10573000DBB2184600F0D4F84FF09600FFF75AFF9E
:1057400007F10807BD4680BD80B582B000AF0246B4
:105750000B46FA71BB7142F62433C2F20003BA79E8
:10576000DA7042F62433C2F20003FA791A7142F673
:105770002433C2F200034FF000025A7142F6243380
:10578000C2F200034FF000029A7142F62433C2F2D3
:1057900000034FF010025A70BB79012B0CD942F66E
:1057A0002433C2F200035B7843F00803DAB242F616
:1057B0002433C2F200035A704FF0030000F0B8F82F
:1057C00041F29410FFF716FF4FF0030000F0B0F81D
:1057D0004FF09600FFF70EFF4FF0030000F0A8F81F
:1057E0004FF0FA00FFF706FF42F62433C2F200033F
:1057F0005B7843F02003DBB2184600F071F842F604
:105800002433C2F200034FF004021A7000F004FACD
:1058100000F05AF842F62433C2F200034FF00202BD
:105820009A7042F62433C2F200039B7843F00403DB
:10583000DBB2184600F054F84FF09600FFF7DAFE9E
:1058400007F10807BD4680BD80B582B000AF4FF0BC
:105850000C004FF00101FEF717FC4FF001033B7104
:105860004FF00003BB714FF00103FB714FF00303D6
:105870007B7140F2FF333B603B464FF40060C4F263
:105880000200194601F036FC4FF40063C4F2020333
:1058900040F2FF325A834FF004033B603B464FF423
:1058A0004060C4F20200194601F024FC4FF440604D
:1058B000C4F202004FF004014FF0010201F004FDB8
:1058C00007F10807BD4680BD80B500AF4FF001006D
:1058D00000F006F84FF4FA60FFF78CFE80BD00BFC1
:1058E00080B582B000AF0346FB714FF40063C4F291
:1058F00002034FF001025A83FB79184600F070F85A
:1059000007F10807BD4680BD80B582B000AF0346F1
:10591000FB714FF40063C4F202034FF001021A83DB
:10592000FB79184600F05CF807F10807BD4680BD1A
:1059300080B584B000AF0346FB71FB79FB81FB8926
:105940004FEA83139BB203F47073FB814FF400633F
:10595000C4F202034FF40062C4F20202526911461B
:105960004FF63F4201EA02025A614FF40063C4F26B
:1059700002034FF40062C4F2020252691146FA892E
:1059800041EA02025A614FF01400FFF733FE4FF470
:105990000063C4F202034FF002021A834FF0320098
:1059A000FFF728FE4FF40063C4F202034FF0020237
:1059B0005A834FF03200FFF71DFE4FF40063C4F22C
:1059C00002034FF40062C4F20202526911464FF61C
:1059D0003F4201EA02025A6107F11007BD4680BD4D
:1059E00080B584B000AF0346FB71FB79FB81FB8976
:1059F0004FEA83039BB203F47F73FB814FF4006390
:105A0000C4F202034FF40062C4F20202526911466A
:105A10004FF6034201EA02025A614FF40063C4F2F6
:105A200002034FF40062C4F2020252691146FA897D
:105A300041EA02025A614FF01400FFF7DBFD4FF418
:105A40000063C4F202034FF002021A834FF03200E7
:105A5000FFF7D0FD4FF40063C4F202034FF00202DF
:105A60005A834FF03200FFF7C5FD4FF40063C4F2D4
:105A700002034FF40062C4F20202526911464FF66B
:105A8000034201EA02025A6107F11007BD4680BDD8
:105A900080B584B000AF02460B46FA71BB714DF27F
:105AA000D073C0F600031B68FB6042F62433C2F2D9
:105AB0000003DB78BA799A4202D34FF00003BB713E
:105AC00042F62433C2F20003FA795A7142F62433C3
:105AD000C2F20003BA799A71BB7907F11002D318A8
