:020000040800F2
:1000000058470020993800080139000801390008D4
:10001000013900080139000801390008000000001A
:1000200000000000000000000000000059BE0008B1
:1000300001390008000000005DBF000899BF0008FA
:100040000139000811E800080139000801390008E9
:100050000139000801390008D96B00082D6D00082E
:100060000139000801390008013900080139000888
:100070000139000801390008013900080139000878
:100080000139000801390008013900080139000868
:100090000139000801390008013900080139000858
:1000A0000139000801390008013900080139000848
:1000B0009517000801390008099B0008013900085C
:1000C0000139000801390008013900080139000828
:1000D0000139000801390008013900080139000818
:1000E000013900080139000811AC00080139000885
:1000F00001390008013900080139000801390008F8
:1001000001390008013900080139000801390008E7
:1001100001390008013900080139000801390008D7
:1001200001390008013900080139000801390008C7
:1001300001390008013900080139000801390008B7
:1001400001390008013900080139000855AC0008E0
:100150000139000801390008013900080139000897
:100160000139000801390008013900080139000887
:100170000139000801390008013900080139000877
:10018000013900080139000890B484B000AF02467C
:100190000B46FA71BB714FF00003FB60BB7903F0B3
:1001A00003034FEA83034FF00F0202FA03F3FB60ED
:1001B0004FF46053C4F20103BA794FEA9202D2B20B
:1001C00010464FF46052C4F20102B9794FEA91012E
:1001D000C9B201F1020152F821201146FA686FEA12
:1001E0000202114000F1020243F822104FF4605362
:1001F000C4F20103BA794FEA9202D2B210464FF428
:100200006052C4F20102B9794FEA9101C9B201F119
:10021000020152F821201146FC79BA7902F003025A
:100220004FEA820204FA02F2114300F1020243F89B
:10023000221007F11007BD4690BC704780B485B00E
:1002400000AF78604FF00003FB607B68DB684FF025
:10025000FF325A607B68DB684FF0FF325A61FB68FF
:1002600043F00043FB60FB6843F40063FB607B6882
:10027000DB68FA689A6107F11407BD4680BC7047D5
:1002800080B586B000AF78604FF00003FB744FF08C
:1002900000037B614FF00003FB604FF003000AF0A6
:1002A0007BFC7B68DB681B69FB607B6903F10103F6
:1002B0007B617A694FF45463C0F203039A4202D916
:1002C0004FF000032AE0FB6803F00043002BE4D06A
:1002D0004FF000037B61FB6843F00103FB607B6828
:1002E000DB68FA681A617B68DB681B69FB607B6905
:1002F00003F101037B617A694FF45463C0F2030395
:100300009A4205D8FB6803F00103002BEBD100E013
:1003100000BF4FF003000AF03FFCFB7C184607F1DA
:100320001807BD4680BD00BF80B489B000AFF8603B
:10033000B960FA71BB804FF00003FB76FB68DB7895
:10034000002B2DD14FF000037B614FF00003FB61C8
:10035000BB8803F1030303F10302002BB8BF13466C
:100360004FEAA3037B61FB79FA6803F132034FEA9A
:100370008303D3189B683B614FF00003FB610BE0E4
:10038000BB681A683B691A60FB6903F10103FB61F2
:10039000BB6803F10403BB60FA697B699A42EFD33F
:1003A000FB7E184607F12407BD4680BC704700BF9E
:1003B00080B489B000AFF860B9601346FB804FF09D
:1003C0000003FB61FB8803F1030303F10302002B2D
:1003D000B8BF13464FEAA303BB61FB68D3F8D03024
:1003E0007B614FF00003FB610BE0BB687A69126828
:1003F0001A60FB6903F10103FB61BB6803F10403AD
:10040000BB60FA69BB699A42EFD3BB68184607F133
:100410002407BD4680BC704780B487B000AF7860C9
:100420000B46FB704FF000033B614FF00003FB7382
:100430007B684FF00002DA707B684FF001029A701F
:100440007B684FF040029A80FB78012B17D14FF068
:10045000A0433B617B684FF00102DA727B684FF08A
:1004600008021A707B684FF004025A707B684FF4E0
:10047000A072DA807B684FF002021A7217E0FB78F4
:10048000002B14D14FF00003C4F204033B617B68DE
:100490004FF00002DA727B684FF00C021A707B6832
:1004A0004FF006025A707B684FF4A062DA803A6916
:1004B0007B68DA603B6903F500631A467B681A6162
:1004C0004FF000037B6123E07B694FEA43123B69F5
:1004D000D31803F510631A4679687B6903F10403A6
:1004E0004FEA8303CB189A607B694FEA43123B695A
:1004F000D31803F530631A4679687B6903F1140356
:100500004FEA8303CB185A607B6903F101037B61D7
:100510007B685B781A467B699A42D5D83B6903F5BC
:1005200080631A467B685A613B6903F588631A4603
:100530007B68C3F8CC204FF000037B6113E07B693C
:100540004FEA43123B69D31803F5A0631A46796852
:100550007B6903F122034FEA8303CB189A607B691E
:1005600003F101037B617B681B781A467B699A4221
:10057000E5D84FF000037B6113E07B694FEA03325B
:100580003B69D31803F580531A4679687B6903F1F8
:1005900032034FEA8303CB189A607B6903F10103AE
:1005A0007B617B681B781A467B699A42E5D83B6978
:1005B00003F560631A467B68C3F80C21FB7B184681
:1005C00007F11C07BD4680BC704700BF80B588B0EE
:1005D00000AF78604FF00003FB774FF00003BB6182
:1005E0004FF000037B614FF00003FB607B681B7AD8
:1005F000012B51D17B68DB689B6B7B617B696FF35F
:1006000010437B617B685B7A002B03D07B6943F4EA
:1006100080137B617B68DB687A699A634FF0000323
:10062000BB617B68DB68DB68BB61BB696FF386130A
:10063000BB61BB696FF39653BB61BB6943F01003A9
:10064000BB61BB696FF3C303BB61BB696FF3C713C6
:10065000BB61BB696FF35143BB61BB696FF3D343AC
:10066000BB617B68DB68BA69DA607868FFF708FE0F
:100670007B68DB78012B40F08980FB684FF0050236
:1006800062F34403FB60FB6843F02003FB607B687C
:10069000DB68FA689A6079E07B68DB68DB68BB61DD
:1006A000BB6943F04003BB617B68DB68BA69DA6011
:1006B0007868FFF7E5FD4FF000037B617B6943F449
:1006C00080337B617B681B7A032B03D17B6943F406
:1006D00000337B617B6943F480237B617B6943F456
:1006E00000237B617B6943F400137B617B685B7A49
:1006F000002B03D07B6943F480137B617B68DB684C
:100700007A699A634FF014000AF072FA7B68DB682A
:10071000DB68BB617B681B7A032B03D1BB6943F4A5
:100720008033BB617B68DB68BA69DA607B681B7AFF
:10073000032B2BD17B68DB681B6B3B613B694FF064
:10074000010262F39B633B613B696FF3D7533B61EB
:100750003B6943F080533B613B694FF02D0262F3EC
:1007600016433B617B68DB683A691A634FF0C80047
:100770000AF03EFA3B6943F400033B617B68DB68A7
:100780003A691A634FF0C8000AF032FA7B68DB78E6
:10079000012B11D17B68DB689B68FB60FB684FF025
:1007A000050262F34403FB60FB6843F02003FB6037
:1007B0007B68DB68FA689A60FB7F184607F12007C0
:1007C000BD4680BD80B485B000AF78604FF00003B7
:1007D000FB734FF00003BB60BB6843F00103BB60D9
:1007E0007B68DB687A68D26892681146BA6841EA29
:1007F00002029A60FB7B184607F11407BD4680BCD5
:10080000704700BF80B485B000AF78604FF0000340
:10081000FB734FF00003BB60BB6843F00103BB6098
:100820007B68DB687A68D26892681146BA686FEABA
:10083000020201EA02029A60FB7B184607F11407E4
:10084000BD4680BC704700BF80B586B000AF786001
:1008500039604FF00003FB744FF000037B614FF0F1
:100860000003FB60FB6843F02003FB603B68DBB2E6
:1008700003F01F03DAB2FB6862F38A13FB607B6844
:10088000DB68FA681A617B68DB681B69FB607B695F
:1008900003F101037B617A694FF45463C0F20303EF
:1008A0009A4205D8FB6803F02003002BEBD100E04F
:1008B00000BF4FF003000AF06FF9FB7C184607F108
:1008C0001807BD4680BD00BF80B586B000AF786018
:1008D0004FF00003FB744FF000037B614FF0000307
:1008E000FB60FB6843F01003FB607B68DB68FA6821
:1008F0001A617B68DB681B69FB607B6903F101039C
:100900007B617A694FF45463C0F203039A4205D8BD
:10091000FB6803F01003002BEBD100E000BF4FF0A9
:1009200003000AF039F9FB7C184607F11807BD46A9
:1009300080BD00BF80B584B000AF78600B46FB700F
:100940004FF00003FB737B68DB68DB68BB60BB6850
:100950006FF35D73BB60BB686FF39E73BB60FB7826
:10096000012B04D1BB6843F00053BB6006E0FB7869
:10097000002B03D1BB6843F08043BB607B68DB681E
:10098000BA68DA604FF032000AF032F9FB7B1846A1
:1009900007F11007BD4680BD80B483B000AF78601A
:1009A0007B68DB685B6903F00103184607F10C07FD
:1009B000BD4680BC704700BF80B582B000AF786094
:1009C0007868FFF7E9FF0346012B0CBF00230123E2
:1009D000DBB2184607F10807BD4680BD80B485B07C
:1009E00000AF78604FF00003FB607B68DB685B69F9
:1009F000FB607B68DB689B69FA6802EA0303FB60C3
:100A0000FB68184607F11407BD4680BC704700BF5D
:100A100080B485B000AF78600B46FB707B681B69C3
:100A20001B68FB60FB7803F00303DAB2FB6862F338
:100A30000103FB607B681B69FA681A6007F1140701
:100A4000BD4680BC704700BF80B58CB000AF7860F9
:100A50004FF0000387F82B304FF000037B624FF01C
:100A600000033B624FF00003FB614FF00003BB61EA
:100A70004FF000037B617B68D3F80C314FF000022C
:100A80001A607B681B691B683B623B6A6FF3CC236F
:100A90003B627B681B693A6A1A607B68DB7A012BD0
:100AA00040D178684FF00301FFF7B2FF7B68DB6845
:100AB0004FF080025A624FF02003FB834FF0800317
:100AC000BB837B68DB68FA699A62BA8BFB8BD318AD
:100AD0009BB23B834FF080037B837B68DB68BA6902
:100AE000C3F804213A8B7B8BD3189BB23B834FF026
:100AF00020037B837B68DB6803F5827303F10403C7
:100B0000BA691A603A8B7B8BD3189BB23B834FF048
:100B100000037B837B68DB6803F5827303F10803C2
:100B2000BA691A6078684FF01001FFF78DFE786897
:100B3000FFF7CAFE7B681B694FF000021A617B68F1
:100B40001B694FF000025A617B681B694FF0FF324E
:100B50009A617B681B694FF00002DA614FF0000375
:100B6000FB6243E07A68FB6A03F104034FEA830304
:100B7000D3189B681B687B6297F8273023F07F03AC
:100B8000DBB2002B0BD04FF000037B627B6A43F09B
:100B900080437B627B6A43F000637B6202E04FF03C
:100BA00000037B627A68FB6A03F104034FEA830364
:100BB000D3189B687A6A1A607A68FB6A03F10403A7
:100BC0004FEA8303D3189B684FF000021A617A68DA
:100BD000FB6A03F104034FEA8303D3189B684FF0C9
:100BE000FF029A60FB6A03F10103FB627B685B789A
:100BF0001A46FB6A9A42B5D84FF00003FB6242E006
:100C00007A68FB6A03F114034FEA8303D3185B6825
:100C10001B68FB60FB7B23F07F03DBB2002B0BD058
:100C20004FF00003FB60FB6843F08043FB60FB6810
:100C300043F00063FB6002E04FF00003FB607A6862
:100C4000FB6A03F114034FEA8303D3185B68FA6865
:100C50001A607A68FB6A03F114034FEA8303D3181E
:100C60005B684FF000021A617A68FB6A03F11403B3
:100C70004FEA8303D3185B684FF0FF029A60FB6A68
:100C800003F10103FB627B685B781A46FB6A9A42B8
:100C9000B6D84FF000037B617B6943F480737B61BE
:100CA0007B681B697A681269126911467A696FEA72
:100CB000020211407A6941EA02021A617B68DB781C
:100CC000012B1ED14FF000033B613B6943F0010350
:100CD0003B613B6943F002033B613B694FF04002DB
:100CE00062F38A033B613B6943F480333B613B69B8
:100CF0004FF0400262F359433B617B681B693A69DC
:100D00001A63786800F008F897F82B30184607F156
:100D10003007BD4680BD00BF80B584B000AF7860AD
:100D20004FF00003FB734FF00003BB607B68DB6890
:100D30004FF000029A617B68DB684FF0FF325A6126
:100D40007868FFF77BFA7B68DB78002B03D1BB6800
:100D500043F01003BB60BB6843F40063BB60BB6837
:100D600043F48053BB60BB6843F40053BB60BB6873
:100D700043F48023BB60BB6843F40023BB60BB68C3
:100D800043F00803BB60BB6843F48013BB60BB68DF
:100D900043F40013BB607B68DB687A68D2689269B1
:100DA0001146BA686FEA02021140BA6841EA0202CB
:100DB0009A61FB7B184607F11007BD4680BD00BF56
:100DC00080B485B000AF78604FF00003FB737B68A0
:100DD0001B699B68BB60BB68C3F34103DBB2022B9A
:100DE0000BD0032B05D0012B03D04FF00303FB7373
:100DF00007E04FF00203FB7303E04FF00103FB73C6
:100E000000BFFB7B184607F11407BD4680BC704746
:100E100080B487B000AF78604FF00003FB754FF0EF
:100E20000003BB607B681B699B683B617B689B69B7
:100E30001B68FB603B69C3F34103DBB2022B04D0A8
:100E4000FB686FF30A03FB6006E0FB684FF00302E8
:100E500062F30A03FB6000BF7B689B69FA681A6053
:100E6000BB6843F48073BB607B681B697A68126956
:100E700052681146BA686FEA02021140BA6841EA44
:100E800002025A60FB7D184607F11C07BD4680BC74
:100E9000704700BF80B487B000AF786039604FF012
:100EA0000003FB744FF00003FB604FF00003BB60D6
:100EB0003B685B78012B12D13B681B787A6803F1A1
:100EC00004034FEA8303D3189B687B613B681B785C
:100ED0004FF0010202FA03F39BB23B8111E03B6841
:100EE0001B787A6803F114034FEA8303D3185B6815
:100EF0007B613B681B784FF0010202FA03F39BB25F
:100F00007B817B691B68FB607B7B23F07F03DBB20B
:100F1000002B29D13B689B689BB24FEA43534FEAB1
:100F200053539AB2FB6862F30A03FB603B68DB78B9
:100F300003F00303DAB2FB6862F39343FB603B68A0
:100F4000DB88DBB203F00F03DAB2FB6862F399537C
:100F5000FB60FB6843F08053FB60FB6843F4004395
:100F6000FB60FA687B691A607B681B697A681269A2
:100F7000D2691146BA6841EA0202DA61FB7C18467E
:100F800007F11C07BD4680BC704700BF80B487B026
:100F900000AF786039604FF00003FB744FF000033E
:100FA000FB604FF00003BB603B685B78012B12D104
:100FB0003B681B787A6803F104034FEA8303D31874
:100FC0009B687B613B681B784FF0010202FA03F3D8
:100FD0009BB23B8111E03B681B787A6803F11403F4
:100FE0004FEA8303D3185B687B613B681B784FF043
:100FF000010202FA03F39BB27B81FB686FF3CF33EC
:10100000FB60FA687B691A607B681B697A68126901
:10101000D2691146BA686FEA020201EA0202DA6195
:10102000FB7C184607F11C07BD4680BC704700BF1B
:1010300080B588B000AF786039604FF00003FB776F
:101040004FF00003BB614FF000037B614FF00003E2
:101050003B613B685B78012B40F0BF803B681B78AD
:101060007A6803F104034FEA8303D3189B681B6873
:101070007B613B681B787A6803F104034FEA8303C2
:10108000D3189B681B693B613B685B69002B0AD1E5
:101090003B696FF312033B613B694FF0010262F35E
:1010A000DC433B6128E03B685B6923F07F4222F42C
:1010B00078023B6962F312033B613B685A693B6803
:1010C0009B68D31803F1FF323B689B68B2FBF3F3D4
:1010D0009BB24FEA83534FEA93539AB23B6962F350
:1010E000DC433B613B68DB78012B05D13B694FF06A
:1010F000010262F35E733B613B681B787A6803F11F
:1011000004034FEA8303D3189B683A691A617B682A
:10111000DB78012B0CD13B681B787A6803F1040360
:101120004FEA8303D3189B683A6812695A6118E042
:101130003B68DB78012B14D03B685B69002B10D037
:101140003B681B784FF0010202FA03F3BB617B6836
:101150001B697A681269526B1146BA6941EA020248
:101160005A633B68DB78012B14D17B681B699B6851
:10117000FB60FB68C3F30D239BB203F00103002B5C
:1011800004D17B6943F000537B6103E07B6943F04A
:1011900080537B617B6943F080637B617B6943F0B3
:1011A00000437B613B681B787A6803F104034FEAD4
:1011B0008303D3189B687A691A603B68DB78012B3C
:1011C00040F09A803B68D9683B681A783B685B6955
:1011D0009BB27868FFF7A8F88EE03B681B787A68C6
:1011E00003F114034FEA8303D3185B681B687B6128
:1011F0003B681B787A6803F114034FEA8303D31822
:101200005B681B693B613B685B69002B10D13B68E5
:101210009B6823F07F4222F478023B6962F3120359
:101220003B613B694FF0010262F3DC433B6124E028
:101230003B685A693B689B68D31803F1FF323B68EF
:101240009B68B2FBF3F39BB24FEA83534FEA93538D
:101250009AB23B6962F3DC433B613B69C3F3C94328
:101260009BB23A68926802FB03F323F07F4222F4B8
:1012700078023B6962F312033B613B681B787A6832
:1012800003F114034FEA8303D3185B683A691A61C8
:101290007B68DB78012B0BD13B681B787A6803F104
:1012A00014034FEA8303D3185B683A6812695A61E2
:1012B0003B68DB78012B0CD13B685B79002B04D0B9
:1012C0007B6943F000537B6103E07B6943F080530B
:1012D0007B617B6943F080637B617B6943F0004302
:1012E0007B613B681B787A6803F114034FEA830340
:1012F000D3185B687A691A60FB7F184607F12007EC
:10130000BD4680BD80B489B000AF786039604FF0D1
:101310000003FB774FF00003BB614FF000033B611C
:101320004FF00003BB603B685B78012B79D17B6891
:101330009B697B617B691B683B617B691B69BB6047
:101340003B685B69002B0AD13B7A6FF306033B7263
:10135000BB7A4FF0010262F3C403BB7224E03B6826
:101360005A693B689B689A420ED93B689A683B6809
:101370005A613B689B68DBB203F07F03DAB23B7AC9
:1013800062F306033B7209E03B685B69DBB203F082
:101390007F03DAB23B7A62F306033B72BB7A4FF00B
:1013A000010262F3C403BB72BA687B691A617B688D
:1013B000DB78012B0BD13B681B787A6803F10403BF
:1013C0004FEA8303D3189B683A6812695A613B69F4
:1013D00043F080633B613B6943F000433B613A6902
:1013E0007B691A607B68DB78002B40F087803B6864
:1013F0005B69002B00F082803B681B784FF0010294
:1014000002FA03F3BA6942EA0303BB617B681B6912
:101410007A681269526B1146BA6941EA02025A634C
:101420006CE03B681B787A6803F114034FEA83038E
:10143000D3185B681B683B613B681B787A6803F1D3
:1014400014034FEA8303D3185B681B69BB603B68D6
:101450005B69002B10D13B689B68DBB203F07F0314
:10146000DAB23B7A62F306033B72BB7A4FF00102B9
:1014700062F3C403BB7213E03B689A683B685A612D
:101480003B689B68DBB203F07F03DAB23B7A62F31E
:1014900006033B72BB7A4FF0010262F3C403BB72D6
:1014A0003B681B787A6803F114034FEA8303D3186F
:1014B0005B68BA681A617B68DB78012B0BD13B68EB
:1014C0001B787A6803F114034FEA8303D3185B682F
:1014D0003A6812695A613B6943F080633B613B693A
:1014E00043F000433B613B681B787A6803F11403C7
:1014F0004FEA8303D3185B683A691A60FB7F18468A
:1015000007F12407BD4680BC704700BF80B487B098
:1015100000AF786039604FF00003FB754FF00003B7
:10152000FB603B685B78012B1ED13B681B787A68B7
:1015300003F104034FEA8303D3189B683B613B69C3
:101540001B68FB60FB7B23F07F03DBB2002B03D027
:10155000FB6843F08043FB60FB6843F40013FB60CF
:10156000FA683B691A6013E03B681B787A6803F1FC
:1015700014034FEA8303D3185B683B613B691B6824
:10158000FB60FB6843F40013FB60FA683B691A6078
:10159000FB7D184607F11C07BD4680BC704700BFA5
:1015A00080B487B000AF786039604FF00003FB74FF
:1015B0004FF00003FB603B685B78012B0AD13B686E
:1015C0001B787A6803F104034FEA8303D3189B68FE
:1015D0007B6109E03B681B787A6803F114034FEAEA
:1015E0008303D3185B687B617B691B68FB60FB68C6
:1015F0006FF35553FB603B68DB78032B03D03B68EC
:10160000DB78022B03D1FB6843F08053FB60FA6860
:101610007B691A60FB7C184607F11C07BD4680BC3D
:10162000704700BF80B485B000AF78607B681B69ED
:101630009B69FB607B681B69DB69FA6802EA03034C
:10164000FB60FB684FEA1343184607F11407BD46D9
:1016500080BC704780B485B000AF78600B46FB70EB
:10166000FB787A6803F114034FEA8303D3185B68AD
:101670009B68FB607B681B695B69FA6802EA03038D
:10168000FB60FB68184607F11407BD4680BC704735
:1016900080B485B000AF78607B681B699B69FB6094
:1016A0007B681B69DB69FA6802EA0303FB60FB687D
:1016B0004FEA03434FEA1343184607F11407BD46A8
:1016C00080BC704780B487B000AF78604FF00003F3
:1016D0003B61FB7C43F0C003FB74BB7C4FF0010219
:1016E00062F3C403BB743B7C4FF0180262F3060341
:1016F0003B747B685B6D3A691A617B68DB78012B10
:1017000019D14FF00003FB607B685B6D7A6802F5CE
:10171000B9625A617B685B6D1B68FB60FB6843F0D4
:101720000043FB604FF40043C8F20003FB607B689A
:101730005B6DFA681A6007F11C07BD4680BC7047F4
:1017400080B485B000AF78607B689B7A002B1BD09B
:101750007B681B699B68FB603B7B03F00103DBB28A
:10176000002B11D07B6803F586731B68BB60BB68D8
:101770006FF34103BB60BB686FF30003BB607B6822
:10178000D3F80C31BA681A6007F11407BD4680BC63
:10179000704700BF80B500AF4FF080404FF00101AF
:1017A0000CF0CAFF40F20423C2F200031B6803F1ED
:1017B000010240F20423C2F200031A6040F208233F
:1017C000C2F200031B68002B0BD040F20823C2F2C8
:1017D00000031B6803F1FF3240F20823C2F200034A
:1017E0001A6080BD80B500AF40F20C23C2F2000346
:1017F0001B78002B09D100F00BF840F20C23C2F249
:1018000000034FF001021A7000E000BF80BD00BF6E
:1018100080B58AB000AF3B464FF0804019460BF0D0
:101820009DFD3B46184622A3D3E900230BF028FE7A
:101830004FF080400BF0D6FE4FF00003BB844FF01A
:101840000003FB8340F2E7333B624FF00003BB83AE
:101850004FF0000387F8263007F11C034FF080405B
:1018600019460CF079FE4FF080404FF001014FF027
:1018700001020CF03BFF4FF01C033B764FF00103DD
:10188000FB764FF00E037B764FF00003BB7607F13B
:10189000180318460CF07CFA4FF080404FF001011D
:1018A0000CF004FF07F12807BD4680BDAFF30080B0
:1018B0000000000080842E4180B400AFBD4680BC93
:1018C000704700BF80B400AFBD4680BC704700BF0A
:1018D00080B487B000AF786013460A467A803B80B8
:1018E0004FF00003FB754FF00003FB8140F206034D
:1018F000C2F200034FF011021A704FF00003FB8197
:1019000019E040F21023C2F20003FA894FEA820282
:101910009A18F98942F61873C2F200034FF0980042
:1019200000FB01F15B1803F188031B681360FB895E
:1019300003F10103FB81FB89062BE2D940F210235E
:10194000C2F2000303F11C0242F61873C2F2000354
:10195000D3F84434136042F61873C2F20003B3F8AC
:101960004C2440F21023C2F200031A8440F2040314
:10197000C2F200031B787A889A4246D37A883B8861
:10198000D21840F20403C2F200031B78194640F259
:101990000603C2F200031B78CB189A4235DC7A8822
:1019A00040F20803C2F200031B78D31A3B6128E01F
:1019B00040F21023C2F200033A6933F812309BB2AE
:1019C0004FEA13239BB2DAB27B681A707B6803F18B
:1019D00001037B6040F21023C2F200033A6933F83E
:1019E00012309BB2DAB27B681A707B6803F1010394
:1019F0007B603B6903F101033B613B8803F1FF33EB
:101A00003B803B88002BD3D102E04FF00103FB75F4
:101A1000FB7D184607F11C07BD4680BC704700BF20
:101A200090B593B000AFF86079813A81FB714FF0C7
:101A3000000387F84730FB68BB634FF00003FB8768
:101A400040F20503C2F200031B787A899A42C0F083
:101A500005867A893B89D21840F20503C2F2000359
:101A60001B78194640F20703C2F200031B78CB181B
:101A70009A4200F3F3857A8940F20903C2F2000327
:101A80001B78D31A3B6440F20703C2F200034FF005
:101A900020021A70FB79002B04D0012B00F0D885AE
:101AA00000F0E0BD4FF00003FB8719E040F20003B7
:101AB000C2F200031B681A46FB8F4FEA8303D1185A
:101AC000FB8F42F61872C2F2000203F58A734FEAE6
:101AD0008303D3185B680B60FB8F03F10103FB8763
:101AE000FB8F062BE2D940F20003C2F200031B6811
:101AF00003F11C0242F61873C2F20003D3F87034EB
:101B0000136040F20003C2F200031B6803F12002DD
:101B100042F61873C2F20003D3F87434136040F233
:101B20000003C2F200031B6803F1240242F618739B
:101B3000C2F20003D3F87834136040F20003C2F21B
:101B400000031B6803F1280242F61873C2F2000377
:101B5000D3F87C34136040F20003C2F200031B6828
:101B600003F12C0242F61873C2F20003D3F880345A
:101B7000136040F20003C2F200031B6803F130025D
:101B800042F61873C2F20003D3F88434136040F2B3
:101B90000003C2F200031B6803F1340242F618731B
:101BA000C2F20003D3F88834136040F20003C2F29B
:101BB00000031B6803F1380242F61873C2F20003F7
:101BC000D3F88C34136040F20003C2F200031B68A8
:101BD00003F13C0242F61873C2F20003B3F89034EA
:101BE000138040F20003C2F200031B6803F13E02BF
:101BF00042F61873C2F20003B3F8923413802CE05B
:101C000040F20003C2F200031A683B6C4FEA430340
:101C1000D3181B884FEA13239BB2DAB2FB681A7001
:101C2000FB6803F10103FB6040F20003C2F2000312
:101C30001A683B6C4FEA4303D3181B88DAB2FB687F
:101C40001A70FB6803F10103FB603B6C03F10103B5
:101C50003B643B8903F1FF333B813B89002BCFD1B0
:101C600000F0FBBC3B6C002BC0F283803B6C0D2B67
:101C70007FDCC74B7B6307F1340303F10103FA6890
:101C800012781A70FB6803F10103FB6007F134035B
:101C9000FA6812781A70FB6803F10103FB6007F120
:101CA000340303F10303FA6812781A70FB6803F136
:101CB0000103FB6007F1340303F10203FA681278B1
:101CC0001A70FB6803F10103FB607B6B4FF00102AC
:101CD00014461846AE490DF02DFD0346002B02D1E7
:101CE0004FF000031C46E3B2002B38D07B6B4FF063
:101CF000010214461846A7490DF012FD0346002BB9
:101D000002D14FF000031C46E3B2002B27D03B6CFE
:101D10004FEA6303796B42F61872C2F2000203F5D0
:101D20008A734FEA8303D318596042F61873C2F2DC
:101D30000003D3F894341A463B6C4FEA63034FEA2E
:101D40008303D2183B6C4FEA63034FEA83018D4B48
:101D5000CB18104619464FF0040201F0E5FD3B6C2C
:101D600003F102033B643B89A3F102033B8100F0D2
:101D70006FBC3B6CA3F10E03112B00F2408401A257
:101D800052F823F0CD1D0008FF250008A91E000809
:101D9000FF250008991F0008FF250008752000088E
:101DA000FF25000851210008FF2500084D220008EA
:101DB000FF25000829230008FF2500080524000846
:101DC000FF250008E124000889250008704B3B63CB
:101DD00007F1300303F10103FA6812781A70FB6807
:101DE00003F10103FB6007F13003FA6812781A70FF
:101DF000FB6803F10103FB6007F1300303F1030308
:101E0000FA6812781A70FB6803F10103FB6007F1AE
:101E1000300303F10203FA6812781A70FB6803F1C9
:101E20000103FB603B6C03F102033B643B89A3F1BC
:101E300002033B813B6B4FF00102144618465449A4
:101E40000DF078FC0346002B02D14FF000031C4636
:101E5000E3B2002B00F0D5833B6B4FF00102144638
:101E600018464C490DF05CFC0346002B02D14FF0A4
:101E700000031C46E3B2002B00F0C5833A6B42F628
:101E80001873C2F20003C3F8702442F61873C2F24A
:101E90000003D3F8943403F11C0318463A494FF079
:101EA000040201F041FDD3E3394BFB6207F12C033F
:101EB00003F10103FA6812781A70FB6803F1010359
:101EC000FB6007F12C03FA6812781A70FB6803F1C3
:101ED0000103FB6007F12C0303F10303FA68127896
:101EE0001A70FB6803F10103FB6007F12C0303F197
:101EF0000203FA6812781A70FB6803F10103FB60B1
:101F00003B6C03F102033B643B89A3F102033B8179
:101F1000FB6A4FF00102144618461D490DF00AFCF9
:101F20000346002B02D14FF000031C46E3B2002B06
:101F300000F06B83FB6A4FF0010214461846154906
:101F40000DF0EEFB0346002B02D14FF000031C46C0
:101F5000E3B2002B00F05B83FA6A42F61873C2F218
:101F60000003C3F8742442F61873C2F20003D3F8D6
:101F7000943403F12003184604494FF0040201F0A1
:101F8000D3FC65E36C330020883300208C330020C1
:101F90000000000000004843A74BBB6207F1280384
:101FA00003F10103FA6812781A70FB6803F1010368
:101FB000FB6007F12803FA6812781A70FB6803F1D6
:101FC0000103FB6007F1280303F10303FA681278A9
:101FD0001A70FB6803F10103FB6007F1280303F1AA
:101FE0000203FA6812781A70FB6803F10103FB60C0
:101FF0003B6C03F102033B643B89A3F102033B8189
:10200000BB6A4FF00102144618468B490DF092FB53
:102010000346002B02D14FF000031C46E3B2002B15
:1020200000F0F782BB6A4FF001021446184683495C
:102030000DF076FB0346002B02D14FF000031C4647
:10204000E3B2002B00F0E782BA6A42F61873C2F2DC
:102050000003C3F8782442F61873C2F20003D3F8E1
:10206000943403F12403184670494FF0040201F040
:102070005BFCEDE2704B7B6207F1240303F101038B
:10208000FA6812781A70FB6803F10103FB6007F12C
:102090002403FA6812781A70FB6803F10103FB60ED
:1020A00007F1240303F10303FA6812781A70FB683E
:1020B00003F10103FB6007F1240303F10203FA6853
:1020C00012781A70FB6803F10103FB603B6C03F1AB
:1020D00002033B643B89A3F102033B817B6A4FF01F
:1020E00001021446184656490DF024FB0346002B06
:1020F00002D14FF000031C46E3B2002B00F08D82AA
:102100007B6A4FF00102144618464E490DF008FB59
:102110000346002B02D14FF000031C46E3B2002B14
:1021200000F07D827A6A42F61873C2F20003C3F8A7
:102130007C2442F61873C2F20003D3F8943403F1FE
:10214000280318463A494FF0040201F0EDFB7FE204
:10215000394B3B6207F1200303F10103FA6812785F
:102160001A70FB6803F10103FB6007F12003FA68B2
:1021700012781A70FB6803F10103FB6007F120037A
:1021800003F10303FA6812781A70FB6803F1010384
:10219000FB6007F1200303F10203FA6812781A705A
:1021A000FB6803F10103FB603B6C03F102033B643A
:1021B0003B89A3F102033B813B6A4FF001021446C5
:1021C000184621490DF0B6FA0346002B02D14FF014
:1021D00000031C46E3B2002B00F023823B6A4FF061
:1021E00001021446184615490DF09AFA0346002BD1
:1021F00002D14FF000031C46E3B2002B00F0138223
:102200003A6A42F61873C2F20003C3F8802442F619
:102210001873C2F20003D3F8943403F12C03184668
:1022200004494FF0040201F07FFB11E290330020DB
:1022300094330020983300200000000000401C462A
:102240000000C8C20000C84200401CC6C84BFB6169
:1022500007F11C0303F10103FA6812781A70FB6896
:1022600003F10103FB6007F11C03FA6812781A708E
:10227000FB6803F10103FB6007F11C0303F1030397
:10228000FA6812781A70FB6803F10103FB6007F12A
:102290001C0303F10203FA6812781A70FB6803F159
:1022A0000103FB603B6C03F102033B643B89A3F138
:1022B00002033B81FB694FF0010214461846AC490A
:1022C0000DF038FA0346002B02D14FF000031C46F4
:1022D000E3B2002B00F0A981FB694FF00102144624
:1022E0001846A4490DF01CFA0346002B02D14FF00A
:1022F00000031C46E3B2002B00F09981FA6942F614
:102300001873C2F20003C3F8842442F61873C2F2B1
:102310000003D3F8943403F13003184690494FF08A
:10232000040201F001FB93E1914BBB6107F118033B
:1023300003F10103FA6812781A70FB6803F10103D4
:10234000FB6007F11803FA6812781A70FB6803F152
:102350000103FB6007F1180303F10303FA68127825
:102360001A70FB6803F10103FB6007F1180303F126
:102370000203FA6812781A70FB6803F10103FB602C
:102380003B6C03F102033B643B89A3F102033B81F5
:10239000BB694FF001021446184677490DF0CAF99F
:1023A0000346002B02D14FF000031C46E3B2002B82
:1023B00000F03F81BB694FF00102144618466F4997
:1023C0000DF0AEF90346002B02D14FF000031C467E
:1023D000E3B2002B00F02F81BA6942F61873C2F203
:1023E0000003C3F8882442F61873C2F20003D3F83E
:1023F000943403F1340318465A494FF0040201F0B3
:1024000093FA25E15A4B7B6107F1140303F10103B1
:10241000FA6812781A70FB6803F10103FB6007F198
:102420001403FA6812781A70FB6803F10103FB6069
:1024300007F1140303F10303FA6812781A70FB68BA
:1024400003F10103FB6007F1140303F10203FA68CF
:1024500012781A70FB6803F10103FB603B6C03F117
:1024600002033B643B89A3F102033B817B694FF08C
:1024700001021446184642490DF05CF90346002B50
:1024800002D14FF000031C46E3B2002B00F0D580D0
:102490007B694FF00102144618463A490DF040F9A5
:1024A0000346002B02D14FF000031C46E3B2002B81
:1024B00000F0C5807A6942F61873C2F20003C3F8CF
:1024C0008C2442F61873C2F20003D3F8943403F15B
:1024D0003803184624494FF0040201F025FAB7E00A
:1024E0004FF000037B8207F1120303F10103FA6846
:1024F00012781A70FB6803F10103FB6007F1120305
:10250000FA6812781A70FB6803F10103FB603B6CF8
:1025100003F101033B643B8903F1FF333B817B8A79
:10252000092B40F28E807A8A42F210739A4200F2AE
:102530008A807A8A42F61873C2F20003A3F89024C4
:1025400042F61873C2F20003D3F8943403F13C034B
:10255000184606494FF0020201F0E6F978E000BFA4
:102560009C330020A0330020A4330020A833002097
:102570000000000000002041000020420000C8428E
:10258000000020C1000080BF4FF000033B8207F134
:10259000100303F10103FA6812781A70FB6803F163
:1025A0000103FB6007F11003FA6812781A70FB68E8
:1025B00003F10103FB603B6C03F101033B643B89C6
:1025C00003F1FF333B813B8A042B3ED93B8A1E2B10
:1025D0003DD83A8A42F61873C2F20003A3F8922457
:1025E00042F61873C2F20003D3F8943403F13E03A9
:1025F000184620494FF0020201F096F928E000BF8A
:1026000026E000BF24E000BF22E000BF20E000BFC2
:102610001EE000BF1CE000BF1AE000BF18E000BFD2
:1026200016E000BF14E000BF12E000BF10E000BFE2
:102630000EE000BF0CE000BF0AE000BF08E000BFF2
:1026400006E000BF04E000BF02E000BF00E000BF02
:102650003B89002B7FF406AB00BF03E04FF0010382
:1026600087F8473097F84730184607F14C07BD46C2
:1026700090BD00BFAA33002080B485B000AFF860E1
:1026800079813A81FB714FF00103184607F1140775
:10269000BD4680BC704700BF80B483B000AF786097
:1026A00013460A467A803B804FF00103184607F133
:1026B0000C07BD4680BC704780B584B000AF3B605E
:1026C0000346FB710B46BB7113467B714FF0000351
:1026D000FB73BB79002B05D0BB79002B02D0BB79F3
:1026E000F72B03D94FF00203FB7379E040F210336C
:1026F000C2F20003BA791A70FB79002B54D140F270
:102700001833C2F2000349F6B972C0F600021A602B
:1027100040F21C33C2F2000349F6E572C0F6000233
:102720001A6040F21433C2F200034AF2A102C0F66A
:1027300000021A6040F22033C2F200034AF205029E
:10274000C0F600021A6040F22433C2F200034FF0D8
:1027500000021A6042F6E003C2F200034AF2C51218
:10276000C0F600021A6042F6D803C2F200034AF231
:10277000B522C0F600021A6042F6DC03C2F2000382
:102780004AF25932C0F600021A6040F21033C2F227
:10279000000319787A793B7E084611463A6807F0BB
:1027A000C9FB0346FB7302E04FF00203FB73FB7BA4
:1027B000002B15D100F0B0FD0346002B03D14FF0E4
:1027C0000303FB730CE040F21133C2F20003FA7909
:1027D0001A7040F20C03C2F200034FF001021A70AB
:1027E000FB7B184607F11007BD4680BD80B582B05F
:1027F00000AF4FF00003FB7140F20C03C2F2000384
:102800001B78012B0DD140F21833C2F200031B6874
:10281000984740F20C03C2F200034FF000021A7016
:1028200002E04FF00603FB71FB79184607F1080739
:10283000BD4680BD90B583B000AF4FF00003FB7084
:1028400040F20C03C2F200031B78002B02D04FF0C1
:10285000060308E107F10203184600F087FD03466E
:10286000012B40F0FE80BB78032B00F2FA8001A21E
:1028700052F823F0632A000885280008E72800089A
:10288000632A000840F22033C2F200031B6840F2C2
:102890002830C2F2000040F22C31C2F2000140F2B6
:1028A0003032C2F2000298470346FB70FB78002BDF
:1028B00040F0D28040F22833C2F200031A7840F28E
:1028C0001033C2F200031B789A4207D040F228333B
:1028D000C2F200031B78002B40F0C0804FF00200D2
:1028E00000F02AFDBDE040F22C33C2F200031B6869
:1028F0001A7840F23233C2F200031A7040F23333D6
:10290000C2F200034FF001021A704FF000037B6027
:1029100036E040F21003C2F200037A6813F8323056
:10292000002B31D040F21003C2F200037A6813F892
:10293000322040F23233C2F200031B789A421BD19C
:1029400040F21002C2F200027B684FEAC303D318C0
:102950005A6840F22C33C2F200031B68184640F25A
:102960003031C2F20001904703461A4640F2333339
:10297000C2F200031A7008E07B6803F101037B6078
:102980007B680F2BC5DD00E000BF40F22833C2F2A8
:1029900000031B78002B63D040F23333C2F20003F4
:1029A0001B78002B3DD040F23033C2F200034FF0D1
:1029B00000021A8040F22C33C2F20003196840F280
:1029C0003033C2F200031A881346C91840F232337A
:1029D000C2F200031B7863F07F03DBB20B7002F1DD
:1029E00001039AB240F23033C2F200031A8040F27F
:1029F0002C33C2F20003196840F23033C2F20003F4
:102A00001A881346C91840F23333C2F200031B7808
:102A10000B7002F101039AB240F23033C2F20003AC
:102A20001A8040F21433C2F200031C6840F21033E3
:102A3000C2F20003197840F22C33C2F200031A6884
:102A400040F23033C2F200031B88084611461A4692
:102A5000A0470346FB7004E000BF02E000BF00E0B7
:102A600000BF4FF00003184607F10C07BD4690BDAC
:102A700080B500AF42F61873C2F2000393F84F34EA
:102A8000002B1BD142F61873C2F20003D3F878145E
:102A900042F61873C2F20003D3F87C2442F618738E
:102AA000C2F20003D3F88034084611461A4642F6B3
:102AB000EC03C2F2000300F003F800E000BF80BDA9
:102AC00080B58AB004AFF860B9607A603B603B685B
:102AD000414A5A603B68404A1A603B68FA689A600B
:102AE0003B68BA68DA603B687A681A613B689B6841
:102AF000184639490CF000FE0346002B0AD13B680A
:102B00009B68364819460CF017FD03461A463B6889
:102B10005A6102E03B68304A5A613B68DB681846FC
:102B20002D490CF0E9FD0346002B0AD13B68DB6818
:102B30002B4819460CF000FD03461A463B689A6183
:102B400002E03B68244A9A614FF002004FF0010115
:102B500003F082F84FF000033B754FF00003BB75A4
:102B60004FF00103FB754FF000037B754FF440738A
:102B70003B6107F110034FF48060C4F20200194674
:102B800006F08AFD42F61873C2F200034FF000020D
:102B900083F850244FF6C023C0F600034FF0010223
:102BA000009242F60812C2F2000201924FF00002B7
:102BB00002924FF00002039242F6C160C0F600009C
:102BC00019464FF080024FF0000305F055FA07F167
:102BD0001807BD4680BD00BF00000000000048434C
:102BE0000000704190B58BB000AFF860B9607A60BA
:102BF000F868B9680CF0E2FA03467B617B689B6871
:102C00001846AA490CF078FD0346002B0AD17B68D0
:102C10009B68A74819460CF08FFC03461A467B6850
:102C20005A6102E07B68A14A5A617B685B694FF098
:102C300001021446184679690CF068FD0346002B22
:102C400002D14FF000031C46E3B2002B0AD07B6890
:102C50009A687B685B69104619460CF0B9FB03461D
:102C60007B6228E07B685B6983F000434FF00102E0
:102C70001446184679690CF067FD0346002B02D113
:102C80004FF000031C46E3B2002B0CD07B689A681F
:102C90007B685B6983F00043104619460CF098FB93
:102CA00003467B6207E07B689B68184679690CF0F5
:102CB0008FFB03467B627B68DB6818467B490CF020
:102CC0001BFD0346002B0AD17B68DB687948194657
:102CD0000CF032FC03461A467B689A6102E07B687E
:102CE000724A9A617B685B68184679690CF068FAE9
:102CF00003463B617B689B694FF00102144618460E
:102D000039690CF003FD0346002B02D14FF000039C
:102D10001C46E3B2002B0ED07B68DA687B689B69A7
:102D2000104619460CF054FB0346FB617B689A6918
:102D30007B685A6033E07B689B6983F000434FF007
:102D400001021446184639690CF0FEFC0346002BBC
:102D500002D14FF000031C46E3B2002B12D07B6877
:102D6000DA687B689B6983F00043104619460CF0D3
:102D70002FFB0346FB617B689B6983F000427B6805
:102D80005A600CE07B683A695A607B68DA687B6855
:102D90005B68104619460CF01BFB0346FB617B6821
:102DA0001C697B681B681846B9680CF007FA034673
:102DB000204619460CF00CFB03463B624FF0010322
:102DC0001C46386A3C490CF0BFFC0346002B02D17C
:102DD0004FF000031C46E3B2002B02D0364B3B629F
:102DE00011E04FF001031C46386A34490CF08EFCA8
:102DF0000346002B02D14FF000031C46E3B2002B28
:102E000001D02E4B3B627B68BA681A60786AF96918
:102E10000CF0D6F903461846396A0CF0D1F903468E
:102E2000BB6142F61873C2F200037A6AC3F85424F5
:102E300042F61873C2F20003FA69C3F8582442F646
:102E40001873C2F200033A6AC3F85C244FF001031E
:102E50001C46B86918490CF077FC0346002B02D1D8
:102E60004FF000031C46E3B2002B02D0124BBB61B3
:102E700011E04FF001031C46B8690C490CF046FC08
:102E80000346002B02D14FF000031C46E3B2002B97
:102E900001D0064BBB61B8690CF060FC03469BB2E5
:102EA0001BB2184607F12C07BD4690BD000000007C
:102EB00000004843000070410000C8420000C8C242
:102EC00080B582B000AF786043F2C033C2F2000335
:102ED0004FF0000283F84C2000E000BF43F2B4330F
:102EE000C2F200031B6818464FF000014FF0FF329A
:102EF0004FF0000308F09AFD0346012BEDD142F696
:102F00001873C2F20003D3F8782442F6EC03C2F23D
:102F100000039A6042F61873C2F20003D3F87C24CF
:102F200042F6EC03C2F20003DA6042F61873C2F212
:102F30000003D3F8802442F6EC03C2F200031A61C6
:102F40004FF48060C4F202004FF4007106F090FC70
:102F50000346002B5FD142F61873C2F2000393F8C8
:102F60005034002B3DD042F61873C2F200034FF0EC
:102F7000000283F8502442F6EC03C2F200035C4ADC
:102F80005A6042F6EC03C2F20003594A1A6042F654
:102F9000EC03C2F200039B68184656490CF010F986
:102FA0000346554819460CF0C7FA03461A4642F63E
:102FB000EC03C2F200035A6142F6EC03C2F20003D2
:102FC000DB6818464B490CF0FBF803464B481946A2
:102FD0000CF0B2FA03461A4642F6EC03C2F20003C2
:102FE0009A6142F61873C2F20003D3F8702442F6D5
:102FF0001873C2F20003D3F844341046194642F65F
:10300000EC02C2F20002FFF7EDFD0346DBB2184608
:1030100003F0C6FD5EE042F61873C2F2000393F8B7
:103020005034012B3DD042F61873C2F200034FF02A
:10303000010283F8502442F6EC03C2F200032C4A4A
:103040005A6042F6EC03C2F20003294A1A6042F6C3
:10305000EC03C2F200039B68184626490CF0B0F856
:103060000346254819460CF067FA03461A4642F60D
:10307000EC03C2F200035A6142F6EC03C2F2000311
:10308000DB6818461B490CF09BF803461B481946A1
:103090000CF052FA03461A4642F6EC03C2F2000361
:1030A0009A6142F61873C2F20003D3F8742442F610
:1030B0001873C2F20003D3F844341046194642F69E
:1030C000EC02C2F20002FFF78DFD0346DBB21846A8
:1030D00003F066FD43F2C033C2F200039B6C03F1C0
:1030E000010243F2C033C2F200039A64F6E600BF65
:1030F000000000000000803F0000484300007041D5
:1031000080B586B004AF4FF0000300934FF000008D
:103110004FF00A014FF000024FF46143FFF7CCFA81
:103120000346FB714FF6C423C0F600034FF00102C3
:1031300000924FF0000201924FF0000202924FF015
:103140000002039243F26510C0F6000019464FF4E6
:1031500080724FF0000304F08FFF07F10807BD46AF
:1031600080BD00BF80B582B000AF7860FFF73EFB46
:1031700043F2C033C2F200034FF000021A71FFF7AE
:1031800059FB4FF00A0005F0D3F843F2C033C2F206
:1031900000031B6803F1010243F2C033C2F20003D3
:1031A0001A60ECE780B586B000AF786039604FF008
:1031B0000003BB753B681B88052B40F082807B6851
:1031C00003F101031B784FEA0323BB827B6803F101
:1031D00002031B781A46BB8A42EA0303BB82BB8AFE
:1031E00003F10103BB827B6803F103031B784FEA01
:1031F00003237B827B6803F104031B781A467B8AD6
:1032000042EA03037B827B8A002B56D07A8A40F203
:10321000CF739A4251D87B68FB603B684FF0000245
:103220001A80FB684FF002021A70FB6803F1010379
:10323000FB603B681B8803F101039AB23B681A806C
:103240007B8A03F00703002B08D07B8A4FEAD30365
:103250009BB2DBB203F10103FB7504E07B8A4FEA0A
:10326000D3039BB2FB75FB68FA7D1A70FB6803F110
:103270000103FB603B681B8803F101039AB23B68C2
:103280001A80BA8A7B8AF86811461A46FFF704FA50
:103290000346FB72FB7A002B06D0FB7A184600F03F
:1032A000D7FA0346BB750FE03B681A88FB7D9BB2DB
:1032B000D3189AB23B681A8006E04FF00303BB753F
:1032C00002E04FF00303BB75BB7D184607F11807FA
:1032D000BD4680BD80B400AFBD4680BC704700BF16
:1032E00080B483B000AF0346FB7107F10C07BD4605
:1032F00080BC704780B400AFBD4680BC704700BF43
:1033000080B400AFBD4680BC704700BF80B400AF42
:10331000BD4680BC704700BF80B400AF40F235337B
:10332000C2F200034FF000021A704FF0010318467A
:10333000BD4680BC704700BF80B483B000AF034679
:10334000FB7140F23533C2F200034FF001021A70F4
:1033500040F23433C2F20003FA791A704FF00103DD
:10336000184607F10C07BD4680BC704780B485B095
:1033700000AF78604FF00003FB7340F23533C2F2C8
:1033800000031B78002B10D040F23433C2F200034C
:103390001A787B681A7040F23533C2F200034FF09E
:1033A00000021A704FF00103FB73FB7B184607F114
:1033B0001407BD4680BC704780B586B004AF4FF09F
:1033C00002004FF0010102F047FC4FF004004FF003
:1033D000010102F041FC4FF480633B604FF00003B9
:1033E0007B714FF001033B714FF00003BB714FF055
:1033F0000003FB713B464FF48060C4F202001946A3
:1034000006F04AF94FF48060C4F202004FF4806184
:103410004FF0000206F04CFA4FF6CC23C0F6000342
:103420004FF00102009242F60C12C2F20002019229
:103430004FF0000202924FF00002039243F25D400F
:10344000C0F6000019464FF040024FF0000304F0B0
:1034500013FE07F10807BD4680BD00BF80B582B0EE
:1034600000AF786042F61013C2F200031B78012B04
:1034700040F0088142F61013C2F200035B78072B7C
:1034800000F2FC8001A252F823F000BFAD34000826
:10349000E7340008213500085B3500089535000841
:1034A000CF35000809360008433600084FF4806025
:1034B000C4F202004FF480614FF0010206F0F8F907
:1034C0004FF4FA7004F034FF4FF48060C4F202004D
:1034D0004FF480614FF0000206F0EAF94FF4FA7001
:1034E00004F026FFCEE04FF48060C4F202004FF4F7
:1034F00080614FF0010206F0DBF94FF0640004F048
:1035000017FF4FF48060C4F202004FF480614FF067
:10351000000206F0CDF94FF0C80004F009FFB1E059
:103520004FF48060C4F202004FF480614FF001025A
:1035300006F0BEF94FF0640004F0FAFE4FF480602C
:10354000C4F202004FF480614FF0000206F0B0F9BF
:103550004FF0C80004F0ECFE94E04FF48060C4F239
:1035600002004FF480614FF0010206F0A1F94FF024
:10357000640004F0DDFE4FF48060C4F202004FF4FA
:1035800080614FF0000206F093F94FF0C80004F09C
:10359000CFFE77E04FF48060C4F202004FF4806108
:1035A0004FF0010206F084F94FF0640004F0C0FE11
:1035B0004FF48060C4F202004FF480614FF00002CB
:1035C00006F076F94FF0C80004F0B2FE5AE04FF46E
:1035D0008060C4F202004FF480614FF0010206F0F7
:1035E00067F94FF0640004F0A3FE4FF48060C4F26A
:1035F00002004FF480614FF0000206F059F94FF0DD
:10360000C80004F095FE3DE04FF48060C4F2020073
:103610004FF480614FF0010206F04AF94FF0640068
:1036200004F086FE4FF48060C4F202004FF4806123
:103630004FF0000206F03CF94FF0C80004F078FEAD
:1036400020E04FF48060C4F202004FF480614FF03C
:10365000010206F02DF94FF0640004F069FE4FF40A
:103660008060C4F202004FF480614FF0000206F067
:103670001FF94FF0C80004F05BFE03E04FF4FA704E
:1036800004F056FE43F2C033C2F200039B6803F11C
:10369000010243F2C033C2F200039A60E2E600BFC7
:1036A00080B582B000AF02460B46FA71BB71BB79A0
:1036B00003F00103DBB2002B1DD042F61013C2F25F
:1036C00000031B78002B0ED142F60C13C2F200034C
:1036D0001B68184604F0EAFE42F61013C2F200031B
:1036E0004FF001021A7043F2C033C2F200034FF0F0
:1036F00000021A7326E042F61013C2F200031B7890
:10370000012B0ED142F60C13C2F200031B681846BF
:1037100004F03CFE42F61013C2F200034FF0000228
:103720001A7043F2C033C2F200034FF001021A7361
:103730004FF48060C4F202004FF480614FF0000249
:1037400006F0B6F8FB7903F00703DAB242F610137D
:10375000C2F200035A7007F10807BD4680BD00BFE2
:1037600080B582B000AF786039607B6803F10102F8
:1037700040F25833C2F200031B88104640F2383141
:10378000C2F200011A460CF05BF840F25833C2F264
:1037900000031B8803F101039AB23B681A804FF0C3
:1037A0000003184607F10807BD4680BD80B483B00A
:1037B00000AF0346FB714FF02003C4F20E23FA79E9
:1037C0001A6007F10C07BD4680BC704780B485B015
:1037D00000AF78604FF00003FB604FF4E043C4F2A9
:1037E00000031B68FB60FB6823F0E003FB60FA68E2
:1037F0007B6842EA0303FB604FF4E043C4F200033A
:10380000FA681A6007F11407BD4680BC704700BF14
:1038100080B483B000AF0346FB714FF01003C4F2D5
:103820000E23FA791A6007F10C07BD4680BC704779
:1038300080B483B000AF0346FB714FF0A403C4F221
:103840000E23FA791A6007F10C07BD4680BC704759
:1038500080B485B000AF0346FB71FB79012B07D024
:10386000072B09D0002B0BD14FF00003FB730BE0AB
:103870004FF00203FB7307E04FF00603FB7303E016
:103880004FF00403FB7300BFFB7B184607F11407DE
:10389000BD4680BC704700BF80B582B000AF4FF618
:1038A0006873C0F600037B6040F20003C2F20003BD
:1038B0003B600BE07B681A683B681A603B6803F169
:1038C00004033B607B6803F104037B603A6840F2C9
:1038D0000023C2F200039A42ECD3074807494FF095
:1038E00000028842B8BF40F8042BFADB00F014FF56
:1038F00007F10807BD4680BD00020020543F0020AC
:1039000080B400AFFEE700BF80B500AF4FF4802069
:103910004FF0010102F0A0F94FF080504FF001018B
:1039200002F0F6F980BD00BF80B586B000AFF86048
:10393000B9601346FB714FF00003FB7544F240037E
:10394000C4F202033B614FF00100FFF72FFF4FF07D
:103950000100FFF76DFF4FF00003FB750BE0FA6805
:10396000FB7DD318B968FA7D8A1812781A70FB7D2E
:1039700003F10103FB75FA7DFB799A42EFD342F61E
:103980001873C2F20003D3F8943418464FF0400184
:1039900002F034F80346DAB23B691A704FF00000C7
:1039A000FFF704FF07F11807BD4680BD80B483B060
:1039B00000AF0346FB804FF44053C4F20003FA8883
:1039C0001A6007F10C07BD4680BC704780B483B015
:1039D00000AF0346FB714FF44053C4F20003FA7981
:1039E0005A6007F10C07BD4680BC704780B483B0B5
:1039F00000AF0346FB804FF44053C4F20003FA8843
:103A00009A6007F10C07BD4680BC704780B400AFD8
:103A10004FF44053C4F200034AF6AA221A60BD468E
:103A200080BC704780B400AF4FF44053C4F2000331
:103A30004CF6CC421A60BD4680BC704780B584B05D
:103A400004AF00F021F84FF6D423C0F600034FF086
:103A5000010200924FF0000201924FF00002029228
:103A60004FF00002039243F66D40C0F60000194685
:103A70004FF080024FF0000304F0FEFA4FF0000315
:103A80001846BD4680BD00BF80B588B000AF4FF07E
:103A900002004FF0010102F0DFF84FF480404FF0D8
:103AA000010102F035F94FF42043BB614FF00203EE
:103AB0007B774FF002033B774FF00003BB774FF06B
:103AC0000003FB7707F118034FF48060C4F2020093
:103AD000194605F0E1FD4FF48043BB614FF002034E
:103AE0007B774FF002033B774FF00003BB774FF03B
:103AF0000003FB7707F118034FF48060C4F2020063
:103B0000194605F0C9FD4FF48053BB614FF0010326
:103B10003B774FF00003BB774FF00003FB774FF08C
:103B200002037B7707F118034FF48060C4F20200B0
:103B3000194605F0B1FD4FF48060C4F202004FF069
:103B40000D014FF0050205F0CBFE4FF48060C4F28A
:103B500002004FF00F014FF0050205F0C1FE4FF4D7
:103B60008060C4F202004FF00E014FF0050205F034
:103B7000B7FE4FF00003BB804FF48273FB804FF021
:103B800000033B814FF000037B814FF00103BB81B9
:103B90004FF40073FB814FF028033B824FF000038A
:103BA0007B8207F104034FF46050C4F20000194611
:103BB00009F0E4FD4FF46050C4F200004FF0000142
:103BC00009F048FE4FF46050C4F200004FF00101CC
:103BD00009F020FE4FF48063C4F202034FF48062C8
:103BE000C4F20202128B92B242F4805292B21A8351
:103BF00007F12007BD4680BD80B483B000AF034607
:103C0000FB7100BF4FF46053C4F200031B899BB2E9
:103C100003F00203002BF5D04FF46053C4F200030D
:103C2000FA7992B29A8100BF4FF46053C4F2000354
:103C30001B899BB203F00103002BF5D04FF46053B6
:103C4000C4F200039B899BB2DBB2184607F10C0754
:103C5000BD4680BC704700BF80B500AF4FF0FF008D
:103C6000FFF7CAFF0346184680BD00BF80B582B08B
:103C700000AF78604FF48063C4F202034FF48062B7
:103C8000C4F20202528B92B242F4805292B25A8330
:103C90004FF00600FFF7B0FF4FF00A0004F048FBBA
:103CA0004FF04000FFF7A8FF4FF00600FFF7A4FF1A
:103CB0004FF00A0004F03CFB4FF04800FFF79CFF78
:103CC0004FF05600FFF798FF4FF00A0004F030FB6A
:103CD0004FF04C00FFF790FF4FF06200FFF78CFFB2
:103CE0004FF00A0004F024FB43F2C033C2F2000399
:103CF0004FF0000283F82C204FF00800FFF77CFF04
:103D000000BF4FF48060C4F202004FF4804105F020
:103D1000AFFD0346012BF4D0FFF79EFF03461A4682
:103D200042F62013C2F200031A6042F62013C2F2D8
:103D300000031B684FEA032242F62013C2F200037D
:103D40001A60FFF789FF03461A4642F62013C2F2B3
:103D500000031B681A4342F62013C2F200031A60E4
:103D600042F62013C2F200031B684FEA032242F618
:103D70002013C2F200031A60FFF76EFF03461A46D3
:103D800042F62013C2F200031B681A4342F62013C6
:103D9000C2F200031A6042F62013C2F200031A684E
:103DA0004FF6FF73C0F27F039A420ED942F62013FA
:103DB000C2F200031B6803F17F4202F1010242F6E6
:103DC0001413C2F200031A600AE042F62013C2F292
:103DD00000031B681A4642F61413C2F200031A606D
:103DE00042F61413C2F200031B68184600F018F8DC
:103DF000024642F61873C2F20003C3F844244FF09F
:103E0000640004F095FA43F2C033C2F200039B6AE7
:103E100003F1010243F2C033C2F200039A626BE77E
:103E2000B0B586B000AF7860244B7B6142F6625338
:103E3000C0F233033B614FF01803C0F25A03FB603A
:103E40007A683B69D31A18460BF06EFA0346184697
:103E50000AF052FE02460B46104619464FF0000289
:103E60004FF0804303F5D2030AF09AFE02460B4658
:103E700014461D46FA683B69D31A18460AF02AFE12
:103E800002460B46204629460AF0B4FF02460B467E
:103E9000104619464FF000024FF000030AF0CEFC26
:103EA00002460B46104619460BF034F903467B6177
:103EB0007B69184607F11807BD46B0BD0000000039
:103EC00080B584B000AF786039604FF00003FB73B9
:103ED0003B681B88052B2BD17B6803F101031B7802
:103EE0004FEA0323BB817B6803F102031B781A4668
:103EF000BB8942EA0303BB81BB8903F10103BB8198
:103F00007B6803F10302BB89104619464FF001029A
:103F10004FF00103FDF784FD0346FB72FB7A002B93
:103F200009D0FB7A1846FFF793FC0346FB7302E0C7
:103F30004FF00303FB73FB7B184607F11007BD46E8
:103F400080BD00BF80B584B000AF786039604FF0AD
:103F50000003FB733B681B88052B57D97B6803F173
:103F600001031B784FEA0323BB817B6803F1020343
:103F70001B781A46BB8942EA0303BB81BB8903F164
:103F80000103BB817B6803F103031B784FEA032322
:103F90007B817B6803F104031B781A467B8942EA24
:103FA00003037B817B6803F105031B787B727B89AC
:103FB000002B27D07B89782B24D87B89DBB24FEA72
:103FC0004303DBB27A7A9A421CD17B6803F1060183
:103FD000BA897B89084611461A464FF00103FDF75E
:103FE0001FFD03463B723B7A002B06D03B7A1846F6
:103FF000FFF72EFC0346FB730BE03B684FF0050216
:104000001A8006E04FF00303FB7302E04FF0030356
:10401000FB73FB7B184607F11007BD4680BD00BF50
:1040200080B586B000AF786039604FF00003FB7553
:104030003B681B88052B70D17B6803F101031B785B
:104040004FEA0323BB827B6803F102031B781A4605
:10405000BB8A42EA0303BB82BB8A03F10103BB8232
:104060007B6803F103031B784FEA03237B827B68A1
:1040700003F104031B787B827B8A002B49D07B8A67
:104080007D2B46D87B68FB603B684FF000021A80AE
:10409000FB684FF003021A70FB6803F10103FB6039
:1040A0003B681B8803F101039AB23B681A807B8A44
:1040B000DBB24FEA4303DAB2FB681A70FB6803F124
:1040C0000103FB603B681B8803F101039AB23B6864
:1040D0001A80BA8A7B8AF86811461A464FF00003A4
:1040E000FDF79EFC0346FB72FB7A002B06D0FB7AA1
:1040F0001846FFF7ADFB0346FB7511E03B681A88D5
:104100007B8A4FEA43039BB2D3189AB23B681A806A
:1041100006E04FF00303FB7502E04FF00303FB756D
:10412000FB7D184607F11807BD4680BD80B586B0F7
:1041300000AF786039604FF00003FB753B681B8867
:10414000092B40F2BC807B6803F101031B784FEA26
:104150000323BB827B6803F102031B781A46BB8AE8
:1041600042EA0303BB82BB8A03F10103BB827B6883
:1041700003F103031B784FEA03237B827B6803F17F
:1041800004031B781A467B8A42EA03037B827B681E
:1041900003F105031B784FEA03233B827B6803F19D
:1041A00006031B781A463B8A42EA03033B823B8A9A
:1041B00003F101033B827B6803F107031B784FEA9D
:1041C0000323FB817B6803F108031B781A46FB89F4
:1041D00042EA0303FB817B6803F109031B787B73CD
:1041E0007B8A002B68D07B8A7D2B65D8FB89002BCE
:1041F00062D0FB89792B5FD8FB894FEA43027B7B36
:104200009A4259D17B6803F10A013A8AFB89084630
:1042100011461A464FF00103FDF702FC0346BB7539
:10422000BB7D002B3ED17B68BB603B684FF000023A
:104230001A80BB684FF017021A70BB6803F10103C4
:10424000BB603B681B8803F101039AB23B681A808C
:104250007B8ADBB24FEA4303DAB2BB681A70BB68F1
:1042600003F10103BB603B681B8803F101039AB2B1
:104270003B681A80BA8A7B8AB86811461A464FF0A2
:104280000003FDF7CDFB0346BB75BB7D002B09D1B9
:104290003B681A887B8A4FEA43039BB2D3189AB2D1
:1042A0003B681A80BB7D002B09D0BB7D1846FFF709
:1042B000CFFA0346FB7502E04FF00303FB75FB7D6D
:1042C000184607F11807BD4680BD00BF80B584B011
:1042D00000AFF8607A603B600B46FB72F86806F04E
:1042E000C3FBF86800F01EF8FB683A68C3F8E025E5
:1042F000FB68BA69C3F8E425FB687A68C3F8E82567
:10430000FB7AF868194609F0B7FDFB68D3F8E43585
:104310001B689847F86806F021FC07F11007BD46B6
:1043200080BD00BF80B483B000AF78604FF0000361
:10433000184607F10C07BD4680BC704780B584B0B5
:1043400000AF786007F108037868194607F0C4F8F1
:104350003B7A03F01F03012B0AD0022B0FD0002B56
:1043600014D107F108037868194606F07DFC16E0C1
:1043700007F108037868194606F0C8FC0FE007F15A
:1043800008037868194606F0F9FC08E03B7A23F048
:104390007F03DBB27868194609F020FF00BF4FF0B9
:1043A0000003184607F11007BD4680BD80B584B0F4
:1043B00000AF78600B46FB70FB78002B45D17B6823
:1043C00003F55C73FB607B6893F81131032B4FD1CD
:1043D000FB68DA69FB689B689A4221D9FB68DA6955
:1043E000FB689B68D21AFB68DA617B68DB78012B7B
:1043F00006D1FB68DA68FB689B68D218FB68DA6054
:10440000FB68DA68FB689968FB68DB69994238BF2A
:104410000B469BB2786811461A460AF049F827E025
:104420007B68D3F8E0351B69002B0AD07B6893F8D2
:104430001231032B05D17B68D3F8E0351B6978680E
:10444000984778680AF04CF812E07B68D3F8E035BA
:104450009B69002B0CD07B6893F81231032B07D19A
:104460007B68D3F8E0359B69FA78786811469847FD
:104470004FF00003184607F11007BD4680BD00BF8E
:1044800080B584B000AF78600B46FB70FB78002BE2
:1044900063D17B6803F58C73FB607B6893F8113103
:1044A000022B6ED1FB68DA69FB689B689A421CD9C3
:1044B000FB68DA69FB689B68D21AFB68DA617B6883
:1044C000DB78012B06D1FB68DA68FB689B68D218A1
:1044D000FB68DA60FB68DA68FB68DB699BB27868C6
:1044E00011461A4609F0A8FF4CE0FB681B6AFA68FF
:1044F0009268B3FBF2F102FB01F29B1A002B17D179
:10450000FB681A6AFB689B689A4211D3FB681A6AB7
:10451000FB685B6A9A420BD278684FF000014FF05B
:10452000000209F089FFFB684FF000025A6229E09F
:104530007B68D3F8E035DB68002B0AD07B6893F802
:104540001231032B05D17B68D3F8E035DB6878683E
:104550009847786809F0E2FF14E07B68D3F8E0350B
:104560005B69002B0ED07B6893F81231032B09D1C5
:104570007B68D3F8E0355B69FA787868114698472C
:1045800000E000BF4FF00003184607F11007BD46DA
:1045900080BD00BF80B582B000AF786078684FF012
:1045A00000014FF040024FF0000309F0FBFC786877
:1045B0004FF080014FF040024FF0000309F0F2FC91
:1045C0007B684FF0010283F812217B68D3F8E43551
:1045D0005B687A689278104698474FF00003184657
:1045E00007F10807BD4680BD80B582B000AF786096
:1045F0007B68D3F8E4351B6998477B684FF003026A
:1046000083F812214FF00003184607F10807BD4652
:1046100080BD00BF80B582B000AF78607B684FF08E
:10462000040283F812217B68D3F8E435DB689847ED
:104630004FF00003184607F10807BD4680BD00BFD4
:1046400080B582B000AF78607B68D3F8E035DB6975
:10465000002B05D07B68D3F8E035DB697868984794
:104660004FF00003184607F10807BD4680BD00BFA4
:1046700080B582B000AF78600B46FB707B68D3F8E2
:10468000E0351B68FA787868114698477B68D3F85C
:10469000E4359B6898474FF00003184607F1080778
:1046A000BD4680BD80B582B000AF78600B46FB7020
:1046B0007B68D3F8E0355B68FA78786811469847EC
:1046C0004FF00003184607F10807BD4680BD00BF44
:1046D00080B582B000AF78607B68D3F8E0351B6AA4
:1046E000786898474FF00003184607F10807BD4661
:1046F00080BD00BF80B582B000AF78607B68D3F822
:10470000E0355B6A786898474FF00003184607F178
:104710000807BD4680BD00BF80B582B002AF05F07E
:104720004BFE42F61873C2F200034FF0000283F80A
:104730004F240AF02DF8FFF7E7F802F039F902F0FC
:10474000CDFCFFF77BF905F029FF00F013FDFEF724
:104750008FF900F07FF8FEF72FFE04F01BFE40F209
:104760009003C2F20003009342F62410C2F200004C
:104770004FF0010140F22012C2F2000240F2D413C5
:10478000C2F20003FFF7A2FDFEF7BAFC02F014FC30
:1047900003F0EAFEFEE700BF80B400AFFEE700BF13
:1047A00080B483B000AF78603960FEE780B582B036
:1047B00000AF09F00FFE03467B607B6807F1080736
:1047C000BD4680BD80B485B000AF78600B467B806D
:1047D0004FF0FF03FB734FF0FF03BB731DE07B68DB
:1047E0001A78BB7B82EA0303DBB2BB607B6803F110
:1047F00001037B604FF6E423C0F60003BA689B1800
:104800001A78FB7B82EA0303BB734FF6E433C0F6EE
:104810000003BA689B181B78FB737B88002B0CBFC6
:1048200000230123DBB27A8802F1FF327A80002B69
:10483000D5D1FB7B4FEA03239AB2BB7B9BB242EA02
:1048400003039BB29BB2184607F11407BD4680BC18
:10485000704700BF80B586B004AF4FF00003FB7116
:104860004FF00003BB7142F61873C2F2000393F8D5
:104870004F34002B40F091804FF00003FB7165E056
:10488000FA7942F61873C2F200034FF0980101FB67
:1048900002F29B1803F190034FF002021A70FA79AA
:1048A00042F61873C2F200034FF0980101FB02F2C6
:1048B0009B1803F188034FF000029A80FA7942F6C0
:1048C0001873C2F200034FF0980101FB02F29B182B
:1048D00003F18803334A1A60FA7942F61873C2F278
:1048E00000034FF0980101FB02F29B1803F18803CB
:1048F0004FF00002DA80FA7942F61873C2F2000330
:104900004FF0980101FB02F29B18FA791A704FF0F0
:104910000003BB7113E0F979BB7942F61872C2F259
:1049200000024FF0260000FB01F1CB184FEA830391
:10493000D3181D4A5A60BB7903F10103BB71BB79DF
:104940001F2BE8D9FB7903F10103FB71FB79062BDF
:1049500096D942F61873C2F200034FF0000283F8B2
:104960004E244FF6E443C0F600034FF001020092DC
:104970004FF0000201924FF0000202924FF000024D
:10498000039244F6AD10C0F6000019464FF08002C5
:104990004FF0000303F070FB00E000BF07F10807D1
:1049A000BD4680BD000000000000484390B58BB0BC
:1049B00004AF78604FF00003FB8242F61873C2F236
:1049C000000393F85034002B07D142F61873C2F25B
:1049D0000003D3F870343B6106E042F61873C2F26C
:1049E0000003D3F874343B6142F61873C2F200033B
:1049F000D3F84434184639690AF0E0FB0346FB60FB
:104A00004FF001031C46F86852490AF07FFE034646
:104A1000002B02D14FF000031C46E3B2002B52D012
:104A2000FB6883F00043FB604EE042F61873C2F26D
:104A30000003D3F84434184639690AF0BFFB034633
:104A4000FB604FF001031C46F86842490AF05EFE25
:104A50000346002B02D14FF000031C46E3B2002BAB
:104A600003D0FB6883F00043FB604FF47A7003F0DF
:104A70005FFCFB8A03F10103FB8242F61873C2F26A
:104A80000003B3F89034FA8A9A421DD342F61873A1
:104A9000C2F200034FF0050283F84E2442F6187369
:104AA000C2F200034FF0040283F84F244FF00000DD
:104AB0004FF00101FEF7F4FD02F052F94FF0000053
:104AC00003F0D6FB00E000BF4FF001031C46F8687E
:104AD00021490AF039FE0346002B02D14FF00003B2
:104AE0001C46E3B2002BA0D142F61873C2F20003B9
:104AF00093F84F34002B24D142F61873C2F200030E
:104B00004FF0010283F84E244FF6FC43C0F6000339
:104B10004FF00102009242F61472C2F200020192BA
:104B20004FF0000202924FF00002039244F65D3013
:104B3000C0F6000019464FF080024FF0000303F06A
:104B40009BFA4FF0000003F093FB07F11C07BD46F2
:104B500090BD00BF000000000000803F80B584B021
:104B600000AF78604FF00003FB7343F2C033C2F232
:104B700000034FF000021A7743F2A053C2F2000381
:104B80001B6818464FF000014FF0FF324FF0000352
:104B900006F04CFF0346012B17D14FF00003FB73C7
:104BA00010E0FB7B4FF0980202FB03F242F6187311
:104BB000C2F20003D318184600F0AAF9FB7B03F1F8
:104BC0000103FB73FB7B062BEBD943F2C033C2F22C
:104BD00000039B6903F1010243F2C033C2F20003F8
:104BE0009A61C9E790B589B000AF78600B46FB7059
:104BF0004FF00003FB774FF00003BB774FF000034B
:104C00007B774FF000033B774FF00003FB7624E007
:104C1000FB7E7A684FF0980101FB03F3D31803F190
:104C200090031B78012B14D1FA7F7968FB7E4FF03B
:104C3000980000FB03F3C9187B6802F5857243F8FE
:104C40002210FB7F03F10103FB77BB7F03F101031C
:104C5000BB77FB7E03F10103FB76FA7EFB789A4279
:104C6000D6D3BB7F002B47D0FB7F03F1FF33FB760E
:104C70003FE04FF00003BB7633E0BA7E7B6802F57D
:104C8000857253F822301A78BB7E03F101017B68EC
:104C900001F5857153F821301B789A421DD9BA7EEF
:104CA0007B6802F5857253F822307B61BA7EBB7E49
:104CB00003F101017B6801F5857153F821107B68D0
:104CC00002F5857243F82210BB7E03F10102796977
:104CD0007B6802F5857243F82210BB7E03F1010365
:104CE000BB76BA7EFB7E9A42C7D3FB7E03F1FF33CD
:104CF000FB76FB7E002BBCD14FF00003FB7624E05B
:104D0000FB7E7A684FF0980101FB03F3D31803F19F
:104D100090031B78002B14D1FA7F7968FB7E4FF04B
:104D2000980000FB03F3C9187B6802F5857243F80D
:104D30002210FB7F03F10103FB777B7F03F101036B
:104D40007B77FB7E03F10103FB76FA7EFB789A42C8
:104D5000D6D37B7F002B5BD0FB7F03F1FF33FB7649
:104D600050E0FA7F7B7FD31ABB7643E0BA7E7B6844
:104D700002F5857253F82230D3F88820BB7E03F108
:104D800001017B6801F5857153F82130D3F8883033
:104D90004FF001010C46104619460AF0D5FC0346B7
:104DA000002B02D14FF000031C46E3B2002B1DD0B4
:104DB000BA7E7B6802F5857253F822303B61BA7E79
:104DC000BB7E03F101017B6801F5857153F8211069
:104DD0007B6802F5857243F82210BB7E03F1010265
:104DE00039697B6802F5857243F82210BB7E03F1B6
:104DF0000103BB76BA7EFB7E9A42B7D3FB7E03F1FA
:104E0000FF33FB76FA7EF97F7B7FCB1A9A42A8DCD0
:104E10004FF00003FB7624E0FB7E7A684FF09801A8
:104E200001FB03F3D31803F190031B78022B14D179
:104E3000FA7F7968FB7E4FF0980000FB03F3C918F6
:104E40007B6802F5857243F82210FB7F03F10103B2
:104E5000FB773B7F03F101033B77FB7E03F101030B
:104E6000FB76FA7EFB789A42D6D33B7F002B4BD061
:104E7000FB7F03F1FF33FB7640E0FA7F3B7FD31AE1
:104E8000BB7633E0BA7E7B6802F5857253F8223038
:104E90001A78BB7E03F101017B6801F5857153F837
:104EA00021301B789A421DD9BA7E7B6802F5857243
:104EB00053F82230FB60BA7EBB7E03F101017B68B0
:104EC00001F5857153F821107B6802F5857243F86E
:104ED0002210BB7E03F10102F9687B6802F585723E
:104EE00043F82210BB7E03F10103BB76BA7EFB7E42
:104EF0009A42C7D3FB7E03F1FF33FB76FA7EF97F3C
:104F00003B7FCB1A9A42B8DC07F12407BD4690BD1F
:104F100090B589B000AF78607B6893F89030012B32
:104F200000F01881022B02D0002B5CD019E17B68C5
:104F300093F884307A684FEA8303D3185A687B6801
:104F400093F88430194642F61873C2F20003B3F89E
:104F50009234CB1A03F01F0379684FEA8303CB180E
:104F60005B68104619460AF029F903467B6142F650
:104F70001873C2F20003D3F884344FF001021446D0
:104F8000184679690AF0C2FB0346002B02D14FF0A4
:104F900000031C46E3B2002B00F0DE807B68D3F8F0
:104FA000882042F61873C2F20003D3F888344FF019
:104FB00001010C46104619460AF0C6FB0346002BB9
:104FC00002D14FF000031C46E3B2002B00F0C68074
:104FD0007B684FF0000283F890207B684FF000025E
:104FE000A3F88C20BDE0624B3B61614BFB617B68A9
:104FF00093F88430FB7342F61873C2F20003B3F8DF
:105000009234DBB2FA7BD31ADBB203F01F03FB76D8
:1050100011E0FB7E03F01F037A684FEA8303D31885
:105020005B68F86919460AF0CBF80346FB61FB7E22
:1050300003F10103FB76FB7E03F01F02FB7B9A4228
:10504000E7D142F61873C2F20003B3F8923418465F
:105050000AF06AF90346F86919460AF06DFA034640
:105060003B617B68B3F88C3003F101039AB27B6833
:10507000A3F88C207B681B7842F61872C2F20002FB
:1050800003F58A734FEA8303D3185B684FF001027C
:105090001446184639690AF039FB0346002B02D141
:1050A0004FF000031C46E3B2002B17D07B684FF093
:1050B000010283F890207B684FF00002A3F88C2057
:1050C00042F61873C2F200034FF0010283F84E2437
:1050D0004FF000004FF00101FEF7E2FA7B6893F811
:1050E00084307A684FEA8303D3185A687B6893F850
:1050F0008430194642F61873C2F20003B3F89234B2
:10510000CB1A03F01F0379684FEA8303CB185B685F
:10511000104619460AF052F80346BB6042F618736F
:10512000C2F20003D3F88C344FF001021446184643
:10513000B9680AF009FB0346002B02D14FF00003C7
:105140001C46E3B2002B0BD07B684FF0020283F8C1
:10515000902006E000BF04E000BF02E000BF00E0D6
:1051600000BF4FF00003184607F12407BD4690BD6D
:105170000000000090B585B000AF4FF00003FB7356
:1051800042F61873C2F200034FF48042C4F20202E6
:10519000C3F8942444F24003C4F20203BB6042F615
:1051A0001873C2F20003D3F8943418464FF040014C
:1051B00000F024FC0346FB71BB681B78FA799A4225
:1051C00040F0A7834FF00003FB736CE042F61873C6
:1051D000C2F20003D3F89434FA7B53F822304FF034
:1051E000010214461846CD490AF0A4FA0346002BE2
:1051F00002D14FF000031C46E3B2002B2DD042F643
:105200001873C2F20003D3F89434FA7B53F82230B7
:105210004FF0010214461846C1490AF081FA0346CC
:10522000002B02D14FF000031C46E3B2002B14D038
:10523000F87B42F61873C2F20003D3F89434FA7B79
:1052400053F8221042F61872C2F2000200F58A7377
:105250004FEA8303D318596021E0FB7B42F61872B2
:10526000C2F2000203F58A734FEA8303D318AD4AF2
:105270005A6042F61873C2F20003D3F894341A4607
:10528000FB7B4FEA8303D218FB7B4FEA83019F4BE2
:10529000CB18104619464FF00402FEF745FBFB7B86
:1052A00003F10103FB73FB7B062B8FD942F61873C6
:1052B000C2F20003D3F89434DB694FF001021446C4
:1052C000184696490AF036FA0346002B02D14FF0F1
:1052D00000031C46E3B2002B24D042F61873C2F23E
:1052E0000003D3F89434DB694FF0010214461846EA
:1052F0008B490AF015FA0346002B02D14FF0000348
:105300001C46E3B2002B0DD042F61873C2F2000324
:10531000D3F89434DA6942F61873C2F20003C3F882
:10532000702414E042F61873C2F200037D4AC3F8F9
:10533000702442F61873C2F20003D3F8943403F1D8
:105340001C03184672494FF00402FEF7EDFA42F6CC
:105350001873C2F20003D3F894341B6A4FF00102B1
:10536000144618466D490AF0E5F90346002B02D1B0
:105370004FF000031C46E3B2002B24D042F6187312
:10538000C2F20003D3F894341B6A4FF001021446B2
:10539000184663490AF0C4F90346002B02D14FF0C6
:1053A00000031C46E3B2002B0DD042F61873C2F284
:1053B0000003D3F894341A6A42F61873C2F2000359
:1053C000C3F8742414E042F61873C2F20003554A7D
:1053D000C3F8742442F61873C2F20003D3F894346D
:1053E00003F1200318464B494FF00402FEF79CFAE4
:1053F00042F61873C2F20003D3F894345B6A4FF09C
:1054000001021446184645490AF094F90346002B58
:1054100002D14FF000031C46E3B2002B24D042F629
:105420001873C2F20003D3F894345B6A4FF00102A0
:10543000144618463C490AF073F90346002B02D182
:105440004FF000031C46E3B2002B0DD042F6187358
:10545000C2F20003D3F894345A6A42F61873C2F2C7
:105460000003C3F8782414E042F61873C2F2000374
:105470002E4AC3F8782442F61873C2F20003D3F818
:10548000943403F12403184623494FF00402FEF735
:105490004BFA42F61873C2F20003D3F894349B6AB5
:1054A0004FF001021446184621490AF043F9034619
:1054B000002B02D14FF000031C46E3B2002B3BD07F
:1054C00042F61873C2F20003D3F894349B6A4FF08B
:1054D00001021446184617490AF022F90346002B28
:1054E00002D14FF000031C46E3B2002B24D042F659
:1054F0001873C2F20003D3F894349A6A42F6187310
:10550000C2F20003C3F87C242BE000BF6C33002000
:10551000883300208C3300209033002000000000EE
:10552000000048430000D24200401C4600001041E9
:105530000000C8C20000C84242F61873C2F200035D
:10554000C04AC3F87C2442F61873C2F20003D3F8B1
:10555000943403F128031846B5494FF00402FEF7CE
:10556000E3F942F61873C2F20003D3F89434DB6A0D
:105570004FF0010214461846B3490AF0DBF803461F
:10558000002B02D14FF000031C46E3B2002B24D0C5
:1055900042F61873C2F20003D3F89434DB6A4FF07A
:1055A000010214461846A9490AF0BAF80346002B2E
:1055B00002D14FF000031C46E3B2002B0DD042F69F
:1055C0001873C2F20003D3F89434DA6A42F61873FF
:1055D000C2F20003C3F8802414E042F61873C2F24A
:1055E00000039B4AC3F8802442F61873C2F20003FA
:1055F000D3F8943403F12C0318468E494FF004027B
:10560000FEF792F942F61873C2F20003D3F894340D
:105610001B6B4FF00102144618468E490AF08AF8B7
:105620000346002B02D14FF000031C46E3B2002BCF
:1056300024D042F61873C2F20003D3F894341B6BE3
:105640004FF001021446184683490AF069F80346F0
:10565000002B02D14FF000031C46E3B2002B0DD00B
:1056600042F61873C2F20003D3F894341A6B42F670
:105670001873C2F20003C3F8842414E042F61873CE
:10568000C2F20003754AC3F8842442F61873C2F2CA
:105690000003D3F8943403F13003184666494FF001
:1056A0000402FEF741F942F61873C2F20003D3F880
:1056B00094349B6B4FF001021446184668490AF077
:1056C00039F80346002B02D14FF000031C46E3B229
:1056D000002B24D042F61873C2F20003D3F894349E
:1056E0009B6B4FF00102144618465E490AF018F809
:1056F0000346002B02D14FF000031C46E3B2002BFF
:105700000DD042F61873C2F20003D3F894349A6BAA
:1057100042F61873C2F20003C3F88C2414E042F678
:105720001873C2F20003504AC3F88C2442F618736F
:10573000C2F20003D3F8943403F1380318463F490A
:105740004FF00402FEF7F0F842F61873C2F20003BD
:10575000D3F894345B6B4FF001021446184643496A
:1057600009F0E8FF0346002B02D14FF000031C466E
:10577000E3B2002B24D042F61873C2F20003D3F830
:1057800094345B6B4FF0010214461846384909F017
:10579000C7FF0346002B02D14FF000031C46E3B2C3
:1057A000002B0DD042F61873C2F20003D3F89434E4
:1057B0005A6B42F61873C2F20003C3F8882414E04F
:1057C00042F61873C2F200032A4AC3F8882442F64C
:1057D0001873C2F20003D3F8943403F1340318466B
:1057E00017494FF00402FEF79FF842F61873C2F211
:1057F0000003D3F894349B8F092B3DD942F61873DC
:10580000C2F20003D3F894349A8F42F210739A4292
:1058100032D842F61873C2F20003D3F894349A8F48
:1058200042F61873C2F20003A3F890243AE000BFD6
:1058300094330020983300209C330020A4330020B0
:10584000A0330020BC74133C00401CC600401C4622
:105850000080BB44000000000000204100008040A8
:10586000000020C1000080BF000000C000002042F6
:105870000000C8420000344242F61873C2F200032E
:105880004FF49662A3F8902442F61873C2F2000314
:10589000D3F8943403F13C0318464F494FF0020209
:1058A000FEF742F842F61873C2F20003D3F89434BC
:1058B000DB8F042B16D942F61873C2F20003D3F81B
:1058C0009434DB8F1E2B0DD842F61873C2F20003FE
:1058D000D3F89434DA8F42F61873C2F20003A3F8B7
:1058E000922475E042F61873C2F200034FF00A02E8
:1058F000A3F8922442F61873C2F20003D3F894344A
:1059000003F13E03184635494FF00202FEF70CF84A
:105910005EE04FF00003FB730FE0FB7B42F6187272
:10592000C2F2000203F58A734FEA8303D3182C4AAC
:105930005A60FB7B03F10103FB73FB7B062BECD965
:1059400042F61873C2F20003264AC3F8782442F6DE
:105950001873C2F20003244AC3F87C2442F6187379
:10596000C2F20003214AC3F8802442F61873C2F23F
:1059700000031B4AC3F8702442F61873C2F20003F6
:10598000174AC3F8742442F61873C2F20003184A87
:10599000C3F8842442F61873C2F20003154AC3F810
:1059A0008C2442F61873C2F20003134AC3F8882409
:1059B00042F61873C2F200034FF49662A3F89024E3
:1059C00042F61873C2F200034FF00A02A3F89224C1
:1059D00007F11407BD4690BDA8330020AA3300206C
:1059E0000000D24200001041BC74133C0080BB4454
:1059F00000008040000000C00000344280B487B046
:105A000000AF78600B46FB704FF00003FB757B68BE
:105A10003B61FB78FB732BE03B691A78FB7D82EAE4
:105A20000303FB753B6903F101033B61FB7D03F05D
:105A30000103DBB2002B02D04FF0800301E04FF0F6
:105A40000003FA7D4FEA5202D2B2D1B21A460B4697
:105A500042EA0303DBB2FB75FB7D5BB2002B03DA8A
:105A6000FB7D83F03C03FB75FB7B03F1FF33FB7392
:105A7000FB7B002BD0D1FB7D184607F11C07BD46F0
:105A800080BC704780B489B000AF78604FF00003ED
:105A9000BB614FF000037B614FF00003FB614FF0EF
:105AA00002033B614FF00003FB604FF00203BB6059
:105AB0004FF46053C4F202039B6803F00C03BB6114
:105AC000BB69042B0AD0082B0FD0002B64D17A6855
:105AD0004FF41053C0F2F403136064E07A6847F6A1
