:020000040800F2
:1000000058470020B53800081D3900081D39000880
:100010001D3900081D3900081D39000800000000C6
:1000200000000000000000000000000069BE0008A1
:100030001D390008000000006DBF0008A9BF0008BE
:100040001D39000821E800081D3900081D39000885
:100050001D3900081D390008E96B00083D6D0008D6
:100060001D3900081D3900081D3900081D39000818
:100070001D3900081D3900081D3900081D39000808
:100080001D3900081D3900081D3900081D390008F8
:100090001D3900081D3900081D3900081D390008E8
:1000A0001D3900081D3900081D3900081D390008D8
:1000B000951700081D390008199B00081D39000814
:1000C0001D3900081D3900081D3900081D390008B8
:1000D0001D3900081D3900081D3900081D390008A8
:1000E0001D3900081D39000821AC00081D39000821
:1000F0001D3900081D3900081D3900081D39000888
:100100001D3900081D3900081D3900081D39000877
:100110001D3900081D3900081D3900081D39000867
:100120001D3900081D3900081D3900081D39000857
:100130001D3900081D3900081D3900081D39000847
:100140001D3900081D3900081D39000865AC00087C
:100150001D3900081D3900081D3900081D39000827
:100160001D3900081D3900081D3900081D39000817
:100170001D3900081D3900081D3900081D39000807
:100180001D3900081D39000890B484B000AF024644
:100190000B46FA71BB714FF00003FB60BB7903F0B3
:1001A00003034FEA83034FF00F0202FA03F3FB60ED
:1001B0004FF46053C4F20103BA794FEA9202D2B20B
:1001C00010464FF46052C4F20102B9794FEA91012E
:1001D000C9B201F1020152F821201146FA686FEA12
:1001E0000202114000F1020243F822104FF4605362
:1001F000C4F20103BA794FEA9202D2B210464FF428
:100200006052C4F20102B9794FEA9101C9B201F119
:10021000020152F821201146FC79BA7902F003025A
:100220004FEA820204FA02F2114300F1020243F89B
:10023000221007F11007BD4690BC704780B485B00E
:1002400000AF78604FF00003FB607B68DB684FF025
:10025000FF325A607B68DB684FF0FF325A61FB68FF
:1002600043F00043FB60FB6843F40063FB607B6882
:10027000DB68FA689A6107F11407BD4680BC7047D5
:1002800080B586B000AF78604FF00003FB744FF08C
:1002900000037B614FF00003FB604FF003000AF0A6
:1002A00083FC7B68DB681B69FB607B6903F10103EE
:1002B0007B617A694FF45463C0F203039A4202D916
:1002C0004FF000032AE0FB6803F00043002BE4D06A
:1002D0004FF000037B61FB6843F00103FB607B6828
:1002E000DB68FA681A617B68DB681B69FB607B6905
:1002F00003F101037B617A694FF45463C0F2030395
:100300009A4205D8FB6803F00103002BEBD100E013
:1003100000BF4FF003000AF047FCFB7C184607F1D2
:100320001807BD4680BD00BF80B489B000AFF8603B
:10033000B960FA71BB804FF00003FB76FB68DB7895
:10034000002B2DD14FF000037B614FF00003FB61C8
:10035000BB8803F1030303F10302002BB8BF13466C
:100360004FEAA3037B61FB79FA6803F132034FEA9A
:100370008303D3189B683B614FF00003FB610BE0E4
:10038000BB681A683B691A60FB6903F10103FB61F2
:10039000BB6803F10403BB60FA697B699A42EFD33F
:1003A000FB7E184607F12407BD4680BC704700BF9E
:1003B00080B489B000AFF860B9601346FB804FF09D
:1003C0000003FB61FB8803F1030303F10302002B2D
:1003D000B8BF13464FEAA303BB61FB68D3F8D03024
:1003E0007B614FF00003FB610BE0BB687A69126828
:1003F0001A60FB6903F10103FB61BB6803F10403AD
:10040000BB60FA69BB699A42EFD3BB68184607F133
:100410002407BD4680BC704780B487B000AF7860C9
:100420000B46FB704FF000033B614FF00003FB7382
:100430007B684FF00002DA707B684FF001029A701F
:100440007B684FF040029A80FB78012B17D14FF068
:10045000A0433B617B684FF00102DA727B684FF08A
:1004600008021A707B684FF004025A707B684FF4E0
:10047000A072DA807B684FF002021A7217E0FB78F4
:10048000002B14D14FF00003C4F204033B617B68DE
:100490004FF00002DA727B684FF00C021A707B6832
:1004A0004FF006025A707B684FF4A062DA803A6916
:1004B0007B68DA603B6903F500631A467B681A6162
:1004C0004FF000037B6123E07B694FEA43123B69F5
:1004D000D31803F510631A4679687B6903F10403A6
:1004E0004FEA8303CB189A607B694FEA43123B695A
:1004F000D31803F530631A4679687B6903F1140356
:100500004FEA8303CB185A607B6903F101037B61D7
:100510007B685B781A467B699A42D5D83B6903F5BC
:1005200080631A467B685A613B6903F588631A4603
:100530007B68C3F8CC204FF000037B6113E07B693C
:100540004FEA43123B69D31803F5A0631A46796852
:100550007B6903F122034FEA8303CB189A607B691E
:1005600003F101037B617B681B781A467B699A4221
:10057000E5D84FF000037B6113E07B694FEA03325B
:100580003B69D31803F580531A4679687B6903F1F8
:1005900032034FEA8303CB189A607B6903F10103AE
:1005A0007B617B681B781A467B699A42E5D83B6978
:1005B00003F560631A467B68C3F80C21FB7B184681
:1005C00007F11C07BD4680BC704700BF80B588B0EE
:1005D00000AF78604FF00003FB774FF00003BB6182
:1005E0004FF000037B614FF00003FB607B681B7AD8
:1005F000012B51D17B68DB689B6B7B617B696FF35F
:1006000010437B617B685B7A002B03D07B6943F4EA
:1006100080137B617B68DB687A699A634FF0000323
:10062000BB617B68DB68DB68BB61BB696FF386130A
:10063000BB61BB696FF39653BB61BB6943F01003A9
:10064000BB61BB696FF3C303BB61BB696FF3C713C6
:10065000BB61BB696FF35143BB61BB696FF3D343AC
:10066000BB617B68DB68BA69DA607868FFF708FE0F
:100670007B68DB78012B40F08980FB684FF0050236
:1006800062F34403FB60FB6843F02003FB607B687C
:10069000DB68FA689A6079E07B68DB68DB68BB61DD
:1006A000BB6943F04003BB617B68DB68BA69DA6011
:1006B0007868FFF7E5FD4FF000037B617B6943F449
:1006C00080337B617B681B7A032B03D17B6943F406
:1006D00000337B617B6943F480237B617B6943F456
:1006E00000237B617B6943F400137B617B685B7A49
:1006F000002B03D07B6943F480137B617B68DB684C
:100700007A699A634FF014000AF07AFA7B68DB6822
:10071000DB68BB617B681B7A032B03D1BB6943F4A5
:100720008033BB617B68DB68BA69DA607B681B7AFF
:10073000032B2BD17B68DB681B6B3B613B694FF064
:10074000010262F39B633B613B696FF3D7533B61EB
:100750003B6943F080533B613B694FF02D0262F3EC
:1007600016433B617B68DB683A691A634FF0C80047
:100770000AF046FA3B6943F400033B617B68DB689F
:100780003A691A634FF0C8000AF03AFA7B68DB78DE
:10079000012B11D17B68DB689B68FB60FB684FF025
:1007A000050262F34403FB60FB6843F02003FB6037
:1007B0007B68DB68FA689A60FB7F184607F12007C0
:1007C000BD4680BD80B485B000AF78604FF00003B7
:1007D000FB734FF00003BB60BB6843F00103BB60D9
:1007E0007B68DB687A68D26892681146BA6841EA29
:1007F00002029A60FB7B184607F11407BD4680BCD5
:10080000704700BF80B485B000AF78604FF0000340
:10081000FB734FF00003BB60BB6843F00103BB6098
:100820007B68DB687A68D26892681146BA686FEABA
:10083000020201EA02029A60FB7B184607F11407E4
:10084000BD4680BC704700BF80B586B000AF786001
:1008500039604FF00003FB744FF000037B614FF0F1
:100860000003FB60FB6843F02003FB603B68DBB2E6
:1008700003F01F03DAB2FB6862F38A13FB607B6844
:10088000DB68FA681A617B68DB681B69FB607B695F
:1008900003F101037B617A694FF45463C0F20303EF
:1008A0009A4205D8FB6803F02003002BEBD100E04F
:1008B00000BF4FF003000AF077F9FB7C184607F100
:1008C0001807BD4680BD00BF80B586B000AF786018
:1008D0004FF00003FB744FF000037B614FF0000307
:1008E000FB60FB6843F01003FB607B68DB68FA6821
:1008F0001A617B68DB681B69FB607B6903F101039C
:100900007B617A694FF45463C0F203039A4205D8BD
:10091000FB6803F01003002BEBD100E000BF4FF0A9
:1009200003000AF041F9FB7C184607F11807BD46A1
:1009300080BD00BF80B584B000AF78600B46FB700F
:100940004FF00003FB737B68DB68DB68BB60BB6850
:100950006FF35D73BB60BB686FF39E73BB60FB7826
:10096000012B04D1BB6843F00053BB6006E0FB7869
:10097000002B03D1BB6843F08043BB607B68DB681E
:10098000BA68DA604FF032000AF03AF9FB7B184699
:1009900007F11007BD4680BD80B483B000AF78601A
:1009A0007B68DB685B6903F00103184607F10C07FD
:1009B000BD4680BC704700BF80B582B000AF786094
:1009C0007868FFF7E9FF0346012B0CBF00230123E2
:1009D000DBB2184607F10807BD4680BD80B485B07C
:1009E00000AF78604FF00003FB607B68DB685B69F9
:1009F000FB607B68DB689B69FA6802EA0303FB60C3
:100A0000FB68184607F11407BD4680BC704700BF5D
:100A100080B485B000AF78600B46FB707B681B69C3
:100A20001B68FB60FB7803F00303DAB2FB6862F338
:100A30000103FB607B681B69FA681A6007F1140701
:100A4000BD4680BC704700BF80B58CB000AF7860F9
:100A50004FF0000387F82B304FF000037B624FF01C
:100A600000033B624FF00003FB614FF00003BB61EA
:100A70004FF000037B617B68D3F80C314FF000022C
:100A80001A607B681B691B683B623B6A6FF3CC236F
:100A90003B627B681B693A6A1A607B68DB7A012BD0
:100AA00040D178684FF00301FFF7B2FF7B68DB6845
:100AB0004FF080025A624FF02003FB834FF0800317
:100AC000BB837B68DB68FA699A62BA8BFB8BD318AD
:100AD0009BB23B834FF080037B837B68DB68BA6902
:100AE000C3F804213A8B7B8BD3189BB23B834FF026
:100AF00020037B837B68DB6803F5827303F10403C7
:100B0000BA691A603A8B7B8BD3189BB23B834FF048
:100B100000037B837B68DB6803F5827303F10803C2
:100B2000BA691A6078684FF01001FFF78DFE786897
:100B3000FFF7CAFE7B681B694FF000021A617B68F1
:100B40001B694FF000025A617B681B694FF0FF324E
:100B50009A617B681B694FF00002DA614FF0000375
:100B6000FB6243E07A68FB6A03F104034FEA830304
:100B7000D3189B681B687B6297F8273023F07F03AC
:100B8000DBB2002B0BD04FF000037B627B6A43F09B
:100B900080437B627B6A43F000637B6202E04FF03C
:100BA00000037B627A68FB6A03F104034FEA830364
:100BB000D3189B687A6A1A607A68FB6A03F10403A7
:100BC0004FEA8303D3189B684FF000021A617A68DA
:100BD000FB6A03F104034FEA8303D3189B684FF0C9
:100BE000FF029A60FB6A03F10103FB627B685B789A
:100BF0001A46FB6A9A42B5D84FF00003FB6242E006
:100C00007A68FB6A03F114034FEA8303D3185B6825
:100C10001B68FB60FB7B23F07F03DBB2002B0BD058
:100C20004FF00003FB60FB6843F08043FB60FB6810
:100C300043F00063FB6002E04FF00003FB607A6862
:100C4000FB6A03F114034FEA8303D3185B68FA6865
:100C50001A607A68FB6A03F114034FEA8303D3181E
:100C60005B684FF000021A617A68FB6A03F11403B3
:100C70004FEA8303D3185B684FF0FF029A60FB6A68
:100C800003F10103FB627B685B781A46FB6A9A42B8
:100C9000B6D84FF000037B617B6943F480737B61BE
:100CA0007B681B697A681269126911467A696FEA72
:100CB000020211407A6941EA02021A617B68DB781C
:100CC000012B1ED14FF000033B613B6943F0010350
:100CD0003B613B6943F002033B613B694FF04002DB
:100CE00062F38A033B613B6943F480333B613B69B8
:100CF0004FF0400262F359433B617B681B693A69DC
:100D00001A63786800F008F897F82B30184607F156
:100D10003007BD4680BD00BF80B584B000AF7860AD
:100D20004FF00003FB734FF00003BB607B68DB6890
:100D30004FF000029A617B68DB684FF0FF325A6126
:100D40007868FFF77BFA7B68DB78002B03D1BB6800
:100D500043F01003BB60BB6843F40063BB60BB6837
:100D600043F48053BB60BB6843F40053BB60BB6873
:100D700043F48023BB60BB6843F40023BB60BB68C3
:100D800043F00803BB60BB6843F48013BB60BB68DF
:100D900043F40013BB607B68DB687A68D2689269B1
:100DA0001146BA686FEA02021140BA6841EA0202CB
:100DB0009A61FB7B184607F11007BD4680BD00BF56
:100DC00080B485B000AF78604FF00003FB737B68A0
:100DD0001B699B68BB60BB68C3F34103DBB2022B9A
:100DE0000BD0032B05D0012B03D04FF00303FB7373
:100DF00007E04FF00203FB7303E04FF00103FB73C6
:100E000000BFFB7B184607F11407BD4680BC704746
:100E100080B487B000AF78604FF00003FB754FF0EF
:100E20000003BB607B681B699B683B617B689B69B7
:100E30001B68FB603B69C3F34103DBB2022B04D0A8
:100E4000FB686FF30A03FB6006E0FB684FF00302E8
:100E500062F30A03FB6000BF7B689B69FA681A6053
:100E6000BB6843F48073BB607B681B697A68126956
:100E700052681146BA686FEA02021140BA6841EA44
:100E800002025A60FB7D184607F11C07BD4680BC74
:100E9000704700BF80B487B000AF786039604FF012
:100EA0000003FB744FF00003FB604FF00003BB60D6
:100EB0003B685B78012B12D13B681B787A6803F1A1
:100EC00004034FEA8303D3189B687B613B681B785C
:100ED0004FF0010202FA03F39BB23B8111E03B6841
:100EE0001B787A6803F114034FEA8303D3185B6815
:100EF0007B613B681B784FF0010202FA03F39BB25F
:100F00007B817B691B68FB607B7B23F07F03DBB20B
:100F1000002B29D13B689B689BB24FEA43534FEAB1
:100F200053539AB2FB6862F30A03FB603B68DB78B9
:100F300003F00303DAB2FB6862F39343FB603B68A0
:100F4000DB88DBB203F00F03DAB2FB6862F399537C
:100F5000FB60FB6843F08053FB60FB6843F4004395
:100F6000FB60FA687B691A607B681B697A681269A2
:100F7000D2691146BA6841EA0202DA61FB7C18467E
:100F800007F11C07BD4680BC704700BF80B487B026
:100F900000AF786039604FF00003FB744FF000033E
:100FA000FB604FF00003BB603B685B78012B12D104
:100FB0003B681B787A6803F104034FEA8303D31874
:100FC0009B687B613B681B784FF0010202FA03F3D8
:100FD0009BB23B8111E03B681B787A6803F11403F4
:100FE0004FEA8303D3185B687B613B681B784FF043
:100FF000010202FA03F39BB27B81FB686FF3CF33EC
:10100000FB60FA687B691A607B681B697A68126901
:10101000D2691146BA686FEA020201EA0202DA6195
:10102000FB7C184607F11C07BD4680BC704700BF1B
:1010300080B588B000AF786039604FF00003FB776F
:101040004FF00003BB614FF000037B614FF00003E2
:101050003B613B685B78012B40F0BF803B681B78AD
:101060007A6803F104034FEA8303D3189B681B6873
:101070007B613B681B787A6803F104034FEA8303C2
:10108000D3189B681B693B613B685B69002B0AD1E5
:101090003B696FF312033B613B694FF0010262F35E
:1010A000DC433B6128E03B685B6923F07F4222F42C
:1010B00078023B6962F312033B613B685A693B6803
:1010C0009B68D31803F1FF323B689B68B2FBF3F3D4
:1010D0009BB24FEA83534FEA93539AB23B6962F350
:1010E000DC433B613B68DB78012B05D13B694FF06A
:1010F000010262F35E733B613B681B787A6803F11F
:1011000004034FEA8303D3189B683A691A617B682A
:10111000DB78012B0CD13B681B787A6803F1040360
:101120004FEA8303D3189B683A6812695A6118E042
:101130003B68DB78012B14D03B685B69002B10D037
:101140003B681B784FF0010202FA03F3BB617B6836
:101150001B697A681269526B1146BA6941EA020248
:101160005A633B68DB78012B14D17B681B699B6851
:10117000FB60FB68C3F30D239BB203F00103002B5C
:1011800004D17B6943F000537B6103E07B6943F04A
:1011900080537B617B6943F080637B617B6943F0B3
:1011A00000437B613B681B787A6803F104034FEAD4
:1011B0008303D3189B687A691A603B68DB78012B3C
:1011C00040F09A803B68D9683B681A783B685B6955
:1011D0009BB27868FFF7A8F88EE03B681B787A68C6
:1011E00003F114034FEA8303D3185B681B687B6128
:1011F0003B681B787A6803F114034FEA8303D31822
:101200005B681B693B613B685B69002B10D13B68E5
:101210009B6823F07F4222F478023B6962F3120359
:101220003B613B694FF0010262F3DC433B6124E028
:101230003B685A693B689B68D31803F1FF323B68EF
:101240009B68B2FBF3F39BB24FEA83534FEA93538D
:101250009AB23B6962F3DC433B613B69C3F3C94328
:101260009BB23A68926802FB03F323F07F4222F4B8
:1012700078023B6962F312033B613B681B787A6832
:1012800003F114034FEA8303D3185B683A691A61C8
:101290007B68DB78012B0BD13B681B787A6803F104
:1012A00014034FEA8303D3185B683A6812695A61E2
:1012B0003B68DB78012B0CD13B685B79002B04D0B9
:1012C0007B6943F000537B6103E07B6943F080530B
:1012D0007B617B6943F080637B617B6943F0004302
:1012E0007B613B681B787A6803F114034FEA830340
:1012F000D3185B687A691A60FB7F184607F12007EC
:10130000BD4680BD80B489B000AF786039604FF0D1
:101310000003FB774FF00003BB614FF000033B611C
:101320004FF00003BB603B685B78012B79D17B6891
:101330009B697B617B691B683B617B691B69BB6047
:101340003B685B69002B0AD13B7A6FF306033B7263
:10135000BB7A4FF0010262F3C403BB7224E03B6826
:101360005A693B689B689A420ED93B689A683B6809
:101370005A613B689B68DBB203F07F03DAB23B7AC9
:1013800062F306033B7209E03B685B69DBB203F082
:101390007F03DAB23B7A62F306033B72BB7A4FF00B
:1013A000010262F3C403BB72BA687B691A617B688D
:1013B000DB78012B0BD13B681B787A6803F10403BF
:1013C0004FEA8303D3189B683A6812695A613B69F4
:1013D00043F080633B613B6943F000433B613A6902
:1013E0007B691A607B68DB78002B40F087803B6864
:1013F0005B69002B00F082803B681B784FF0010294
:1014000002FA03F3BA6942EA0303BB617B681B6912
:101410007A681269526B1146BA6941EA02025A634C
:101420006CE03B681B787A6803F114034FEA83038E
:10143000D3185B681B683B613B681B787A6803F1D3
:1014400014034FEA8303D3185B681B69BB603B68D6
:101450005B69002B10D13B689B68DBB203F07F0314
:10146000DAB23B7A62F306033B72BB7A4FF00102B9
:1014700062F3C403BB7213E03B689A683B685A612D
:101480003B689B68DBB203F07F03DAB23B7A62F31E
:1014900006033B72BB7A4FF0010262F3C403BB72D6
:1014A0003B681B787A6803F114034FEA8303D3186F
:1014B0005B68BA681A617B68DB78012B0BD13B68EB
:1014C0001B787A6803F114034FEA8303D3185B682F
:1014D0003A6812695A613B6943F080633B613B693A
:1014E00043F000433B613B681B787A6803F11403C7
:1014F0004FEA8303D3185B683A691A60FB7F18468A
:1015000007F12407BD4680BC704700BF80B487B098
:1015100000AF786039604FF00003FB754FF00003B7
:10152000FB603B685B78012B1ED13B681B787A68B7
:1015300003F104034FEA8303D3189B683B613B69C3
:101540001B68FB60FB7B23F07F03DBB2002B03D027
:10155000FB6843F08043FB60FB6843F40013FB60CF
:10156000FA683B691A6013E03B681B787A6803F1FC
:1015700014034FEA8303D3185B683B613B691B6824
:10158000FB60FB6843F40013FB60FA683B691A6078
:10159000FB7D184607F11C07BD4680BC704700BFA5
:1015A00080B487B000AF786039604FF00003FB74FF
:1015B0004FF00003FB603B685B78012B0AD13B686E
:1015C0001B787A6803F104034FEA8303D3189B68FE
:1015D0007B6109E03B681B787A6803F114034FEAEA
:1015E0008303D3185B687B617B691B68FB60FB68C6
:1015F0006FF35553FB603B68DB78032B03D03B68EC
:10160000DB78022B03D1FB6843F08053FB60FA6860
:101610007B691A60FB7C184607F11C07BD4680BC3D
:10162000704700BF80B485B000AF78607B681B69ED
:101630009B69FB607B681B69DB69FA6802EA03034C
:10164000FB60FB684FEA1343184607F11407BD46D9
:1016500080BC704780B485B000AF78600B46FB70EB
:10166000FB787A6803F114034FEA8303D3185B68AD
:101670009B68FB607B681B695B69FA6802EA03038D
:10168000FB60FB68184607F11407BD4680BC704735
:1016900080B485B000AF78607B681B699B69FB6094
:1016A0007B681B69DB69FA6802EA0303FB60FB687D
:1016B0004FEA03434FEA1343184607F11407BD46A8
:1016C00080BC704780B487B000AF78604FF00003F3
:1016D0003B61FB7C43F0C003FB74BB7C4FF0010219
:1016E00062F3C403BB743B7C4FF0180262F3060341
:1016F0003B747B685B6D3A691A617B68DB78012B10
:1017000019D14FF00003FB607B685B6D7A6802F5CE
:10171000B9625A617B685B6D1B68FB60FB6843F0D4
:101720000043FB604FF40043C8F20003FB607B689A
:101730005B6DFA681A6007F11C07BD4680BC7047F4
:1017400080B485B000AF78607B689B7A002B1BD09B
:101750007B681B699B68FB603B7B03F00103DBB28A
:10176000002B11D07B6803F586731B68BB60BB68D8
:101770006FF34103BB60BB686FF30003BB607B6822
:10178000D3F80C31BA681A6007F11407BD4680BC63
:10179000704700BF80B500AF4FF080404FF00101AF
:1017A0000CF0D2FF40F20423C2F200031B6803F1E5
:1017B000010240F20423C2F200031A6040F208233F
:1017C000C2F200031B68002B0BD040F20823C2F2C8
:1017D00000031B6803F1FF3240F20823C2F200034A
:1017E0001A6080BD80B500AF40F20C23C2F2000346
:1017F0001B78002B09D100F00BF840F20C23C2F249
:1018000000034FF001021A7000E000BF80BD00BF6E
:1018100080B58AB000AF3B464FF0804019460BF0D0
:10182000A5FD3B46184622A3D3E900230BF030FE6A
:101830004FF080400BF0DEFE4FF00003BB844FF012
:101840000003FB8340F2E7333B624FF00003BB83AE
:101850004FF0000387F8263007F11C034FF080405B
:1018600019460CF081FE4FF080404FF001014FF01F
:1018700001020CF043FF4FF01C033B764FF00103D5
:10188000FB764FF00E037B764FF00003BB7607F13B
:10189000180318460CF084FA4FF080404FF0010115
:1018A0000CF00CFF07F12807BD4680BDAFF30080A8
:1018B0000000000080842E4180B400AFBD4680BC93
:1018C000704700BF80B400AFBD4680BC704700BF0A
:1018D00080B487B000AF786013460A467A803B80B8
:1018E0004FF00003FB754FF00003FB8140F206034D
:1018F000C2F200034FF013021A704FF00003FB8195
:1019000019E040F21023C2F20003FA894FEA820282
:101910009A18F98942F61873C2F200034FF0980042
:1019200000FB01F15B1803F188031B681360FB895E
:1019300003F10103FB81FB89062BE2D940F210235E
:10194000C2F2000303F11C0242F61873C2F2000354
:10195000D3F84434136040F21023C2F2000303F1C1
:10196000200242F61873C2F20003D3F84834136021
:1019700042F61873C2F20003B3F8502440F2102369
:10198000C2F200039A8440F20403C2F200031B78FF
:101990007A889A4246D37A883B88D21840F2040368
:1019A000C2F200031B78194640F20603C2F200039C
:1019B0001B78CB189A4235DC7A8840F20803C2F2D1
:1019C00000031B78D31A3B6128E040F21023C2F2D7
:1019D00000033A6933F812309BB24FEA13239BB2EB
:1019E000DAB27B681A707B6803F101037B6040F216
:1019F0001023C2F200033A6933F812309BB2DAB214
:101A00007B681A707B6803F101037B603B6903F11B
:101A100001033B613B8803F1FF333B803B88002B94
:101A2000D3D102E04FF00103FB75FB7D184607F1AF
:101A30001C07BD4680BC704790B593B000AFF860FE
:101A400079813A81FB714FF0000387F84730FB68DA
:101A5000BB634FF00003FB8740F20503C2F20003B3
:101A60001B787A899A42C0F004867A893B89D21819
:101A700040F20503C2F200031B78194640F2070347
:101A8000C2F200031B78CB189A4200F3F2857A89E0
:101A900040F20903C2F200031B78D31A3B6440F200
:101AA0000703C2F200034FF020021A70FB79002BEB
:101AB00004D0012B00F0D78500F0DFBD4FF000030C
:101AC000FB8717E040F20003C2F200031B681A46CE
:101AD000FB8F4FEA8303D218F98F42F61873C2F2D4
:101AE000000301F58B7153F821301360FB8F03F174
:101AF0000103FB87FB8F062BE4D940F20003C2F2FF
:101B000000031B6803F11C0242F61873C2F20003C3
:101B1000D3F87434136040F20003C2F200031B6870
:101B200003F1200242F61873C2F20003D3F87834AE
:101B3000136040F20003C2F200031B6803F12402A9
:101B400042F61873C2F20003D3F87C34136040F2FB
:101B50000003C2F200031B6803F1280242F6187367
:101B6000C2F20003D3F88034136040F20003C2F2E3
:101B700000031B6803F12C0242F61873C2F2000343
:101B8000D3F88434136040F20003C2F200031B68F0
:101B900003F1300242F61873C2F20003D3F888341E
:101BA000136040F20003C2F200031B6803F1340229
:101BB00042F61873C2F20003D3F88C34136040F27B
:101BC0000003C2F200031B6803F1380242F61873E7
:101BD000C2F20003D3F89034136040F20003C2F263
:101BE00000031B6803F13C0242F61873C2F20003C3
:101BF000B3F89434138040F20003C2F200031B6870
:101C000003F13E0242F61873C2F20003B3F89634B1
:101C100013802CE040F20003C2F200031A683B6C10
:101C20004FEA4303D3181B884FEA13239BB2DAB25F
:101C3000FB681A70FB6803F10103FB6040F20003CC
:101C4000C2F200031A683B6C4FEA4303D3181B88A7
:101C5000DAB2FB681A70FB6803F10103FB603B6CAE
:101C600003F101033B643B8903F1FF333B813B8973
:101C7000002BCFD100F0FCBC3B6C002BC0F281806C
:101C80003B6C0D2B7DDCC64B7B6307F1340303F10A
:101C90000103FA6812781A70FB6803F10103FB6014
:101CA00007F13403FA6812781A70FB6803F1010334
:101CB000FB6007F1340303F10303FA6812781A702A
:101CC000FB6803F10103FB6007F1340303F1020336
:101CD000FA6812781A70FB6803F10103FB607B6BF2
:101CE0004FF0010214461846AD490DF02BFD034696
:101CF000002B02D14FF000031C46E3B2002B36D07C
:101D00007B6B4FF0010214461846A6490DF010FDFA
:101D10000346002B02D14FF000031C46E3B2002B18
:101D200025D03B6C4FEA6302796B42F61873C2F21E
:101D3000000302F58B7243F8221042F61873C2F2C8
:101D40000003D3F898341A463B6C4FEA63034FEA1A
:101D50008303D2183B6C4FEA63034FEA83018D4B38
:101D6000CB18104619464FF0040201F0EBFD3B6C16
:101D700003F102033B643B89A3F102033B8100F0C2
:101D800072BC3B6CA3F10E03112B00F2408401A244
:101D900052F823F0DD1D00080F260008B91E0008C8
:101DA0000F260008A91F00080F260008852000083C
:101DB0000F260008612100080F2600085D22000898
:101DC0000F260008392300080F26000815240008F4
:101DD0000F260008F124000899250008704B3B638A
:101DE00007F1300303F10103FA6812781A70FB68F7
:101DF00003F10103FB6007F13003FA6812781A70EF
:101E0000FB6803F10103FB6007F1300303F10303F7
:101E1000FA6812781A70FB6803F10103FB6007F19E
:101E2000300303F10203FA6812781A70FB6803F1B9
:101E30000103FB603B6C03F102033B643B89A3F1AC
:101E400002033B813B6B4FF0010214461846544994
:101E50000DF078FC0346002B02D14FF000031C4626
:101E6000E3B2002B00F0D8833B6B4FF00102144625
:101E700018464C490DF05CFC0346002B02D14FF094
:101E800000031C46E3B2002B00F0C8833A6B42F615
:101E90001873C2F20003C3F8742442F61873C2F236
:101EA0000003D3F8983403F11C0318463A494FF065
:101EB000040201F047FDD6E3394BFB6207F12C0326
:101EC00003F10103FA6812781A70FB6803F1010349
:101ED000FB6007F12C03FA6812781A70FB6803F1B3
:101EE0000103FB6007F12C0303F10303FA68127886
:101EF0001A70FB6803F10103FB6007F12C0303F187
:101F00000203FA6812781A70FB6803F10103FB60A0
:101F10003B6C03F102033B643B89A3F102033B8169
:101F2000FB6A4FF00102144618461D490DF00AFCE9
:101F30000346002B02D14FF000031C46E3B2002BF6
:101F400000F06E83FB6A4FF00102144618461549F3
:101F50000DF0EEFB0346002B02D14FF000031C46B0
:101F6000E3B2002B00F05E83FA6A42F61873C2F205
:101F70000003C3F8782442F61873C2F20003D3F8C2
:101F8000983403F12003184604494FF0040201F08D
:101F9000D9FC68E3703300208C330020903300209C
:101FA0000000000000004843A74BBB6207F1280374
:101FB00003F10103FA6812781A70FB6803F1010358
:101FC000FB6007F12803FA6812781A70FB6803F1C6
:101FD0000103FB6007F1280303F10303FA68127899
:101FE0001A70FB6803F10103FB6007F1280303F19A
:101FF0000203FA6812781A70FB6803F10103FB60B0
:102000003B6C03F102033B643B89A3F102033B8178
:10201000BB6A4FF00102144618468B490DF092FB43
:102020000346002B02D14FF000031C46E3B2002B05
:1020300000F0FA82BB6A4FF0010214461846834949
:102040000DF076FB0346002B02D14FF000031C4637
:10205000E3B2002B00F0EA82BA6A42F61873C2F2C9
:102060000003C3F87C2442F61873C2F20003D3F8CD
:10207000983403F12403184670494FF0040201F02C
:1020800061FCF0E2704B7B6207F1240303F1010372
:10209000FA6812781A70FB6803F10103FB6007F11C
:1020A0002403FA6812781A70FB6803F10103FB60DD
:1020B00007F1240303F10303FA6812781A70FB682E
:1020C00003F10103FB6007F1240303F10203FA6843
:1020D00012781A70FB6803F10103FB603B6C03F19B
:1020E00002033B643B89A3F102033B817B6A4FF00F
:1020F00001021446184656490DF024FB0346002BF6
:1021000002D14FF000031C46E3B2002B00F0908296
:102110007B6A4FF00102144618464E490DF008FB49
:102120000346002B02D14FF000031C46E3B2002B04
:1021300000F080827A6A42F61873C2F20003C3F894
:10214000802442F61873C2F20003D3F8983403F1E6
:10215000280318463A494FF0040201F0F3FB82E2EB
:10216000394B3B6207F1200303F10103FA6812784F
:102170001A70FB6803F10103FB6007F12003FA68A2
:1021800012781A70FB6803F10103FB6007F120036A
:1021900003F10303FA6812781A70FB6803F1010374
:1021A000FB6007F1200303F10203FA6812781A704A
:1021B000FB6803F10103FB603B6C03F102033B642A
:1021C0003B89A3F102033B813B6A4FF001021446B5
:1021D000184621490DF0B6FA0346002B02D14FF004
:1021E00000031C46E3B2002B00F026823B6A4FF04E
:1021F00001021446184615490DF09AFA0346002BC1
:1022000002D14FF000031C46E3B2002B00F016820F
:102210003A6A42F61873C2F20003C3F8842442F605
:102220001873C2F20003D3F8983403F12C03184654
:1022300004494FF0040201F085FB14E294330020BE
:10224000983300209C3300200000000000401C4612
:102250000000C8C20000C84200401CC6C84BFB6159
:1022600007F11C0303F10103FA6812781A70FB6886
:1022700003F10103FB6007F11C03FA6812781A707E
:10228000FB6803F10103FB6007F11C0303F1030387
:10229000FA6812781A70FB6803F10103FB6007F11A
:1022A0001C0303F10203FA6812781A70FB6803F149
:1022B0000103FB603B6C03F102033B643B89A3F128
:1022C00002033B81FB694FF0010214461846AC49FA
:1022D0000DF038FA0346002B02D14FF000031C46E4
:1022E000E3B2002B00F0AC81FB694FF00102144611
:1022F0001846A4490DF01CFA0346002B02D14FF0FA
:1023000000031C46E3B2002B00F09C81FA6942F600
:102310001873C2F20003C3F8882442F61873C2F29D
:102320000003D3F8983403F13003184690494FF076
:10233000040201F007FB96E1914BBB6107F1180322
:1023400003F10103FA6812781A70FB6803F10103C4
:10235000FB6007F11803FA6812781A70FB6803F142
:102360000103FB6007F1180303F10303FA68127815
:102370001A70FB6803F10103FB6007F1180303F116
:102380000203FA6812781A70FB6803F10103FB601C
:102390003B6C03F102033B643B89A3F102033B81E5
:1023A000BB694FF001021446184677490DF0CAF98F
:1023B0000346002B02D14FF000031C46E3B2002B72
:1023C00000F04281BB694FF00102144618466F4984
:1023D0000DF0AEF90346002B02D14FF000031C466E
:1023E000E3B2002B00F03281BA6942F61873C2F2F0
:1023F0000003C3F88C2442F61873C2F20003D3F82A
:10240000983403F1340318465A494FF0040201F09E
:1024100099FA28E15A4B7B6107F1140303F1010398
:10242000FA6812781A70FB6803F10103FB6007F188
:102430001403FA6812781A70FB6803F10103FB6059
:1024400007F1140303F10303FA6812781A70FB68AA
:1024500003F10103FB6007F1140303F10203FA68BF
:1024600012781A70FB6803F10103FB603B6C03F107
:1024700002033B643B89A3F102033B817B694FF07C
:1024800001021446184642490DF05CF90346002B40
:1024900002D14FF000031C46E3B2002B00F0D880BD
:1024A0007B694FF00102144618463A490DF040F995
:1024B0000346002B02D14FF000031C46E3B2002B71
:1024C00000F0C8807A6942F61873C2F20003C3F8BC
:1024D000902442F61873C2F20003D3F8983403F143
:1024E0003803184624494FF0040201F02BFABAE0F1
:1024F0004FF000037B8207F1120303F10103FA6836
:1025000012781A70FB6803F10103FB6007F11203F4
:10251000FA6812781A70FB6803F10103FB603B6CE8
:1025200003F101033B643B8903F1FF333B817B8A69
:10253000092B40F291807A8A42F210739A4200F29B
:102540008D807A8A42F61873C2F20003A3F89424AD
:1025500042F61873C2F20003D3F8983403F13C0337
:10256000184606494FF0020201F0ECF97BE000BF8B
:10257000A0330020A4330020A8330020AC33002077
:102580000000000000002041000020420000C8427E
:10259000000020C1000080BF4FF000033B8207F124
:1025A000100303F10103FA6812781A70FB6803F153
:1025B0000103FB6007F11003FA6812781A70FB68D8
:1025C00003F10103FB603B6C03F101033B643B89B6
:1025D00003F1FF333B813B8A042B41D93B8A1E2BFD
:1025E00040D83A8A42F61873C2F20003A3F8962440
:1025F00042F61873C2F20003D3F8983403F13E0395
:10260000184621494FF0020201F09CF92BE03B896A
:1026100003F1FF333B8126E000BF24E000BF22E04E
:1026200000BF20E000BF1EE000BF1CE000BF1AE0BA
:1026300000BF18E000BF16E000BF14E000BF12E0CA
:1026400000BF10E000BF0EE000BF0CE000BF0AE0DA
:1026500000BF08E000BF06E000BF04E000BF02E0EA
:1026600000BF00E000BF3B89002B7FF405AB00BF3B
:1026700003E04FF0010387F8473097F847301846DA
:1026800007F14C07BD4690BDAE33002080B485B045
:1026900000AFF86079813A81FB714FF00103184671
:1026A00007F11407BD4680BC704700BF80B483B0FB
:1026B00000AF786013460A467A803B804FF00103F2
:1026C000184607F10C07BD4680BC704780B584B042
:1026D00000AF3B600346FB710B46BB7113467B7139
:1026E0004FF00003FB73BB79002B05D0BB79002BA7
:1026F00002D0BB79F72B03D94FF00203FB7379E0CB
:1027000040F21033C2F20003BA791A70FB79002B41
:1027100054D140F21833C2F2000349F6C972C0F630
:1027200000021A6040F21C33C2F2000349F6F5724F
:10273000C0F600021A6040F21433C2F200034AF2FB
:10274000B102C0F600021A6040F22033C2F2000368
:102750004AF21502C0F600021A6040F22433C2F2B7
:1027600000034FF000021A6042F6E003C2F20003D9
:102770004AF2D512C0F600021A6042F6D803C2F23D
:1027800000034AF2C522C0F600021A6042F6DC03DA
:10279000C2F200034AF26932C0F600021A6040F247
:1027A0001033C2F2000319787A793B7E084611464D
:1027B0003A6807F0C7FB0346FB7302E04FF00203E1
:1027C000FB73FB7B002B15D100F0B4FD0346002BFF
:1027D00003D14FF00303FB730CE040F21133C2F25C
:1027E0000003FA791A7040F20C03C2F200034FF0B2
:1027F00001021A70FB7B184607F11007BD4680BD29
:1028000080B582B000AF4FF00003FB7140F20C03C3
:10281000C2F200031B78012B0DD140F21833C2F233
:1028200000031B68984740F20C03C2F200034FF00C
:1028300000021A7002E04FF00603FB71FB791846A4
:1028400007F10807BD4680BD90B583B000AF4FF0DB
:102850000003FB7040F20C03C2F200031B78002B54
:1028600002D04FF0060308E107F10203184600F01A
:102870008BFD0346012B40F0FE80BB78032B00F25A
:10288000FA8001A252F823F0772A0008992800085C
:10289000FB280008772A000840F22033C2F2000328
:1028A0001B6840F22830C2F2000040F22C31C2F224
:1028B000000140F23032C2F2000298470346FB703A
:1028C000FB78002B40F0D28040F22833C2F20003A4
:1028D0001A7840F21033C2F200031B789A4207D0F4
:1028E00040F22833C2F200031B78002B40F0C08076
:1028F0004FF0020000F02EFDBDE040F22C33C2F29A
:1029000000031B681A7840F23233C2F200031A70D7
:1029100040F23333C2F200034FF001021A704FF05D
:1029200000037B6036E040F21003C2F200037A68D5
:1029300013F83230002B31D040F21003C2F2000302
:102940007A6813F8322040F23233C2F200031B7867
:102950009A421BD140F21002C2F200027B684FEA99
:10296000C303D3185A6840F22C33C2F200031B6829
:10297000184640F23031C2F20001904703461A4631
:1029800040F23333C2F200031A7008E07B6803F1AF
:1029900001037B607B680F2BC5DD00E000BF40F2C8
:1029A0002833C2F200031B78002B63D040F233338C
:1029B000C2F200031B78002B3DD040F23033C2F24C
:1029C00000034FF000021A8040F22C33C2F20003E1
:1029D000196840F23033C2F200031A881346C9184E
:1029E00040F23233C2F200031B7863F07F03DBB2A4
:1029F0000B7002F101039AB240F23033C2F20003CD
:102A00001A8040F22C33C2F20003196840F23033CE
:102A1000C2F200031A881346C91840F23333C2F2D7
:102A200000031B780B7002F101039AB240F23033BD
:102A3000C2F200031A8040F21433C2F200031C6891
:102A400040F21033C2F20003197840F22C33C2F284
:102A500000031A6840F23033C2F200031B880846B4
:102A600011461A46A0470346FB7004E000BF02E08F
:102A700000BF00E000BF4FF00003184607F10C074D
:102A8000BD4690BD80B500AF42F61873C2F2000398
:102A900093F85334002B1BD142F61873C2F2000393
:102AA000D3F87C1442F61873C2F20003D3F88024E2
:102AB00042F61873C2F20003D3F884340846114674
:102AC0001A4642F6EC03C2F2000300F003F800E0FD
:102AD00000BF80BD80B58AB004AFF860B9607A608D
:102AE0003B603B68414A5A603B68404A1A603B6819
:102AF000FA689A603B68BA68DA603B687A681A617B
:102B00003B689B68184639490CF0FEFD0346002BD4
:102B10000AD13B689B68364819460CF015FD034600
:102B20001A463B685A6102E03B68304A5A613B688A
:102B3000DB6818462D490CF0E7FD0346002B0AD14F
:102B40003B68DB682B4819460CF0FEFC03461A462E
:102B50003B689A6102E03B68244A9A614FF00200A8
:102B60004FF0010103F080F84FF000033B754FF088
:102B70000003BB754FF00103FB754FF000037B753D
:102B80004FF440733B6107F110034FF48060C4F2CF
:102B90000200194606F088FD42F61873C2F20003DF
:102BA0004FF0000283F854244FF6D023C0F6000300
:102BB0004FF00102009242F60812C2F200020192A6
:102BC0004FF0000202924FF00002039242F6AD6015
:102BD000C0F6000019464FF080024FF0000305F0E8
:102BE00053FA07F11807BD4680BD00BF0000000082
:102BF000000048430000604190B58BB000AFF86022
:102C0000B9607A60F868B9680CF0E0FA03467B6155
:102C10007B689B681846A0490CF076FD0346002BA4
:102C20000AD17B689B689D4819460CF08DFC0346D1
:102C30001A467B685A6102E07B68974A5A617B6852
:102C40005B694FF001021446184679690CF066FD85
:102C50000346002B02D14FF000031C46E3B2002BC9
:102C60000AD07B689A687B685B69104619460CF04D
:102C7000B7FB03467B6228E07B685B6983F0004317
:102C80004FF001021446184679690CF065FD0346C1
:102C9000002B02D14FF000031C46E3B2002B0CD0F6
:102CA0007B689A687B685B6983F00043104619462D
:102CB0000CF096FB03467B6207E07B689B68184636
:102CC00079690CF08DFB03467B627B68DB681846F4
:102CD00071490CF019FD0346002B0AD17B68DB68B3
:102CE0006F4819460CF030FC03461A467B689A611F
:102CF00002E07B68684A9A617B685B68184679697C
:102D00000CF066FA03463B617B689B694FF0010259
:102D10001446184639690CF001FD0346002B02D118
:102D20004FF000031C46E3B2002B0ED07B68DA683C
:102D30007B689B69104619460CF052FB0346FB6109
:102D40007B689A697B685A6033E07B689B6983F093
:102D500000434FF001021446184639690CF0FCFCA0
:102D60000346002B02D14FF000031C46E3B2002BB8
:102D700012D07B68DA687B689B6983F00043104659
:102D800019460CF02DFB0346FB617B689B6983F0C1
:102D900000427B685A600CE07B683A695A607B6845
:102DA000DA687B685B68104619460CF019FB03462D
:102DB000FB617B681C697B681B681846B9680CF06E
:102DC00005FA0346204619460CF00AFB03463B620F
:102DD0004FF001031C46386A32490CF0BDFC034633
:102DE000002B02D14FF000031C46E3B2002B02D0AF
:102DF0002C4B3B6211E04FF001031C46386A2A4914
:102E00000CF08CFC0346002B02D14FF000031C4653
:102E1000E3B2002B01D0244B3B627B68BA681A6096
:102E2000786AF9690CF0D4F903461846396A0CF04F
:102E3000CFF90346BB614FF001031C46B86919493D
:102E40000CF08AFC0346002B02D14FF000031C4615
:102E5000E3B2002B02D0134BBB6111E04FF0010332
:102E60001C46B8690C490CF059FC0346002B02D1F2
:102E70004FF000031C46E3B2002B01D0064BBB61B0
:102E8000B8690CF073FC03469BB21BB2184607F1FD
:102E90002C07BD4690BD00BF000000000000484365
:102EA000000060410000C8420000C8C280B582B086
:102EB00000AF786043F2C433C2F200034FF0000267
:102EC00083F84C2000E000BF43F2B833C2F20003A5
:102ED0001B6818464FF000014FF0FF324FF000031F
:102EE00008F0ACFD0346012BEDD142F61873C2F297
:102EF0000003D3F87C2442F6EC03C2F200039A608C
:102F000042F61873C2F20003D3F8802442F6EC03B1
:102F1000C2F20003DA6042F61873C2F20003D3F87B
:102F2000842442F6EC03C2F200031A614FF480607D
:102F3000C4F202004FF4007106F0A2FC0346002B1D
:102F40006BD142F61873C2F2000393F85434002B8D
:102F50003DD042F61873C2F200034FF0000283F82E
:102F6000542442F6EC03C2F20003684A5A6042F667
:102F7000EC03C2F20003654A1A6042F6EC03C2F2A7
:102F800000039B68184662490CF022F90346614829
:102F900019460CF0D9FA03461A4642F6EC03C2F27F
:102FA00000035A6142F6EC03C2F20003DB681846E4
:102FB00057490CF00DF90346574819460CF0C4FA6E
:102FC00003461A4642F6EC03C2F200039A6142F647
:102FD0001873C2F20003D3F8742442F61873C2F2D5
:102FE0000003C3F8482442F61873C2F20003D3F872
:102FF000742442F61873C2F20003D3F84434104626
:10300000194642F6EC02C2F20002FFF7F5FD034654
:10301000DBB2184603F0CCFD6AE042F61873C2F248
:10302000000393F85434012B3DD042F61873C2F2DA
:1030300000034FF0010283F8542442F6EC03C2F27D
:103040000003324A5A6042F6EC03C2F200032F4AF0
:103050001A6042F6EC03C2F200039B6818462C4942
:103060000CF0B6F803462B4819460CF06DFA0346EF
:103070001A4642F6EC03C2F200035A6142F6EC0330
:10308000C2F20003DB68184621490CF0A1F80346A0
:10309000214819460CF058FA03461A4642F6EC034A
:1030A000C2F200039A6142F61873C2F20003D3F829
:1030B000782442F61873C2F20003C3F8482442F69B
:1030C0001873C2F20003D3F8782442F61873C2F2E0
:1030D0000003D3F844341046194642F6EC02C2F21B
:1030E0000002FFF789FD0346DBB2184603F060FDDE
:1030F00043F2C433C2F200039B6C03F1010243F2BA
:10310000C433C2F200039A64DEE600BF0000000090
:103110000000803F000048430000604180B586B059
:1031200004AF4FF0000300934FF000004FF00A018E
:103130004FF000024FF46143FFF7C8FA0346FB71FA
:103140004FF6D423C0F600034FF0010200924FF077
:10315000000201924FF0000202924FF0000203922F
:1031600043F28110C0F6000019464FF480724FF010
:10317000000304F089FF07F10807BD4680BD00BFCA
:1031800080B582B000AF7860FFF73AFB43F2C433FA
:10319000C2F200034FF000021A71FFF755FB4FF027
:1031A0000A0005F0CDF843F2C433C2F200031B68F5
:1031B00003F1010243F2C433C2F200031A60ECE7E8
:1031C00080B586B000AF786039604FF00003BB7502
:1031D0003B681B88052B40F082807B6803F101036C
:1031E0001B784FEA0323BB827B6803F102031B7841
:1031F0001A46BB8A42EA0303BB82BB8A03F101037E
:10320000BB827B6803F103031B784FEA03237B82B5
:103210007B6803F104031B781A467B8A42EA0303A6
:103220007B827B8A002B56D07A8A40F2CF739A42F7
:1032300051D87B68FB603B684FF000021A80FB6846
:103240004FF002021A70FB6803F10103FB603B6858
:103250001B8803F101039AB23B681A807B8A03F052
:103260000703002B08D07B8A4FEAD3039BB2DBB263
:1032700003F10103FB7504E07B8A4FEAD3039BB2A1
:10328000FB75FB68FA7D1A70FB6803F10103FB60B4
:103290003B681B8803F101039AB23B681A80BA8A23
:1032A0007B8AF86811461A46FFF700FA0346FB725C
:1032B000FB7A002B06D0FB7A184600F0D7FA0346BB
:1032C000BB750FE03B681A88FB7D9BB2D3189AB29E
:1032D0003B681A8006E04FF00303BB7502E04FF035
:1032E0000303BB75BB7D184607F11807BD4680BDBB
:1032F00080B400AFBD4680BC704700BF80B483B0CF
:1033000000AF0346FB7107F10C07BD4680BC704758
:1033100080B400AFBD4680BC704700BF80B400AF32
:10332000BD4680BC704700BF80B400AFBD4680BCC6
:10333000704700BF80B400AF40F23533C2F20003E3
:103340004FF000021A704FF001031846BD4680BCD2
:10335000704700BF80B483B000AF0346FB7140F2FA
:103360003533C2F200034FF001021A7040F23433D9
:10337000C2F20003FA791A704FF00103184607F100
:103380000C07BD4680BC704780B485B000AF786044
:103390004FF00003FB7340F23533C2F200031B7899
:1033A000002B10D040F23433C2F200031A787B684D
:1033B0001A7040F23533C2F200034FF000021A7067
:1033C0004FF00103FB73FB7B184607F11407BD4662
:1033D00080BC704780B586B004AF4FF002004FF05C
:1033E000010102F041FC4FF004004FF0010102F036
:1033F0003BFC4FF480633B604FF000037B714FF068
:1034000001033B714FF00003BB714FF00003FB71F0
:103410003B464FF48060C4F20200194606F044F9BE
:103420004FF48060C4F202004FF480614FF000025C
:1034300006F046FA4FF6DC23C0F600034FF0010217
:10344000009242F60C12C2F2000201924FF000020A
:1034500002924FF00002039243F27940C0F600005E
:1034600019464FF040024FF0000304F00DFE07F143
:103470000807BD4680BD00BF80B582B000AF786050
:1034800042F61013C2F200031B78012B40F00881B2
:1034900042F61013C2F200035B78072B00F2FC80A7
:1034A00001A252F823F000BFC93400080335000818
:1034B0003D35000877350008B1350008EB350008C8
:1034C000253600085F3600084FF48060C4F2020021
:1034D0004FF480614FF0010206F0F2F94FF4FA70F8
:1034E00004F02EFF4FF48060C4F202004FF48061BC
:1034F0004FF0000206F0E4F94FF4FA7004F020FFF8
:10350000CEE04FF48060C4F202004FF480614FF0CF
:10351000010206F0D5F94FF0640004F011FF4FF4FA
:103520008060C4F202004FF480614FF0000206F0A8
:10353000C7F94FF0C80004F003FFB1E04FF480601A
:10354000C4F202004FF480614FF0010206F0B8F9B6
:103550004FF0640004F0F4FE4FF48060C4F2020007
:103560004FF480614FF0000206F0AAF94FF0C80056
:1035700004F0E6FE94E04FF48060C4F202004FF4E1
:1035800080614FF0010206F09BF94FF0640004F0F7
:10359000D7FE4FF48060C4F202004FF480614FF018
:1035A000000206F08DF94FF0C80004F0C9FE77E084
:1035B0004FF48060C4F202004FF480614FF00102CA
:1035C00006F07EF94FF0640004F0BAFE4FF480601C
:1035D000C4F202004FF480614FF0000206F070F96F
:1035E0004FF0C80004F0ACFE5AE04FF48060C4F223
:1035F00002004FF480614FF0010206F061F94FF0D4
:10360000640004F09DFE4FF48060C4F202004FF4A9
:1036100080614FF0000206F053F94FF0C80004F04B
:103620008FFE3DE04FF48060C4F202004FF48061F1
:103630004FF0010206F044F94FF0640004F080FE00
:103640004FF48060C4F202004FF480614FF000023A
:1036500006F036F94FF0C80004F072FE20E04FF497
:103660008060C4F202004FF480614FF0010206F066
:1036700027F94FF0640004F063FE4FF48060C4F259
:1036800002004FF480614FF0000206F019F94FF08C
:10369000C80004F055FE03E04FF4FA7004F050FE49
:1036A00043F2C433C2F200039B6803F1010243F208
:1036B000C433C2F200039A60E2E600BF80B582B074
:1036C00000AF02460B46FA71BB71BB7903F00103F0
:1036D000DBB2002B1DD042F61013C2F200031B78A0
:1036E000002B0ED142F60C13C2F200031B681846E1
:1036F00004F0E4FE42F61013C2F200034FF00102A0
:103700001A7043F2C433C2F200034FF000021A737E
:1037100026E042F61013C2F200031B78012B0ED1F3
:1037200042F60C13C2F200031B68184604F036FE82
:1037300042F61013C2F200034FF000021A7043F277
:10374000C433C2F200034FF001021A734FF48060D9
:10375000C4F202004FF480614FF0000206F0B0F8AE
:10376000FB7903F00703DAB242F61013C2F200034A
:103770005A7007F10807BD4680BD00BF80B582B012
:1037800000AF786039607B6803F1010240F2583382
:10379000C2F200031B88104640F23831C2F2000129
:1037A0001A460CF055F840F25833C2F200031B8859
:1037B00003F101039AB23B681A804FF000031846E8
:1037C00007F10807BD4680BD80B483B000AF034653
:1037D000FB714FF02003C4F20E23FA791A6007F14F
:1037E0000C07BD4680BC704780B485B000AF7860E0
:1037F0004FF00003FB604FF4E043C4F200031B688A
:10380000FB60FB6823F0E003FB60FA687B6842EA38
:103810000303FB604FF4E043C4F20003FA681A604C
:1038200007F11407BD4680BC704700BF80B483B069
:1038300000AF0346FB714FF01003C4F20E23FA7978
:103840001A6007F10C07BD4680BC704780B483B096
:1038500000AF0346FB714FF0A403C4F20E23FA79C4
:103860001A6007F10C07BD4680BC704780B485B074
:1038700000AF0346FB71FB79012B07D0072B09D062
:10388000002B0BD14FF00003FB730BE04FF0020352
:10389000FB7307E04FF00603FB7303E04FF00403F4
:1038A000FB7300BFFB7B184607F11407BD4680BCC5
:1038B000704700BF80B582B000AF4FF67873C0F696
:1038C00000037B6040F20003C2F200033B600BE0A8
:1038D0007B681A683B681A603B6803F104033B602D
:1038E0007B6803F104037B603A6840F20023C2F274
:1038F00000039A42ECD3074807494FF00002884280
:10390000B8BF40F8042BFADB00F014FF07F10807FA
:10391000BD4680BD00020020583F002080B400AFAB
:10392000FEE700BF80B500AF4FF480204FF00101EB
:1039300002F09AF94FF080504FF0010102F0F0F9D7
:1039400080BD00BF80B586B000AFF860B960134697
:10395000FB714FF00003FB7544F24003C4F2020315
:103960003B614FF00100FFF72FFF4FF00100FFF721
:103970006DFF4FF00003FB750BE0FA68FB7DD31879
:10398000B968FA7D8A1812781A70FB7D03F1010379
:10399000FB75FA7DFB799A42EFD342F61873C2F2B7
:1039A0000003D3F8983418464FF0400102F02EF887
:1039B0000346DAB23B691A704FF00000FFF704FFCC
:1039C00007F11807BD4680BD80B483B000AF034641
:1039D000FB804FF44053C4F20003FA881A6007F1E9
:1039E0000C07BD4680BC704780B483B000AF03466F
:1039F000FB714FF44053C4F20003FA795A6007F1A7
:103A00000C07BD4680BC704780B483B000AF03464E
:103A1000FB804FF44053C4F20003FA889A6007F128
:103A20000C07BD4680BC704780B400AF4FF44053D4
:103A3000C4F200034AF6AA221A60BD4680BC704751
:103A400080B400AF4FF44053C4F200034CF6CC42B4
:103A50001A60BD4680BC704780B584B004AF00F0EA
:103A600021F84FF6E423C0F600034FF00102009264
:103A70004FF0000201924FF0000202924FF000025C
:103A8000039243F68940C0F6000019464FF08002C9
:103A90004FF0000304F0F8FA4FF000031846BD465B
:103AA00080BD00BF80B588B000AF4FF002004FF07E
:103AB000010102F0D9F84FF480404FF0010102F00B
:103AC0002FF94FF42043BB614FF002037B774FF097
:103AD00002033B774FF00003BB774FF00003FB7707
:103AE00007F118034FF48060C4F20200194605F094
:103AF000DBFD4FF48043BB614FF002037B774FF057
:103B000002033B774FF00003BB774FF00003FB77D6
:103B100007F118034FF48060C4F20200194605F063
:103B2000C3FD4FF48053BB614FF001033B774FF06F
:103B30000003BB774FF00003FB774FF002037B7766
:103B400007F118034FF48060C4F20200194605F033
:103B5000ABFD4FF48060C4F202004FF00D014FF056
:103B6000050205F0C5FE4FF48060C4F202004FF07C
:103B70000F014FF0050205F0BBFE4FF48060C4F268
:103B800002004FF00E014FF0050205F0B1FE4FF0BC
:103B90000003BB804FF48273FB804FF000033B8136
:103BA0004FF000037B814FF00103BB814FF40073A2
:103BB000FB814FF028033B824FF000037B8207F12B
:103BC00004034FF46050C4F20000194609F0DEFD12
:103BD0004FF46050C4F200004FF0000109F042FEC3
:103BE0004FF46050C4F200004FF0010109F01AFEDA
:103BF0004FF48063C4F202034FF48062C4F2020205
:103C0000128B92B242F4805292B21A8307F12007CB
:103C1000BD4680BD80B483B000AF0346FB7100BFDA
:103C20004FF46053C4F200031B899BB203F00203FC
:103C3000002BF5D04FF46053C4F20003FA7992B22E
:103C40009A8100BF4FF46053C4F200031B899BB2FA
:103C500003F00103002BF5D04FF46053C4F20003CE
:103C60009B899BB2DBB2184607F10C07BD4680BCAE
:103C7000704700BF80B500AF4FF0FF00FFF7CAFFED
:103C80000346184680BD00BF80B582B000AF7860A3
:103C90004FF48063C4F202034FF48062C4F2020264
:103CA000528B92B242F4805292B25A834FF0060085
:103CB000FFF7B0FF4FF00A0004F042FB4FF0400066
:103CC000FFF7A8FF4FF00600FFF7A4FF4FF00A0030
:103CD00004F036FB4FF04800FFF79CFF4FF0560012
:103CE000FFF798FF4FF00A0004F02AFB4FF04C005A
:103CF000FFF790FF4FF06200FFF78CFF4FF00A00D4
:103D000004F01EFB43F2C433C2F200034FF0000282
:103D100083F82C204FF00800FFF77CFF00BF4FF422
:103D20008060C4F202004FF4804105F0A9FD034613
:103D3000012BF4D0FFF79EFF03461A4642F62013EC
:103D4000C2F200031A6042F62013C2F200031B689D
:103D50004FEA032242F62013C2F200031A60FFF773
:103D600089FF03461A4642F62013C2F200031B687D
:103D70001A4342F62013C2F200031A6042F62013DF
:103D8000C2F200031B684FEA032242F62013C2F27C
:103D900000031A60FFF76EFF03461A4642F620132F
:103DA000C2F200031B681A4342F62013C2F200035A
:103DB0001A6042F62013C2F200031A684FF6FF732E
:103DC000C0F27F039A420ED942F62013C2F20003DA
:103DD0001B6803F17F4202F1010242F61413C2F2A2
:103DE00000031A600AE042F62013C2F200031B68C7
:103DF0001A4642F61413C2F200031A6042F6141374
:103E0000C2F200031B68184600F018F8024642F69A
:103E10001873C2F20003C3F844244FF0640004F0A6
:103E20008FFA43F2C433C2F200039B6A03F101022A
:103E300043F2C433C2F200039A626BE7B0B586B0B6
:103E400000AF7860244B7B6142F66253C0F23303CB
:103E50003B614FF01803C0F25A03FB607A683B697C
:103E6000D31A18460BF068FA034618460AF04CFEBF
:103E700002460B46104619464FF000024FF08043B1
:103E800003F5D2030AF094FE02460B4614461D4683
:103E9000FA683B69D31A18460AF024FE02460B461C
:103EA000204629460AF0AEFF02460B461046194648
:103EB0004FF000024FF000030AF0C8FC02460B4628
:103EC000104619460BF02EF903467B617B691846B4
:103ED00007F11807BD46B0BD0000000080B584B0F2
:103EE00000AF786039604FF00003FB733B681B88BC
:103EF000052B2BD17B6803F101031B784FEA0323C9
:103F0000BB817B6803F102031B781A46BB8942EA36
:103F10000303BB81BB8903F10103BB817B6803F110
:103F20000302BB89104619464FF001024FF001030E
:103F3000FDF782FD0346FB72FB7A002B09D0FB7A6A
:103F40001846FFF793FC0346FB7302E04FF00303B0
:103F5000FB73FB7B184607F11007BD4680BD00BF11
:103F600080B584B000AF786039604FF00003FB7318
:103F70003B681B88052B57D97B6803F101031B782D
:103F80004FEA0323BB817B6803F102031B781A46C7
:103F9000BB8942EA0303BB81BB8903F10103BB81F7
:103FA0007B6803F103031B784FEA03237B817B6863
:103FB00003F104031B781A467B8942EA03037B81E1
:103FC0007B6803F105031B787B727B89002B27D06C
:103FD0007B89782B24D87B89DBB24FEA4303DBB2A1
:103FE0007A7A9A421CD17B6803F10601BA897B89EF
:103FF000084611461A464FF00103FDF71DFD034622
:104000003B723B7A002B06D03B7A1846FFF72EFC1A
:104010000346FB730BE03B684FF005021A8006E095
:104020004FF00303FB7302E04FF00303FB73FB7BD2
:10403000184607F11007BD4680BD00BF80B586B0A9
:1040400000AF786039604FF00003FB753B681B8858
:10405000052B70D17B6803F101031B784FEA032322
:10406000BB827B6803F102031B781A46BB8A42EAD3
:104070000303BB82BB8A03F10103BB827B6803F1AC
:1040800003031B784FEA03237B827B6803F104035D
:104090001B787B827B8A002B49D07B8A7D2B46D87C
:1040A0007B68FB603B684FF000021A80FB684FF0B2
:1040B00003021A70FB6803F10103FB603B681B8875
:1040C00003F101039AB23B681A807B8ADBB24FEAA4
:1040D0004303DAB2FB681A70FB6803F10103FB606B
:1040E0003B681B8803F101039AB23B681A80BA8AC5
:1040F0007B8AF86811461A464FF00003FDF79CFCD6
:104100000346FB72FB7A002B06D0FB7A1846FFF7BA
:10411000ADFB0346FB7511E03B681A887B8A4FEACA
:1041200043039BB2D3189AB23B681A8006E04FF063
:104130000303FB7502E04FF00303FB75FB7D18469C
:1041400007F11807BD4680BD80B586B000AF786026
:1041500039604FF00003FB753B681B88092B40F268
:10416000BC807B6803F101031B784FEA0323BB8209
:104170007B6803F102031B781A46BB8A42EA0303F9
:10418000BB82BB8A03F10103BB827B6803F103039B
:104190001B784FEA03237B827B6803F104031B78BF
:1041A0001A467B8A42EA03037B827B6803F105039C
:1041B0001B784FEA03233B827B6803F106031B78DD
:1041C0001A463B8A42EA03033B823B8A03F101031E
:1041D0003B827B6803F107031B784FEA0323FB81D3
:1041E0007B6803F108031B781A46FB8942EA030344
:1041F000FB817B6803F109031B787B737B8A002BAF
:1042000068D07B8A7D2B65D8FB89002B62D0FB8927
:10421000792B5FD8FB894FEA43027B7B9A4259D1C5
:104220007B6803F10A013A8AFB89084611461A465F
:104230004FF00103FDF700FC0346BB75BB7D002B6F
:104240003ED17B68BB603B684FF000021A80BB68C0
:104250004FF017021A70BB6803F10103BB603B68A3
:104260001B8803F101039AB23B681A807B8ADBB298
:104270004FEA4303DAB2BB681A70BB6803F101036B
:10428000BB603B681B8803F101039AB23B681A804C
:10429000BA8A7B8AB86811461A464FF00003FDF7C8
:1042A000CBFB0346BB75BB7D002B09D13B681A884D
:1042B0007B8A4FEA43039BB2D3189AB23B681A80B9
:1042C000BB7D002B09D0BB7D1846FFF7CFFA034614
:1042D000FB7502E04FF00303FB75FB7D184607F109
:1042E0001807BD4680BD00BF80B584B000AFF86040
:1042F0007A603B600B46FB72F86806F0BDFBF8681D
:1043000000F01EF8FB683A68C3F8E025FB68BA695C
:10431000C3F8E425FB687A68C3F8E825FB7AF868F7
:10432000194609F0B1FDFB68D3F8E4351B689847DE
:10433000F86806F01BFC07F11007BD4680BD00BF02
:1043400080B483B000AF78604FF00003184607F1E7
:104350000C07BD4680BC704780B584B000AF786064
:1043600007F108037868194607F0BEF83B7A03F0B6
:104370001F03012B0AD0022B0FD0002B14D107F101
:1043800008037868194606F077FC16E007F1080381
:104390007868194606F0C2FC0FE007F10803786858
:1043A000194606F0F3FC08E03B7A23F07F03DBB20A
:1043B0007868194609F01AFF00BF4FF0000318464D
:1043C00007F11007BD4680BD80B584B000AF7860AE
:1043D0000B46FB70FB78002B45D17B6803F55C73C3
:1043E000FB607B6893F81131032B4FD1FB68DA69CE
:1043F000FB689B689A4221D9FB68DA69FB689B6875
:10440000D21AFB68DA617B68DB78012B06D1FB6886
:10441000DA68FB689B68D218FB68DA60FB68DA68C8
:10442000FB689968FB68DB69994238BF0B469BB211
:10443000786811461A460AF043F827E07B68D3F8FB
:10444000E0351B69002B0AD07B6893F81231032BEF
:1044500005D17B68D3F8E0351B69786898477868A0
:104460000AF046F812E07B68D3F8E0359B69002B30
:104470000CD07B6893F81231032B07D17B68D3F8FB
:10448000E0359B69FA787868114698474FF0000349
:10449000184607F11007BD4680BD00BF80B584B047
:1044A00000AF78600B46FB70FB78002B63D17B6814
:1044B00003F58C73FB607B6893F81131022B6ED18E
:1044C000FB68DA69FB689B689A421CD9FB68DA6969
:1044D000FB689B68D21AFB68DA617B68DB78012B8A
:1044E00006D1FB68DA68FB689B68D218FB68DA6063
:1044F000FB68DA68FB68DB699BB2786811461A468C
:1045000009F0A2FF4CE0FB681B6AFA689268B3FBF3
:10451000F2F102FB01F29B1A002B17D1FB681A6A19
:10452000FB689B689A4211D3FB681A6AFB685B6A56
:104530009A420BD278684FF000014FF0000209F068
:1045400083FFFB684FF000025A6229E07B68D3F8D2
:10455000E035DB68002B0AD07B6893F81231032B1F
:1045600005D17B68D3F8E035DB68786898477868D0
:1045700009F0DCFF14E07B68D3F8E0355B69002BC1
:104580000ED07B6893F81231032B09D17B68D3F8E6
:10459000E0355B69FA7878681146984700E000BF1B
:1045A0004FF00003184607F11007BD4680BD00BF5D
:1045B00080B582B000AF786078684FF000014FF0AE
:1045C00040024FF0000309F0F5FC78684FF08001DD
:1045D0004FF040024FF0000309F0ECFC7B684FF015
:1045E000010283F812217B68D3F8E4355B687A68AE
:1045F0009278104698474FF00003184607F10807D5
:10460000BD4680BD80B582B000AF78607B68D3F8CE
:10461000E4351B6998477B684FF0030283F8122149
:104620004FF00003184607F10807BD4680BD00BFE4
:1046300080B582B000AF78607B684FF0040283F8E9
:1046400012217B68D3F8E435DB6898474FF000030C
:10465000184607F10807BD4680BD00BF80B582B08F
:1046600000AF78607B68D3F8E035DB69002B05D0BC
:104670007B68D3F8E035DB69786898474FF0000332
:10468000184607F10807BD4680BD00BF80B582B05F
:1046900000AF78600B46FB707B68D3F8E0351B6891
:1046A000FA787868114698477B68D3F8E4359B68B8
:1046B00098474FF00003184607F10807BD4680BD34
:1046C00080B582B000AF78600B46FB707B68D3F892
:1046D000E0355B68FA787868114698474FF0000338
:1046E000184607F10807BD4680BD00BF80B582B0FF
:1046F00000AF78607B68D3F8E0351B6A786898472C
:104700004FF00003184607F10807BD4680BD00BF03
:1047100080B582B000AF78607B68D3F8E0355B6A23
:10472000786898474FF00003184607F10807BD4620
:1047300080BD00BF80B582B002AF05F045FE42F6F5
:104740001873C2F200034FF0000283F853240AF0FA
:1047500027F8FFF7E7F802F033F902F0C7FCFFF79C
:104760007BF905F023FF00F013FDFEF78BF900F055
:104770007FF8FEF72FFE04F015FE40F29003C2F220
:104780000003009342F62410C2F200004FF0010132
:1047900040F22012C2F2000240F2D413C2F200032F
:1047A000FFF7A2FDFEF7BAFC02F00EFC03F0E4FEF8
:1047B000FEE700BF80B400AFFEE700BF80B483B067
:1047C00000AF78603960FEE780B582B000AF09F0D5
:1047D00009FE03467B607B6807F10807BD4680BD84
:1047E00080B485B000AF78600B467B804FF0FF034C
:1047F000FB734FF0FF03BB731DE07B681A78BB7B34
:1048000082EA0303DBB2BB607B6803F101037B60D8
:104810004FF6F423C0F60003BA689B181A78FB7BA6
:1048200082EA0303BB734FF6F433C0F60003BA68A1
:104830009B181B78FB737B88002B0CBF0023012384
:10484000DBB27A8802F1FF327A80002BD5D1FB7B74
:104850004FEA03239AB2BB7B9BB242EA03039BB2AB
:104860009BB2184607F11407BD4680BC704700BFD5
:1048700080B586B004AF4FF00003FB714FF000032A
:10488000BB7142F61873C2F2000393F85334002B45
:1048900040F091804FF00003FB7165E0FA7942F639
:1048A0001873C2F200034FF0980101FB02F29B184B
:1048B00003F190034FF002021A70FA7942F618736E
:1048C000C2F200034FF0980101FB02F29B1803F1C2
:1048D00088034FF000029A80FA7942F61873C2F208
:1048E00000034FF0980101FB02F29B1803F18803CB
:1048F000334A1A60FA7942F61873C2F200034FF095
:10490000980101FB02F29B1803F188034FF00002AB
:10491000DA80FA7942F61873C2F200034FF0980178
:1049200001FB02F29B18FA791A704FF00003BB7179
:1049300013E0F979BB7942F61872C2F200024FF027
:10494000260000FB01F1CB184FEA8303D3181D4A60
:104950005A60BB7903F10103BB71BB791F2BE8D906
:10496000FB7903F10103FB71FB79062B96D942F623
:104970001873C2F200034FF0000283F852244FF67E
:10498000F443C0F600034FF0010200924FF0000222
:1049900001924FF0000202924FF00002039244F69F
:1049A000C910C0F6000019464FF080024FF0000316
:1049B00003F06AFB00E000BF07F10807BD4680BDB9
:1049C000000000000000484390B58BB004AF786051
:1049D0004FF00003FB8242F61873C2F2000393F813
:1049E0005434002B07D142F61873C2F20003D3F8F7
:1049F00074343B6106E042F61873C2F20003D3F848
:104A000078343B6142F61873C2F20003D3F84434A1
:104A1000184639690AF0DAFB0346FB604FF00103E0
:104A20001C46F86852490AF079FE0346002B02D171
:104A30004FF000031C46E3B2002B52D0FB6883F01A
:104A40000043FB604EE042F61873C2F20003D3F855
:104A50004434184639690AF0B9FB0346FB604FF04D
:104A600001031C46F86842490AF058FE0346002B31
:104A700002D14FF000031C46E3B2002B03D0FB68C9
:104A800083F00043FB604FF47A7003F059FCFB8A1B
:104A900003F10103FB8242F61873C2F20003B3F87C
:104AA0009434FA8A9A421DD342F61873C2F2000374
:104AB0004FF0050283F8522442F61873C2F2000345
:104AC0004FF0040283F853244FF000004FF001012F
:104AD000FEF7F4FD02F04CF94FF0000003F0D0FBBC
:104AE00000E000BF4FF001031C46F86821490AF0BE
:104AF00033FE0346002B02D14FF000031C46E3B205
:104B0000002BA0D142F61873C2F2000393F853347D
:104B1000002B24D142F61873C2F200034FF00102B9
:104B200083F852244FF60C53C0F600034FF00102F5
:104B3000009242F61472C2F2000201924FF000029B
:104B400002924FF00002039244F67930C0F6000062
:104B500019464FF080024FF0000303F095FA4FF032
:104B6000000003F08DFB07F11C07BD4690BD00BFA0
:104B7000000000000000803F80B584B000AF786086
:104B80004FF00003FB7343F2C433C2F200034FF053
:104B900000021A7743F2A453C2F200031B681846BE
:104BA0004FF000014FF0FF324FF0000306F046FFD8
:104BB0000346012B17D14FF00003FB7310E0FB7B82
:104BC0004FF0980202FB03F242F61873C2F20003A0
:104BD000D318184600F0AAF9FB7B03F10103FB731D
:104BE000FB7B062BEBD943F2C433C2F200039B6973
:104BF00003F1010243F2C433C2F200039A61C9E730
:104C000090B589B000AF78600B46FB704FF00003A1
:104C1000FB774FF00003BB774FF000037B774FF03B
:104C200000033B774FF00003FB7624E0FB7E7A68BD
:104C30004FF0980101FB03F3D31803F190031B78A5
:104C4000012B14D1FA7F7968FB7E4FF0980000FBAE
:104C500003F3C9187B6802F5857243F82210FB7FC5
:104C600003F10103FB77BB7F03F10103BB77FB7EFD
:104C700003F10103FB76FA7EFB789A42D6D3BB7F21
:104C8000002B47D0FB7F03F1FF33FB763FE04FF073
:104C90000003BB7633E0BA7E7B6802F5857253F879
:104CA00022301A78BB7E03F101017B6801F5857122
:104CB00053F821301B789A421DD9BA7E7B6802F5E1
:104CC000857253F822307B61BA7EBB7E03F101010D
:104CD0007B6801F5857153F821107B6802F58572B8
:104CE00043F82210BB7E03F1010279697B6802F56B
:104CF000857243F82210BB7E03F10103BB76BA7EB6
:104D0000FB7E9A42C7D3FB7E03F1FF33FB76FB7E2B
:104D1000002BBCD14FF00003FB7624E0FB7E7A68C9
:104D20004FF0980101FB03F3D31803F190031B78B4
:104D3000002B14D1FA7F7968FB7E4FF0980000FBBE
:104D400003F3C9187B6802F5857243F82210FB7FD4
:104D500003F10103FB777B7F03F101037B77FB7E8C
:104D600003F10103FB76FA7EFB789A42D6D37B7F70
:104D7000002B5BD0FB7F03F1FF33FB7650E0FA7F23
:104D80007B7FD31ABB7643E0BA7E7B6802F58572DF
:104D900053F82230D3F88820BB7E03F101017B68F1
:104DA00001F5857153F82130D3F888304FF00101B7
:104DB0000C46104619460AF0CFFC0346002B02D1E0
:104DC0004FF000031C46E3B2002B1DD0BA7E7B6877
:104DD00002F5857253F822303B61BA7EBB7E03F147
:104DE00001017B6801F5857153F821107B6802F59C
:104DF000857243F82210BB7E03F1010239697B689A
:104E000002F5857243F82210BB7E03F10103BB76E5
:104E1000BA7EFB7E9A42B7D3FB7E03F1FF33FB766B
:104E2000FA7EF97F7B7FCB1A9A42A8DC4FF0000311
:104E3000FB7624E0FB7E7A684FF0980101FB03F3D8
:104E4000D31803F190031B78022B14D1FA7F7968F1
:104E5000FB7E4FF0980000FB03F3C9187B6802F556
:104E6000857243F82210FB7F03F10103FB773B7F40
:104E700003F101033B77FB7E03F10103FB76FA7E2E
:104E8000FB789A42D6D33B7F002B4BD0FB7F03F1BC
:104E9000FF33FB7640E0FA7F3B7FD31ABB7633E0EB
:104EA000BA7E7B6802F5857253F822301A78BB7E91
:104EB00003F101017B6801F5857153F821301B78FE
:104EC0009A421DD9BA7E7B6802F5857253F822306A
:104ED000FB60BA7EBB7E03F101017B6801F5857141
:104EE00053F821107B6802F5857243F82210BB7ECF
:104EF00003F10102F9687B6802F5857243F822101C
:104F0000BB7E03F10103BB76BA7EFB7E9A42C7D318
:104F1000FB7E03F1FF33FB76FA7EF97F3B7FCB1AF2
:104F20009A42B8DC07F12407BD4690BD90B589B020
:104F300000AF78607B6893F89030012B00F0178108
:104F4000022B02D0002B5CD018E17B6893F88430F0
:104F50007A684FEA8303D3185A687B6893F88430E1
:104F6000194642F61873C2F20003B3F89634CB1A0E
:104F700003F01F0379684FEA8303CB185B68104680
:104F800019460AF023F903467B6142F61873C2F210
:104F90000003D3F888344FF00102144618467969AB
:104FA0000AF0BCFB0346002B02D14FF000031C4665
:104FB000E3B2002B00F0DD807B68D3F8882042F656
:104FC0001873C2F20003D3F88C344FF001010C4681
:104FD000104619460AF0C0FB0346002B02D14FF0E1
:104FE00000031C46E3B2002B00F0C5807B684FF045
:104FF000000283F890207B684FF00002A3F88C2019
:10500000BCE0624B3B61614BFB617B6893F8843091
:10501000FB7342F61873C2F20003B3F89634DBB2A6
:10502000FA7BD31ADBB203F01F03FB7611E0FB7EA1
:1050300003F01F037A684FEA8303D3185B68F869AB
:1050400019460AF0C5F80346FB61FB7E03F1010334
:10505000FB76FB7E03F01F02FB7B9A42E7D142F610
:105060001873C2F20003B3F8963418460AF064F9D4
:105070000346F86919460AF067FA03463B617B6804
:10508000B3F88C3003F101039AB27B68A3F88C204B
:105090007B681B781A4642F61873C2F2000302F5C9
:1050A0008B7253F822304FF00102144618463969CA
:1050B0000AF034FB0346002B02D14FF000031C46DC
:1050C000E3B2002B17D07B684FF0010283F89020E9
:1050D0007B684FF00002A3F88C2042F61873C2F2EE
:1050E00000034FF0010283F852244FF000004FF00C
:1050F0000101FEF7E3FA7B6893F884307A684FEA9F
:105100008303D3185A687B6893F88430194642F6B3
:105110001873C2F20003B3F89634CB1A03F01F03DE
:1051200079684FEA8303CB185B68104619460AF08A
:105130004DF80346BB6042F61873C2F20003D3F881
:1051400090344FF0010214461846B9680AF004FB87
:105150000346002B02D14FF000031C46E3B2002BA4
:105160000BD07B684FF0020283F8902006E000BF6E
:1051700004E000BF02E000BF00E000BF4FF000030A
:10518000184607F12407BD4690BD00BF000000008F
:1051900090B585B000AF4FF00003FB7342F6187373
:1051A000C2F200034FF48042C4F20202C3F8982412
:1051B00044F24003C4F20203BB6042F61873C2F229
:1051C0000003D3F8983418464FF0400100F01EFC5D
:1051D0000346FB71BB681B78FA799A4240F0A383BF
:1051E0004FF00003FB7368E042F61873C2F200034D
:1051F000D3F89834FA7B53F822304FF0010214466A
:105200001846CB490AF09EFA0346002B02D14FF014
:1052100000031C46E3B2002B2BD042F61873C2F2F7
:105220000003D3F89834FA7B53F822304FF0010290
:1052300014461846BF490AF07BFA0346002B02D1F8
:105240004FF000031C46E3B2002B12D0FA7B42F66B
:105250001873C2F20003D3F89834F97B53F8211085
:1052600042F61873C2F2000302F58B7243F8221063
:105270001FE0FA7B42F61873C2F2000302F58B724C
:10528000AD4943F8221042F61873C2F20003D3F876
:1052900098341A46FB7B4FEA8303D218FB7B4FEA14
:1052A00083019F4BCB18104619464FF00402FEF7BE
:1052B00049FBFB7B03F10103FB73FB7B062B93D9BB
:1052C00042F61873C2F20003D3F89834DB694FF04A
:1052D00001021446184696490AF034FA0346002B98
:1052E00002D14FF000031C46E3B2002B24D042F65B
:1052F0001873C2F20003D3F89834DB694FF001024F
:10530000144618468B490AF013FA0346002B02D1C3
:105310004FF000031C46E3B2002B0DD042F6187389
:10532000C2F20003D3F89834DA6942F61873C2F275
:105330000003C3F8742414E042F61873C2F20003A9
:105340007D4AC3F8742442F61873C2F20003D3F8FE
:10535000983403F11C03184672494FF00402FEF71B
:10536000F1FA42F61873C2F20003D3F898341B6ABC
:105370004FF00102144618466D490AF0E3F903465E
:10538000002B02D14FF000031C46E3B2002B24D0C7
:1053900042F61873C2F20003D3F898341B6A4FF038
:1053A00001021446184663490AF0C2F90346002B6D
:1053B00002D14FF000031C46E3B2002B0DD042F6A1
:1053C0001873C2F20003D3F898341A6A42F61873BD
:1053D000C2F20003C3F8782414E042F61873C2F254
:1053E0000003554AC3F8782442F61873C2F200034A
:1053F000D3F8983403F1200318464B494FF00402C8
:10540000FEF7A0FA42F61873C2F20003D3F89834FC
:105410005B6A4FF001021446184645490AF092F9BA
:105420000346002B02D14FF000031C46E3B2002BD1
:1054300024D042F61873C2F20003D3F898345B6AA2
:105440004FF00102144618463C490AF071F9034630
:10545000002B02D14FF000031C46E3B2002B0DD00D
:1054600042F61873C2F20003D3F898345A6A42F62F
:105470001873C2F20003C3F87C2414E042F61873D8
:10548000C2F200032E4AC3F87C2442F61873C2F21B
:105490000003D3F8983403F12403184623494FF04E
:1054A0000402FEF74FFA42F61873C2F20003D3F873
:1054B00098349B6A4FF001021446184621490AF0BD
:1054C00041F90346002B02D14FF000031C46E3B222
:1054D000002B3BD042F61873C2F20003D3F8983485
:1054E0009B6A4FF001021446184617490AF020F94A
:1054F0000346002B02D14FF000031C46E3B2002B01
:1055000024D042F61873C2F20003D3F898349A6A92
:1055100042F61873C2F20003C3F880242BE000BFE8
:10552000703300208C33002090330020943300200F
:1055300000000000000048430000D24200401C462A
:10554000000010410000C8C20000C84242F61873B3
:10555000C2F20003C04AC3F8802442F61873C2F2B4
:105560000003D3F8983403F128031846B5494FF0E7
:105570000402FEF7E7F942F61873C2F20003D3F80B
:105580009834DB6A4FF0010214461846B3490AF01A
:10559000D9F80346002B02D14FF000031C46E3B2BA
:1055A000002B24D042F61873C2F20003D3F89834CB
:1055B000DB6A4FF0010214461846A9490AF0B8F810
:1055C0000346002B02D14FF000031C46E3B2002B30
:1055D0000DD042F61873C2F20003D3F89834DA6A99
:1055E00042F61873C2F20003C3F8842414E042F6B2
:1055F0001873C2F200039B4AC3F8842442F618735E
:10560000C2F20003D3F8983403F12C0318468E49F4
:105610004FF00402FEF796F942F61873C2F2000347
:10562000D3F898341B6B4FF00102144618468E498C
:105630000AF088F80346002B02D14FF000031C4605
:10564000E3B2002B24D042F61873C2F20003D3F861
:1056500098341B6B4FF001021446184683490AF038
:1056600067F80346002B02D14FF000031C46E3B25B
:10567000002B0DD042F61873C2F20003D3F8983411
:105680001A6B42F61873C2F20003C3F8882414E0C0
:1056900042F61873C2F20003754AC3F8882442F632
:1056A0001873C2F20003D3F8983403F1300318469C
:1056B00066494FF00402FEF745F942F61873C2F24C
:1056C0000003D3F898349B6B4FF001021446184640
:1056D00068490AF037F80346002B02D14FF0000367
:1056E0001C46E3B2002B24D042F61873C2F200032A
:1056F000D3F898349B6B4FF00102144618465E496C
:105700000AF016F80346002B02D14FF000031C46A6
:10571000E3B2002B0DD042F61873C2F20003D3F8A7
:1057200098349A6B42F61873C2F20003C3F89024BF
:1057300014E042F61873C2F20003504AC3F89024F2
:1057400042F61873C2F20003D3F8983403F1380319
:1057500018463F494FF00402FEF7F4F842F618737A
:10576000C2F20003D3F898345B6B4FF00102144689
:105770001846434909F0E6FF0346002B02D14FF0DB
:1057800000031C46E3B2002B24D042F61873C2F289
:105790000003D3F898345B6B4FF0010214461846AF
:1057A000384909F0C5FF0346002B02D14FF0000332
:1057B0001C46E3B2002B0DD042F61873C2F2000370
:1057C000D3F898345A6B42F61873C2F20003C3F848
:1057D0008C2414E042F61873C2F200032A4AC3F87C
:1057E0008C2442F61873C2F20003D3F8983403F104
:1057F0003403184617494FF00402FEF7A3F842F6A7
:105800001873C2F20003D3F898349B8F092B3DD94B
:1058100042F61873C2F20003D3F898349A8F42F21A
:1058200010739A4232D842F61873C2F20003D3F8CA
:1058300098349A8F42F61873C2F20003A3F89424A6
:105840003AE000BF983300209C330020A0330020B2
:10585000A8330020A4330020BC74133C00401CC6B5
:1058600000401C460080BB440000000000002041B6
:1058700000008040000020C1000080BF000000C088
:10588000000020420000C8420000344242F6187373
:10589000C2F200034FF49662A3F8942442F6187300
:1058A000C2F20003D3F8983403F13C0318464E4982
:1058B0004FF00202FEF746F842F61873C2F20003F8
:1058C000D3F89834DB8F042B16D942F61873C2F242
:1058D0000003D3F89834DB8F1E2B0DD842F61873D3
:1058E000C2F20003D3F89834DA8F42F61873C2F28A
:1058F0000003A3F8962473E042F61873C2F2000383
:105900004FF00A02A3F8962442F61873C2F200037D
:10591000D3F8983403F13E03184634494FF002029D
:10592000FEF710F85CE04FF00003FB730DE0FA7B2C
:1059300042F61873C2F2000302F58B722C4943F849
:105940002210FB7B03F10103FB73FB7B062BEED9DB
:1059500042F61873C2F20003264AC3F87C2442F6CA
:105960001873C2F20003244AC3F8802442F6187365
:10597000C2F20003214AC3F8842442F61873C2F22B
:1059800000031B4AC3F8742442F61873C2F20003E2
:10599000174AC3F8782442F61873C2F20003184A73
:1059A000C3F8882442F61873C2F20003154AC3F8FC
:1059B000902442F61873C2F20003134AC3F88C24F1
:1059C00042F61873C2F200034FF49662A3F89424CF
:1059D00042F61873C2F200034FF00A02A3F89624AD
:1059E00007F11407BD4690BDAC330020AE33002054
:1059F0000000D24200001041BC74133C0080BB4444
:105A000000008040000000C00000344280B487B035
:105A100000AF78600B46FB704FF00003FB757B68AE
:105A20003B61FB78FB732BE03B691A78FB7D82EAD4
:105A30000303FB753B6903F101033B61FB7D03F04D
:105A40000103DBB2002B02D04FF0800301E04FF0E6
:105A50000003FA7D4FEA5202D2B2D1B21A460B4687
:105A600042EA0303DBB2FB75FB7D5BB2002B03DA7A
:105A7000FB7D83F03C03FB75FB7B03F1FF33FB7382
:105A8000FB7B002BD0D1FB7D184607F11C07BD46E0
:105A900080BC704780B489B000AF78604FF00003DD
:105AA000BB614FF000037B614FF00003FB614FF0DF
:105AB00002033B614FF00003FB604FF00203BB6049
:105AC0004FF46053C4F202039B6803F00C03BB6104
:105AD000BB69042B0AD0082B0FD0002B64D17A6845
