:020000040800F2
:10000000883E00205D310008C5310008C531000878
:10001000C5310008C5310008C531000800000000E6
:1000200000000000000000000000000009AD000812
:10003000C5310008000000000DAE000849AE000800
:10004000C5310008C1D60008C5310008C531000817
:10005000C5310008C5310008C15C0008155E000804
:10006000C5310008C5310008C5310008C531000898
:10007000C5310008C5310008C5310008C531000888
:10008000C5310008C5310008C5310008C531000878
:10009000C5310008C5310008C5310008C531000868
:1000A000C5310008C5310008C5310008C531000858
:1000B00095170008C5310008E1890008C53100081E
:1000C000C5310008C5310008C5310008C531000838
:1000D000C5310008C5310008C5310008C531000828
:1000E000C5310008C5310008C19A0008C5310008B3
:1000F000C5310008C5310008C5310008C531000808
:10010000C5310008C5310008C5310008C5310008F7
:10011000C5310008C5310008C5310008C5310008E7
:10012000C5310008C5310008C5310008C5310008D7
:10013000C5310008C5310008C5310008C5310008C7
:10014000C5310008C5310008C5310008059B00080D
:10015000C5310008C5310008C5310008C5310008A7
:10016000C5310008C5310008C5310008C531000897
:10017000C5310008C5310008C5310008C531000887
:10018000C5310008C531000890B484B000AF024604
:100190000B46FA71BB714FF00003FB60BB7903F0B3
:1001A00003034FEA83034FF00F0202FA03F3FB60ED
:1001B0004FF46053C4F20103BA794FEA9202D2B20B
:1001C00010464FF46052C4F20102B9794FEA91012E
:1001D000C9B201F1020152F821201146FA686FEA12
:1001E0000202114000F1020243F822104FF4605362
:1001F000C4F20103BA794FEA9202D2B210464FF428
:100200006052C4F20102B9794FEA9101C9B201F119
:10021000020152F821201146FC79BA7902F003025A
:100220004FEA820204FA02F2114300F1020243F89B
:10023000221007F11007BD4690BC704780B485B00E
:1002400000AF78604FF00003FB607B68DB684FF025
:10025000FF325A607B68DB684FF0FF325A61FB68FF
:1002600043F00043FB60FB6843F40063FB607B6882
:10027000DB68FA689A6107F11407BD4680BC7047D5
:1002800080B586B000AF78604FF00003FB744FF08C
:1002900000037B614FF00003FB604FF0030009F0A7
:1002A000D3FB7B68DB681B69FB607B6903F101039F
:1002B0007B617A694FF45463C0F203039A4202D916
:1002C0004FF000032AE0FB6803F00043002BE4D06A
:1002D0004FF000037B61FB6843F00103FB607B6828
:1002E000DB68FA681A617B68DB681B69FB607B6905
:1002F00003F101037B617A694FF45463C0F2030395
:100300009A4205D8FB6803F00103002BEBD100E013
:1003100000BF4FF0030009F097FBFB7C184607F184
:100320001807BD4680BD00BF80B489B000AFF8603B
:10033000B960FA71BB804FF00003FB76FB68DB7895
:10034000002B2DD14FF000037B614FF00003FB61C8
:10035000BB8803F1030303F10302002BB8BF13466C
:100360004FEAA3037B61FB79FA6803F132034FEA9A
:100370008303D3189B683B614FF00003FB610BE0E4
:10038000BB681A683B691A60FB6903F10103FB61F2
:10039000BB6803F10403BB60FA697B699A42EFD33F
:1003A000FB7E184607F12407BD4680BC704700BF9E
:1003B00080B489B000AFF860B9601346FB804FF09D
:1003C0000003FB61FB8803F1030303F10302002B2D
:1003D000B8BF13464FEAA303BB61FB68D3F8D03024
:1003E0007B614FF00003FB610BE0BB687A69126828
:1003F0001A60FB6903F10103FB61BB6803F10403AD
:10040000BB60FA69BB699A42EFD3BB68184607F133
:100410002407BD4680BC704780B487B000AF7860C9
:100420000B46FB704FF000033B614FF00003FB7382
:100430007B684FF00002DA707B684FF001029A701F
:100440007B684FF040029A80FB78012B17D14FF068
:10045000A0433B617B684FF00102DA727B684FF08A
:1004600008021A707B684FF004025A707B684FF4E0
:10047000A072DA807B684FF002021A7217E0FB78F4
:10048000002B14D14FF00003C4F204033B617B68DE
:100490004FF00002DA727B684FF00C021A707B6832
:1004A0004FF006025A707B684FF4A062DA803A6916
:1004B0007B68DA603B6903F500631A467B681A6162
:1004C0004FF000037B6123E07B694FEA43123B69F5
:1004D000D31803F510631A4679687B6903F10403A6
:1004E0004FEA8303CB189A607B694FEA43123B695A
:1004F000D31803F530631A4679687B6903F1140356
:100500004FEA8303CB185A607B6903F101037B61D7
:100510007B685B781A467B699A42D5D83B6903F5BC
:1005200080631A467B685A613B6903F588631A4603
:100530007B68C3F8CC204FF000037B6113E07B693C
:100540004FEA43123B69D31803F5A0631A46796852
:100550007B6903F122034FEA8303CB189A607B691E
:1005600003F101037B617B681B781A467B699A4221
:10057000E5D84FF000037B6113E07B694FEA03325B
:100580003B69D31803F580531A4679687B6903F1F8
:1005900032034FEA8303CB189A607B6903F10103AE
:1005A0007B617B681B781A467B699A42E5D83B6978
:1005B00003F560631A467B68C3F80C21FB7B184681
:1005C00007F11C07BD4680BC704700BF80B588B0EE
:1005D00000AF78604FF00003FB774FF00003BB6182
:1005E0004FF000037B614FF00003FB607B681B7AD8
:1005F000012B51D17B68DB689B6B7B617B696FF35F
:1006000010437B617B685B7A002B03D07B6943F4EA
:1006100080137B617B68DB687A699A634FF0000323
:10062000BB617B68DB68DB68BB61BB696FF386130A
:10063000BB61BB696FF39653BB61BB6943F01003A9
:10064000BB61BB696FF3C303BB61BB696FF3C713C6
:10065000BB61BB696FF35143BB61BB696FF3D343AC
:10066000BB617B68DB68BA69DA607868FFF708FE0F
:100670007B68DB78012B40F08980FB684FF0050236
:1006800062F34403FB60FB6843F02003FB607B687C
:10069000DB68FA689A6079E07B68DB68DB68BB61DD
:1006A000BB6943F04003BB617B68DB68BA69DA6011
:1006B0007868FFF7E5FD4FF000037B617B6943F449
:1006C00080337B617B681B7A032B03D17B6943F406
:1006D00000337B617B6943F480237B617B6943F456
:1006E00000237B617B6943F400137B617B685B7A49
:1006F000002B03D07B6943F480137B617B68DB684C
:100700007A699A634FF0140009F0CAF97B68DB68D4
:10071000DB68BB617B681B7A032B03D1BB6943F4A5
:100720008033BB617B68DB68BA69DA607B681B7AFF
:10073000032B2BD17B68DB681B6B3B613B694FF064
:10074000010262F39B633B613B696FF3D7533B61EB
:100750003B6943F080533B613B694FF02D0262F3EC
:1007600016433B617B68DB683A691A634FF0C80047
:1007700009F096F93B6943F400033B617B68DB6851
:100780003A691A634FF0C80009F08AF97B68DB7890
:10079000012B11D17B68DB689B68FB60FB684FF025
:1007A000050262F34403FB60FB6843F02003FB6037
:1007B0007B68DB68FA689A60FB7F184607F12007C0
:1007C000BD4680BD80B485B000AF78604FF00003B7
:1007D000FB734FF00003BB60BB6843F00103BB60D9
:1007E0007B68DB687A68D26892681146BA6841EA29
:1007F00002029A60FB7B184607F11407BD4680BCD5
:10080000704700BF80B485B000AF78604FF0000340
:10081000FB734FF00003BB60BB6843F00103BB6098
:100820007B68DB687A68D26892681146BA686FEABA
:10083000020201EA02029A60FB7B184607F11407E4
:10084000BD4680BC704700BF80B586B000AF786001
:1008500039604FF00003FB744FF000037B614FF0F1
:100860000003FB60FB6843F02003FB603B68DBB2E6
:1008700003F01F03DAB2FB6862F38A13FB607B6844
:10088000DB68FA681A617B68DB681B69FB607B695F
:1008900003F101037B617A694FF45463C0F20303EF
:1008A0009A4205D8FB6803F02003002BEBD100E04F
:1008B00000BF4FF0030009F0C7F8FB7C184607F1B2
:1008C0001807BD4680BD00BF80B586B000AF786018
:1008D0004FF00003FB744FF000037B614FF0000307
:1008E000FB60FB6843F01003FB607B68DB68FA6821
:1008F0001A617B68DB681B69FB607B6903F101039C
:100900007B617A694FF45463C0F203039A4205D8BD
:10091000FB6803F01003002BEBD100E000BF4FF0A9
:10092000030009F091F8FB7C184607F11807BD4653
:1009300080BD00BF80B584B000AF78600B46FB700F
:100940004FF00003FB737B68DB68DB68BB60BB6850
:100950006FF35D73BB60BB686FF39E73BB60FB7826
:10096000012B04D1BB6843F00053BB6006E0FB7869
:10097000002B03D1BB6843F08043BB607B68DB681E
:10098000BA68DA604FF0320009F08AF8FB7B18464B
:1009900007F11007BD4680BD80B483B000AF78601A
:1009A0007B68DB685B6903F00103184607F10C07FD
:1009B000BD4680BC704700BF80B582B000AF786094
:1009C0007868FFF7E9FF0346012B0CBF00230123E2
:1009D000DBB2184607F10807BD4680BD80B485B07C
:1009E00000AF78604FF00003FB607B68DB685B69F9
:1009F000FB607B68DB689B69FA6802EA0303FB60C3
:100A0000FB68184607F11407BD4680BC704700BF5D
:100A100080B485B000AF78600B46FB707B681B69C3
:100A20001B68FB60FB7803F00303DAB2FB6862F338
:100A30000103FB607B681B69FA681A6007F1140701
:100A4000BD4680BC704700BF80B58CB000AF7860F9
:100A50004FF0000387F82B304FF000037B624FF01C
:100A600000033B624FF00003FB614FF00003BB61EA
:100A70004FF000037B617B68D3F80C314FF000022C
:100A80001A607B681B691B683B623B6A6FF3CC236F
:100A90003B627B681B693A6A1A607B68DB7A012BD0
:100AA00040D178684FF00301FFF7B2FF7B68DB6845
:100AB0004FF080025A624FF02003FB834FF0800317
:100AC000BB837B68DB68FA699A62BA8BFB8BD318AD
:100AD0009BB23B834FF080037B837B68DB68BA6902
:100AE000C3F804213A8B7B8BD3189BB23B834FF026
:100AF00020037B837B68DB6803F5827303F10403C7
:100B0000BA691A603A8B7B8BD3189BB23B834FF048
:100B100000037B837B68DB6803F5827303F10803C2
:100B2000BA691A6078684FF01001FFF78DFE786897
:100B3000FFF7CAFE7B681B694FF000021A617B68F1
:100B40001B694FF000025A617B681B694FF0FF324E
:100B50009A617B681B694FF00002DA614FF0000375
:100B6000FB6243E07A68FB6A03F104034FEA830304
:100B7000D3189B681B687B6297F8273023F07F03AC
:100B8000DBB2002B0BD04FF000037B627B6A43F09B
:100B900080437B627B6A43F000637B6202E04FF03C
:100BA00000037B627A68FB6A03F104034FEA830364
:100BB000D3189B687A6A1A607A68FB6A03F10403A7
:100BC0004FEA8303D3189B684FF000021A617A68DA
:100BD000FB6A03F104034FEA8303D3189B684FF0C9
:100BE000FF029A60FB6A03F10103FB627B685B789A
:100BF0001A46FB6A9A42B5D84FF00003FB6242E006
:100C00007A68FB6A03F114034FEA8303D3185B6825
:100C10001B68FB60FB7B23F07F03DBB2002B0BD058
:100C20004FF00003FB60FB6843F08043FB60FB6810
:100C300043F00063FB6002E04FF00003FB607A6862
:100C4000FB6A03F114034FEA8303D3185B68FA6865
:100C50001A607A68FB6A03F114034FEA8303D3181E
:100C60005B684FF000021A617A68FB6A03F11403B3
:100C70004FEA8303D3185B684FF0FF029A60FB6A68
:100C800003F10103FB627B685B781A46FB6A9A42B8
:100C9000B6D84FF000037B617B6943F480737B61BE
:100CA0007B681B697A681269126911467A696FEA72
:100CB000020211407A6941EA02021A617B68DB781C
:100CC000012B1ED14FF000033B613B6943F0010350
:100CD0003B613B6943F002033B613B694FF04002DB
:100CE00062F38A033B613B6943F480333B613B69B8
:100CF0004FF0400262F359433B617B681B693A69DC
:100D00001A63786800F008F897F82B30184607F156
:100D10003007BD4680BD00BF80B584B000AF7860AD
:100D20004FF00003FB734FF00003BB607B68DB6890
:100D30004FF000029A617B68DB684FF0FF325A6126
:100D40007868FFF77BFA7B68DB78002B03D1BB6800
:100D500043F01003BB60BB6843F40063BB60BB6837
:100D600043F48053BB60BB6843F40053BB60BB6873
:100D700043F48023BB60BB6843F40023BB60BB68C3
:100D800043F00803BB60BB6843F48013BB60BB68DF
:100D900043F40013BB607B68DB687A68D2689269B1
:100DA0001146BA686FEA02021140BA6841EA0202CB
:100DB0009A61FB7B184607F11007BD4680BD00BF56
:100DC00080B485B000AF78604FF00003FB737B68A0
:100DD0001B699B68BB60BB68C3F34103DBB2022B9A
:100DE0000BD0032B05D0012B03D04FF00303FB7373
:100DF00007E04FF00203FB7303E04FF00103FB73C6
:100E000000BFFB7B184607F11407BD4680BC704746
:100E100080B487B000AF78604FF00003FB754FF0EF
:100E20000003BB607B681B699B683B617B689B69B7
:100E30001B68FB603B69C3F34103DBB2022B04D0A8
:100E4000FB686FF30A03FB6006E0FB684FF00302E8
:100E500062F30A03FB6000BF7B689B69FA681A6053
:100E6000BB6843F48073BB607B681B697A68126956
:100E700052681146BA686FEA02021140BA6841EA44
:100E800002025A60FB7D184607F11C07BD4680BC74
:100E9000704700BF80B487B000AF786039604FF012
:100EA0000003FB744FF00003FB604FF00003BB60D6
:100EB0003B685B78012B12D13B681B787A6803F1A1
:100EC00004034FEA8303D3189B687B613B681B785C
:100ED0004FF0010202FA03F39BB23B8111E03B6841
:100EE0001B787A6803F114034FEA8303D3185B6815
:100EF0007B613B681B784FF0010202FA03F39BB25F
:100F00007B817B691B68FB607B7B23F07F03DBB20B
:100F1000002B29D13B689B689BB24FEA43534FEAB1
:100F200053539AB2FB6862F30A03FB603B68DB78B9
:100F300003F00303DAB2FB6862F39343FB603B68A0
:100F4000DB88DBB203F00F03DAB2FB6862F399537C
:100F5000FB60FB6843F08053FB60FB6843F4004395
:100F6000FB60FA687B691A607B681B697A681269A2
:100F7000D2691146BA6841EA0202DA61FB7C18467E
:100F800007F11C07BD4680BC704700BF80B487B026
:100F900000AF786039604FF00003FB744FF000033E
:100FA000FB604FF00003BB603B685B78012B12D104
:100FB0003B681B787A6803F104034FEA8303D31874
:100FC0009B687B613B681B784FF0010202FA03F3D8
:100FD0009BB23B8111E03B681B787A6803F11403F4
:100FE0004FEA8303D3185B687B613B681B784FF043
:100FF000010202FA03F39BB27B81FB686FF3CF33EC
:10100000FB60FA687B691A607B681B697A68126901
:10101000D2691146BA686FEA020201EA0202DA6195
:10102000FB7C184607F11C07BD4680BC704700BF1B
:1010300080B588B000AF786039604FF00003FB776F
:101040004FF00003BB614FF000037B614FF00003E2
:101050003B613B685B78012B40F0BF803B681B78AD
:101060007A6803F104034FEA8303D3189B681B6873
:101070007B613B681B787A6803F104034FEA8303C2
:10108000D3189B681B693B613B685B69002B0AD1E5
:101090003B696FF312033B613B694FF0010262F35E
:1010A000DC433B6128E03B685B6923F07F4222F42C
:1010B00078023B6962F312033B613B685A693B6803
:1010C0009B68D31803F1FF323B689B68B2FBF3F3D4
:1010D0009BB24FEA83534FEA93539AB23B6962F350
:1010E000DC433B613B68DB78012B05D13B694FF06A
:1010F000010262F35E733B613B681B787A6803F11F
:1011000004034FEA8303D3189B683A691A617B682A
:10111000DB78012B0CD13B681B787A6803F1040360
:101120004FEA8303D3189B683A6812695A6118E042
:101130003B68DB78012B14D03B685B69002B10D037
:101140003B681B784FF0010202FA03F3BB617B6836
:101150001B697A681269526B1146BA6941EA020248
:101160005A633B68DB78012B14D17B681B699B6851
:10117000FB60FB68C3F30D239BB203F00103002B5C
:1011800004D17B6943F000537B6103E07B6943F04A
:1011900080537B617B6943F080637B617B6943F0B3
:1011A00000437B613B681B787A6803F104034FEAD4
:1011B0008303D3189B687A691A603B68DB78012B3C
:1011C00040F09A803B68D9683B681A783B685B6955
:1011D0009BB27868FFF7A8F88EE03B681B787A68C6
:1011E00003F114034FEA8303D3185B681B687B6128
:1011F0003B681B787A6803F114034FEA8303D31822
:101200005B681B693B613B685B69002B10D13B68E5
:101210009B6823F07F4222F478023B6962F3120359
:101220003B613B694FF0010262F3DC433B6124E028
:101230003B685A693B689B68D31803F1FF323B68EF
:101240009B68B2FBF3F39BB24FEA83534FEA93538D
:101250009AB23B6962F3DC433B613B69C3F3C94328
:101260009BB23A68926802FB03F323F07F4222F4B8
:1012700078023B6962F312033B613B681B787A6832
:1012800003F114034FEA8303D3185B683A691A61C8
:101290007B68DB78012B0BD13B681B787A6803F104
:1012A00014034FEA8303D3185B683A6812695A61E2
:1012B0003B68DB78012B0CD13B685B79002B04D0B9
:1012C0007B6943F000537B6103E07B6943F080530B
:1012D0007B617B6943F080637B617B6943F0004302
:1012E0007B613B681B787A6803F114034FEA830340
:1012F000D3185B687A691A60FB7F184607F12007EC
:10130000BD4680BD80B489B000AF786039604FF0D1
:101310000003FB774FF00003BB614FF000033B611C
:101320004FF00003BB603B685B78012B79D17B6891
:101330009B697B617B691B683B617B691B69BB6047
:101340003B685B69002B0AD13B7A6FF306033B7263
:10135000BB7A4FF0010262F3C403BB7224E03B6826
:101360005A693B689B689A420ED93B689A683B6809
:101370005A613B689B68DBB203F07F03DAB23B7AC9
:1013800062F306033B7209E03B685B69DBB203F082
:101390007F03DAB23B7A62F306033B72BB7A4FF00B
:1013A000010262F3C403BB72BA687B691A617B688D
:1013B000DB78012B0BD13B681B787A6803F10403BF
:1013C0004FEA8303D3189B683A6812695A613B69F4
:1013D00043F080633B613B6943F000433B613A6902
:1013E0007B691A607B68DB78002B40F087803B6864
:1013F0005B69002B00F082803B681B784FF0010294
:1014000002FA03F3BA6942EA0303BB617B681B6912
:101410007A681269526B1146BA6941EA02025A634C
:101420006CE03B681B787A6803F114034FEA83038E
:10143000D3185B681B683B613B681B787A6803F1D3
:1014400014034FEA8303D3185B681B69BB603B68D6
:101450005B69002B10D13B689B68DBB203F07F0314
:10146000DAB23B7A62F306033B72BB7A4FF00102B9
:1014700062F3C403BB7213E03B689A683B685A612D
:101480003B689B68DBB203F07F03DAB23B7A62F31E
:1014900006033B72BB7A4FF0010262F3C403BB72D6
:1014A0003B681B787A6803F114034FEA8303D3186F
:1014B0005B68BA681A617B68DB78012B0BD13B68EB
:1014C0001B787A6803F114034FEA8303D3185B682F
:1014D0003A6812695A613B6943F080633B613B693A
:1014E00043F000433B613B681B787A6803F11403C7
:1014F0004FEA8303D3185B683A691A60FB7F18468A
:1015000007F12407BD4680BC704700BF80B487B098
:1015100000AF786039604FF00003FB754FF00003B7
:10152000FB603B685B78012B1ED13B681B787A68B7
:1015300003F104034FEA8303D3189B683B613B69C3
:101540001B68FB60FB7B23F07F03DBB2002B03D027
:10155000FB6843F08043FB60FB6843F40013FB60CF
:10156000FA683B691A6013E03B681B787A6803F1FC
:1015700014034FEA8303D3185B683B613B691B6824
:10158000FB60FB6843F40013FB60FA683B691A6078
:10159000FB7D184607F11C07BD4680BC704700BFA5
:1015A00080B487B000AF786039604FF00003FB74FF
:1015B0004FF00003FB603B685B78012B0AD13B686E
:1015C0001B787A6803F104034FEA8303D3189B68FE
:1015D0007B6109E03B681B787A6803F114034FEAEA
:1015E0008303D3185B687B617B691B68FB60FB68C6
:1015F0006FF35553FB603B68DB78032B03D03B68EC
:10160000DB78022B03D1FB6843F08053FB60FA6860
:101610007B691A60FB7C184607F11C07BD4680BC3D
:10162000704700BF80B485B000AF78607B681B69ED
:101630009B69FB607B681B69DB69FA6802EA03034C
:10164000FB60FB684FEA1343184607F11407BD46D9
:1016500080BC704780B485B000AF78600B46FB70EB
:10166000FB787A6803F114034FEA8303D3185B68AD
:101670009B68FB607B681B695B69FA6802EA03038D
:10168000FB60FB68184607F11407BD4680BC704735
:1016900080B485B000AF78607B681B699B69FB6094
:1016A0007B681B69DB69FA6802EA0303FB60FB687D
:1016B0004FEA03434FEA1343184607F11407BD46A8
:1016C00080BC704780B487B000AF78604FF00003F3
:1016D0003B61FB7C43F0C003FB74BB7C4FF0010219
:1016E00062F3C403BB743B7C4FF0180262F3060341
:1016F0003B747B685B6D3A691A617B68DB78012B10
:1017000019D14FF00003FB607B685B6D7A6802F5CE
:10171000B9625A617B685B6D1B68FB60FB6843F0D4
:101720000043FB604FF40043C8F20003FB607B689A
:101730005B6DFA681A6007F11C07BD4680BC7047F4
:1017400080B485B000AF78607B689B7A002B1BD09B
:101750007B681B699B68FB603B7B03F00103DBB28A
:10176000002B11D07B6803F586731B68BB60BB68D8
:101770006FF34103BB60BB686FF30003BB607B6822
:10178000D3F80C31BA681A6007F11407BD4680BC63
:10179000704700BF80B500AF4FF080404FF00101AF
:1017A0000BF022FF40F20423C2F200031B6803F196
:1017B000010240F20423C2F200031A6040F208233F
:1017C000C2F200031B68002B0BD040F20823C2F2C8
:1017D00000031B6803F1FF3240F20823C2F200034A
:1017E0001A6080BD80B500AF40F20C23C2F2000346
:1017F0001B78002B09D100F00BF840F20C23C2F249
:1018000000034FF001021A7000E000BF80BD00BF6E
:1018100080B58AB000AF3B464FF0804019460AF0D1
:10182000F5FC3B46184622A3D3E900230AF080FDCD
:101830004FF080400AF02EFE4FF00003BB844FF0C3
:101840000003FB8340F2E7333B624FF00003BB83AE
:101850004FF0000387F8263007F11C034FF080405B
:1018600019460BF0D1FD4FF080404FF001014FF0D1
:1018700001020BF093FE4FF01C033B764FF0010387
:10188000FB764FF00E037B764FF00003BB7607F13B
:10189000180318460BF0D4F94FF080404FF00101C7
:1018A0000BF05CFE07F12807BD4680BDAFF300805A
:1018B0000000000080842E4180B400AFBD4680BC93
:1018C000704700BF80B400AFBD4680BC704700BF0A
:1018D00080B487B000AF786013460A467A803B80B8
:1018E0004FF00003FB754FF00003FB8140F206034D
:1018F000C2F200034FF010021A704FF00003FB8198
:1019000019E040F21023C2F20003FA894FEA820282
:101910009A18F98942F29463C2F200034FF09800DA
:1019200000FB01F15B1803F188031B681360FB895E
:1019300003F10103FB81FB89062BE2D940F210235E
:10194000C2F2000303F11C0242F29463C2F20003EC
:10195000D3F84434136040F20403C2F200031B784E
:101960007A889A4246D37A883B88D21840F2040398
:10197000C2F200031B78194640F20603C2F20003CC
:101980001B78CB189A4235DC7A8840F20803C2F201
:1019900000031B78D31A3B6128E040F21023C2F207
:1019A00000033A6933F812309BB24FEA13239BB21B
:1019B000DAB27B681A707B6803F101037B6040F246
:1019C0001023C2F200033A6933F812309BB2DAB244
:1019D0007B681A707B6803F101037B603B6903F14C
:1019E00001033B613B8803F1FF333B803B88002BC5
:1019F000D3D102E04FF00103FB75FB7D184607F1E0
:101A00001C07BD4680BC704780B588B000AFF86049
:101A100079813A81FB714FF00003FB77FB683B61F2
:101A20004FF00003FB8240F20503C2F200031B7873
:101A30007A899A42C0F04E837A893B89D21840F263
:101A40000503C2F200031B78194640F20703C2F2F5
:101A500000031B78CB189A4200F33C837A8940F24A
:101A60000903C2F200031B78D31ABB6140F20703DB
:101A7000C2F200034FF018021A70FB79002B03D05A
:101A8000012B00F0218328E34FF00003FB8217E0D5
:101A900040F20003C2F200031B681A46FB8A4FEAB9
:101AA0008303D218F98A42F29463C2F2000301F56B
:101AB0008A7153F821301360FB8A03F10103FB8222
:101AC000FB8A062BE4D940F20003C2F200031B6834
:101AD00003F11C0242F29463C2F20003D3F86C34A7
:101AE000136040F20003C2F200031B6803F12002FE
:101AF00042F29463C2F20003D3F87034136040F2F0
:101B00000003C2F200031B6803F1240242F2946353
:101B1000C2F20003D3F87434136040F20003C2F23F
:101B200000031B6803F1280242F29463C2F200032F
:101B3000D3F87834136040F20003C2F200031B684C
:101B400003F12C0242F29463C2F20003D3F87C3416
:101B500013602CE040F20003C2F200031A68BB6974
:101B60004FEA4303D3181B884FEA13239BB2DAB220
:101B7000FB681A70FB6803F10103FB6040F200038D
:101B8000C2F200031A68BB694FEA4303D3181B88EB
:101B9000DAB2FB681A70FB6803F10103FB60BB69F2
:101BA00003F10103BB613B8903F1FF333B813B89B7
:101BB000002BCFD18DE2BB69002B63DBBB690D2B02
:101BC00060DCA04ABB694FEA63034FEA830303F179
:101BD0000103D318FA6812781A70FB6803F1010345
:101BE000FB60984ABB694FEA63034FEA8303D3184B
:101BF000FA6812781A70FB6803F10103FB60914ADE
:101C0000BB694FEA63034FEA830303F10303D3186D
:101C1000FA6812781A70FB6803F10103FB60894AC5
:101C2000BB694FEA63034FEA830303F10203D3184E
:101C3000FA6812781A70FB6803F10103FB6042F244
:101C40009463C2F20003D3F88C341A46BB694FEA9E
:101C500063034FEA8303D218BB694FEA63034FEA79
:101C60008301784BCB18104619464FF0040201F05F
:101C7000BDFABB6903F10203BB613B89A3F1020317
:101C80003B8121E2BB69A3F10E030E2B00F21B8204
:101C900001A252F823F000BFD51C0008C72000089D
:101CA0004F1D0008C7200008C91D0008C7200008F4
:101CB000551E0008C7200008CF1E0008C7200008D6
:101CC000491F0008C7200008C31F0008C7200008DC
:101CD0004D2000085C4B03F10103FA6812781A707A
:101CE000FB6803F10103FB60574BFA6812781A7026
:101CF000FB6803F10103FB60534B03F10303FA6834
:101D000012781A70FB6803F10103FB604E4B03F17C
:101D10000203FA6812781A70FB6803F10103FB6092
:101D2000BB6903F10203BB613B89A3F102033B8161
:101D300042F29463C2F20003D3F88C3403F11C0323
:101D4000184641494FF0040201F050FABCE13F4B04
:101D500003F10103FA6812781A70FB6803F10103BA
:101D6000FB603A4BFA6812781A70FB6803F10103C2
:101D7000FB60364B03F10303FA6812781A70FB68B4
:101D800003F10103FB60314B03F10203FA6812789F
:101D90001A70FB6803F10103FB60BB6903F10203E6
:101DA000BB613B89A3F102033B8142F29463C2F21F
:101DB0000003D3F88C3403F12003184623494FF075
:101DC000040201F013FA7FE1214B03F10103FA68E9
:101DD00012781A70FB6803F10103FB601C4BFA6870
:101DE00012781A70FB6803F10103FB60184B03F1D2
:101DF0000303FA6812781A70FB6803F10103FB60B1
:101E0000134B03F10203FA6812781A70FB6803F1AE
:101E10000103FB60BB6903F10203BB613B89A3F1D2
:101E200002033B8142F29463C2F20003D3F88C3484
:101E300003F12403184606494FF0040201F0D6F9D5
:101E400042E100BFE42A0020002B0020042B0020E8
:101E5000082B0020794B03F10103FA6812781A70FD
:101E6000FB6803F10103FB60744BFA6812781A7087
:101E7000FB6803F10103FB60704B03F10303FA6895
:101E800012781A70FB6803F10103FB606B4B03F1DE
:101E90000203FA6812781A70FB6803F10103FB6011
:101EA000BB6903F10203BB613B89A3F102033B81E0
:101EB00042F29463C2F20003D3F88C3403F1280396
:101EC00018465E494FF0040201F090F9FCE05C4BCB
:101ED00003F10103FA6812781A70FB6803F1010339
:101EE000FB60574BFA6812781A70FB6803F1010324
:101EF000FB60534B03F10303FA6812781A70FB6816
:101F000003F10103FB604E4B03F10203FA68127800
:101F10001A70FB6803F10103FB60BB6903F1020364
:101F2000BB613B89A3F102033B8142F29463C2F29D
:101F30000003D3F88C3403F12C03184640494FF0CA
:101F4000040201F053F9BFE03E4B03F10103FA68CC
:101F500012781A70FB6803F10103FB60394BFA68D1
:101F600012781A70FB6803F10103FB60354B03F133
:101F70000303FA6812781A70FB6803F10103FB602F
:101F8000304B03F10203FA6812781A70FB6803F110
:101F90000103FB60BB6903F10203BB613B89A3F151
:101FA00002033B8142F29463C2F20003D3F88C3403
:101FB00003F13003184623494FF0040201F016F9EB
:101FC00082E0214B03F10103FA6812781A70FB6872
:101FD00003F10103FB601C4BFA6812781A70FB686E
:101FE00003F10103FB60184B03F10303FA68127855
:101FF0001A70FB6803F10103FB60134B03F102034A
:10200000FA6812781A70FB6803F10103FB60BB6980
:1020100003F10203BB613B89A3F102033B8142F25E
:102020009463C2F20003D3F88C3403F134031846EE
:1020300005494FF0040201F0D9F845E00C2B0020CF
:10204000102B0020142B0020182B0020264B03F10E
:102050000103FA6812781A70FB6803F10103FB6050
:10206000214BFA6812781A70FB6803F10103FB60D8
:102070001D4B03F10303FA6812781A70FB6803F131
:102080000103FB60184B03F10203FA6812781A701F
:10209000FB6803F10103FB60BB6903F10203BB6151
:1020A0003B89A3F102033B8142F29463C2F2000335
:1020B000D3F88C3403F1380318460B494FF004026F
:1020C00001F094F800E000BF3B89002B7FF473AD72
:1020D00000BF02E04FF00103FB77FB7F184607F1DA
:1020E0002007BD4680BD00BF1C2B002080B485B0FA
:1020F00000AFF86079813A81FB714FF00103184617
:1021000007F11407BD4680BC704700BF80B483B0A0
:1021100000AF786013460A467A803B804FF0010397
:10212000184607F10C07BD4680BC704780B584B0E7
:1021300000AF3B600346FB710B46BB7113467B71DE
:102140004FF00003FB73BB79002B05D0BB79002B4C
:1021500002D0BB79F72B03D94FF00203FB7379E070
:1021600040F29023C2F20003BA791A70FB79002B77
:1021700054D140F29823C2F2000348F69162C0F6AF
:1021800000021A6040F29C23C2F2000348F6BD62CE
:10219000C0F600021A6040F29423C2F2000348F62F
:1021A0007972C0F600021A6040F2A023C2F2000366
:1021B00048F6DD62C0F600021A6040F2A423C2F2C3
:1021C00000034FF000021A6042F26003C2F2000303
:1021D00049F29D02C0F600021A6042F25803C2F2B0
:1021E000000349F28D12C0F600021A6042F25C034D
:1021F000C2F2000349F23122C0F600021A6040F236
:102200009023C2F2000319787A793B7E0846114682
:102210003A6806F0FBFD0346FB7302E04FF0020351
:10222000FB73FB7B002B15D100F0D8FC0346002B81
:1022300003D14FF00303FB730CE040F29123C2F291
:102240000003FA791A7040F20C03C2F200034FF057
:1022500001021A70FB7B184607F11007BD4680BDCE
:1022600080B582B000AF4FF00003FB7140F20C0369
:10227000C2F200031B78012B0DD140F29823C2F269
:1022800000031B68984740F20C03C2F200034FF0B2
:1022900000021A7002E04FF00603FB71FB7918464A
:1022A00007F10807BD4680BD90B583B000AF4FF081
:1022B0000003FB7040F20C03C2F200031B78002BFA
:1022C00002D04FF0060308E107F10203184600F0C0
:1022D000AFFC0346012B40F0FE80BB78032B00F2DD
:1022E000FA8001A252F823F0D7240008F92200084E
:1022F0005B230008D724000840F2A023C2F20003A9
:102300001B6840F2A820C2F2000040F2AC21C2F2E9
:10231000000140F2B022C2F2000298470346FB706F
:10232000FB78002B40F0D28040F2A823C2F20003D9
:102330001A7840F29023C2F200031B789A4207D029
:1023400040F2A823C2F200031B78002B40F0C080AB
:102350004FF0020000F052FCBDE040F2AC23C2F2AC
:1023600000031B681A7840F2B223C2F200031A700D
:1023700040F2B323C2F200034FF001021A704FF093
:1023800000037B6036E040F21003C2F200037A687B
:1023900013F83230002B31D040F21003C2F20003A8
:1023A0007A6813F8322040F2B223C2F200031B789D
:1023B0009A421BD140F21002C2F200027B684FEA3F
:1023C000C303D3185A6840F2AC23C2F200031B685F
:1023D000184640F2B021C2F20001904703461A4667
:1023E00040F2B323C2F200031A7008E07B6803F1E5
:1023F00001037B607B680F2BC5DD00E000BF40F26E
:10240000A823C2F200031B78002B63D040F2B32351
:10241000C2F200031B78002B3DD040F2B023C2F281
:1024200000034FF000021A8040F2AC23C2F2000316
:10243000196840F2B023C2F200031A881346C91883
:1024400040F2B223C2F200031B7863F07F03DBB2D9
:102450000B7002F101039AB240F2B023C2F2000302
:102460001A8040F2AC23C2F20003196840F2B02394
:10247000C2F200031A881346C91840F2B323C2F20D
:1024800000031B780B7002F101039AB240F2B023F3
:10249000C2F200031A8040F29423C2F200031C68C7
:1024A00040F29023C2F20003197840F2AC23C2F24A
:1024B00000031A6840F2B023C2F200031B880846EA
:1024C00011461A46A0470346FB7004E000BF02E035
:1024D00000BF00E000BF4FF00003184607F10C07F3
:1024E000BD4690BD80B500AF42F29463C2F20003D6
:1024F00093F84D34002B1BD142F29463C2F20003D7
:10250000D3F8741442F29463C2F20003D3F878242F
:1025100042F29463C2F20003D3F87C3408461146B9
:102520001A4642F26C03C2F2000300F003F800E026
:1025300000BF80BD80B58AB004AFF860B9607A6032
:102540003B603B68394A5A603B68384A1A603B68CE
:10255000FA689A603B68BA68DA603B687A681A6120
:102560003B689B68184632490BF082FD03463148B0
:1025700019460BF039FF03461A463B685A613B681F
:10258000DB6818462A490BF073FD03462A481946B2
:102590000BF02AFF03461A463B689A614FF002008F
:1025A0004FF0010102F0D4FB4FF000033B754FF0F8
:1025B0000003BB754FF00103FB754FF000037B7503
:1025C0004FF440733B6107F110034FF48060C4F295
:1025D0000200194605F0CCFF42F29463C2F20003F8
:1025E0004FF0000283F84E244EF67013C0F600033D
:1025F0004FF00102009242F28802C2F20002019200
:102600004FF0000202924FF00002039242F61500D2
:10261000C0F6000019464FF080024FF0000304F0AE
:10262000A7FC07F11807BD4680BD00BF00000000F1
:102630000000803F000048420000C84190B58BB0C8
:1026400000AFF860B9607A60F868B9680BF00EFD09
:102650000346BB617B685B694FF001021446184674
:10266000B9690BF0ABFF0346002B02D14FF000031A
:102670001C46E3B2002B02D0614B7B6228E07B68F2
:102680005B6983F000434FF0010214461846B969B4
:102690000BF0B2FF0346002B02D14FF000031C46A3
:1026A000E3B2002B02D0574B7B6211E07B689B6842
:1026B0001846B9690BF0E4FD034618460BF0A6FF77
:1026C00003469BB21BB218460BF086FD03467B62A5
:1026D0007B685B681846B9690BF0CAFC03467B61EE
:1026E0007B689B694FF001021446184679690BF02C
:1026F00065FF0346002B02D14FF000031C46E3B2F6
:10270000002B06D0404B3B627B689A697B685A601D
:1027100029E07B689B6983F000434FF00102144677
:10272000184679690BF068FF0346002B02D14FF081
:1027300000031C46E3B2002B08D0344B3B627B689D
:102740009B6983F000427B685A600CE07B687A6981
:102750005A607B68DA687B685B68104619460BF044
:102760008FFD03463B627B681C697B681B681846CB
:10277000B9680BF07BFC0346204619460BF080FD40
:1027800003463B617B68BA681A60786A396A0BF065
:102790006FFC0346184639690BF06AFC0346FB617F
:1027A0004FF001031C46F86915490BF025FF03465D
:1027B000002B02D14FF000031C46E3B2002B02D0E5
:1027C0000F4BFB6111E04FF001031C46F869104903
:1027D0000BF0F4FE0346002B02D14FF000031C4621
:1027E000E3B2002B01D00A4BFB61F8690BF00EFF3E
:1027F00003469BB21BB2184607F12C07BD4690BD9D
:1028000000004842000048C20000C8410000C8C1A2
:102810000000000080B582B000AF786000E000BF2B
:1028200042F62833C2F200031B6818464FF000013D
:102830004FF0FF324FF0000308F050F80346012B31
:10284000EDD14FF48060C4F202004FF4007105F046
:102850007BFF0346002B5FD142F29463C2F2000378
:1028600093F84E34002B3DD042F29463C2F2000341
:102870004FF0000283F84E2442F26C03C2F20003D0
:10288000554A5A6042F26C03C2F20003524A1A607F
:1028900042F26C03C2F200039B6818464F490BF0EA
:1028A000E7FB03464E4819460BF09EFD03461A46C9
:1028B00042F26C03C2F200035A6142F26C03C2F2AC
:1028C0000003DB68184645490BF0D2FB0346454838
:1028D00019460BF089FD03461A4642F26C03C2F218
:1028E00000039A6142F29463C2F20003D3F86C24AD
:1028F00042F29463C2F20003D3F8443410461946FE
:1029000042F26C02C2F20002FFF798FE0346DBB20D
:10291000184603F0C1F983E742F29463C2F2000360
:1029200093F84E34012B3DD042F29463C2F200037F
:102930004FF0010283F84E2442F26C03C2F200030E
:10294000254A5A6042F26C03C2F20003224A1A601E
:1029500042F26C03C2F200039B6818461F490BF059
:1029600087FB03461E4819460BF03EFD03461A46F8
:1029700042F26C03C2F200035A6142F26C03C2F2EB
:102980000003DB68184615490BF072FB0346154837
:1029900019460BF029FD03461A4642F26C03C2F2B7
:1029A00000039A6142F29463C2F20003D3F87024E8
:1029B00042F29463C2F20003D3F84434104619463D
:1029C00042F26C02C2F20002FFF738FE0346DBB2AD
:1029D000184603F061F923E7000000000000803F83
:1029E000000048420000C84180B586B004AF4FF0F7
:1029F000000300934FF000004FF00A014FF0000277
:102A00004FF46143FFF792FB0346FB714EF67413DC
:102A1000C0F600034FF0010200924FF00002019255
:102A20004FF0000202924FF00002039242F64D2056
:102A3000C0F6000019464FF480724FF0000304F016
:102A400097FA07F10807BD4680BD00BF80B582B088
:102A500000AF7860FFF704FCFFF726FC4FF00A0098
:102A600004F0E2FBF8E700BF80B586B000AF786005
:102A700039604FF00003BB753B681B88052B40F0A5
:102A800082807B6803F101031B784FEA0323BB823A
:102A90007B6803F102031B781A46BB8A42EA0303F0
:102AA000BB82BB8A03F10103BB827B6803F1030392
:102AB0001B784FEA03237B827B6803F104031B78B6
:102AC0001A467B8A42EA03037B827B8A002B56D01C
:102AD0007A8A40F2CF739A4251D87B68FB603B6898
:102AE0004FF000021A80FB684FF002021A70FB6878
:102AF00003F10103FB603B681B8803F101039AB2F9
:102B00003B681A807B8A03F00703002B08D07B8A7E
:102B10004FEAD3039BB2DBB203F10103FB7504E080
:102B20007B8A4FEAD3039BB2FB75FB68FA7D1A7070
:102B3000FB6803F10103FB603B681B8803F10103A1
:102B40009AB23B681A80BA8A7B8AF86811461A469C
:102B5000FFF7DCFA0346FB72FB7A002B06D0FB7A08
:102B6000184600F0D7FA0346BB750FE03B681A8899
:102B7000FB7D9BB2D3189AB23B681A8006E04FF0F7
:102B80000303BB7502E04FF00303BB75BB7D184622
:102B900007F11807BD4680BD80B400AFBD4680BCBC
:102BA000704700BF80B483B000AF0346FB7107F1EC
:102BB0000C07BD4680BC704780B400AFBD4680BCEA
:102BC000704700BF80B400AFBD4680BC704700BFF7
:102BD00080B400AFBD4680BC704700BF80B400AF7A
:102BE00040F2B523C2F200034FF000021A704FF01A
:102BF00001031846BD4680BC704700BF80B483B057
:102C000000AF0346FB7140F2B523C2F200034FF060
:102C100001021A7040F2B423C2F20003FA791A706A
:102C20004FF00103184607F10C07BD4680BC704702
:102C300080B485B000AF78604FF00003FB7340F2C2
:102C4000B523C2F200031B78002B10D040F2B4234E
:102C5000C2F200031A787B681A7040F2B523C2F200
:102C600000034FF000021A704FF00103FB73FB7B6F
:102C7000184607F11407BD4680BC704780B586B082
:102C800004AF4FF002004FF0010102F061F84FF085
:102C900004004FF0010102F05BF84FF480633B60E9
:102CA0004FF000037B714FF001033B714FF00003C5
:102CB000BB714FF00003FB713B464FF48060C4F2E0
:102CC0000200194605F054FC4FF48060C4F2020083
:102CD0004FF480614FF0000205F056FD4EF67C1374
:102CE000C0F600034FF00102009242F28C02C2F2E1
:102CF000000201924FF0000202924FF00002039294
:102D000042F62150C0F6000019464FF040024FF045
:102D1000000304F02DF907F10807BD4680BD00BF90
:102D200080B582B000AF786042F29003C2F2000337
:102D30001B78012B40F0088142F29003C2F200039D
:102D40005B78072B00F2FC8001A252F823F000BF51
:102D5000712D0008AB2D0008E52D00081F2E00087E
:102D6000592E0008932E0008CD2E0008072F0008CA
:102D70004FF48060C4F202004FF480614FF0010212
:102D800005F002FD4FF4FA7004F04EFA4FF4806043
:102D9000C4F202004FF480614FF0000205F0F4FC31
:102DA0004FF4FA7004F040FACEE04FF48060C4F2C1
:102DB00002004FF480614FF0010205F0E5FC4FF096
:102DC000640004F031FA4FF48060C4F202004FF462
:102DD00080614FF0000205F0D7FC4FF0C80004F00E
:102DE00023FAB1E04FF48060C4F202004FF4806136
:102DF0004FF0010205F0C8FC4FF0640004F014FA33
:102E00004FF48060C4F202004FF480614FF0000282
:102E100005F0BAFC4FF0C80004F006FA94E04FF455
:102E20008060C4F202004FF480614FF0010205F0AF
:102E3000ABFC4FF0640004F0F7F94FF48060C4F28B
:102E400002004FF480614FF0000205F09DFC4FF04E
:102E5000C80004F0E9F977E04FF48060C4F20200A2
:102E60004FF480614FF0010205F08EFC4FF06400DA
:102E700004F0DAF94FF48060C4F202004FF480618C
:102E80004FF0000205F080FC4FF0C80004F0CCF9D0
:102E90005AE04FF48060C4F202004FF480614FF0BA
:102EA000010205F071FC4FF0640004F0BDF94FF42D
:102EB0008060C4F202004FF480614FF0000205F020
:102EC00063FC4FF0C80004F0AFF93DE04FF48060C0
:102ED000C4F202004FF480614FF0010205F054FC8F
:102EE0004FF0640004F0A0F94FF48060C4F20200D7
:102EF0004FF480614FF0000205F046FC4FF0C8002F
:102F000004F092F920E04FF48060C4F202004FF424
:102F100080614FF0010205F037FC4FF0640004F0CF
:102F200083F94FF48060C4F202004FF480614FF0E7
:102F3000000205F029FC4FF0C80004F075F903E029
:102F40004FF4FA7004F070F942F63433C2F2000321
:102F50009B6803F1010242F63433C2F200039A6027
:102F6000E2E600BF80B582B000AF02460B46FA71C0
:102F7000BB71BB7903F00103DBB2002B1DD042F221
:102F80009003C2F200031B78002B0ED142F28C0397
:102F9000C2F200031B68184604F004FA42F29003E0
:102FA000C2F200034FF001021A7042F63433C2F24B
:102FB00000034FF000021A7326E042F29003C2F2BF
:102FC00000031B78012B0ED142F28C03C2F20003E6
:102FD0001B68184604F056F942F29003C2F200034F
:102FE0004FF000021A7042F63433C2F200034FF081
:102FF00001021A734FF48060C4F202004FF4806142
:103000004FF0000205F0C0FBFB7903F00703DAB2D2
:1030100042F29003C2F200035A7007F10807BD465E
:1030200080BD00BF80B582B000AF786039607B683A
:1030300003F1010240F2D823C2F200031B881046BC
:1030400040F2B821C2F200011A460BF051FB40F2E7
:10305000D823C2F200031B8803F101039AB23B6834
:103060001A804FF00003184607F10807BD4680BDDF
:1030700080B483B000AF0346FB714FF02003C4F26D
:103080000E23FA791A6007F10C07BD4680BC704721
:1030900080B485B000AF78604FF00003FB604FF460
:1030A000E043C4F200031B68FB60FB6823F0E0030D
:1030B000FB60FA687B6842EA0303FB604FF4E0437D
:1030C000C4F20003FA681A6007F11407BD4680BC19
:1030D000704700BF80B483B000AF0346FB714FF070
:1030E0001003C4F20E23FA791A6007F10C07BD46EB
:1030F00080BC704780B483B000AF0346FB714FF0D3
:10310000A403C4F20E23FA791A6007F10C07BD4636
:1031100080BC704780B485B000AF0346FB71FB797B
:10312000012B07D0072B09D0002B0BD14FF0000348
:10313000FB730BE04FF00203FB7307E04FF0060355
:10314000FB7303E04FF00403FB7300BFFB7B1846E7
:1031500007F11407BD4680BC704700BF80B582B040
:1031600000AF4EF6B853C0F600037B6040F2000398
:10317000C2F200033B600BE07B681A683B681A6090
:103180003B6803F104033B607B6803F104037B604D
:103190003A6840F20023C2F200039A42ECD3074897
:1031A00007494FF000028842B8BF40F8042BFADB11
:1031B00000F0B8FE07F10807BD4680BD0002002000
:1031C0008836002080B400AFFEE700BF80B500AFB6
:1031D0004FF480204FF0010101F0BAFD4FF0805014
:1031E0004FF0010101F010FE80BD00BF80B586B038
:1031F00000AFF860B9601346FB714FF00003FB7538
:1032000044F23C03C4F202033B614FF00100FFF7BC
:103210002FFF4FF00100FFF76DFF4FF00003FB752C
:103220000BE0FA68FB7DD318B968FA7D8A1812782A
:103230001A70FB7D03F10103FB75FA7DFB799A425D
:10324000EFD342F29463C2F20003D3F88C341846F1
:103250004FF03C0101F04EFC0346DAB23B691A70B4
:103260004FF00000FFF704FF07F11807BD4680BDCF
:1032700080B584B004AF00F021F84EF68413C0F698
:1032800000034FF0010200924FF0000201924FF054
:10329000000202924FF00002039243F2A140C0F6F6
:1032A000000019464FF080024FF0000303F060FE6B
:1032B0004FF000031846BD4680BD00BF80B588B002
:1032C00000AF4FF002004FF0010101F041FD4FF45B
:1032D00080404FF0010101F097FD4FF42043BB61A6
:1032E0004FF002037B774FF002033B774FF0000370
:1032F000BB774FF00003FB7707F118034FF48060B2
:10330000C4F20200194605F033F94FF48043BB6163
:103310004FF002037B774FF002033B774FF000033F
:10332000BB774FF00003FB7707F118034FF4806081
:10333000C4F20200194605F01BF94FF48053BB613B
:103340004FF001033B774FF00003BB774FF00003D2
:10335000FB774FF002037B7707F118034FF480608F
:10336000C4F20200194605F003F94FF48060C4F27C
:1033700002004FF00D014FF0050205F01DFA4FF469
:103380008060C4F202004FF00F014FF0050205F01B
:1033900013FA4FF48060C4F202004FF00E014FF0B8
:1033A000050205F009FA4FF00003BB804FF4827369
:1033B000FB804FF000033B814FF000037B814FF017
:1033C0000103BB814FF40073FB814FF028033B8264
:1033D0004FF000037B8207F104034FF46050C4F206
:1033E0000000194609F022F94FF46050C4F20000C1
:1033F0004FF0000109F086F94FF46050C4F200006C
:103400004FF0010109F05EF94FF48063C4F202034A
:103410004FF48062C4F20202128B92B242F48052E4
:1034200092B21A8307F12007BD4680BD80B483B0F5
:1034300000AF0346FB7100BF4FF46053C4F20003BA
:103440001B899BB203F00203002BF5D04FF46053AD
:10345000C4F20003FA7992B29A8100BF4FF460532C
:10346000C4F200031B899BB203F00103002BF5D0CB
:103470004FF46053C4F200039B899BB2DBB2184641
:1034800007F10C07BD4680BC704700BF80B500AF98
:103490004FF0FF00FFF7CAFF0346184680BD00BF8C
:1034A00080B582B000AF78604FF48063C4F202034D
:1034B0004FF48062C4F20202528B92B242F4805204
:1034C00092B25A834FF00600FFF7B0FF4FF00A00A8
:1034D00003F0AAFE4FF04000FFF7A8FF4FF00600F0
:1034E000FFF7A4FF4FF00A0003F09EFE4FF04800E4
:1034F000FFF79CFF4FF05600FFF798FF4FF00A00D0
:1035000003F092FE4FF04C00FFF790FF4FF0620087
:10351000FFF78CFF4FF00A0003F086FE4FF0080023
:10352000FFF784FF00BF4FF48060C4F202004FF445
:10353000804105F009F90346012BF4D0FFF7A6FFFF
:1035400003461A4642F2A003C2F200031A6042F296
:10355000A003C2F200031B684FEA032242F2A00359
:10356000C2F200031A60FFF791FF03461A4642F2C7
:10357000A003C2F200031B681A4342F2A003C2F286
:1035800000031A6042F2A003C2F200031B684FEA74
:10359000032242F2A003C2F200031A60FFF776FF93
:1035A00003461A4642F2A003C2F200031B681A4304
:1035B00042F2A003C2F200031A6042F2A003C2F278
:1035C00000031A684FF6FF73C0F27F039A420ED9C8
:1035D00042F2A003C2F200031B6803F17F4202F132
:1035E000010242F29403C2F200031A600AE042F2BE
:1035F000A003C2F200031B681A4642F29403C2F20F
:1036000000031A6042F29403C2F200031B681846DA
:1036100000F00CF8024642F29463C2F20003C3F8D1
:1036200044244FF0640003F0FFFD77E7B0B586B0A7
:1036300000AF7860244B7B6142F66253C0F23303E3
:103640003B614FF01803C0F25A03FB607A683B6994
:10365000D31A18460AF0C0FD034618460AF0A4F92A
:1036600002460B46104619464FF000024FF08043C9
:1036700003F5D2030AF0ECF902460B4614461D4648
:10368000FA683B69D31A18460AF07CF902460B46E1
:10369000204629460AF006FB02460B46104619460C
:1036A0004FF000024FF000030AF020F802460B46EC
:1036B000104619460AF086FC03467B617B69184672
:1036C00007F11807BD46B0BD0000000080B584B00A
:1036D00000AF786039604FF00003FB733B681B88D4
:1036E000052B2BD17B6803F101031B784FEA0323E1
:1036F000BB817B6803F102031B781A46BB8942EA4F
:103700000303BB81BB8903F10103BB817B6803F128
:103710000302BB89104619464FF001024FF0010326
:10372000FEF772F90346FB72FB7A002B09D0FB7A95
:103730001846FFF7EFFC0346FB7302E04FF003036C
:10374000FB73FB7B184607F11007BD4680BD00BF29
:1037500080B584B000AF786039604FF00003FB7330
:103760003B681B88052B57D97B6803F101031B7845
:103770004FEA0323BB817B6803F102031B781A46DF
:10378000BB8942EA0303BB81BB8903F10103BB810F
:103790007B6803F103031B784FEA03237B817B687B
:1037A00003F104031B781A467B8942EA03037B81F9
:1037B0007B6803F105031B787B727B89002B27D084
:1037C0007B89782B24D87B89DBB24FEA4303DBB2B9
:1037D0007A7A9A421CD17B6803F10601BA897B8907
:1037E000084611461A464FF00103FEF70DF903464D
:1037F0003B723B7A002B06D03B7A1846FFF78AFCD7
:103800000346FB730BE03B684FF005021A8006E0AD
:103810004FF00303FB7302E04FF00303FB73FB7BEA
:10382000184607F11007BD4680BD00BF80B586B0C1
:1038300000AF786039604FF00003FB753B681B8870
:10384000052B70D17B6803F101031B784FEA03233A
:10385000BB827B6803F102031B781A46BB8A42EAEB
:103860000303BB82BB8A03F10103BB827B6803F1C4
:1038700003031B784FEA03237B827B6803F1040375
:103880001B787B827B8A002B49D07B8A7D2B46D894
:103890007B68FB603B684FF000021A80FB684FF0CA
:1038A00003021A70FB6803F10103FB603B681B888D
:1038B00003F101039AB23B681A807B8ADBB24FEABC
:1038C0004303DAB2FB681A70FB6803F10103FB6083
:1038D0003B681B8803F101039AB23B681A80BA8ADD
:1038E0007B8AF86811461A464FF00003FEF78CF801
:1038F0000346FB72FB7A002B06D0FB7A1846FFF7D3
:1039000009FC0346FB7511E03B681A887B8A4FEA85
:1039100043039BB2D3189AB23B681A8006E04FF07B
:103920000303FB7502E04FF00303FB75FB7D1846B4
:1039300007F11807BD4680BD80B586B000AF78603E
:1039400039604FF00003FB753B681B88092B40F280
:10395000BC807B6803F101031B784FEA0323BB8221
:103960007B6803F102031B781A46BB8A42EA030311
:10397000BB82BB8A03F10103BB827B6803F10303B3
:103980001B784FEA03237B827B6803F104031B78D7
:103990001A467B8A42EA03037B827B6803F10503B4
:1039A0001B784FEA03233B827B6803F106031B78F5
:1039B0001A463B8A42EA03033B823B8A03F1010336
:1039C0003B827B6803F107031B784FEA0323FB81EB
:1039D0007B6803F108031B781A46FB8942EA03035C
:1039E000FB817B6803F109031B787B737B8A002BC7
:1039F00068D07B8A7D2B65D8FB89002B62D0FB8940
:103A0000792B5FD8FB894FEA43027B7B9A4259D1DD
:103A10007B6803F10A013A8AFB89084611461A4677
:103A20004FF00103FDF7F0FF0346BB75BB7D002B94
:103A30003ED17B68BB603B684FF000021A80BB68D8
:103A40004FF017021A70BB6803F10103BB603B68BB
:103A50001B8803F101039AB23B681A807B8ADBB2B0
:103A60004FEA4303DAB2BB681A70BB6803F1010383
:103A7000BB603B681B8803F101039AB23B681A8064
:103A8000BA8A7B8AB86811461A464FF00003FDF7E0
:103A9000BBFF0346BB75BB7D002B09D13B681A8871
:103AA0007B8A4FEA43039BB2D3189AB23B681A80D1
:103AB000BB7D002B09D0BB7D1846FFF72BFB0346CF
:103AC000FB7502E04FF00303FB75FB7D184607F121
:103AD0001807BD4680BD00BF80B584B000AFF86058
:103AE0007A603B600B46FB72F86805F015FFF868DA
:103AF00000F01EF8FB683A68C3F8E025FB68BA6975
:103B0000C3F8E425FB687A68C3F8E825FB7AF8680F
:103B1000194609F009F9FB68D3F8E4351B689847A2
:103B2000F86805F073FF07F11007BD4680BD00BFC0
:103B300080B483B000AF78604FF00003184607F1FF
:103B40000C07BD4680BC704780B584B000AF78607C
:103B500007F108037868194606F016FC3B7A03F073
:103B60001F03012B0AD0022B0FD0002B14D107F119
:103B700008037868194605F0CFFF16E007F108033F
:103B80007868194606F01AF80FE007F1080378681C
:103B9000194606F04BF808E03B7A23F07F03DBB2CE
:103BA0007868194609F072FA00BF4FF00003184612
:103BB00007F11007BD4680BD80B584B000AF7860C6
:103BC0000B46FB70FB78002B45D17B6803F55C73DB
:103BD000FB607B6893F81131032B4FD1FB68DA69E6
:103BE000FB689B689A4221D9FB68DA69FB689B688D
:103BF000D21AFB68DA617B68DB78012B06D1FB689F
:103C0000DA68FB689B68D218FB68DA60FB68DA68E0
:103C1000FB689968FB68DB69994238BF0B469BB229
:103C2000786811461A4609F09BFB27E07B68D3F8B9
:103C3000E0351B69002B0AD07B6893F81231032B07
:103C400005D17B68D3F8E0351B69786898477868B8
:103C500009F09EFB12E07B68D3F8E0359B69002BEE
:103C60000CD07B6893F81231032B07D17B68D3F813
:103C7000E0359B69FA787868114698474FF0000361
:103C8000184607F11007BD4680BD00BF80B584B05F
:103C900000AF78600B46FB70FB78002B63D17B682C
:103CA00003F58C73FB607B6893F81131022B6ED1A6
:103CB000FB68DA69FB689B689A421CD9FB68DA6981
:103CC000FB689B68D21AFB68DA617B68DB78012BA2
:103CD00006D1FB68DA68FB689B68D218FB68DA607B
:103CE000FB68DA68FB68DB699BB2786811461A46A4
:103CF00009F0FAFA4CE0FB681B6AFA689268B3FBB9
:103D0000F2F102FB01F29B1A002B17D1FB681A6A31
:103D1000FB689B689A4211D3FB681A6AFB685B6A6E
:103D20009A420BD278684FF000014FF0000209F080
:103D3000DBFAFB684FF000025A6229E07B68D3F897
:103D4000E035DB68002B0AD07B6893F81231032B37
:103D500005D17B68D3F8E035DB68786898477868E8
:103D600009F034FB14E07B68D3F8E0355B69002B85
:103D70000ED07B6893F81231032B09D17B68D3F8FE
:103D8000E0355B69FA7878681146984700E000BF33
:103D90004FF00003184607F11007BD4680BD00BF75
:103DA00080B582B000AF786078684FF000014FF0C6
:103DB00040024FF0000309F04DF878684FF08001A1
:103DC0004FF040024FF0000309F044F87B684FF0D9
:103DD000010283F812217B68D3F8E4355B687A68C6
:103DE0009278104698474FF00003184607F10807ED
:103DF000BD4680BD80B582B000AF78607B68D3F8E7
:103E0000E4351B6998477B684FF0030283F8122161
:103E10004FF00003184607F10807BD4680BD00BFFC
:103E200080B582B000AF78607B684FF0040283F801
:103E300012217B68D3F8E435DB6898474FF0000324
:103E4000184607F10807BD4680BD00BF80B582B0A7
:103E500000AF78607B68D3F8E035DB69002B05D0D4
:103E60007B68D3F8E035DB69786898474FF000034A
:103E7000184607F10807BD4680BD00BF80B582B077
:103E800000AF78600B46FB707B68D3F8E0351B68A9
:103E9000FA787868114698477B68D3F8E4359B68D0
:103EA00098474FF00003184607F10807BD4680BD4C
:103EB00080B582B000AF78600B46FB707B68D3F8AA
:103EC000E0355B68FA787868114698474FF0000350
:103ED000184607F10807BD4680BD00BF80B582B017
:103EE00000AF78607B68D3F8E0351B6A7868984744
:103EF0004FF00003184607F10807BD4680BD00BF1C
:103F000080B582B000AF78607B68D3F8E0355B6A3B
:103F1000786898474FF00003184607F10807BD4638
:103F200080BD00BF80B582B002AF05F0B1F942F2AA
:103F30009463C2F200034FF0000283F84D2409F0AD
:103F40007FFBFFF743F901F0AFFD02F053F8FFF7F5
:103F50008FF905F08FFA00F0BDFCFEF7C3FA00F010
:103F60007DF8FEF78BFE04F091F940F29003C2F267
:103F70000003009342F2A400C2F200004FF00101DE
:103F800040F22012C2F2000240F2D413C2F2000347
:103F9000FFF7A2FDFEF728FD03F062FAFEE700BF7F
:103FA00080B400AFFEE700BF80B483B000AF78609C
:103FB0003960FEE780B582B000AF09F063F90346CF
:103FC0007B607B6807F10807BD4680BD80B485B083
:103FD00000AF78600B467B804FF0FF03FB734FF020
:103FE000FF03BB731DE07B681A78BB7B82EA030387
:103FF000DBB2BB607B6803F101037B604EF6941378
:10400000C0F60003BA689B181A78FB7B82EA0303A8
:10401000BB734EF69423C0F60003BA689B181B7856
:10402000FB737B88002B0CBF00230123DBB27A8853
:1040300002F1FF327A80002BD5D1FB7B4FEA0323BC
:104040009AB2BB7B9BB242EA03039BB29BB2184677
:1040500007F11407BD4680BC704700BF80B586B02D
:1040600004AF4FF00003FB714FF00003BB7142F24D
:104070009463C2F2000393F84D34002B40F091801A
:104080004FF00003FB7165E0FA7942F29463C2F2EB
:1040900000034FF0980101FB02F29B1803F190031B
:1040A0004FF002021A70FA7942F29463C2F20003EE
:1040B0004FF0980101FB02F29B1803F188034FF0C7
:1040C00000029A80FA7942F29463C2F200034FF040
:1040D000980101FB02F29B1803F18803334A1A602E
:1040E000FA7942F29463C2F200034FF0980101FBA7
:1040F00002F29B1803F188034FF00002DA80FA798C
:1041000042F29463C2F200034FF0980101FB02F205
:104110009B18FA791A704FF00003BB7113E0F9791C
:10412000BB7942F29462C2F200024FF0260000FB1B
:1041300001F1CB184FEA8303D3181D4A5A60BB79AB
:1041400003F10103BB71BB791F2BE8D9FB7903F1A4
:104150000103FB71FB79062B96D942F29463C2F2FC
:1041600000034FF0000283F84C244EF69433C0F65F
:1041700000034FF0010200924FF0000201924FF055
:10418000000202924FF00002039244F2B510C0F612
:10419000000019464FF080024FF0000302F0E8FEE5
:1041A00000E000BF07F10807BD4680BD0000000029
:1041B0000000484390B58BB004AF78604FF0000327
:1041C000FB8242F29463C2F2000393F84E34002B58
:1041D00007D142F29463C2F20003D3F86C343B611E
:1041E00006E042F29463C2F20003D3F870343B61FC
:1041F00042F29463C2F20003D3F84434184639699A
:1042000009F034FF0346FB604FF001031C46F868D9
:104210004E490AF0D3F90346002B02D14FF00003B8
:104220001C46E3B2002B4CD0FB6883F00043FB60DC
:1042300048E042F29463C2F20003D3F844341846D3
:10424000396909F013FF0346FB604FF001031C4678
:10425000F8683E490AF0B2F90346002B02D14FF04C
:1042600000031C46E3B2002B03D0FB6883F000433D
:10427000FB604FF47A7002F0D7FFFB8A03F1010371
:10428000FB82FB8A272B1DD942F29463C2F2000302
:104290004FF0050283F84C2442F29463C2F200030B
:1042A0004FF0040283F84D244FF000004FF001015D
:1042B000FEF758FE01F0C8FD4FF0000002F054FF79
:1042C00000E000BF4FF001031C46F86820490AF0E7
:1042D00093F90346002B02D14FF000031C46E3B2D2
:1042E000002BA6D142F29463C2F2000393F84D343E
:1042F000002B22D142F29463C2F200034FF001027C
:1043000083F84C244EF6AC33C0F600034FF00102A4
:1043100000924FF0000201924FF0000202924FF023
:104320000002039244F25530C0F6000019464FF0E7
:1043300080024FF0000302F01BFE4FF0000002F07D
:1043400013FF07F11C07BD4690BD00BF0000000031
:104350000000803F80B584B000AF78604FF000036C
:10436000FB7300E000BF42F6D443C2F200031B68B7
:1043700018464FF000014FF0FF324FF0000306F0F7
:10438000ADFA0346012BEDD14FF00003FB7310E0B3
:10439000FB7B4FF0980202FB03F242F29463C2F2FD
:1043A0000003D318184600F09FF9FB7B03F10103CB
:1043B000FB73FB7B062BEBD9D5E700BF90B589B02B
:1043C00000AF78600B46FB704FF00003FB774FF0B7
:1043D0000003BB774FF000037B774FF000033B7780
:1043E0004FF00003FB7624E0FB7E7A684FF09801E3
:1043F00001FB03F3D31803F190031B78012B14D1B5
:10440000FA7F7968FB7E4FF0980000FB03F3C91830
:104410007B6802F5857243F82210FB7F03F10103EC
:10442000FB77BB7F03F10103BB77FB7E03F1010345
:10443000FB76FA7EFB789A42D6D3BB7F002B47D01F
:10444000FB7F03F1FF33FB763FE04FF00003BB76C9
:1044500033E0BA7E7B6802F5857253F822301A7811
:10446000BB7E03F101017B6801F5857153F82130B2
:104470001B789A421DD9BA7E7B6802F5857253F883
:1044800022307B61BA7EBB7E03F101017B6801F5BE
:10449000857153F821107B6802F5857243F822106C
:1044A000BB7E03F1010279697B6802F5857243F8EE
:1044B0002210BB7E03F10103BB76BA7EFB7E9A42DB
:1044C000C7D3FB7E03F1FF33FB76FB7E002BBCD111
:1044D0004FF00003FB7624E0FB7E7A684FF09801F2
:1044E00001FB03F3D31803F190031B78002B14D1C5
:1044F000FA7F7968FB7E4FF0980000FB03F3C91840
:104500007B6802F5857243F82210FB7F03F10103FB
:10451000FB777B7F03F101037B77FB7E03F10103D4
:10452000FB76FA7EFB789A42D6D37B7F002B5BD05A
:10453000FB7F03F1FF33FB7650E0FA7F7B7FD31ADA
:10454000BB7643E0BA7E7B6802F5857253F8223071
:10455000D3F88820BB7E03F101017B6801F58571EA
:1045600053F82130D3F888304FF001010C46104643
:1045700019460AF041F80346002B02D14FF0000320
:104580001C46E3B2002B1DD0BA7E7B6802F5857213
:1045900053F822303B61BA7EBB7E03F101017B6898
:1045A00001F5857153F821107B6802F5857243F897
:1045B0002210BB7E03F1010239697B6802F5857226
:1045C00043F82210BB7E03F10103BB76BA7EFB7E6B
:1045D0009A42B7D3FB7E03F1FF33FB76FA7EF97F75
:1045E0007B7FCB1A9A42A8DC4FF00003FB7624E0D5
:1045F000FB7E7A684FF0980101FB03F3D31803F1B7
:1046000090031B78022B14D1FA7F7968FB7E4FF060
:10461000980000FB03F3C9187B6802F5857243F824
:104620002210FB7F03F10103FB773B7F03F10103C2
:104630003B77FB7E03F10103FB76FA7EFB789A421F
:10464000D6D33B7F002B4BD0FB7F03F1FF33FB76B0
:1046500040E0FA7F3B7FD31ABB7633E0BA7E7B68BB
:1046600002F5857253F822301A78BB7E03F10101FE
:104670007B6801F5857153F821301B789A421DD96A
:10468000BA7E7B6802F5857253F82230FB60BA7EF1
:10469000BB7E03F101017B6801F5857153F82110A0
:1046A0007B6802F5857243F82210BB7E03F101029C
:1046B000F9687B6802F5857243F82210BB7E03F12E
:1046C0000103BB76BA7EFB7E9A42C7D3FB7E03F121
:1046D000FF33FB76FA7EF97F3B7FCB1A9A42B8DC38
:1046E00007F12407BD4690BD90B589B000AF786052
:1046F0007B6893F89030012B00F0D680022B02D01B
:10470000002B45D0D7E07B6893F884307A684FEA75
:104710008303D3185A687B6893F88430A3F10A03A3
:1047200003F01F0379684FEA8303CB185B681046D8
:10473000194609F09BFC03467B614FF001031C46C0
:1047400078695F4909F058FF0346002B02D14FF00A
:1047500000031C46E3B2002B00F0A8807B68D3F86E
:1047600088304FF0010214461846564909F044FFBC
:104770000346002B02D14FF000031C46E3B2002B8E
:1047800000F096807B684FF0000283F8902092E062
:104790004D4B3B614C4BFB617B6893F88430FB7362
:1047A000FB7BA3F10A03DBB203F01F03FB7611E0EE
:1047B000FB7E03F01F037A684FEA8303D3185B681C
:1047C000F869194609F054FC0346FB61FB7E03F1CE
:1047D0000103FB76FB7E03F01F02FB7B9A42E7D1CD
:1047E000F8693A4909F000FE03463B617B681B7893
:1047F0001A4642F29463C2F2000302F58A7253F839
:1048000022304FF0010214461846396909F0D6FEED
:104810000346002B02D14FF000031C46E3B2002BED
:1048200012D07B684FF0010283F8902042F294632B
:10483000C2F200034FF0010283F84C244FF0000055
:104840004FF00101FEF78EFB7B6893F884307A68A5
:104850004FEA8303D3185A687B6893F88430A3F136
:104860000A0303F01F0379684FEA8303CB185B68E0
:104870001046194609F0FAFB0346BB604FF00103EE
:104880001C46B868124909F099FE0346002B02D174
:104890004FF000031C46E3B2002B0BD07B684FF0B7
:1048A000020283F8902006E000BF04E000BF02E0AF
:1048B00000BF00E000BF184607F12407BD4690BDC9
:1048C0000000804000003442000000000000204151
:1048D000000000C080B584B000AF4FF00003FB7350
:1048E00042F29463C2F200034FF48042C4F2020227
:1048F000C3F88C2444F23C03C4F20203BB6042F2CE
:104900009463C2F20003D3F88C3418464FF03C0194
:1049100000F0F0F80346FB71BB681B78FA799A4205
:1049200040F086804FF00003FB7315E0FA7B42F203
:104930009463C2F20003D3F88C34F97B53F821104E
:1049400042F29463C2F2000302F58A7243F8221025
:10495000FB7B03F10103FB73FB7B062BE6D942F2E1
:104960009463C2F20003D3F88C34DA6942F29463A0
:10497000C2F20003C3F86C2442F29463C2F2000353
:10498000D3F88C341A6A42F29463C2F20003C3F87B
:10499000702442F29463C2F20003D3F88C345A6A52
:1049A00042F29463C2F20003C3F8742442F29463A7
:1049B000C2F20003D3F88C349A6A42F29463C2F2D2
:1049C0000003C3F8782442F29463C2F20003D3F8E0
:1049D0008C34DA6A42F29463C2F20003C3F87C2496
:1049E00042F29463C2F20003D3F88C341A6B42F2A1
:1049F0009463C2F20003C3F8802442F29463C2F2CB
:104A00000003D3F88C349A6B42F29463C2F2000331
:104A1000C3F8882442F29463C2F20003D3F88C34C2
:104A20005A6B42F29463C2F20003C3F884244CE050
:104A30004FF00003FB730DE0FA7B42F29463C2F285
:104A4000000302F58A72234943F82210FB7B03F12D
:104A50000103FB73FB7B062BEED942F29463C2F297
:104A600000031D4AC3F8742442F29463C2F20003A7
:104A70001A4AC3F8782442F29463C2F20003184A37
:104A8000C3F87C2442F29463C2F20003154AC3F8CF
:104A90006C2442F29463C2F20003124AC3F87024F9
:104AA00042F29463C2F200030F4AC3F8802442F238
:104AB0009463C2F200030D4AC3F8882442F294635F
:104AC000C2F200030A4AC3F8842407F11007BD4666
:104AD00080BD00BF0000DC420000F042000040400A
:104AE000000000000000E64200008040000000C01E
:104AF0000000344280B487B000AF78600B46FB7092
:104B00004FF00003FB757B683B61FB78FB732BE088
:104B10003B691A78FB7D82EA0303FB753B6903F16D
:104B200001033B61FB7D03F00103DBB2002B02D0EC
:104B30004FF0800301E04FF00003FA7D4FEA52028C
:104B4000D2B2D1B21A460B4642EA0303DBB2FB757E
:104B5000FB7D5BB2002B03DAFB7D83F03C03FB752E
:104B6000FB7B03F1FF33FB73FB7B002BD0D1FB7D81
:104B7000184607F11C07BD4680BC704780B489B059
:104B800000AF78604FF00003BB614FF000037B6122
:104B90004FF00003FB614FF002033B614FF0000355
:104BA000FB604FF00203BB604FF46053C4F202039A
:104BB0009B6803F00C03BB61BB69042B0AD0082B74
:104BC0000FD0002B64D17A684FF41053C0F2F40375
:104BD000136064E07A6847F64003C0F27D13136007
:104BE0005DE04FF46053C4F202035B6803F480039A
:104BF0004FEA9353FB604FF46053C4F202035B68C7
:104C000003F03F03BB60FB68002B16D047F6400360
:104C1000C0F27D13BA68B3FBF2F24FF46053C4F2F2
:104C200002035B68194647F6C07301EA03034FEAC3
:104C3000931303FB02F3FB6115E04FF41053C0F232
:104C4000F403BA68B3FBF2F24FF46053C4F2020308
:104C50005B68194647F6C07301EA03034FEA9313F2
:104C600003FB02F3FB614FF46053C4F202035B6881
:104C700003F440334FEA134303F101034FEA4303C4
:104C80003B61FA693B69B2FBF3F27B681A6006E0AC
:104C90007A684FF41053C0F2F403136000BF4FF46E
:104CA0006053C4F202039B6803F0F003BB61BB696D
:104CB0004FEA1313BB6140F2DC03C2F20003BA698E
:104CC0009B181B78DBB27B617B681A687B6922FAD0
:104CD00003F27B685A604FF46053C4F202039B688E
:104CE00003F4E053BB61BB694FEA9323BB6140F21D
:104CF000DC03C2F20003BA699B181B78DBB27B614C
:104D00007B685A687B6922FA03F27B689A604FF4E9
:104D10006053C4F202039B6803F46043BB61BB6948
:104D20004FEA5333BB6140F2DC03C2F20003BA69BD
:104D30009B181B78DBB27B617B685A687B6922FA1F
:104D400003F27B68DA6007F12407BD4680BC704738
:104D500080B483B000AF78600B46FB70FB78002B0B
:104D60000ED04FF46053C4F202034FF46052C4F209
:104D70000202126B11467A6841EA02021A630FE0DE
:104D80004FF46053C4F202034FF46052C4F20202C3
:104D9000126B11467A686FEA020201EA02021A6394
:104DA00007F10C07BD4680BC704700BF80B483B0DC
:104DB00000AF78600B46FB70FB78002B0ED04FF4F1
:104DC0006053C4F202034FF46052C4F20202526B09
:104DD00011467A6841EA02025A630FE04FF46053C9
:104DE000C4F202034FF46052C4F20202526B114645
:104DF0007A686FEA020201EA02025A6307F10C07BD
:104E0000BD4680BC704700BF80B483B000AF7860FF
:104E10000B46FB70FB78002B0ED04FF46053C4F2AE
:104E200002034FF46052C4F20202126C11467A6817
:104E300041EA02021A640FE04FF46053C4F2020325
:104E40004FF46052C4F20202126C11467A686FEAA3
:104E5000020201EA02021A6407F10C07BD4680BC97
:104E6000704700BF80B483B000AF78600B46FB7022
:104E7000FB78002B0ED04FF46053C4F202034FF4C2
:104E80006052C4F20202526C11467A6841EA020290
:104E90005A640FE04FF46053C4F202034FF46052BF
:104EA000C4F20202526C11467A686FEA020201EA09
:104EB00002025A6407F10C07BD4680BC704700BF70
:104EC00080B483B000AF78600B46FB70FB78002B9A
:104ED0000ED04FF46053C4F202034FF46052C4F298
:104EE0000202526A11467A6841EA02025A620FE0EF
:104EF0004FF46053C4F202034FF46052C4F2020252
:104F0000526A11467A686FEA020201EA02025A62A4
:104F100007F10C07BD4680BC704700BF80B500AFED
:104F20004FF480704FF00101FFF7CAFF4FF480701B
:104F30004FF00001FFF7C4FF80BD00BF80B485B013
:104F400000AF786039604FF00003FB604FF0000362
:104F5000FB727B685B68FB60FB6823F0407323F4A3
:104F60008073FB603B681B794FEA03223B681B6838
:104F700042EA0303FA6842EA0303FB607B68FA68CB
:104F80005A607B689B68FB60FA684FF2FD73CCF255
:104F9000FF0302EA0303FB603B681A693B68DB68B6
:104FA0001A433B689B681A433B685B794FEA4303AB
:104FB00042EA0303FA6842EA0303FB607B68FA688B
:104FC0009A607B68DB6AFB60FB6823F47003FB601C
:104FD0003B681B7D03F1FF33DAB2FB7A42EA03033D
:104FE000FB72FB7A4FEA0353FA6842EA0303FB6061
:104FF0007B68FA68DA6207F11407BD4680BC704727
:1050000080B483B000AF78607B684FF000021A6014
:105010007B684FF000021A717B684FF000025A71F2
:105020007B684FF000029A607B684FF00002DA6004
:105030007B684FF000021A617B684FF001021A751D
:1050400007F10C07BD4680BC704700BF80B485B037
:1050500000AF78604FF00003FB604FF40C53C4F2D4
:1050600001035B68FB60FA6843F2E003CFF6FC7370
:1050700002EA0303FB607B681A687B685B681A437B
:105080007B689B681A437B68DB6842EA0303FA6823
:1050900042EA0303FB604FF40C53C4F20103FA68C5
:1050A0005A6007F11407BD4680BC704780B483B0D6
:1050B00000AF78607B684FF000021A607B684FF0A9
:1050C00000025A607B684FF000029A607B684FF0E4
:1050D0000002DA6007F10C07BD4680BC704700BFD4
:1050E00080B483B000AF78600B46FB70FB78002B78
:1050F00006D07B689B6843F001027B689A6005E0FC
:105100007B689B6823F001027B689A6007F10C07BB
:10511000BD4680BC704700BF80B485B000AF7860EA
:10512000F970BA707B704FF00003FB604FF0000322
:10513000BB60FB78092B29D97B68DB68FB60FA78B8
:1051400013464FEA43039B18A3F11E034FF00702D7
:1051500002FA03F3BB60BB686FEA0303FA6802EA72
:105160000303FB607978FA7813464FEA43039B18F0
:10517000A3F11E0301FA03F3BB60FA68BB6842EABD
:105180000303FB607B68FA68DA6024E07B681B69D4
:10519000FB60FA7813464FEA43039B184FF007026F
:1051A00002FA03F3BB60BB686FEA0303FA6802EA22
:1051B0000303FB607978FA7813464FEA43039B18A0
:1051C00001FA03F3BB60FA68BB6842EA0303FB60C1
:1051D0007B68FA681A61BB78062B29D87B685B6B01
:1051E000FB60BB7803F1FF3213464FEA83039B1841
:1051F0004FF01F0202FA03F3BB60BB686FEA0303C0
:10520000FA6802EA0303FB60F978BB7803F1FF3226
:1052100013464FEA83039B1801FA03F3BB60FA6855
:10522000BB6842EA0303FB607B68FA685A6355E097
:10523000BB780C2B29D87B681B6BFB60BA781346B4
:105240004FEA83039B18A3F123034FF01F0202FAD6
:1052500003F3BB60BB686FEA0303FA6802EA030367
:10526000FB60F978BA7813464FEA83039B18A3F1E1
:10527000230301FA03F3BB60FA68BB6842EA030345
:10528000FB607B68FA681A6328E07B68DB6AFB6076
:10529000BA7813464FEA83039B18A3F141034FF0FA
:1052A0001F0202FA03F3BB60BB686FEA0303FA68EC
:1052B00002EA0303FB60F978BA7813464FEA8303E6
:1052C0009B18A3F1410301FA03F3BB60FA68BB68C2
:1052D00042EA0303FB607B68FA68DA6207F11407AD
:1052E000BD4680BC704700BF80B485B000AF786019
:1052F0000B46FB704FF00003FB737B681B681A467C
:10530000FB7802EA0303002B03D04FF00103FB7389
:1053100002E04FF00003FB73FB7B184607F1140714
:10532000BD4680BC704700BF80B586B000AF7860D6
:1053300039604FF00003FB753B681B88052B72D169
:105340007B6803F101031B784FEA0323BB827B6870
:1053500003F102031B781A46BB8A42EA0303BB82AD
:10536000BB8A03F10103BB827B6803F103031B7853
:105370004FEA03237B827B6803F104031B781A4600
:105380007B8A42EA03037B827B8A002B47D07B8A9D
:105390007C2B44D87B68FB603B684FF000021A808E
:1053A000FB684FF004021A70FB6803F10103FB6015
:1053B0003B681B8803F101039AB23B681A807B8A21
:1053C000DBB24FEA4303DAB2FB681A70FB6803F101
:1053D0000103FB603B681B8803F101039AB23B6841
:1053E0001A80BA8A7B8AF86811461A46FCF770FA66
:1053F0000346FB72FB7A002B06D0FB7A1846FDF7BA
:1054000089FE0346FB7511E03B681A887B8A4FEAE8
:1054100043039BB2D3189AB23B681A8006E04FF060
:105420000303FB7502E04FF00303FB75FB7D184699
:1054300007F11807BD4680BD80B483B000AF786027
:105440000B46FB707B68FA781A704FF00103184620
:1054500007F10C07BD4680BC704700BF80B485B023
:1054600000AF786039604FF00003FB600FE03B68ED
:105470001A787B681A707B6803F101037B603B68D4
:1054800003F101033B60FB6803F10103FB603B6830
:105490001B78002BEBD1FB68184607F11407BD46BB
:1054A00080BC704780B586B000AFF8607A603B6022
:1054B0000B46FB724FF000037B617B6803F1FF3307
:1054C0007B603B68092B25D93A684CF6CD43CCF676
:1054D000CC43A3FB02134FEAD303FA7AF8681146D0
:1054E0007A68FFF7DFFF78617B69FA68D318FB60A1
:1054F00013E0FB7AF8681946FFF79EFFFB6803F19B
:105500000103FB607B6903F101037B617B6803F1AD
:10551000FF337B607B68002BEBDC39684CF6CD43B6
:10552000CCF6CC43A3FB01234FEAD30213464FEA48
:1055300083039B184FEA4303CA1AD3B203F1300323
:10554000DBB2F8681946FFF777FF03467A69D3188C
:105550007B617B69184607F11807BD4680BD00BF17
:1055600080B586B000AFF8607A603B600B46FB7296
:105570004FF000037B613B68002B04DA3B68C3F10A
:1055800000033B6101E03B683B617B6803F1FF3353
:105590007B603B69092B2AD93B68002B12DA3A69F8
:1055A0004CF6CD43CCF6CC43A3FB02134FEAD30316
:1055B000C3F10003FA7AF86811467A68FFF7D0FF62
:1055C00078610FE03A694CF6CD43CCF6CC43A3FBAF
:1055D00002134FEAD303FA7AF86811467A68FFF7A4
:1055E000BFFF78617B69FA68D318FB602BE03B68EA
:1055F000002B15DA7B6803F1FF337B6010E0FB7A48
:10560000F8681946FFF718FFFB6803F10103FB6018
:105610007B6903F101037B617B6803F1FF337B60EE
:105620007B68002BEBDC3B68002B0CDAF8684FF052
:105630002D01FFF701FF03467A69D3187B61FB68F0
:1056400003F10103FB6039694CF6CD43CCF6CC4342
:10565000A3FB01234FEAD30213464FEA83039B18AF
:105660004FEA4303CA1AD3B203F13003DBB2F8683E
:105670001946FFF7E1FE03467A69D3187B617B691F
:10568000184607F11807BD4680BD00BF80B588B039
:1056900002AFF8607A600A46FA72FB704FF00003BE
:1056A0007B617B6803F1FF337B603B6A4FEA131336
:1056B000002B24D03B6A4FEA1311FA7AFB78009151
:1056C000F86811467A68FFF7E1FF03467A69D31854
:1056D0007B617B69FA68D318FB6013E0FB7AF8689A
:1056E0001946FFF7A9FEFB6803F10103FB607B6924
:1056F00003F101037B617B6803F1FF337B607B680F
:10570000002BEBDC3B6A03F00F03092B0CD83B6A40
:10571000DBB203F00F03DBB203F13003DBB2F86856
:105720001946FFF789FE1BE0FB78002B0CD03B6A83
:10573000DBB203F00F03DBB203F13703DBB2F8682F
:105740001946FFF779FE0BE03B6ADBB203F00F036B
:10575000DBB203F15703DBB2F8681946FFF76CFEC2
:105760007B6903F101037B617B69184607F1180728
:10577000BD4680BD80B58AB002AFF860B9607A607E
:105780003B604FF00003BB614FF000037B61FB689F
:10579000002B00F01C81FB684FF000021A7017E12B
:1057A0007B681B78252B10D07B681A78FB681A70F1
:1057B000FB6803F10103FB607B6803F101037B607D
:1057C0007B6903F101037B6102E17B6803F1010363
:1057D0001B78252B10D1FB684FF025021A70FB684F
:1057E00003F10103FB607B6803F102037B607B69CB
:1057F00003F101037B61EBE04FF02003FB774FF0F7
:105800000003BB777B6803F101037B607B681B7837
:10581000302B1BD14FF03003FB777B6803F1010382
:105820007B6014E0BB7F1A464FEA8202D3184FEA2E
:105830004303DAB27B681B78D318DBB2A3F13003E1
:10584000BB777B6803F101037B6000E000BF7B68EE
:105850001B782F2B03D97B681B78392BE2D9BA7FB1
:105860007B69D3181A46BB689A4205D9BB68DAB27D
:105870007B69DBB2D31ABB777B681B78A3F1580333
:10588000202B00F2948001A252F823F06159000805
:10589000AF590008AF590008AF590008AF590008C8
:1058A000AF590008AF590008AF590008AF590008B8
:1058B000AF590008AF59000897590008115900085E
:1058C000AF590008AF590008AF590008AF59000898
:1058D00011590008AF590008AF590008AF59000826
:1058E000AF590008AF590008AF590008AF59000878
:1058F000AF590008AF59000881590008AF59000896
:1059000029590008AF590008AF590008415900084B
:10591000BA7F3B6803F1040139601B68F97FF868BE
:10592000FFF71EFEB86145E0BA7F3B6803F1040152
:1059300039601B68F97FF868FFF7B4FDB86139E09A
:10594000BA7F3B6803F1040139601968FB7F00915D
:10595000F86819464FF00003FFF798FEB86129E098
:10596000BA7F3B6803F1040139601968FB7F00913D
:10597000F86819464FF00103FFF788FEB86119E097
:105980003B6803F104023A601B68F8681946FFF7A8
:1059900065FDB8610EE03B6803F104023A601B68E4
:1059A000DBB2F8681946FFF747FDB86102E04FF037
:1059B000FF332CE07B6803F101037B60BB69FA686D
:1059C000D318FB607A69BB69D3187B6100E000BF24
:1059D0007B681B78002B04D07A69BB689A42FFF47D
:1059E000DFAE7A69BB689A4204D2FB684FF00002CE
:1059F0001A700BE0FB6803F1FF33FB60FB684FF0AC
:105A000000021A707B6903F1FF337B617B691846E2
:105A100007F12007BD4680BD80B584B000AFF860B7
:105A2000B9607A60F8684FF06401BA687B68FFF784
:105A3000A1FE0346184607F11007BD4680BD00BF12
:105A40000EB480B585B000AF786007F12003BB606D
:105A50007868F969BA68FFF7DFFFF860FB681846F5
:105A600007F11407BD46BDE8804003B0704700BF92
:105A700080B483B000AF0346FB714FF46143CEF2B4
:105A8000000397F907204FEA5212F97901F01F013C
:105A90004FF0010000FA01F143F8221007F10C0762
:105AA000BD4680BC704700BF80B58AB004AF42F2EB
:105AB0009463C2F2000393F84D34002B40F0E6806B
:105AC0004FF002004FF00101FFF742F94FF4804020
:105AD0004FF00101FFF7C6F94FF003033B614FF0B0
