:020000040800F2
:100000006836002065190008CD190008CD190008D0
:10001000CD190008CD190008CD1900080000000016
:10002000000000000000000000000000F15D00087A
:10003000CD19000800000000F55E0008315F0008DF
:10004000CD19000801830008CD190008CD1900085A
:10005000CD190008CD190008C13200088533000809
:10006000CD190008CD190008CD190008CD190008D8
:10007000CD190008CD190008CD190008CD190008C8
:10008000CD190008CD190008CD190008CD190008B8
:10009000CD190008CD190008CD190008CD190008A8
:1000A000CD190008CD190008CD190008CD19000898
:1000B00095170008CD190008CD190008CD190008C2
:1000C000CD190008CD190008CD190008CD19000878
:1000D000CD190008CD190008CD190008CD19000868
:1000E000CD190008CD190008E9520008CD19000803
:1000F000CD190008CD190008CD190008CD19000848
:10010000CD190008CD190008CD190008CD19000837
:10011000CD190008CD190008CD190008CD19000827
:10012000CD190008CD190008CD190008CD19000817
:10013000CD190008CD190008CD190008CD19000807
:10014000CD190008CD190008CD1900082D5300085D
:10015000CD190008CD190008CD190008CD190008E7
:10016000CD190008CD190008CD190008CD190008D7
:10017000CD190008CD190008CD190008CD190008C7
:10018000CD190008CD19000890B484B000AF024624
:100190000B46FA71BB714FF00003FB60BB7903F0B3
:1001A00003034FEA83034FF00F0202FA03F3FB60ED
:1001B0004FF46053C4F20103BA794FEA9202D2B20B
:1001C00010464FF46052C4F20102B9794FEA91012E
:1001D000C9B201F1020152F821201146FA686FEA12
:1001E0000202114000F1020243F822104FF4605362
:1001F000C4F20103BA794FEA9202D2B210464FF428
:100200006052C4F20102B9794FEA9101C9B201F119
:10021000020152F821201146FC79BA7902F003025A
:100220004FEA820204FA02F2114300F1020243F89B
:10023000221007F11007BD4690BC704780B485B00E
:1002400000AF78604FF00003FB607B68DB684FF025
:10025000FF325A607B68DB684FF0FF325A61FB68FF
:1002600043F00043FB60FB6843F40063FB607B6882
:10027000DB68FA689A6107F11407BD4680BC7047D5
:1002800080B586B000AF78604FF00003FB744FF08C
:1002900000037B614FF00003FB604FF0030004F0AC
:1002A000E7FF7B68DB681B69FB607B6903F1010387
:1002B0007B617A694FF45463C0F203039A4202D916
:1002C0004FF000032AE0FB6803F00043002BE4D06A
:1002D0004FF000037B61FB6843F00103FB607B6828
:1002E000DB68FA681A617B68DB681B69FB607B6905
:1002F00003F101037B617A694FF45463C0F2030395
:100300009A4205D8FB6803F00103002BEBD100E013
:1003100000BF4FF0030004F0ABFFFB7C184607F171
:100320001807BD4680BD00BF80B489B000AFF8603B
:10033000B960FA71BB804FF00003FB76FB68DB7895
:10034000002B2DD14FF000037B614FF00003FB61C8
:10035000BB8803F1030303F10302002BB8BF13466C
:100360004FEAA3037B61FB79FA6803F132034FEA9A
:100370008303D3189B683B614FF00003FB610BE0E4
:10038000BB681A683B691A60FB6903F10103FB61F2
:10039000BB6803F10403BB60FA697B699A42EFD33F
:1003A000FB7E184607F12407BD4680BC704700BF9E
:1003B00080B489B000AFF860B9601346FB804FF09D
:1003C0000003FB61FB8803F1030303F10302002B2D
:1003D000B8BF13464FEAA303BB61FB68D3F8D03024
:1003E0007B614FF00003FB610BE0BB687A69126828
:1003F0001A60FB6903F10103FB61BB6803F10403AD
:10040000BB60FA69BB699A42EFD3BB68184607F133
:100410002407BD4680BC704780B487B000AF7860C9
:100420000B46FB704FF000033B614FF00003FB7382
:100430007B684FF00002DA707B684FF001029A701F
:100440007B684FF040029A80FB78012B17D14FF068
:10045000A0433B617B684FF00102DA727B684FF08A
:1004600008021A707B684FF004025A707B684FF4E0
:10047000A072DA807B684FF002021A7217E0FB78F4
:10048000002B14D14FF00003C4F204033B617B68DE
:100490004FF00002DA727B684FF00C021A707B6832
:1004A0004FF006025A707B684FF4A062DA803A6916
:1004B0007B68DA603B6903F500631A467B681A6162
:1004C0004FF000037B6123E07B694FEA43123B69F5
:1004D000D31803F510631A4679687B6903F10403A6
:1004E0004FEA8303CB189A607B694FEA43123B695A
:1004F000D31803F530631A4679687B6903F1140356
:100500004FEA8303CB185A607B6903F101037B61D7
:100510007B685B781A467B699A42D5D83B6903F5BC
:1005200080631A467B685A613B6903F588631A4603
:100530007B68C3F8CC204FF000037B6113E07B693C
:100540004FEA43123B69D31803F5A0631A46796852
:100550007B6903F122034FEA8303CB189A607B691E
:1005600003F101037B617B681B781A467B699A4221
:10057000E5D84FF000037B6113E07B694FEA03325B
:100580003B69D31803F580531A4679687B6903F1F8
:1005900032034FEA8303CB189A607B6903F10103AE
:1005A0007B617B681B781A467B699A42E5D83B6978
:1005B00003F560631A467B68C3F80C21FB7B184681
:1005C00007F11C07BD4680BC704700BF80B588B0EE
:1005D00000AF78604FF00003FB774FF00003BB6182
:1005E0004FF000037B614FF00003FB607B681B7AD8
:1005F000012B51D17B68DB689B6B7B617B696FF35F
:1006000010437B617B685B7A002B03D07B6943F4EA
:1006100080137B617B68DB687A699A634FF0000323
:10062000BB617B68DB68DB68BB61BB696FF386130A
:10063000BB61BB696FF39653BB61BB6943F01003A9
:10064000BB61BB696FF3C303BB61BB696FF3C713C6
:10065000BB61BB696FF35143BB61BB696FF3D343AC
:10066000BB617B68DB68BA69DA607868FFF708FE0F
:100670007B68DB78012B40F08980FB684FF0050236
:1006800062F34403FB60FB6843F02003FB607B687C
:10069000DB68FA689A6079E07B68DB68DB68BB61DD
:1006A000BB6943F04003BB617B68DB68BA69DA6011
:1006B0007868FFF7E5FD4FF000037B617B6943F449
:1006C00080337B617B681B7A032B03D17B6943F406
:1006D00000337B617B6943F480237B617B6943F456
:1006E00000237B617B6943F400137B617B685B7A49
:1006F000002B03D07B6943F480137B617B68DB684C
:100700007A699A634FF0140004F0DEFD7B68DB68C1
:10071000DB68BB617B681B7A032B03D1BB6943F4A5
:100720008033BB617B68DB68BA69DA607B681B7AFF
:10073000032B2BD17B68DB681B6B3B613B694FF064
:10074000010262F39B633B613B696FF3D7533B61EB
:100750003B6943F080533B613B694FF02D0262F3EC
:1007600016433B617B68DB683A691A634FF0C80047
:1007700004F0AAFD3B6943F400033B617B68DB683E
:100780003A691A634FF0C80004F09EFD7B68DB787D
:10079000012B11D17B68DB689B68FB60FB684FF025
:1007A000050262F34403FB60FB6843F02003FB6037
:1007B0007B68DB68FA689A60FB7F184607F12007C0
:1007C000BD4680BD80B485B000AF78604FF00003B7
:1007D000FB734FF00003BB60BB6843F00103BB60D9
:1007E0007B68DB687A68D26892681146BA6841EA29
:1007F00002029A60FB7B184607F11407BD4680BCD5
:10080000704700BF80B485B000AF78604FF0000340
:10081000FB734FF00003BB60BB6843F00103BB6098
:100820007B68DB687A68D26892681146BA686FEABA
:10083000020201EA02029A60FB7B184607F11407E4
:10084000BD4680BC704700BF80B586B000AF786001
:1008500039604FF00003FB744FF000037B614FF0F1
:100860000003FB60FB6843F02003FB603B68DBB2E6
:1008700003F01F03DAB2FB6862F38A13FB607B6844
:10088000DB68FA681A617B68DB681B69FB607B695F
:1008900003F101037B617A694FF45463C0F20303EF
:1008A0009A4205D8FB6803F02003002BEBD100E04F
:1008B00000BF4FF0030004F0DBFCFB7C184607F19F
:1008C0001807BD4680BD00BF80B586B000AF786018
:1008D0004FF00003FB744FF000037B614FF0000307
:1008E000FB60FB6843F01003FB607B68DB68FA6821
:1008F0001A617B68DB681B69FB607B6903F101039C
:100900007B617A694FF45463C0F203039A4205D8BD
:10091000FB6803F01003002BEBD100E000BF4FF0A9
:10092000030004F0A5FCFB7C184607F11807BD4640
:1009300080BD00BF80B584B000AF78600B46FB700F
:100940004FF00003FB737B68DB68DB68BB60BB6850
:100950006FF35D73BB60BB686FF39E73BB60FB7826
:10096000012B04D1BB6843F00053BB6006E0FB7869
:10097000002B03D1BB6843F08043BB607B68DB681E
:10098000BA68DA604FF0320004F09EFCFB7B184638
:1009900007F11007BD4680BD80B483B000AF78601A
:1009A0007B68DB685B6903F00103184607F10C07FD
:1009B000BD4680BC704700BF80B582B000AF786094
:1009C0007868FFF7E9FF0346012B0CBF00230123E2
:1009D000DBB2184607F10807BD4680BD80B485B07C
:1009E00000AF78604FF00003FB607B68DB685B69F9
:1009F000FB607B68DB689B69FA6802EA0303FB60C3
:100A0000FB68184607F11407BD4680BC704700BF5D
:100A100080B485B000AF78600B46FB707B681B69C3
:100A20001B68FB60FB7803F00303DAB2FB6862F338
:100A30000103FB607B681B69FA681A6007F1140701
:100A4000BD4680BC704700BF80B58CB000AF7860F9
:100A50004FF0000387F82B304FF000037B624FF01C
:100A600000033B624FF00003FB614FF00003BB61EA
:100A70004FF000037B617B68D3F80C314FF000022C
:100A80001A607B681B691B683B623B6A6FF3CC236F
:100A90003B627B681B693A6A1A607B68DB7A012BD0
:100AA00040D178684FF00301FFF7B2FF7B68DB6845
:100AB0004FF080025A624FF02003FB834FF0800317
:100AC000BB837B68DB68FA699A62BA8BFB8BD318AD
:100AD0009BB23B834FF080037B837B68DB68BA6902
:100AE000C3F804213A8B7B8BD3189BB23B834FF026
:100AF00020037B837B68DB6803F5827303F10403C7
:100B0000BA691A603A8B7B8BD3189BB23B834FF048
:100B100000037B837B68DB6803F5827303F10803C2
:100B2000BA691A6078684FF01001FFF78DFE786897
:100B3000FFF7CAFE7B681B694FF000021A617B68F1
:100B40001B694FF000025A617B681B694FF0FF324E
:100B50009A617B681B694FF00002DA614FF0000375
:100B6000FB6243E07A68FB6A03F104034FEA830304
:100B7000D3189B681B687B6297F8273023F07F03AC
:100B8000DBB2002B0BD04FF000037B627B6A43F09B
:100B900080437B627B6A43F000637B6202E04FF03C
:100BA00000037B627A68FB6A03F104034FEA830364
:100BB000D3189B687A6A1A607A68FB6A03F10403A7
:100BC0004FEA8303D3189B684FF000021A617A68DA
:100BD000FB6A03F104034FEA8303D3189B684FF0C9
:100BE000FF029A60FB6A03F10103FB627B685B789A
:100BF0001A46FB6A9A42B5D84FF00003FB6242E006
:100C00007A68FB6A03F114034FEA8303D3185B6825
:100C10001B68FB60FB7B23F07F03DBB2002B0BD058
:100C20004FF00003FB60FB6843F08043FB60FB6810
:100C300043F00063FB6002E04FF00003FB607A6862
:100C4000FB6A03F114034FEA8303D3185B68FA6865
:100C50001A607A68FB6A03F114034FEA8303D3181E
:100C60005B684FF000021A617A68FB6A03F11403B3
:100C70004FEA8303D3185B684FF0FF029A60FB6A68
:100C800003F10103FB627B685B781A46FB6A9A42B8
:100C9000B6D84FF000037B617B6943F480737B61BE
:100CA0007B681B697A681269126911467A696FEA72
:100CB000020211407A6941EA02021A617B68DB781C
:100CC000012B1ED14FF000033B613B6943F0010350
:100CD0003B613B6943F002033B613B694FF04002DB
:100CE00062F38A033B613B6943F480333B613B69B8
:100CF0004FF0400262F359433B617B681B693A69DC
:100D00001A63786800F008F897F82B30184607F156
:100D10003007BD4680BD00BF80B584B000AF7860AD
:100D20004FF00003FB734FF00003BB607B68DB6890
:100D30004FF000029A617B68DB684FF0FF325A6126
:100D40007868FFF77BFA7B68DB78002B03D1BB6800
:100D500043F01003BB60BB6843F40063BB60BB6837
:100D600043F48053BB60BB6843F40053BB60BB6873
:100D700043F48023BB60BB6843F40023BB60BB68C3
:100D800043F00803BB60BB6843F48013BB60BB68DF
:100D900043F40013BB607B68DB687A68D2689269B1
:100DA0001146BA686FEA02021140BA6841EA0202CB
:100DB0009A61FB7B184607F11007BD4680BD00BF56
:100DC00080B485B000AF78604FF00003FB737B68A0
:100DD0001B699B68BB60BB68C3F34103DBB2022B9A
:100DE0000BD0032B05D0012B03D04FF00303FB7373
:100DF00007E04FF00203FB7303E04FF00103FB73C6
:100E000000BFFB7B184607F11407BD4680BC704746
:100E100080B487B000AF78604FF00003FB754FF0EF
:100E20000003BB607B681B699B683B617B689B69B7
:100E30001B68FB603B69C3F34103DBB2022B04D0A8
:100E4000FB686FF30A03FB6006E0FB684FF00302E8
:100E500062F30A03FB6000BF7B689B69FA681A6053
:100E6000BB6843F48073BB607B681B697A68126956
:100E700052681146BA686FEA02021140BA6841EA44
:100E800002025A60FB7D184607F11C07BD4680BC74
:100E9000704700BF80B487B000AF786039604FF012
:100EA0000003FB744FF00003FB604FF00003BB60D6
:100EB0003B685B78012B12D13B681B787A6803F1A1
:100EC00004034FEA8303D3189B687B613B681B785C
:100ED0004FF0010202FA03F39BB23B8111E03B6841
:100EE0001B787A6803F114034FEA8303D3185B6815
:100EF0007B613B681B784FF0010202FA03F39BB25F
:100F00007B817B691B68FB607B7B23F07F03DBB20B
:100F1000002B29D13B689B689BB24FEA43534FEAB1
:100F200053539AB2FB6862F30A03FB603B68DB78B9
:100F300003F00303DAB2FB6862F39343FB603B68A0
:100F4000DB88DBB203F00F03DAB2FB6862F399537C
:100F5000FB60FB6843F08053FB60FB6843F4004395
:100F6000FB60FA687B691A607B681B697A681269A2
:100F7000D2691146BA6841EA0202DA61FB7C18467E
:100F800007F11C07BD4680BC704700BF80B487B026
:100F900000AF786039604FF00003FB744FF000033E
:100FA000FB604FF00003BB603B685B78012B12D104
:100FB0003B681B787A6803F104034FEA8303D31874
:100FC0009B687B613B681B784FF0010202FA03F3D8
:100FD0009BB23B8111E03B681B787A6803F11403F4
:100FE0004FEA8303D3185B687B613B681B784FF043
:100FF000010202FA03F39BB27B81FB686FF3CF33EC
:10100000FB60FA687B691A607B681B697A68126901
:10101000D2691146BA686FEA020201EA0202DA6195
:10102000FB7C184607F11C07BD4680BC704700BF1B
:1010300080B588B000AF786039604FF00003FB776F
:101040004FF00003BB614FF000037B614FF00003E2
:101050003B613B685B78012B40F0BF803B681B78AD
:101060007A6803F104034FEA8303D3189B681B6873
:101070007B613B681B787A6803F104034FEA8303C2
:10108000D3189B681B693B613B685B69002B0AD1E5
:101090003B696FF312033B613B694FF0010262F35E
:1010A000DC433B6128E03B685B6923F07F4222F42C
:1010B00078023B6962F312033B613B685A693B6803
:1010C0009B68D31803F1FF323B689B68B2FBF3F3D4
:1010D0009BB24FEA83534FEA93539AB23B6962F350
:1010E000DC433B613B68DB78012B05D13B694FF06A
:1010F000010262F35E733B613B681B787A6803F11F
:1011000004034FEA8303D3189B683A691A617B682A
:10111000DB78012B0CD13B681B787A6803F1040360
:101120004FEA8303D3189B683A6812695A6118E042
:101130003B68DB78012B14D03B685B69002B10D037
:101140003B681B784FF0010202FA03F3BB617B6836
:101150001B697A681269526B1146BA6941EA020248
:101160005A633B68DB78012B14D17B681B699B6851
:10117000FB60FB68C3F30D239BB203F00103002B5C
:1011800004D17B6943F000537B6103E07B6943F04A
:1011900080537B617B6943F080637B617B6943F0B3
:1011A00000437B613B681B787A6803F104034FEAD4
:1011B0008303D3189B687A691A603B68DB78012B3C
:1011C00040F09A803B68D9683B681A783B685B6955
:1011D0009BB27868FFF7A8F88EE03B681B787A68C6
:1011E00003F114034FEA8303D3185B681B687B6128
:1011F0003B681B787A6803F114034FEA8303D31822
:101200005B681B693B613B685B69002B10D13B68E5
:101210009B6823F07F4222F478023B6962F3120359
:101220003B613B694FF0010262F3DC433B6124E028
:101230003B685A693B689B68D31803F1FF323B68EF
:101240009B68B2FBF3F39BB24FEA83534FEA93538D
:101250009AB23B6962F3DC433B613B69C3F3C94328
:101260009BB23A68926802FB03F323F07F4222F4B8
:1012700078023B6962F312033B613B681B787A6832
:1012800003F114034FEA8303D3185B683A691A61C8
:101290007B68DB78012B0BD13B681B787A6803F104
:1012A00014034FEA8303D3185B683A6812695A61E2
:1012B0003B68DB78012B0CD13B685B79002B04D0B9
:1012C0007B6943F000537B6103E07B6943F080530B
:1012D0007B617B6943F080637B617B6943F0004302
:1012E0007B613B681B787A6803F114034FEA830340
:1012F000D3185B687A691A60FB7F184607F12007EC
:10130000BD4680BD80B489B000AF786039604FF0D1
:101310000003FB774FF00003BB614FF000033B611C
:101320004FF00003BB603B685B78012B79D17B6891
:101330009B697B617B691B683B617B691B69BB6047
:101340003B685B69002B0AD13B7A6FF306033B7263
:10135000BB7A4FF0010262F3C403BB7224E03B6826
:101360005A693B689B689A420ED93B689A683B6809
:101370005A613B689B68DBB203F07F03DAB23B7AC9
:1013800062F306033B7209E03B685B69DBB203F082
:101390007F03DAB23B7A62F306033B72BB7A4FF00B
:1013A000010262F3C403BB72BA687B691A617B688D
:1013B000DB78012B0BD13B681B787A6803F10403BF
:1013C0004FEA8303D3189B683A6812695A613B69F4
:1013D00043F080633B613B6943F000433B613A6902
:1013E0007B691A607B68DB78002B40F087803B6864
:1013F0005B69002B00F082803B681B784FF0010294
:1014000002FA03F3BA6942EA0303BB617B681B6912
:101410007A681269526B1146BA6941EA02025A634C
:101420006CE03B681B787A6803F114034FEA83038E
:10143000D3185B681B683B613B681B787A6803F1D3
:1014400014034FEA8303D3185B681B69BB603B68D6
:101450005B69002B10D13B689B68DBB203F07F0314
:10146000DAB23B7A62F306033B72BB7A4FF00102B9
:1014700062F3C403BB7213E03B689A683B685A612D
:101480003B689B68DBB203F07F03DAB23B7A62F31E
:1014900006033B72BB7A4FF0010262F3C403BB72D6
:1014A0003B681B787A6803F114034FEA8303D3186F
:1014B0005B68BA681A617B68DB78012B0BD13B68EB
:1014C0001B787A6803F114034FEA8303D3185B682F
:1014D0003A6812695A613B6943F080633B613B693A
:1014E00043F000433B613B681B787A6803F11403C7
:1014F0004FEA8303D3185B683A691A60FB7F18468A
:1015000007F12407BD4680BC704700BF80B487B098
:1015100000AF786039604FF00003FB754FF00003B7
:10152000FB603B685B78012B1ED13B681B787A68B7
:1015300003F104034FEA8303D3189B683B613B69C3
:101540001B68FB60FB7B23F07F03DBB2002B03D027
:10155000FB6843F08043FB60FB6843F40013FB60CF
:10156000FA683B691A6013E03B681B787A6803F1FC
:1015700014034FEA8303D3185B683B613B691B6824
:10158000FB60FB6843F40013FB60FA683B691A6078
:10159000FB7D184607F11C07BD4680BC704700BFA5
:1015A00080B487B000AF786039604FF00003FB74FF
:1015B0004FF00003FB603B685B78012B0AD13B686E
:1015C0001B787A6803F104034FEA8303D3189B68FE
:1015D0007B6109E03B681B787A6803F114034FEAEA
:1015E0008303D3185B687B617B691B68FB60FB68C6
:1015F0006FF35553FB603B68DB78032B03D03B68EC
:10160000DB78022B03D1FB6843F08053FB60FA6860
:101610007B691A60FB7C184607F11C07BD4680BC3D
:10162000704700BF80B485B000AF78607B681B69ED
:101630009B69FB607B681B69DB69FA6802EA03034C
:10164000FB60FB684FEA1343184607F11407BD46D9
:1016500080BC704780B485B000AF78600B46FB70EB
:10166000FB787A6803F114034FEA8303D3185B68AD
:101670009B68FB607B681B695B69FA6802EA03038D
:10168000FB60FB68184607F11407BD4680BC704735
:1016900080B485B000AF78607B681B699B69FB6094
:1016A0007B681B69DB69FA6802EA0303FB60FB687D
:1016B0004FEA03434FEA1343184607F11407BD46A8
:1016C00080BC704780B487B000AF78604FF00003F3
:1016D0003B61FB7C43F0C003FB74BB7C4FF0010219
:1016E00062F3C403BB743B7C4FF0180262F3060341
:1016F0003B747B685B6D3A691A617B68DB78012B10
:1017000019D14FF00003FB607B685B6D7A6802F5CE
:10171000B9625A617B685B6D1B68FB60FB6843F0D4
:101720000043FB604FF40043C8F20003FB607B689A
:101730005B6DFA681A6007F11C07BD4680BC7047F4
:1017400080B485B000AF78607B689B7A002B1BD09B
:101750007B681B699B68FB603B7B03F00103DBB28A
:10176000002B11D07B6803F586731B68BB60BB68D8
:101770006FF34103BB60BB686FF30003BB607B6822
:10178000D3F80C31BA681A6007F11407BD4680BC63
:10179000704700BF80B500AF4FF080404FF00101AF
:1017A00006F082FD40F23413C2F200031B6803F11D
:1017B000010240F23413C2F200031A6040F23813FF
:1017C000C2F200031B68002B0BD040F23813C2F2A8
:1017D00000031B6803F1FF3240F23813C2F200032A
:1017E0001A6080BD80B500AF40F23C13C2F2000326
:1017F0001B78002B09D100F00BF840F23C13C2F229
:1018000000034FF001021A7000E000BF80BD00BF6E
:1018100080B58AB000AF3B464FF08040194605F0D6
:1018200001FD3B46184622A3D3E9002305F08CFDB9
:101830004FF0804005F03AFE4FF00003BB844FF0BC
:101840000003FB8340F2E7333B624FF00003BB83AE
:101850004FF0000387F8263007F11C034FF080405B
:10186000194606F05FFC4FF080404FF001014FF049
:10187000010206F0F3FC4FF01C033B764FF001032E
:10188000FB764FF00E037B764FF00003BB7607F13B
:101890001803184606F062F84FF080404FF001013F
:1018A00006F0BCFC07F12807BD4680BDAFF3008001
:1018B0000000000080842E4180B400AFBD4680BC93
:1018C000704700BF80B483B000AF0346FB7107F1DF
:1018D0000C07BD4680BC704780B400AFBD4680BCDD
:1018E000704700BF80B400AFBD4680BC704700BFEA
:1018F00080B400AFBD4680BC704700BF80B582B0E9
:1019000000AF4FF002004FF0010100F0C3FD4FF0B7
:1019100004004FF0010100F0BDFD4FF480633B6017
:101920004FF000037B714FF001033B714FF0000358
:10193000BB714FF00003FB713B464FF48060C4F273
:101940000200194602F052FE4FF48060C4F2020019
:101950004FF480614FF0000202F032FF07F10807F8
:10196000BD4680BD80B582B000AF48F67063C0F65A
:1019700000037B6040F20003C2F200033B600BE017
:101980007B681A683B681A603B6803F104033B609C
:101990007B6803F104037B603A6840F22C13C2F2C7
:1019A00000039A42ECD3074807494FF000028842EF
:1019B000B8BF40F8042BFADB00F040FC07F1080741
:1019C000BD4680BD30010020682E002080B400AFED
:1019D000FEE700BF80B584B004AF00F021F848F600
:1019E0008C53C0F600034FF0010200924FF000024A
:1019F00001924FF0000202924FF00002039241F672
:101A00000540C0F6000019464FF080024FF0000379
:101A100001F0B4FF4FF000031846BD4680BD00BF83
:101A200080B588B000AF4FF002004FF0010100F028
:101A300031FD4FF480404FF0010100F087FD4FF47D
:101A40002043BB614FF002037B774FF002033B77EB
:101A50004FF00003BB774FF00003FB7707F118034B
:101A60004FF48060C4F20200194602F0BFFD4FF44B
:101A70008043BB614FF002037B774FF002033B775B
:101A80004FF00003BB774FF00003FB7707F118031B
:101A90004FF48060C4F20200194602F0A7FD4FF433
:101AA0008053BB614FF001033B774FF00003BB77DE
:101AB0004FF00003FB774FF002037B7707F1180329
:101AC0004FF48060C4F20200194602F08FFD4FF41B
:101AD0008060C4F202004FF00D014FF0050202F0E9
:101AE00087FE4FF48060C4F202004FF00F014FF008
:101AF000050202F07DFE4FF48060C4F202004FF058
:101B00000E014FF0050202F073FE4FF00003BB80A0
:101B10004FF48273FB804FF000033B814FF00003D2
:101B20007B814FF00103BB814FF40073FB814FF0C9
:101B300028033B824FF000037B8207F104034FF43C
:101B40006050C4F20000194605F07CFD4FF460506F
:101B5000C4F200004FF0000105F0E0FD4FF46050CA
:101B6000C4F200004FF0010105F0B8FD4FF48063AE
:101B7000C4F202034FF48062C4F20202128B92B2EA
:101B800042F4805292B21A8307F12007BD4680BD0D
:101B900080B483B000AF0346FB7100BF4FF46053C5
:101BA000C4F200031B899BB203F00203002BF5D0A3
:101BB0004FF46053C4F20003FA7992B29A8100BFE5
:101BC0004FF46053C4F200031B899BB203F001037E
:101BD000002BF5D04FF46053C4F200039B899BB2F5
:101BE000DBB2184607F10C07BD4680BC704700BF4A
:101BF00080B500AF4FF0FF00FFF7CAFF034618465D
:101C000080BD00BF80B58CB000AF78604FF48063BA
:101C1000C4F202034FF48062C4F20202528B92B209
:101C200042F4805292B25A834FF00600FFF7B0FFA1
:101C30004FF00A0001F09EFF4FF04000FFF7A8FFB1
:101C40004FF00000FFF7A4FF4FF00A0001F092FFF1
:101C50004FF04800FFF79CFF4FF05600FFF798FF4A
:101C60004FF00A0001F086FF4FF04C00FFF790FFA5
:101C70004FF06200FFF78CFF4FF00A0001F07AFF8F
:101C80004FF00800FFF784FF00BF4FF48060C4F2FC
:101C900002004FF4804102F073FD0346012BF4D0A3
:101CA000FFF7A6FF03461A4641F69463C2F200030B
:101CB0001A6041F69463C2F200031B684FEA0322E4
:101CC00041F69463C2F200031A60FFF791FF0346E6
:101CD0001A4641F69463C2F200031B681A4341F6A8
:101CE0009463C2F200031A6041F69463C2F20003E7
:101CF0001B684FEA032241F69463C2F200031A60A4
:101D0000FFF776FF03461A4641F69463C2F20003DA
:101D10001B681A4341F69463C2F200031A6041F64D
:101D20009463C2F200031A684FF6FF73C0F27F0398
:101D30009A420ED941F69463C2F200031B6803F184
:101D40007F4202F1010241F68863C2F200031A6089
:101D50000AE041F69463C2F200031B681A4641F69A
:101D60008863C2F200031A6041F68863C2F200037E
:101D70001B6807F10C02104648F69C51C0F60001A2
:101D80001A4601F0A5F907F10C034FF000004FF0DF
:101D900000011A4601F04CFD41F68863C2F20003CF
:101DA0001A6848F29D23C5F2973383FB02134FEA6A
:101DB00063214FEAE273CB1AA3F58473FB6207F148
:101DC0000C03184648F6A851C0F60001FA6A01F063
:101DD0007FF907F10C034FF000004FF001011A46A4
:101DE00001F026FD4FF0640001F0C4FE48E700BF9B
:101DF00080B584B000AFF8607A603B600B46FB7240
:101E0000F86803F097F9F86800F01EF8FB683A6884
:101E1000C3F8E025FB68BA69C3F8E425FB687A6873
:101E2000C3F8E825FB7AF868194605F00BFEFB6855
:101E3000D3F8E4351B689847F86803F0FBF907F11D
:101E40001007BD4680BD00BF80B483B000AF78608E
:101E50004FF00003184607F10C07BD4680BC7047E1
:101E600080B584B000AF786007F108037868194640
:101E700003F09EFE3B7A03F01F03012B0AD0022BD6
:101E80000FD0002B14D107F108037868194603F02E
:101E900057FA16E007F108037868194603F0A2FA2A
:101EA0000FE007F108037868194603F0D3FA08E059
:101EB0003B7A23F07F03DBB27868194605F074FFA4
:101EC00000BF4FF00003184607F11007BD4680BD64
:101ED00080B584B000AF78600B46FB70FB78002BB8
:101EE00045D17B6803F55C73FB607B6893F8113127
:101EF000032B4FD1FB68DA69FB689B689A4221D9B2
:101F0000FB68DA69FB689B68D21AFB68DA617B6858
:101F1000DB78012B06D1FB68DA68FB689B68D21876
:101F2000FB68DA60FB68DA68FB689968FB68DB6964
:101F3000994238BF0B469BB2786811461A4606F0A4
:101F40009DF827E07B68D3F8E0351B69002B0AD0A9
:101F50007B6893F81231032B05D17B68D3F8E03509
:101F60001B6978689847786806F0A0F812E07B68EB
:101F7000D3F8E0359B69002B0CD07B6893F81231C5
:101F8000032B07D17B68D3F8E0359B69FA78786832
:101F9000114698474FF00003184607F11007BD4659
:101FA00080BD00BF80B584B000AF78600B46FB7089
:101FB000FB78002B63D17B6803F58C73FB607B6837
:101FC00093F81131022B6ED1FB68DA69FB689B68CC
:101FD0009A421CD9FB68DA69FB689B68D21AFB68D5
:101FE000DA617B68DB78012B06D1FB68DA68FB6875
:101FF0009B68D218FB68DA60FB68DA68FB68DB690B
:102000009BB2786811461A4605F0FCFF4CE0FB686D
:102010001B6AFA689268B3FBF2F102FB01F29B1AA9
:10202000002B17D1FB681A6AFB689B689A4211D390
:10203000FB681A6AFB685B6A9A420BD278684FF0B9
:1020400000014FF0000205F0DDFFFB684FF00002D9
:102050005A6229E07B68D3F8E035DB68002B0AD0B0
:102060007B6893F81231032B05D17B68D3F8E035F8
:10207000DB6878689847786806F036F814E07B6883
:10208000D3F8E0355B69002B0ED07B6893F81231F2
:10209000032B09D17B68D3F8E0355B69FA7878685F
:1020A0001146984700E000BF4FF00003184607F1C3
:1020B0001007BD4680BD00BF80B582B000AF78601C
:1020C00078684FF000014FF040024FF0000305F038
:1020D0004FFD78684FF080014FF040024FF0000351
:1020E00005F046FD7B684FF0010283F812217B6802
:1020F000D3F8E4355B687A689278104698474FF0D9
:102100000003184607F10807BD4680BD80B582B0C0
:1021100000AF78607B68D3F8E4351B6998477B682B
:102120004FF0030283F812214FF00003184607F125
:102130000807BD4680BD00BF80B582B000AF7860A3
:102140007B684FF0040283F812217B68D3F8E435F2
:10215000DB6898474FF00003184607F10807BD46B3
:1021600080BD00BF80B582B000AF78607B68D3F8D7
:10217000E035DB69002B05D07B68D3F8E035DB69FF
:10218000786898474FF00003184607F10807BD46E6
:1021900080BD00BF80B582B000AF78600B46FB7099
:1021A0007B68D3F8E0351B68FA7878681146984761
:1021B0007B68D3F8E4359B6898474FF000031846D6
:1021C00007F10807BD4680BD80B582B000AF7860DA
:1021D0000B46FB707B68D3F8E0355B68FA7878686B
:1021E000114698474FF00003184607F10807BD460F
:1021F00080BD00BF80B582B000AF78607B68D3F847
:10220000E0351B6A786898474FF00003184607F1DD
:102210000807BD4680BD00BF80B582B000AF7860C2
:102220007B68D3F8E0355B6A786898474FF0000325
:10223000184607F10807BD4680BD00BF80B582B0D3
:1022400002AF02F00BFD40F20003C2F20003009364
:1022500041F69860C2F200004FF0010140F26002C6
:10226000C2F2000240F20013C2F20003FFF7C0FD09
:10227000FFF744FB00F060FF4FF014004FF0040143
:1022800001F0BEF8FFF7A6FB02F0DAFD01F0A0FCBA
:10229000FEE700BF80B400AFFEE700BF80B483B0AC
:1022A00000AF78603960FEE780B582B000AF05F01E
:1022B00077FE03467B607B6807F10807BD4680BD5B
:1022C00080B489B000AF78604FF00003BB614FF07D
:1022D00000037B614FF00003FB614FF002033B61A1
:1022E0004FF00003FB604FF00203BB604FF46053FC
:1022F000C4F202039B6803F00C03BB61BB69042BAF
:102300000AD0082B0FD0002B64D17A684FF41053F9
:10231000C0F2F403136064E07A6847F64003C0F249
:102320007D1313605DE04FF46053C4F202035B68F9
:1023300003F480034FEA9353FB604FF46053C4F2FD
:1023400002035B6803F03F03BB60FB68002B16D001
:1023500047F64003C0F27D13BA68B3FBF2F24FF4C4
:102360006053C4F202035B68194647F6C07301EA82
:1023700003034FEA931303FB02F3FB6115E04FF4F1
:102380001053C0F2F403BA68B3FBF2F24FF4605397
:10239000C4F202035B68194647F6C07301EA0303FF
:1023A0004FEA931303FB02F3FB614FF46053C4F253
:1023B00002035B6803F440334FEA134303F1010364
:1023C0004FEA43033B61FA693B69B2FBF3F27B6876
:1023D0001A6006E07A684FF41053C0F2F4031360F9
:1023E00000BF4FF46053C4F202039B6803F0F00394
:1023F000BB61BB694FEA1313BB6140F24C03C2F2ED
:102400000003BA699B181B78DBB27B617B681A6892
:102410007B6922FA03F27B685A604FF46053C4F27E
:1024200002039B6803F4E053BB61BB694FEA93234B
:10243000BB6140F24C03C2F20003BA699B181B78DF
:10244000DBB27B617B685A687B6922FA03F27B68A6
:102450009A604FF46053C4F202039B6803F4604334
:10246000BB61BB694FEA5333BB6140F24C03C2F21C
:102470000003BA699B181B78DBB27B617B685A68E2
:102480007B6922FA03F27B68DA6007F12407BD4614
:1024900080BC704780B483B000AF78600B46FB709F
:1024A000FB78002B0ED04FF46053C4F202034FF4BC
:1024B0006052C4F20202126B11467A6841EA0202CB
:1024C0001A630FE04FF46053C4F202034FF46052FA
:1024D000C4F20202126B11467A686FEA020201EA44
:1024E00002021A6307F10C07BD4680BC704700BFAB
:1024F00080B483B000AF78600B46FB70FB78002B94
:102500000ED04FF46053C4F202034FF46052C4F291
:102510000202526B11467A6841EA02025A630FE0E6
:102520004FF46053C4F202034FF46052C4F202024B
:10253000526B11467A686FEA020201EA02025A639C
:1025400007F10C07BD4680BC704700BF80B483B064
:1025500000AF78600B46FB70FB78002B0ED04FF479
:102560006053C4F202034FF46052C4F20202126CD0
:1025700011467A6841EA02021A640FE04FF4605390
:10258000C4F202034FF46052C4F20202126C11460C
:102590007A686FEA020201EA02021A6407F10C0784
:1025A000BD4680BC704700BF80B483B000AF786088
:1025B0000B46FB70FB78002B0ED04FF46053C4F237
:1025C00002034FF46052C4F20202526C11467A6860
:1025D00041EA02025A640FE04FF46053C4F202036E
:1025E0004FF46052C4F20202526C11467A686FEAEC
:1025F000020201EA02025A6407F10C07BD4680BCE0
:10260000704700BF80B483B000AF78600B46FB70AA
:10261000FB78002B0ED04FF46053C4F202034FF44A
:102620006052C4F20202126A11467A6841EA02025A
:102630001A620FE04FF46053C4F202034FF4605289
:10264000C4F20202126A11467A686FEA020201EAD3
:1026500002021A6207F10C07BD4680BC704700BF3A
:1026600080B483B000AF78600B46FB70FB78002B22
:102670000ED04FF46053C4F202034FF46052C4F220
:102680000202526A11467A6841EA02025A620FE077
:102690004FF46053C4F202034FF46052C4F20202DA
:1026A000526A11467A686FEA020201EA02025A622D
:1026B00007F10C07BD4680BC704700BF80B500AF76
:1026C0004FF480704FF00101FFF7CAFF4FF48070A4
:1026D0004FF00001FFF7C4FF80BD00BF80B485B09C
:1026E00000AF786039604FF00003FB604FF00003EB
:1026F000FB727B685B68FB60FB6823F0407323F42C
:102700008073FB603B681B794FEA03223B681B68C0
:1027100042EA0303FA6842EA0303FB607B68FA6853
:102720005A607B689B68FB60FA684FF2FD73CCF2DD
:10273000FF0302EA0303FB603B681A693B68DB683E
:102740001A433B689B681A433B685B794FEA430333
:1027500042EA0303FA6842EA0303FB607B68FA6813
:102760009A607B68DB6AFB60FB6823F47003FB60A4
:102770003B681B7D03F1FF33DAB2FB7A42EA0303C5
:10278000FB72FB7A4FEA0353FA6842EA0303FB60E9
:102790007B68FA68DA6207F11407BD4680BC7047AF
:1027A00080B483B000AF78607B684FF000021A609D
:1027B0007B684FF000021A717B684FF000025A717B
:1027C0007B684FF000029A607B684FF00002DA608D
:1027D0007B684FF000021A617B684FF001021A75A6
:1027E00007F10C07BD4680BC704700BF80B485B0C0
:1027F00000AF78604FF00003FB604FF40C53C4F25D
:1028000001035B68FB60FA6843F2E003CFF6FC73F8
:1028100002EA0303FB607B681A687B685B681A4303
:102820007B689B681A437B68DB6842EA0303FA68AB
:1028300042EA0303FB604FF40C53C4F20103FA684D
:102840005A6007F11407BD4680BC704780B483B05E
:1028500000AF78607B684FF000021A607B684FF031
:1028600000025A607B684FF000029A607B684FF06C
:102870000002DA6007F10C07BD4680BC704700BF5C
:1028800080B483B000AF78600B46FB70FB78002B00
:1028900006D07B689B6843F001027B689A6005E084
:1028A0007B689B6823F001027B689A6007F10C0744
:1028B000BD4680BC704700BF80B485B000AF786073
:1028C000F970BA707B704FF00003FB604FF00003AB
:1028D000BB60FB78092B29D97B68DB68FB60FA7841
:1028E00013464FEA43039B18A3F11E034FF0070260
:1028F00002FA03F3BB60BB686FEA0303FA6802EAFB
:102900000303FB607978FA7813464FEA43039B1878
:10291000A3F11E0301FA03F3BB60FA68BB6842EA45
:102920000303FB607B68FA68DA6024E07B681B695C
:10293000FB60FA7813464FEA43039B184FF00702F7
:1029400002FA03F3BB60BB686FEA0303FA6802EAAA
:102950000303FB607978FA7813464FEA43039B1828
:1029600001FA03F3BB60FA68BB6842EA0303FB6049
:102970007B68FA681A61BB78062B29D87B685B6B89
:10298000FB60BB7803F1FF3213464FEA83039B18C9
:102990004FF01F0202FA03F3BB60BB686FEA030348
:1029A000FA6802EA0303FB60F978BB7803F1FF32AF
:1029B00013464FEA83039B1801FA03F3BB60FA68DE
:1029C000BB6842EA0303FB607B68FA685A6355E020
:1029D000BB780C2B29D87B681B6BFB60BA7813463D
:1029E0004FEA83039B18A3F123034FF01F0202FA5F
:1029F00003F3BB60BB686FEA0303FA6802EA0303F0
:102A0000FB60F978BA7813464FEA83039B18A3F169
:102A1000230301FA03F3BB60FA68BB6842EA0303CD
:102A2000FB607B68FA681A6328E07B68DB6AFB60FE
:102A3000BA7813464FEA83039B18A3F141034FF082
:102A40001F0202FA03F3BB60BB686FEA0303FA6874
:102A500002EA0303FB60F978BA7813464FEA83036E
:102A60009B18A3F1410301FA03F3BB60FA68BB684A
:102A700042EA0303FB607B68FA68DA6207F1140735
:102A8000BD4680BC704700BF80B485B000AF7860A1
:102A90000B46FB704FF00003FB737B681B681A4604
:102AA000FB7802EA0303002B03D04FF00103FB7312
:102AB00002E04FF00003FB73FB7B184607F114079D
:102AC000BD4680BC704700BF80B483B000AF786063
:102AD0000B46FB707B68FA781A704FF001031846BA
:102AE00007F10C07BD4680BC704700BF80B485B0BD
:102AF00000AF786039604FF00003FB600FE03B6887
:102B00001A787B681A707B6803F101037B603B686D
:102B100003F101033B60FB6803F10103FB603B68C9
:102B20001B78002BEBD1FB68184607F11407BD4654
:102B300080BC704780B586B000AFF8607A603B60BB
:102B40000B46FB724FF000037B617B6803F1FF33A0
:102B50007B603B68092B25D93A684CF6CD43CCF60F
:102B6000CC43A3FB02134FEAD303FA7AF868114669
:102B70007A68FFF7DFFF78617B69FA68D318FB603A
:102B800013E0FB7AF8681946FFF79EFFFB6803F134
:102B90000103FB607B6903F101037B617B6803F147
:102BA000FF337B607B68002BEBDC39684CF6CD4350
:102BB000CCF6CC43A3FB01234FEAD30213464FEAE2
:102BC00083039B184FEA4303CA1AD3B203F13003BD
:102BD000DBB2F8681946FFF777FF03467A69D31826
:102BE0007B617B69184607F11807BD4680BD00BFB1
:102BF00080B586B000AFF8607A603B600B46FB7230
:102C00004FF000037B613B68002B04DA3B68C3F1A3
:102C100000033B6101E03B683B617B6803F1FF33EC
:102C20007B603B69092B2AD93B68002B12DA3A6991
:102C30004CF6CD43CCF6CC43A3FB02134FEAD303AF
:102C4000C3F10003FA7AF86811467A68FFF7D0FFFB
:102C500078610FE03A694CF6CD43CCF6CC43A3FB48
:102C600002134FEAD303FA7AF86811467A68FFF73D
:102C7000BFFF78617B69FA68D318FB602BE03B6883
:102C8000002B15DA7B6803F1FF337B6010E0FB7AE1
:102C9000F8681946FFF718FFFB6803F10103FB60B2
:102CA0007B6903F101037B617B6803F1FF337B6088
:102CB0007B68002BEBDC3B68002B0CDAF8684FF0EC
:102CC0002D01FFF701FF03467A69D3187B61FB688A
:102CD00003F10103FB6039694CF6CD43CCF6CC43DC
:102CE000A3FB01234FEAD30213464FEA83039B1849
:102CF0004FEA4303CA1AD3B203F13003DBB2F868D8
:102D00001946FFF7E1FE03467A69D3187B617B69B8
:102D1000184607F11807BD4680BD00BF80B588B0D2
:102D200002AFF8607A600A46FA72FB704FF0000357
:102D30007B617B6803F1FF337B603B6A4FEA1313CF
:102D4000002B24D03B6A4FEA1311FA7AFB780091EA
:102D5000F86811467A68FFF7E1FF03467A69D318ED
:102D60007B617B69FA68D318FB6013E0FB7AF86833
:102D70001946FFF7A9FEFB6803F10103FB607B69BD
:102D800003F101037B617B6803F1FF337B607B68A8
:102D9000002BEBDC3B6A03F00F03092B0CD83B6ADA
:102DA000DBB203F00F03DBB203F13003DBB2F868F0
:102DB0001946FFF789FE1BE0FB78002B0CD03B6A1D
:102DC000DBB203F00F03DBB203F13703DBB2F868C9
:102DD0001946FFF779FE0BE03B6ADBB203F00F0305
:102DE000DBB203F15703DBB2F8681946FFF76CFE5C
:102DF0007B6903F101037B617B69184607F11807C2
:102E0000BD4680BD80B58AB002AFF860B9607A6017
:102E10003B604FF00003BB614FF000037B61FB6838
:102E2000002B00F01C81FB684FF000021A7017E1C4
:102E30007B681B78252B10D07B681A78FB681A708A
:102E4000FB6803F10103FB607B6803F101037B6016
:102E50007B6903F101037B6102E17B6803F10103FC
:102E60001B78252B10D1FB684FF025021A70FB68E8
:102E700003F10103FB607B6803F102037B607B6964
:102E800003F101037B61EBE04FF02003FB774FF090
:102E90000003BB777B6803F101037B607B681B78D1
:102EA000302B1BD14FF03003FB777B6803F101031C
:102EB0007B6014E0BB7F1A464FEA8202D3184FEAC8
:102EC0004303DAB27B681B78D318DBB2A3F130037B
:102ED000BB777B6803F101037B6000E000BF7B6888
:102EE0001B782F2B03D97B681B78392BE2D9BA7F4B
:102EF0007B69D3181A46BB689A4205D9BB68DAB217
:102F00007B69DBB2D31ABB777B681B78A3F15803CC
:102F1000202B00F2948001A252F823F0F12F000838
:102F20003F3000083F3000083F3000083F300008C5
:102F30003F3000083F3000083F3000083F300008B5
:102F40003F3000083F30000827300008A12F00085C
:102F50003F3000083F3000083F3000083F30000895
:102F6000A12F00083F3000083F3000083F30000824
:102F70003F3000083F3000083F3000083F30000875
:102F80003F3000083F300008113000083F30000893
:102F9000B92F00083F3000083F300008D12F00084B
:102FA000BA7F3B6803F1040139601B68F97FF86858
:102FB000FFF71EFEB86145E0BA7F3B6803F10401EC
:102FC00039601B68F97FF868FFF7B4FDB86139E034
:102FD000BA7F3B6803F1040139601968FB7F0091F7
:102FE000F86819464FF00003FFF798FEB86129E032
:102FF000BA7F3B6803F1040139601968FB7F0091D7
:10300000F86819464FF00103FFF788FEB86119E030
:103010003B6803F104023A601B68F8681946FFF741
:1030200065FDB8610EE03B6803F104023A601B687D
:10303000DBB2F8681946FFF747FDB86102E04FF0D0
:10304000FF332CE07B6803F101037B60BB69FA6806
:10305000D318FB607A69BB69D3187B6100E000BFBD
:103060007B681B78002B04D07A69BB689A42FFF416
:10307000DFAE7A69BB689A4204D2FB684FF0000267
:103080001A700BE0FB6803F1FF33FB60FB684FF045
:1030900000021A707B6903F1FF337B617B6918467C
:1030A00007F12007BD4680BD80B584B000AFF86051
:1030B000B9607A60F8684FF06401BA687B68FFF71E
:1030C000A1FE0346184607F11007BD4680BD00BFAC
:1030D0000EB480B585B000AF786007F12003BB6007
:1030E0007868F969BA68FFF7DFFFF860FB6818468F
:1030F00007F11407BD46BDE8804003B0704700BF2C
:1031000080B483B000AF0346FB714FF46143CEF24D
:10311000000397F907204FEA5212F97901F01F01D5
:103120004FF0010000FA01F143F8221007F10C07FB
:10313000BD4680BC704700BF80B586B000AF4FF081
:1031400002004FF00101FFF7A5F94FF480404FF066
:103150000101FFF729FA4FF003033B614FF0000331
:103160003B754FF00103FB7507F110034FF48060CE
:10317000C4F20200194601F039FA4FF004033B6132
:103180004FF001033B754FF00203FB7507F110038D
:103190004FF48060C4F20200194601F027FA4FF0A4
:1031A00001004FF00001FCF7EFFF4FF00103BB609F
:1031B0004FF000033B734FF008037B734FF00103A4
:1031C000BB7307F10803184604F0C8FA4FF001007A
:1031D0004FF00101FCF7D8FF4FF00203BB604FF046
:1031E00000033B734FF008037B734FF00103BB7385
:1031F00007F10803184604F0B1FA4FF4407004F0E8
:1032000099FB4FF006033B714FF00E037B714FF0BB
:103210000103BB714FF00103FB7107F10403184672
:1032200004F09CFB4FF007033B714FF00E037B71E2
:103230004FF00103BB714FF00103FB7107F1040371
:10324000184604F08BFB4FF00600FFF759FF4FF0D4
:103250000700FFF755FF4FF0050000F005F807F1F4
:103260001807BD4680BD00BF80B483B000AF0346E1
:10327000FB71FB793C2B11D84FF47053C4F201035E
:103280004FF47052C4F20102126822F001021A6077
:1032900042F28843C2F20003FA791A714FF4705374
:1032A000C4F201034FF47052C4F20102126842F0FA
:1032B00001021A6007F10C07BD4680BC704700BFD1
:1032C00080B500AF4FF0010004F0F4FA0346002B84
:1032D00057D04FF0010004F01DFB42F28843C2F2C8
:1032E00000031B8803F101039AB242F28843C2F241
:1032F00000031A8042F28843C2F200031A7940F2B6
:103300004013C2F200031B78DBB29A420ED94FF48D
:103310008063C4F202034FF48062C4F20202128B93
:1033200092B242F0040292B21A831CE04FF480631E
:10333000C4F202034FF48062C4F20202528B92B2D2
:1033400042F0040292B25A8340F24013C2F20003E8
:103350001B78DBB23B2B06D940F24013C2F20003CC
:103360004FF000021A7040F24013C2F200031B78C3
:10337000DBB203F10103DAB240F24013C2F2000300
:103380001A7080BD80B500AF4FF0020004F092FAD1
:103390000346002B10D04FF0020004F0BBFA42F2BB
:1033A0008843C2F200035B8803F101039AB242F240
:1033B0008843C2F200035A8080BD00BF80B485B04C
:1033C00000AF78604FF080435B6AFB6000BF00E0B5
:1033D00000BF4FF080435B6A1A46FB689A42F8D000
:1033E0004FF080435B6AFB607B6803F1FF337B60D7
:1033F0007B68002BECD107F11407BD4680BC7047F9
:1034000080B582B000AF02460B46FA71BB71FEF781
:10341000E9F900F085F84AF6C870FFF7CFFF42F2ED
:103420009043C2F20003BA79DA7042F29043C2F2DA
:103430000003FA791A7142F29043C2F200034FF08E
:1034400000025A7142F29043C2F200034FF00002B0
:103450009A7142F29043C2F200034FF000025A7098
:10346000BB79012B0CD942F29043C2F200035B7886
:1034700043F00803DAB242F29043C2F200035A70FA
:103480004FF0030000F034F941F29410FFF796FF7B
:103490004FF0030000F02CF941F29410FFF78EFF7B
:1034A0004FF0030000F024F941F29410FFF786FF7B
:1034B0004FF0020000F01CF94FF06400FFF77EFFB0
:1034C00042F29043C2F200035B7843F02003DBB288
:1034D000184600F0C9F842F29043C2F200034FF0E0
:1034E00004021A7000F02EFA00F0B2F842F2904393
:1034F000C2F200034FF002029A7042F29043C2F20D
:1035000000039B7843F00403DBB2184600F0ACF8EC
:1035100041F29410FFF752FF07F10807BD4680BD46
:1035200080B582B000AF4FF004004FF00101FEF70C
:10353000B1FF4FF001033B714FF00003BB714FF03F
:103540000003FB714FF003037B714FF001033B60FD
:103550003B464FF40060C4F20200194601F046F801
:103560004FF40060C4F202004FF001014FF000027E
:1035700001F026F94FF002033B603B464FF4006038
:10358000C4F20200194601F031F84FF40060C4F2B1
:1035900002004FF002014FF0000201F011F94FF06C
:1035A00040033B603B464FF40060C4F20200194602
:1035B00001F01CF84FF40060C4F202004FF040012B
:1035C0004FF0000201F0FCF84FF080033B603B46F7
:1035D0004FF40060C4F20200194601F007F84FF4FE
:1035E0000060C4F202004FF080014FF0000201F0D1
:1035F000E7F84FF480733B603B464FF40060C4F241
:103600000200194600F0F2FF4FF40060C4F202001D
:103610004FF480714FF0000201F0D2F84FF40073C4
:103620003B603B464FF40060C4F20200194600F0D4
:10363000DDFF4FF40060C4F202004FF400714FF060
:10364000000201F0BDF807F10807BD4680BD00BFCC
:1036500080B500AF4FF0010000F006F840F6B8303A
:10366000FFF7ACFE80BD00BF80B582B000AF03465F
:10367000FB714FF40060C4F202004FF001014FF003
:10368000000201F09DF8FB794FEA1313DBB21846F4
:1036900000F02EF8FB7903F00F03DBB2184600F0C0
:1036A00027F807F10807BD4680BD00BF80B582B08E
:1036B00000AF0346FB714FF40060C4F202004FF00C
:1036C00001014FF0010201F07BF8FB794FEA13137F
:1036D000DBB2184600F00CF8FB7903F00F03DBB205
:1036E000184600F005F807F10807BD4680BD00BF89
:1036F00080B582B000AF0346FB71FB7903F008038D
:10370000002B0CBF00230123DBB24FF40060C4F296
:1037100002004FF400711A4601F052F8FB7903F0F1
:103720000403002B0CBF00230123DBB24FF4006025
:10373000C4F202004FF480711A4601F041F8FB799F
:1037400003F00203002B0CBF00230123DBB24FF474
:103750000060C4F202004FF080011A4601F030F818
:10376000FB7903F00103DBB24FF40060C4F2020006
:103770004FF040011A4601F023F84FF40060C4F204
:1037800002004FF002014FF0010201F019F84FF072
:103790001400FFF713FE4FF40060C4F202004FF074
:1037A00002014FF0000201F00BF84FF01400FFF798
:1037B00005FE07F10807BD4680BD00BF80B584B097
:1037C00000AF02460B46FA71BB7148F6B453C0F61F
:1037D00000031B68FB6042F29043C2F20003DB78F7
:1037E000BA799A4202D34FF00003BB7142F2904380
:1037F000C2F20003FA795A7142F29043C2F2000316
:10380000BA799A71BB7907F11002D31813F8042C16
:10381000FB79D318DBB2DBB263F07F03DBB2DBB240
:103820001846FFF721FF07F11007BD4680BD00BF16
:1038300080B582B000AF0B463A600246FA71BB71A8
:10384000FA79BB7910461946FFF7B8FF72E042F2E9
:103850009043C2F200035A7942F29043C2F200034D
:103860001B799A4221D342F29043C2F200034FF0F7
:1038700000025A7142F29043C2F200039B7903F1B5
:103880000103DAB242F29043C2F200039A7142F2AB
:103890009043C2F200035A7942F29043C2F200030D
:1038A0009B7910461946FFF789FF3B681B780A2B66
:1038B0001BD142F29043C2F200039B7903F1010352
:1038C000DAB242F29043C2F200039A7142F290439C
:1038D000C2F200035A7942F29043C2F200039B798C
:1038E00010461946FFF76AFF20E03B681B780D2B56
:1038F0000AD142F29043C2F200039B794FF00000DC
:103900001946FFF75BFF11E03B681B781846FFF78D
:10391000CDFE42F29043C2F200035B7903F1010352
:10392000DAB242F29043C2F200035A713B6803F1EB
:1039300001033B603B681B78002B88D107F1080727
:10394000BD4680BD80B500AF42F29043C2F2000395
:103950001B7843F00403DAB242F29043C2F2000350
:103960001A7042F29043C2F200031B7843F008033E
:10397000DBB21846FFF778FE80BD00BF80B58AB085
:1039800002AFF860B9603B601346FB80FB68002B18
:1039900004D14FF0500080F31188FEE7BB6A042B7E
:1039A00004D94FF0500080F31188FEE7FB881846D9
:1039B000396B00F0E7FCB861BB69002B00F0BB80FD
:1039C000BB691A6BFB8803F1FF334FEA8303D318FB
:1039D0007B617B6923F007037B617B6903F007034D
:1039E000002B04D04FF0500080F31188FEE7FB88D5
:1039F0000093B869B968BA6A7B6B00F0A1FB78697B
:103A0000F9683A6802F0C4F903461A46BB691A60BD
:103A1000BB691B6803F00703002B04D04FF0500074
:103A200080F31188FEE7FB6A002B02D0FB6ABA69BB
:103A30001A6002F02DFA40F21C23C2F200031B6848
:103A400003F1010240F21C23C2F200031A6040F2AB
:103A50004413C2F200031B68002B0FD140F2441341
:103A6000C2F20003BA691A6040F21C23C2F20003DA
:103A70001B68012B18D100F0A1FB15E040F22C23AC
:103A8000C2F200031B68002B0ED140F24413C2F2B5
:103A900000031B68DA6ABB6A9A4205D840F24413F5
:103AA000C2F20003BA691A60BB69DA6A40F22423E1
:103AB000C2F200031B689A4206D9BB69DA6A40F277
:103AC0002423C2F200031A6040F24023C2F2000332
:103AD0001B6803F1010240F24023C2F200031A60A6
:103AE000BB69DA6A40F22823C2F200031B689A42DB
:103AF00006D9BB69DA6A40F22823C2F200031A60D1
:103B0000BB69DA6A13464FEA83039B184FEA8303C3
:103B10001A4640F24813C2F20003D218BB6903F1FF
:103B200004031046194601F009F84FF00103FB6148
:103B300002F0C4F902E04FF0FF33FB61FB69012B97
:103B400011D140F22C23C2F200031B68002B0AD0D3
:103B500040F24413C2F200031B68DA6ABB6A9A425D
:103B600001D202F089F9FB69184607F12007BD462A
:103B700080BD00BF80B584B000AF78604FF0000317
:103B8000FB607B68002B19D000F064F840F2202322
:103B9000C2F200031A687B68D318BB6040F244137A
:103BA000C2F200031B6803F10403184601F02CF86D
:103BB000B86800F0A1FB00F05FF8F860FB68002B2C
:103BC00001D102F059F907F11007BD4680BD00BFD1
:103BD00080B586B004AF48F6B853C0F600034FF086
:103BE000000200924FF0000201924FF00002029298
:103BF0004FF00002039244F21D10C0F60000194677
:103C00004FF046024FF00003FFF7B8FE78607B6884
:103C1000012B13D14FF0500080F3118840F22C2378
:103C2000C2F200034FF001021A6040F22023C2F2F8
:103C300000034FF000021A6002F0F4F87B68002BDA
:103C400004D14FF0500080F31188FEE707F1080718
:103C5000BD4680BD80B400AF40F23023C2F2000305
:103C60001B6803F1010240F23023C2F200031A6024
:103C7000BD4680BC704700BF90B583B000AF4FF029
:103C800000037B6040F23023C2F200031B68002B6C
:103C900004D14FF0500080F31188FEE702F0F8F8ED
:103CA00040F23023C2F200031B6803F1FF3240F2FE
:103CB0003023C2F200031A6040F23023C2F2000344
:103CC0001B68002B40F0868040F21C23C2F20003E8
:103CD0001B68002B7ED04FF000033B603DE040F2BC
:103CE000DC13C2F20003DB68DB681C4604F1180336
:103CF000184600F089FF04F10403184600F084FF21
:103D0000E26A40F22823C2F200031B689A4205D9F6
:103D1000E26A40F22823C2F200031A60E26A134604
:103D20004FEA83039B184FEA83031A4640F2481375
:103D3000C2F20003D21804F104031046194600F041
:103D4000FDFEE26A40F24413C2F200031B68DB6A24
:103D50009A4202D34FF001033B6040F2DC13C2F2FF
:103D600000031B68002BBAD140F23423C2F20003D7
:103D70001B68002B18D00DE000F034F840F234231B
:103D8000C2F200031B6803F1FF3240F23423C2F297
:103D900000031A6040F23423C2F200031B68002BB8
:103DA000EAD14FF001033B603B68012B06D040F2A3
:103DB0003823C2F200031B68012B0BD14FF0010323
:103DC0007B6040F23823C2F200034FF000021A6019
:103DD00002F052F802F072F87B68184607F10C07FF
:103DE000BD4690BD80B584B000AF40F23023C2F232
:103DF00000031B68002B40F0CD8040F22023C2F26C
:103E000000031B6803F1010240F22023C2F2000309
:103E10001A6040F22023C2F200031B68002B4DD130
:103E200040F2D413C2F200031B681B68002B04D0BD
:103E30004FF0500080F31188FEE740F2D413C2F235
:103E400000031B68FB6040F2D813C2F200031A683B
:103E500040F2D413C2F200031A6040F2D813C2F247
:103E60000003FA681A6040F23C23C2F200031B68A8
:103E700003F1010240F23C23C2F200031A6040F257
:103E8000D413C2F200031B681B68002B07D140F259
:103E90005C03C2F200034FF0FF321A600EE040F202
:103EA000D413C2F200031B68DB68DB68BB60BB682D
:103EB0005A6840F25C03C2F200031A6040F2202309
:103EC000C2F200031A6840F25C03C2F200031B68EE
:103ED0009A426BD340F2D413C2F200031B681B68F2
:103EE000002B07D140F25C03C2F200034FF0FF3217
:103EF0001A605BE040F2D413C2F200031B68DB6877
:103F0000DB68BB60BB685B687B6040F22023C2F269
:103F100000031A687B689A4206D240F25C03C2F240
:103F200000037A681A6041E0BB6803F10403184695
:103F300000F06AFEBB689B6A002B05D0BB6803F1EA
:103F40001803184600F060FEBB68DA6A40F22823C6
:103F5000C2F200031B689A4206D9BB68DA6A40F2D3
:103F60002823C2F200031A60BB68DA6A13464FEADC
:103F700083039B184FEA83031A4640F24813C2F2A8
:103F80000003D218BB6803F104031046194600F081
:103F9000D5FD9FE740F23423C2F200031B6803F112
:103FA000010240F23423C2F200031A6007F1100745
:103FB000BD4680BD80B582B000AF40F23023C2F272
:103FC00000031B68002B07D040F23823C2F2000325
:103FD0004FF001021A609CE040F24413C2F2000369
:103FE0001B681A6840F24413C2F200031B681B6B83
:103FF0009A420FD840F24413C2F200031A6840F20A
:104000004413C2F200031B6803F13403104619463F
:10401000FEF744F940F24413C2F200031B681B6B25
:10402000184648F6C051C0F600014FF0140204F0E3
:10403000E9FD0346002B29D040F24413C2F20003ED
:104040001A6840F24413C2F200031B6803F1340300
:1040500010461946FEF722F919E040F22823C2F271
:1040600000031B68002B04D14FF0500080F311882F
:10407000FEE740F22823C2F200031B6803F1FF327F
:1040800040F22823C2F200031A6000E000BF40F2B1
:104090002823C2F200031A6813464FEA83039B18D1
:1040A0004FEA83031A4640F24813C2F20003D318C2
:1040B0001B68002BD1D040F22823C2F200031A68FB
:1040C00013464FEA83039B184FEA83031A4640F2D4
:1040D0004813C2F20003D3187B607B685B685B689F
:1040E0001A467B685A607B685A687B6803F108034C
:1040F0009A4205D17B685B685B681A467B685A60A8
:104100007B685B68DB681A4640F24413C2F2000326
:104110001A6007F10807BD4680BD00BF80B582B0B8
:1041200000AF786000F09CF840F24813C2F2000340
:104130001B68012B01D901F09FFEFEF7B5F8F1E7EE
:1041400080B584B000AFF860B9607A603B60FB680E
:1041500003F134031A46BB68104619464FF00A02B1
:1041600004F0D6FDFB684FF0000283F83D207B6829
:10417000042B02D94FF004037B60FB687A68DA6293
:10418000FB687A681A64FB6803F10403184600F0C0
:10419000C7FCFB6803F11803184600F0C1FCFB687C
:1041A000FA681A617B68C3F10502FB689A61FB68D3
:1041B000FA685A6207F11007BD4680BD80B582B02B
:1041C00000AF4FF000037B6013E07A6813464FEABC
:1041D00083039B184FEA83031A4640F24813C2F246
:1041E0000003D318184600F077FC7B6803F1010345
:1041F0007B607B68042BE8D940F2AC10C2F200006F
:1042000000F06AFC40F2C010C2F2000000F064FC52
:1042100040F2DC10C2F2000000F05EFC40F2F01050
:10422000C2F2000000F058FC40F20820C2F2000088
:1042300000F052FC40F2D413C2F2000340F2AC1280
:10424000C2F200021A6040F2D813C2F2000340F238
:10425000C012C2F200021A6007F10807BD4680BD15
:1042600080B582B000AF40F20423C2F200031B68A5
:10427000002B3CD0FFF7EEFC40F2F013C2F200033B
:104280001B68002B14BF002301237B60FFF7F4FCA5
:104290007B68002B2BD101F0FBFD40F2F013C2F242
:1042A0000003DB68DB683B603B6803F104031846EE
:1042B00000F0AAFC40F21C23C2F200031B6803F1C9
:1042C000FF3240F21C23C2F200031A6040F20423C2
:1042D000C2F200031B6803F1FF3240F20423C2F272
:1042E00000031A6001F0EAFD386800F085F807F174
:1042F0000807BD4680BD00BF80B582B000AF7860C2
:1043000040F24413C2F200031B687A685A6040F21C
:104310002023C2F200031B687A689A4210D240F24E
:10432000D813C2F200031A6840F24413C2F2000329
:104330001B6803F104031046194600F029FC1DE038
:1043400040F2D413C2F200031A6840F24413C2F2DE
:1043500000031B6803F104031046194600F018FC23
:1043600040F25C03C2F200031B687A689A4205D2ED
:1043700040F25C03C2F200037A681A6007F1080792
:10438000BD4680BD80B584B000AF03463960FB8078
:104390004FF0440003F0A8FD0346FB60FB68002BD0
:1043A00023D03B68002B07D1FB884FEA83031846D4
:1043B00003F09AFD034600E03B68FA681363FB686C
:1043C0001B6B002B06D1F86803F0E0FD4FF00003F3
:1043D000FB600AE0FB681A6BFB884FEA8303104618
:1043E0004FF0A5011A4604F039FCFB68184607F1A6
:1043F0001007BD4680BD00BF80B582B000AF7860B9
:104400007B681B6B184603F0C1FD786803F0BEFDA6
:1044100007F10807BD4680BD80B483B000AF0346F6
:104420003960FB713B684FF012021A8040F27C0346
:10443000C2F20003184607F10C07BD4680BC704766
:1044400080B483B000AF03463960FB713B684FF026
:1044500004021A8040F29C03C2F20003184607F1DE
:104460000C07BD4680BC704780B582B000AF0346E4
:104470003960FB71FB79002B0BD148F6D450C0F6A4
:10448000000042F2A851C2F200013A6801F016FCA5
:104490000AE048F6F850C0F6000042F2A851C2F215
:1044A00000013A6801F00AFC42F2A853C2F200038C
:1044B000184607F10807BD4680BD00BF80B582B031
:1044C00000AF03463960FB7148F61C60C0F600007F
:1044D00042F2A851C2F200013A6801F0EFFB42F249
:1044E000A853C2F20003184607F10807BD4680BD75
:1044F00080B582B000AF03463960FB71FB79002BB9
:104500000BD148F63060C0F6000042F2A851C2F26A
:1045100000013A6801F0D2FB0AE048F64060C0F6BC
:10452000000042F2A851C2F200013A6801F0C6FB55
:1045300042F2A853C2F20003184607F10807BD462D
:1045400080BD00BF80B582B000AF03463960FB710B
:10455000FB79002B0BD148F65060C0F6000042F208
:10456000A851C2F200013A6801F0A8FB0AE048F63F
:104570005060C0F6000042F2A851C2F200013A6851
:1045800001F09CFB42F2A853C2F20003184607F167
:104590000807BD4680BD00BF80B582B000AF0346AE
:1045A0003960FB71FB79002B0BD148F65C60C0F6DB
:1045B000000042F2A851C2F200013A6801F07EFB0D
:1045C0000AE048F65C60C0F6000042F2A851C2F270
:1045D00000013A6801F072FB42F2A853C2F20003F4
:1045E000184607F10807BD4680BD00BF80B487B0FC
:1045F00000AF786039604FF000037B614FF000033B
:104600003B614FF00003FB604FF000037B618FE0E4
:104610007B694FF0010202FA03F33B613B681A68C1
:104620003B6902EA0303FB60FA683B699A427BD16B
:104630007B681B681A467B694FEA43034FF003010E
:1046400001FA03F36FEA03031A407B681A607B6880
:104650001B681A463B681B7919467B694FEA43037E
:1046600001FA03F31A437B681A603B681B79012B3C
:1046700003D03B681B79022B38D17B689B681A46B4
:104680007B694FEA43034FF0030101FA03F36FEA3A
:1046900003031A407B689A607B689B681A463B68F4
:1046A0005B7919467B694FEA430301FA03F31A4326
:1046B0007B689A607B685B681A467B699BB24FF0A7
:1046C000010101FA03F36FEA03031A407B685A60A1
:1046D0007B685B681A463B689B7919467B699BB28D
:1046E00001FA03F39BB21A437B685A607B68DB686C
:1046F0001A467B699BB24FEA43034FF0030101FA6C
:1047000003F36FEA03031A407B68DA607B68DB68B7
:104710001A463B68DB7919467B694FEA430301FA85
:1047200003F31A437B68DA607B6903F101037B6161
:104730007B690F2B7FF66CAF07F11C07BD4680BC71
:10474000704700BF80B483B000AF78607B684FF6DD
:10475000FF721A607B684FF000021A717B684FF09D
:1047600000025A717B684FF000029A717B684FF02B
:104770000002DA7107F10C07BD4680BC704700BF2C
:1047800080B485B000AF78600B467B804FF00003AB
:10479000FB737B681B691A467B8802EA0303002BC4
:1047A00003D04FF00103FB7302E04FF00003FB73F3
:1047B000FB7B184607F11407BD4680BC704700BF5D
:1047C00080B483B000AF786013460A467A807B706D
:1047D0007B78002B03D07B687A881A8302E07B68A1
:1047E0007A885A8307F10C07BD4680BC704700BF2A
:1047F00080B485B000AF786013460A467A807B703B
:104800004FF00003FB604FF00003BB607A787B88B9
:1048100003F007034FEA830302FA03F3FB607B888C
:104820004FEAD3039BB21A467B884FEAD3039BB26D
:1048300019467B6801F1080153F8213019467B883D
:1048400003F007034FEA83034FF00F0000FA03F36E
:104850006FEA030319407B6802F1080243F8221053
:104860007B884FEAD3039BB21A467B6802F10802A9
:1048700053F822301A46FB6842EA0303BB607B8888
:104880004FEAD3039BB21A467B6802F10802B9686B
:1048900043F8221007F11407BD4680BC704700BFE3
:1048A00080B400AF4FF000031846BD4680BC70478F
:1048B00080B400AF4FF000031846BD4680BC70477F
:1048C00080B485B000AFF860B9607A60FB68232BD4
:1048D0004AD801A252F823F0694900086949000842
:1048E00069490008694900086949000869490008E0
:1048F00069490008694900086949000869490008D0
:1049000069490008694900086949000869490008BF
:1049100069490008694900086949000869490008AF
:10492000694900086949000869490008694900089F
:10493000694900086949000869490008694900088F
:10494000694900086949000869490008694900087F
:10495000694900086949000869490008694900086F
:10496000694900086949000800BF4FF00003184674
:1049700007F11407BD4680BC704700BF80B485B006
:1049800000AF786039604FF00003FB6027E040F231
:104990006023C2F200031A687968FB68CB181978A3
:1049A00042F26863C2F20003995402F1010240F23C
:1049B0006023C2F200031A6040F26023C2F20003D7
:1049C0001B68B3F5006F06D140F26023C2F200030A
:1049D0004FF000021A60FB6803F10103FB60FA6804
:1049E0003B689A42D3D34FF00003184607F11407EF
:1049F000BD4680BC704700BF80B483B000AF786014
:104A0000396040F24423C2F200034FF000021A6002
:104A100045E040F26023C2F200031A6840F24823E6
:104A2000C2F200031B687968CB18197842F26863F8
:104A3000C2F20003995440F26023C2F200031B68E3
:104A400003F1010240F26023C2F200031A6040F257
:104A50004423C2F200031B6803F1010240F2442325
:104A6000C2F200031A6040F24823C2F200031B683E
:104A700003F1010240F24823C2F200031A6040F23F
:104A80006023C2F200031A6840F2FF739A4206D90B
:104A900040F26023C2F200034FF000021A6040F2BD
:104AA0004423C2F200031A683B689A42B1D340F231
:104AB0004823C2F200031B68402B06D940F248236A
:104AC000C2F200034FF000021A60184607F10C070B
:104AD000BD4680BC704700BF80B483B000AF786033
:104AE0007B6803F108031A467B685A607B684FF0C5
:104AF000FF329A607B6803F108031A467B68DA602C
:104B00007B6803F108031A467B681A617B684FF0E3
:104B100000021A6007F10C07BD4680BC704700BF59
:104B200080B483B000AF78607B684FF000021A61F8
:104B300007F10C07BD4680BC704700BF80B485B04C
:104B400000AF786039607B685B68FB60FB685B681E
:104B50001A463B685A607B685A683B689A60FB68F3
:104B60005B683A689A603A68FB685A603A687B68A2
:104B70005A603B687A681A617B681B6803F101021E
:104B80007B681A6007F11407BD4680BC704700BF00
:104B900080B485B000AF786039603B681B68BB604B
:104BA000BB68B3F1FF3F03D17B681B69FB600EE07C
:104BB0007B6803F10803FB6002E0FB685B68FB6055
:104BC000FB685B681B681A46BB689A42F5D9FB68AC
:104BD0005B681A463B685A603B685B683A689A6053
:104BE0003B68FA689A603A68FB685A603B687A6882
:104BF0001A617B681B6803F101027B681A6007F188
:104C00001407BD4680BC704780B485B000AF7860A3
:104C10007B685B687A6892689A607B689B687A6850
:104C200052685A607B681B69FB60FB685A687B6846
:104C30009A4203D17B689A68FB685A607B684FF0A0
:104C400000021A61FB681B6803F1FF32FB681A60FF
:104C500007F11407BD4680BC704700BF80B500AFA8
:104C60004FF46053C4F202034FF46052C4F20202E4
:104C7000126842F001021A604FF46053C4F202035A
:104C80004FF000029A604FF46053C4F202034FF4F5
:104C90006052C4F20202126822F0847222F480325E
:104CA0001A604FF46053C4F2020343F21002C2F2DE
:104CB00000425A604FF46053C4F202034FF4605252
:104CC000C4F20202126822F480221A604FF4605388
:104CD000C4F202034FF00002DA6000F009F84FF46A
:104CE0006D43CEF200034FF000629A6080BD00BFBA
:104CF00080B483B000AF4FF000037B604FF000033F
:104D00003B604FF46053C4F202034FF46052C4F2AC
:104D10000202126842F480321A604FF46053C4F207
:104D200002031B6803F400333B607B6803F101035B
:104D30007B603B68002B03D17B68B3F5A06FECD19F
:104D40004FF46053C4F202031B6803F40033002BDA
:104D500003D04FF001033B6002E04FF000033B60E3
:104D60003B68012B67D14FF46053C4F202034FF448
:104D70006052C4F2020292689A604FF46053C4F227
:104D800002034FF46052C4F2020292689A604FF438
:104D90006053C4F202034FF46052C4F202029268FC
:104DA00042F480529A604FF46053C4F2020343F21B
:104DB0000402C0F643025A604FF46053C4F2020387
:104DC0004FF46052C4F20202126842F080721A601C
:104DD00000BF4FF46053C4F202031B6803F000737A
:104DE000002BF6D04FF47053C4F2020340F201726C
:104DF0001A604FF46053C4F202034FF46052C4F2DD
:104E00000202926822F003029A604FF46053C4F2E7
:104E100002034FF46052C4F20202926842F00202AE
:104E20009A6000BF4FF46053C4F202039B6803F022
:104E30000C03082BF6D107F10C07BD4680BC704768
:104E400080B590B004AF07F118031846FDF7A8FC31
:104E500007F108031846FDF7F9FC4FF001004FF089
:104E60000101FDF717FB3B461846FFF76BFC4FF0BF
:104E700003033B714FF0FF033B603B464FF00000E4
:104E8000C4F202001946FFF7B1FB4FF480704FF0F7
:104E90000101FDF789FBFDF711FC4FF00003BB603A
:104EA0004FF44033FB604FF000033B614FF00003D1
:104EB0007B6107F108031846FDF798FC4FF00003EB
:104EC0003B774FF000037B774FF000037B624FF09E
:104ED0000003BB624FF0010387F82C3007F1180381
:104EE0004FF40050C4F201001946FDF7F7FB4FF4F0
:104EF0000050C4F201004FF000014FF001024FF0EA
:104F00000703FDF7D9FC4FF40050C4F201004FF045
:104F10000101FDF7B5FC48F66C63C0F600034FF0E5
:104F2000010200924FF0000201924FF00002029243
:104F30004FF00002039244F6F970C0F600001946E3
:104F40004FF080024FF00003FEF718FD07F1300725
:104F5000BD4680BD80B485B000AF78600B467B80D5
:104F60007B8803F1FF33FB813DE04FF00003BB8101
:104F700031E0BB894FEA43037A68D3181A88BB89AA
:104F800003F101034FEA43037968CB181B889A4267
:104F90001DD9BB894FEA43037A68D3181B887B81EC
:104FA000BB894FEA43037A68D318BA8902F1010238
:104FB0004FEA420279688A1812881A80BB8903F185
:104FC00001034FEA43037A68D3187A891A80BB89B0
:104FD00003F10103BB81BA89FB899A42C9D3FB89DA
:104FE00003F1FF33FB81FB89002BBED107F11407CE
:104FF000BD4680BC704700BF80B58CB000AF786004
:105000004FF0000387F82F304FF0000387F82E3061
:105010004FF0000387F82F3080E04FF0000387F84F
:105020002E3071E097F82E304FF40050C4F201009A
:1050300019464FF001024FF00703FDF73DFC4FF416
:105040000053C4F201034FF40052C4F2010292680B
:1050500042F080429A6001E000F00EFF4FF40050F1
:10506000C4F201004FF00201FDF70EFD0346002BD4
:10507000F2D097F82E0097F82F204FF40053C4F287
:105080000103DB6C99B242F29843C2F200034FEA8B
:105090000010821802F1080223F81210244A97F82F
:1050A0002E304FEA4313D31818464FF01001FFF784
:1050B00051FF97F82E2097F82E1042F29843C2F233
:1050C00000034FEA41115B1803F11E031B881946C8
:1050D00097F82E0042F29843C2F2000300F101005B
:1050E0004FEA40101B181B88CB184FEA630399B294
:1050F00042F29843C2F2000323F8121097F82E30C0
:1051000003F1010387F82E3097F82E30072B89D949
:1051100097F82F3003F1010387F82F3097F82F30DD
:105120000F2B7FF67AAF4FF49670FEF723FD6FE7F3
:10513000A824002080B584B000AF78604FF0010053
:105140004FF00101FDF7A6F94FF4D853BB604FF0C3
:1051500003037B734FF002033B734FF00003BB73F9
:105160004FF00003FB7307F108034FF00000C4F297
:1051700002001946FFF73AFA4FF00000C4F20200AD
:105180004FF008014FF00A02FFF732FB4FF000002A
:10519000C4F202004FF009014FF00A02FFF728FBAA
:1051A0004FF00000C4F202004FF00B014FF00A0272
:1051B000FFF71EFB4FF00000C4F202004FF00C019D
:1051C0004FF00A02FFF714FB4FF48063BB604FF00F
:1051D0000103BB734FF00103FB734FF003037B73B9
:1051E00007F108034FF00000C4F202001946FFF770
:1051F000FDF94FF00000C4F202004FF00A014FF039
:105200000A02FFF7F5FA4FF480404FF00101FDF775
:10521000CBF94FF080004FF00101FDF769F94FF035
:1052200080504FF00101FDF7EDF907F11007BD4681
:1052300080BD00BF80B584B000AF78604FF440708F
:1052400002F078FB4FF043033B734FF001037B7395
:105250004FF00303BB734FF00103FB7307F10C0323
:10526000184602F07BFB07F11007BD4680BD00BF6A
:1052700080B485B000AF78604FF00003FB607A68BF
:1052800013464FEA03139B1A4FEAC3031A4644F628
:105290002513C2F29243A3FB0213D21A4FEA520221
:1052A0009B184FEA9303BB6000E000BFFB6803F16B
:1052B0000103FB60FA68BB689A42F6D907F114074C
:1052C000BD4680BC704700BF80B582B000AF78603B
:1052D0007B684FF47A7202FB03F31846FFF7C8FFAE
:1052E00007F10807BD4680BD80B500AF41F6986361
:1052F000C2F200039B7A002B13D04EF61053CEF26D
:1053000000034EF61052CEF20002126822F006029E
:105310001A60FFF7A3FC41F69860C2F20000FCF7A8
:105320000FFA4FF4802002F0F5FA80BD80B500AF8F
:1053300041F69860C2F2000000F02AFE80BD00BF76
:1053400080B584B000AF786039604FF00003FB7324
:105350003B685B78092B3AD801A252F823F000BFD2
:10536000B1530008C5530008CF530008BB530008D1
:10537000CF5300089353000889530008CF53000807
:10538000A75300089D5300087868396800F04EF96B
:1053900022E07868396800F02DFA1DE078683968F5
:1053A00000F068FA18E07868396800F0FDFA13E058
:1053B0007868396800F02CFB0EE07868396800F0F6
:1053C0005BFB09E07868396800F0C6FB04E07868A8
:1053D000396800F04BFC00BFFB7B184607F1100753
:1053E000BD4680BD80B584B000AF786039604FF0B5
:1053F0000003FB737B6893F81231032B1BD13B68CE
:105400009B88DBB2012B11D87B68D3F8E0359B6811
:105410007868396898473B68DB88002B10D1FB7BA4
:10542000002B0FD1786802F041FE0CE078683968F3
:1054300000F01CFC07E07868396800F017FC02E017
:1054400000BF00E000BFFB7B184607F11007BD4618
:1054500080BD00BF80B584B000AF786039604FF088
:105460000003FB733B689B88BB733B685B78012B35
:1054700038D0032B02D0002B68D0D1E07B6893F8A2
:105480001231022B02D0032B0CD025E0BB7B002B6A
:1054900007D0BB7B802B04D0BB7B7868194602F019
:1054A00083FC1EE03B685B88002B0AD1BB7B002B92
:1054B00007D0BB7B802B04D0BB7B7868194602F0F9
:1054C00073FC7B68D3F8E0359B6878683968984747
:1054D000786802F0EBFD04E07868396800F0C6FBFC
:1054E00000BF9DE07B6893F81231022B02D0032BA2
:1054F0000CD025E0BB7B002B07D0BB7B802B04D0DE
:10550000BB7B7868194602F04FFC1EE03B685B8865
:10551000002B14D1BB7B002B0ED0BB7B802B0BD080
:10552000BB7B7868194602F07FFC7B68D3F8E035D6
:105530009B68786839689847786802F0B7FD04E09E
:105540007868396800F092FB00BF69E07B6893F8E7
:105550001231022B02D0032B0CD05BE0BB7B002B63
:1055600007D0BB7B802B04D0BB7B7868194602F048
:105570001BFC54E0BB7B5BB2002B1FDABB7B03F050
:105580007F02796813464FEA83039B184FEAC303EF
:10559000CB1803F58C739B78002B07D040F24C237B
:1055A000C2F200034FF001021A6028E040F24C23DF
:1055B000C2F200034FF000021A6020E0BB7B5BB236
:1055C000002B1CDBBA7B796813464FEA83039B18D8
:1055D0004FEAC303CB1803F55C739B78002B07D00D
:1055E00040F24C23C2F200034FF001021A6006E0C1
:1055F00040F24C23C2F200034FF000021A6040F266
:105600004C23C2F20003786819464FF0020202F000
:10561000D5FC04E07868396800F028FB00BF00BFC3
:10562000FB7B184607F11007BD4680BD80B584B0EE
:1056300000AF786039603B685B884FEA13239BB208
:1056400003F1FF33062B00F2B58001A252F823F0DC
:105650006D560008A1560008CF560008B55700083F
:10566000B5570008A1570008AB5700087B68D3F86E
:10567000E8351B687A68917807F10A0208461146F6
:105680009847F8603B68DB88402B05D07B6893F82F
:105690001231012B40F093804FF008037B818FE0A3
:1056A0007B68D3F8E0359B6A7A68917807F10A0243
:1056B000084611469847F860FB6803F101034FF074
:1056C00002021A707B68FA68C3F8EC2578E03B6840
:1056D0005B88DBB2052B5DD801A252F823F000BF36
:1056E000F9560008135700082D57000847570008BF
:1056F000615700087B5700087B68D3F8E8355B6882
:105700007A68917807F10A02084611469847F860CE
:1057100045E07B68D3F8E8359B687A68917807F1B3
:105720000A02084611469847F86038E07B68D3F8CB
:10573000E835DB687A68917807F10A020846114675
:105740009847F8602BE07B68D3F8E8351B697A68E6
:10575000917807F10A02084611469847F8601EE062
:105760007B68D3F8E8355B697A68917807F10A02BB
:10577000084611469847F86011E07B68D3F8E83591
:105780009B697A68917807F10A02084611469847A2
:10579000F86004E07868396800F068FA25E00FE006
:1057A0007868396800F062FA1FE07868396800F0BC
:1057B0005DFA1AE07868396800F058FA15E000BF21
:1057C0007B89002B11D03B68DB88002B0DD03B6818
:1057D000DA887B899A4238BF13469BB27B817B89EA
:1057E0007868F9681A4602F0E9FB07F11007BD4630
:1057F00080BD00BF80B584B000AF786039603B6881
:105800009B88002B2ED13B68DB88002B2AD13B687C
:105810005B88DBB203F07F03FB737B6893F8123184
:10582000032B04D17868396800F020FA1EE07B6809
:10583000FA7B83F81321FB7B7868194602F034FB6E
:10584000786802F033FCFB7B002B05D07B684FF0BF
:10585000020283F8122109E07B684FF0010283F80D
:10586000122103E07868396800F000FA07F11007A8
:10587000BD4680BD80B582B000AF786039603B68BE
:105880005B88DAB240F25823C2F200031A7040F289
:105890005823C2F200031B78012B04D978683968B9
:1058A00000F0E4F97CE07B6893F81231022B02D01F
:1058B000032B25D06FE040F25823C2F200031B787F
:1058C000002B19D040F25823C2F200031A787B68EB
:1058D00083F810217B684FF0030283F8122140F215
:1058E0005823C2F200031B7878681946FCF752FC73
:1058F000786802F0DBFB53E0786802F0D7FB4FE0FA
:1059000040F25823C2F200031B78002B19D17B68A8
:105910004FF0020283F8122140F25823C2F2000332
:105920001A787B6883F8102140F25823C2F20003F2
:105930001B7878681946FCF747FC786802F0B6FBDC
:105940002EE07B6893F8102140F25823C2F2000346
:105950001B789A421BD07B6893F8103178681946FF
:10596000FCF732FC40F25823C2F200031A787B683D
:1059700083F8102140F25823C2F200031B787868A4
:105980001946FCF707FC786802F090FB08E078689D
:1059900002F08CFB04E07868396800F067F900BF1A
:1059A00007F10807BD4680BD80B582B000AF7860C2
:1059B00039603B68DB88012B04D07868396800F0D7
:1059C00055F921E07B6893F81231022B02D0032BAA
:1059D0000BD014E040F25023C2F20003786819465D
:1059E0004FF0010202F0EAFA0EE07B6803F58873DB
:1059F000786819464FF0010202F0E0FA04E0786896
:105A0000396800F033F900BF07F10807BD4680BDD3
:105A100080B582B000AF786039607B6893F812314E
:105A2000A3F10203012B1ED87B68D3F81431002B9D
:105A300007D040F25423C2F200034FF003021A6071
:105A400006E040F25423C2F200034FF001021A6054
:105A500040F25423C2F20003786819464FF0010265
:105A600002F0ACFA04E07868396800F0FFF800BF93
:105A700007F10807BD4680BD80B584B000AF7860EF
:105A800039604FF00003FB733B685B88012B0FD13B
:105A90007B684FF00102C3F814217B68D3F8E0352E
:105AA0009B68786839689847786802F0FFFA4FE099
:105AB0003B685B88022B4BD13B689B8803F0FF035C
:105AC000002B45D17B681B695B68BB603B689B888A
:105AD0004FEA13239BB2FB73FB7B03F1FF33042BD1
