:020000040800F2
:10000000B0360020611C0008C91C0008C91C00088B
:10001000C91C0008C91C0008C91C00080000000019
:10002000000000000000000000000000BD6D00089E
:10003000C91C000800000000C16E0008FD6E000829
:10004000C91C00084D930008C91C0008C91C000801
:10005000C91C0008C91C0008C5360008D9370008AB
:10006000C91C0008C91C0008C91C0008C91C0008DC
:10007000C91C0008C91C0008C91C0008C91C0008CC
:10008000C91C0008C91C0008C91C0008C91C0008BC
:10009000C91C0008C91C0008C91C0008C91C0008AC
:1000A000C91C0008C91C0008C91C0008C91C00089C
:1000B00095170008C91C0008C91C0008C91C0008C5
:1000C000C91C0008C91C0008C91C0008C91C00087C
:1000D000C91C0008C91C0008C91C0008C91C00086C
:1000E000C91C0008C91C0008755B0008C91C000871
:1000F000C91C0008C91C0008C91C0008C91C00084C
:10010000C91C0008C91C0008C91C0008C91C00083B
:10011000C91C0008C91C0008C91C0008C91C00082B
:10012000C91C0008C91C0008C91C0008C91C00081B
:10013000C91C0008C91C0008C91C0008C91C00080B
:10014000C91C0008C91C0008C91C0008B95B0008CC
:10015000C91C0008C91C0008C91C0008C91C0008EB
:10016000C91C0008C91C0008C91C0008C91C0008DB
:10017000C91C0008C91C0008C91C0008C91C0008CB
:10018000C91C0008C91C000890B484B000AF024626
:100190000B46FA71BB714FF00003FB60BB7903F0B3
:1001A00003034FEA83034FF00F0202FA03F3FB60ED
:1001B0004FF46053C4F20103BA794FEA9202D2B20B
:1001C00010464FF46052C4F20102B9794FEA91012E
:1001D000C9B201F1020152F821201146FA686FEA12
:1001E0000202114000F1020243F822104FF4605362
:1001F000C4F20103BA794FEA9202D2B210464FF428
:100200006052C4F20102B9794FEA9101C9B201F119
:10021000020152F821201146FC79BA7902F003025A
:100220004FEA820204FA02F2114300F1020243F89B
:10023000221007F11007BD4690BC704780B485B00E
:1002400000AF78604FF00003FB607B68DB684FF025
:10025000FF325A607B68DB684FF0FF325A61FB68FF
:1002600043F00043FB60FB6843F40063FB607B6882
:10027000DB68FA689A6107F11407BD4680BC7047D5
:1002800080B586B000AF78604FF00003FB744FF08C
:1002900000037B614FF00003FB604FF0030005F0AB
:1002A0002DFC7B68DB681B69FB607B6903F1010344
:1002B0007B617A694FF45463C0F203039A4202D916
:1002C0004FF000032AE0FB6803F00043002BE4D06A
:1002D0004FF000037B61FB6843F00103FB607B6828
:1002E000DB68FA681A617B68DB681B69FB607B6905
:1002F00003F101037B617A694FF45463C0F2030395
:100300009A4205D8FB6803F00103002BEBD100E013
:1003100000BF4FF0030005F0F1FBFB7C184607F12E
:100320001807BD4680BD00BF80B489B000AFF8603B
:10033000B960FA71BB804FF00003FB76FB68DB7895
:10034000002B2DD14FF000037B614FF00003FB61C8
:10035000BB8803F1030303F10302002BB8BF13466C
:100360004FEAA3037B61FB79FA6803F132034FEA9A
:100370008303D3189B683B614FF00003FB610BE0E4
:10038000BB681A683B691A60FB6903F10103FB61F2
:10039000BB6803F10403BB60FA697B699A42EFD33F
:1003A000FB7E184607F12407BD4680BC704700BF9E
:1003B00080B489B000AFF860B9601346FB804FF09D
:1003C0000003FB61FB8803F1030303F10302002B2D
:1003D000B8BF13464FEAA303BB61FB68D3F8D03024
:1003E0007B614FF00003FB610BE0BB687A69126828
:1003F0001A60FB6903F10103FB61BB6803F10403AD
:10040000BB60FA69BB699A42EFD3BB68184607F133
:100410002407BD4680BC704780B487B000AF7860C9
:100420000B46FB704FF000033B614FF00003FB7382
:100430007B684FF00002DA707B684FF001029A701F
:100440007B684FF040029A80FB78012B17D14FF068
:10045000A0433B617B684FF00102DA727B684FF08A
:1004600008021A707B684FF004025A707B684FF4E0
:10047000A072DA807B684FF002021A7217E0FB78F4
:10048000002B14D14FF00003C4F204033B617B68DE
:100490004FF00002DA727B684FF00C021A707B6832
:1004A0004FF006025A707B684FF4A062DA803A6916
:1004B0007B68DA603B6903F500631A467B681A6162
:1004C0004FF000037B6123E07B694FEA43123B69F5
:1004D000D31803F510631A4679687B6903F10403A6
:1004E0004FEA8303CB189A607B694FEA43123B695A
:1004F000D31803F530631A4679687B6903F1140356
:100500004FEA8303CB185A607B6903F101037B61D7
:100510007B685B781A467B699A42D5D83B6903F5BC
:1005200080631A467B685A613B6903F588631A4603
:100530007B68C3F8CC204FF000037B6113E07B693C
:100540004FEA43123B69D31803F5A0631A46796852
:100550007B6903F122034FEA8303CB189A607B691E
:1005600003F101037B617B681B781A467B699A4221
:10057000E5D84FF000037B6113E07B694FEA03325B
:100580003B69D31803F580531A4679687B6903F1F8
:1005900032034FEA8303CB189A607B6903F10103AE
:1005A0007B617B681B781A467B699A42E5D83B6978
:1005B00003F560631A467B68C3F80C21FB7B184681
:1005C00007F11C07BD4680BC704700BF80B588B0EE
:1005D00000AF78604FF00003FB774FF00003BB6182
:1005E0004FF000037B614FF00003FB607B681B7AD8
:1005F000012B51D17B68DB689B6B7B617B696FF35F
:1006000010437B617B685B7A002B03D07B6943F4EA
:1006100080137B617B68DB687A699A634FF0000323
:10062000BB617B68DB68DB68BB61BB696FF386130A
:10063000BB61BB696FF39653BB61BB6943F01003A9
:10064000BB61BB696FF3C303BB61BB696FF3C713C6
:10065000BB61BB696FF35143BB61BB696FF3D343AC
:10066000BB617B68DB68BA69DA607868FFF708FE0F
:100670007B68DB78012B40F08980FB684FF0050236
:1006800062F34403FB60FB6843F02003FB607B687C
:10069000DB68FA689A6079E07B68DB68DB68BB61DD
:1006A000BB6943F04003BB617B68DB68BA69DA6011
:1006B0007868FFF7E5FD4FF000037B617B6943F449
:1006C00080337B617B681B7A032B03D17B6943F406
:1006D00000337B617B6943F480237B617B6943F456
:1006E00000237B617B6943F400137B617B685B7A49
:1006F000002B03D07B6943F480137B617B68DB684C
:100700007A699A634FF0140005F024FA7B68DB687D
:10071000DB68BB617B681B7A032B03D1BB6943F4A5
:100720008033BB617B68DB68BA69DA607B681B7AFF
:10073000032B2BD17B68DB681B6B3B613B694FF064
:10074000010262F39B633B613B696FF3D7533B61EB
:100750003B6943F080533B613B694FF02D0262F3EC
:1007600016433B617B68DB683A691A634FF0C80047
:1007700005F0F0F93B6943F400033B617B68DB68FB
:100780003A691A634FF0C80005F0E4F97B68DB783A
:10079000012B11D17B68DB689B68FB60FB684FF025
:1007A000050262F34403FB60FB6843F02003FB6037
:1007B0007B68DB68FA689A60FB7F184607F12007C0
:1007C000BD4680BD80B485B000AF78604FF00003B7
:1007D000FB734FF00003BB60BB6843F00103BB60D9
:1007E0007B68DB687A68D26892681146BA6841EA29
:1007F00002029A60FB7B184607F11407BD4680BCD5
:10080000704700BF80B485B000AF78604FF0000340
:10081000FB734FF00003BB60BB6843F00103BB6098
:100820007B68DB687A68D26892681146BA686FEABA
:10083000020201EA02029A60FB7B184607F11407E4
:10084000BD4680BC704700BF80B586B000AF786001
:1008500039604FF00003FB744FF000037B614FF0F1
:100860000003FB60FB6843F02003FB603B68DBB2E6
:1008700003F01F03DAB2FB6862F38A13FB607B6844
:10088000DB68FA681A617B68DB681B69FB607B695F
:1008900003F101037B617A694FF45463C0F20303EF
:1008A0009A4205D8FB6803F02003002BEBD100E04F
:1008B00000BF4FF0030005F021F9FB7C184607F15B
:1008C0001807BD4680BD00BF80B586B000AF786018
:1008D0004FF00003FB744FF000037B614FF0000307
:1008E000FB60FB6843F01003FB607B68DB68FA6821
:1008F0001A617B68DB681B69FB607B6903F101039C
:100900007B617A694FF45463C0F203039A4205D8BD
:10091000FB6803F01003002BEBD100E000BF4FF0A9
:10092000030005F0EBF8FB7C184607F11807BD46FD
:1009300080BD00BF80B584B000AF78600B46FB700F
:100940004FF00003FB737B68DB68DB68BB60BB6850
:100950006FF35D73BB60BB686FF39E73BB60FB7826
:10096000012B04D1BB6843F00053BB6006E0FB7869
:10097000002B03D1BB6843F08043BB607B68DB681E
:10098000BA68DA604FF0320005F0E4F8FB7B1846F5
:1009900007F11007BD4680BD80B483B000AF78601A
:1009A0007B68DB685B6903F00103184607F10C07FD
:1009B000BD4680BC704700BF80B582B000AF786094
:1009C0007868FFF7E9FF0346012B0CBF00230123E2
:1009D000DBB2184607F10807BD4680BD80B485B07C
:1009E00000AF78604FF00003FB607B68DB685B69F9
:1009F000FB607B68DB689B69FA6802EA0303FB60C3
:100A0000FB68184607F11407BD4680BC704700BF5D
:100A100080B485B000AF78600B46FB707B681B69C3
:100A20001B68FB60FB7803F00303DAB2FB6862F338
:100A30000103FB607B681B69FA681A6007F1140701
:100A4000BD4680BC704700BF80B58CB000AF7860F9
:100A50004FF0000387F82B304FF000037B624FF01C
:100A600000033B624FF00003FB614FF00003BB61EA
:100A70004FF000037B617B68D3F80C314FF000022C
:100A80001A607B681B691B683B623B6A6FF3CC236F
:100A90003B627B681B693A6A1A607B68DB7A012BD0
:100AA00040D178684FF00301FFF7B2FF7B68DB6845
:100AB0004FF080025A624FF02003FB834FF0800317
:100AC000BB837B68DB68FA699A62BA8BFB8BD318AD
:100AD0009BB23B834FF080037B837B68DB68BA6902
:100AE000C3F804213A8B7B8BD3189BB23B834FF026
:100AF00020037B837B68DB6803F5827303F10403C7
:100B0000BA691A603A8B7B8BD3189BB23B834FF048
:100B100000037B837B68DB6803F5827303F10803C2
:100B2000BA691A6078684FF01001FFF78DFE786897
:100B3000FFF7CAFE7B681B694FF000021A617B68F1
:100B40001B694FF000025A617B681B694FF0FF324E
:100B50009A617B681B694FF00002DA614FF0000375
:100B6000FB6243E07A68FB6A03F104034FEA830304
:100B7000D3189B681B687B6297F8273023F07F03AC
:100B8000DBB2002B0BD04FF000037B627B6A43F09B
:100B900080437B627B6A43F000637B6202E04FF03C
:100BA00000037B627A68FB6A03F104034FEA830364
:100BB000D3189B687A6A1A607A68FB6A03F10403A7
:100BC0004FEA8303D3189B684FF000021A617A68DA
:100BD000FB6A03F104034FEA8303D3189B684FF0C9
:100BE000FF029A60FB6A03F10103FB627B685B789A
:100BF0001A46FB6A9A42B5D84FF00003FB6242E006
:100C00007A68FB6A03F114034FEA8303D3185B6825
:100C10001B68FB60FB7B23F07F03DBB2002B0BD058
:100C20004FF00003FB60FB6843F08043FB60FB6810
:100C300043F00063FB6002E04FF00003FB607A6862
:100C4000FB6A03F114034FEA8303D3185B68FA6865
:100C50001A607A68FB6A03F114034FEA8303D3181E
:100C60005B684FF000021A617A68FB6A03F11403B3
:100C70004FEA8303D3185B684FF0FF029A60FB6A68
:100C800003F10103FB627B685B781A46FB6A9A42B8
:100C9000B6D84FF000037B617B6943F480737B61BE
:100CA0007B681B697A681269126911467A696FEA72
:100CB000020211407A6941EA02021A617B68DB781C
:100CC000012B1ED14FF000033B613B6943F0010350
:100CD0003B613B6943F002033B613B694FF04002DB
:100CE00062F38A033B613B6943F480333B613B69B8
:100CF0004FF0400262F359433B617B681B693A69DC
:100D00001A63786800F008F897F82B30184607F156
:100D10003007BD4680BD00BF80B584B000AF7860AD
:100D20004FF00003FB734FF00003BB607B68DB6890
:100D30004FF000029A617B68DB684FF0FF325A6126
:100D40007868FFF77BFA7B68DB78002B03D1BB6800
:100D500043F01003BB60BB6843F40063BB60BB6837
:100D600043F48053BB60BB6843F40053BB60BB6873
:100D700043F48023BB60BB6843F40023BB60BB68C3
:100D800043F00803BB60BB6843F48013BB60BB68DF
:100D900043F40013BB607B68DB687A68D2689269B1
:100DA0001146BA686FEA02021140BA6841EA0202CB
:100DB0009A61FB7B184607F11007BD4680BD00BF56
:100DC00080B485B000AF78604FF00003FB737B68A0
:100DD0001B699B68BB60BB68C3F34103DBB2022B9A
:100DE0000BD0032B05D0012B03D04FF00303FB7373
:100DF00007E04FF00203FB7303E04FF00103FB73C6
:100E000000BFFB7B184607F11407BD4680BC704746
:100E100080B487B000AF78604FF00003FB754FF0EF
:100E20000003BB607B681B699B683B617B689B69B7
:100E30001B68FB603B69C3F34103DBB2022B04D0A8
:100E4000FB686FF30A03FB6006E0FB684FF00302E8
:100E500062F30A03FB6000BF7B689B69FA681A6053
:100E6000BB6843F48073BB607B681B697A68126956
:100E700052681146BA686FEA02021140BA6841EA44
:100E800002025A60FB7D184607F11C07BD4680BC74
:100E9000704700BF80B487B000AF786039604FF012
:100EA0000003FB744FF00003FB604FF00003BB60D6
:100EB0003B685B78012B12D13B681B787A6803F1A1
:100EC00004034FEA8303D3189B687B613B681B785C
:100ED0004FF0010202FA03F39BB23B8111E03B6841
:100EE0001B787A6803F114034FEA8303D3185B6815
:100EF0007B613B681B784FF0010202FA03F39BB25F
:100F00007B817B691B68FB607B7B23F07F03DBB20B
:100F1000002B29D13B689B689BB24FEA43534FEAB1
:100F200053539AB2FB6862F30A03FB603B68DB78B9
:100F300003F00303DAB2FB6862F39343FB603B68A0
:100F4000DB88DBB203F00F03DAB2FB6862F399537C
:100F5000FB60FB6843F08053FB60FB6843F4004395
:100F6000FB60FA687B691A607B681B697A681269A2
:100F7000D2691146BA6841EA0202DA61FB7C18467E
:100F800007F11C07BD4680BC704700BF80B487B026
:100F900000AF786039604FF00003FB744FF000033E
:100FA000FB604FF00003BB603B685B78012B12D104
:100FB0003B681B787A6803F104034FEA8303D31874
:100FC0009B687B613B681B784FF0010202FA03F3D8
:100FD0009BB23B8111E03B681B787A6803F11403F4
:100FE0004FEA8303D3185B687B613B681B784FF043
:100FF000010202FA03F39BB27B81FB686FF3CF33EC
:10100000FB60FA687B691A607B681B697A68126901
:10101000D2691146BA686FEA020201EA0202DA6195
:10102000FB7C184607F11C07BD4680BC704700BF1B
:1010300080B588B000AF786039604FF00003FB776F
:101040004FF00003BB614FF000037B614FF00003E2
:101050003B613B685B78012B40F0BF803B681B78AD
:101060007A6803F104034FEA8303D3189B681B6873
:101070007B613B681B787A6803F104034FEA8303C2
:10108000D3189B681B693B613B685B69002B0AD1E5
:101090003B696FF312033B613B694FF0010262F35E
:1010A000DC433B6128E03B685B6923F07F4222F42C
:1010B00078023B6962F312033B613B685A693B6803
:1010C0009B68D31803F1FF323B689B68B2FBF3F3D4
:1010D0009BB24FEA83534FEA93539AB23B6962F350
:1010E000DC433B613B68DB78012B05D13B694FF06A
:1010F000010262F35E733B613B681B787A6803F11F
:1011000004034FEA8303D3189B683A691A617B682A
:10111000DB78012B0CD13B681B787A6803F1040360
:101120004FEA8303D3189B683A6812695A6118E042
:101130003B68DB78012B14D03B685B69002B10D037
:101140003B681B784FF0010202FA03F3BB617B6836
:101150001B697A681269526B1146BA6941EA020248
:101160005A633B68DB78012B14D17B681B699B6851
:10117000FB60FB68C3F30D239BB203F00103002B5C
:1011800004D17B6943F000537B6103E07B6943F04A
:1011900080537B617B6943F080637B617B6943F0B3
:1011A00000437B613B681B787A6803F104034FEAD4
:1011B0008303D3189B687A691A603B68DB78012B3C
:1011C00040F09A803B68D9683B681A783B685B6955
:1011D0009BB27868FFF7A8F88EE03B681B787A68C6
:1011E00003F114034FEA8303D3185B681B687B6128
:1011F0003B681B787A6803F114034FEA8303D31822
:101200005B681B693B613B685B69002B10D13B68E5
:101210009B6823F07F4222F478023B6962F3120359
:101220003B613B694FF0010262F3DC433B6124E028
:101230003B685A693B689B68D31803F1FF323B68EF
:101240009B68B2FBF3F39BB24FEA83534FEA93538D
:101250009AB23B6962F3DC433B613B69C3F3C94328
:101260009BB23A68926802FB03F323F07F4222F4B8
:1012700078023B6962F312033B613B681B787A6832
:1012800003F114034FEA8303D3185B683A691A61C8
:101290007B68DB78012B0BD13B681B787A6803F104
:1012A00014034FEA8303D3185B683A6812695A61E2
:1012B0003B68DB78012B0CD13B685B79002B04D0B9
:1012C0007B6943F000537B6103E07B6943F080530B
:1012D0007B617B6943F080637B617B6943F0004302
:1012E0007B613B681B787A6803F114034FEA830340
:1012F000D3185B687A691A60FB7F184607F12007EC
:10130000BD4680BD80B489B000AF786039604FF0D1
:101310000003FB774FF00003BB614FF000033B611C
:101320004FF00003BB603B685B78012B79D17B6891
:101330009B697B617B691B683B617B691B69BB6047
:101340003B685B69002B0AD13B7A6FF306033B7263
:10135000BB7A4FF0010262F3C403BB7224E03B6826
:101360005A693B689B689A420ED93B689A683B6809
:101370005A613B689B68DBB203F07F03DAB23B7AC9
:1013800062F306033B7209E03B685B69DBB203F082
:101390007F03DAB23B7A62F306033B72BB7A4FF00B
:1013A000010262F3C403BB72BA687B691A617B688D
:1013B000DB78012B0BD13B681B787A6803F10403BF
:1013C0004FEA8303D3189B683A6812695A613B69F4
:1013D00043F080633B613B6943F000433B613A6902
:1013E0007B691A607B68DB78002B40F087803B6864
:1013F0005B69002B00F082803B681B784FF0010294
:1014000002FA03F3BA6942EA0303BB617B681B6912
:101410007A681269526B1146BA6941EA02025A634C
:101420006CE03B681B787A6803F114034FEA83038E
:10143000D3185B681B683B613B681B787A6803F1D3
:1014400014034FEA8303D3185B681B69BB603B68D6
:101450005B69002B10D13B689B68DBB203F07F0314
:10146000DAB23B7A62F306033B72BB7A4FF00102B9
:1014700062F3C403BB7213E03B689A683B685A612D
:101480003B689B68DBB203F07F03DAB23B7A62F31E
:1014900006033B72BB7A4FF0010262F3C403BB72D6
:1014A0003B681B787A6803F114034FEA8303D3186F
:1014B0005B68BA681A617B68DB78012B0BD13B68EB
:1014C0001B787A6803F114034FEA8303D3185B682F
:1014D0003A6812695A613B6943F080633B613B693A
:1014E00043F000433B613B681B787A6803F11403C7
:1014F0004FEA8303D3185B683A691A60FB7F18468A
:1015000007F12407BD4680BC704700BF80B487B098
:1015100000AF786039604FF00003FB754FF00003B7
:10152000FB603B685B78012B1ED13B681B787A68B7
:1015300003F104034FEA8303D3189B683B613B69C3
:101540001B68FB60FB7B23F07F03DBB2002B03D027
:10155000FB6843F08043FB60FB6843F40013FB60CF
:10156000FA683B691A6013E03B681B787A6803F1FC
:1015700014034FEA8303D3185B683B613B691B6824
:10158000FB60FB6843F40013FB60FA683B691A6078
:10159000FB7D184607F11C07BD4680BC704700BFA5
:1015A00080B487B000AF786039604FF00003FB74FF
:1015B0004FF00003FB603B685B78012B0AD13B686E
:1015C0001B787A6803F104034FEA8303D3189B68FE
:1015D0007B6109E03B681B787A6803F114034FEAEA
:1015E0008303D3185B687B617B691B68FB60FB68C6
:1015F0006FF35553FB603B68DB78032B03D03B68EC
:10160000DB78022B03D1FB6843F08053FB60FA6860
:101610007B691A60FB7C184607F11C07BD4680BC3D
:10162000704700BF80B485B000AF78607B681B69ED
:101630009B69FB607B681B69DB69FA6802EA03034C
:10164000FB60FB684FEA1343184607F11407BD46D9
:1016500080BC704780B485B000AF78600B46FB70EB
:10166000FB787A6803F114034FEA8303D3185B68AD
:101670009B68FB607B681B695B69FA6802EA03038D
:10168000FB60FB68184607F11407BD4680BC704735
:1016900080B485B000AF78607B681B699B69FB6094
:1016A0007B681B69DB69FA6802EA0303FB60FB687D
:1016B0004FEA03434FEA1343184607F11407BD46A8
:1016C00080BC704780B487B000AF78604FF00003F3
:1016D0003B61FB7C43F0C003FB74BB7C4FF0010219
:1016E00062F3C403BB743B7C4FF0180262F3060341
:1016F0003B747B685B6D3A691A617B68DB78012B10
:1017000019D14FF00003FB607B685B6D7A6802F5CE
:10171000B9625A617B685B6D1B68FB60FB6843F0D4
:101720000043FB604FF40043C8F20003FB607B689A
:101730005B6DFA681A6007F11C07BD4680BC7047F4
:1017400080B485B000AF78607B689B7A002B1BD09B
:101750007B681B699B68FB603B7B03F00103DBB28A
:10176000002B11D07B6803F586731B68BB60BB68D8
:101770006FF34103BB60BB686FF30003BB607B6822
:10178000D3F80C31BA681A6007F11407BD4680BC63
:10179000704700BF80B500AF4FF080404FF00101AF
:1017A00007F068FD40F23413C2F200031B6803F136
:1017B000010240F23413C2F200031A6040F23813FF
:1017C000C2F200031B68002B0BD040F23813C2F2A8
:1017D00000031B6803F1FF3240F23813C2F200032A
:1017E0001A6080BD80B500AF40F23C13C2F2000326
:1017F0001B78002B09D100F00BF840F23C13C2F229
:1018000000034FF001021A7000E000BF80BD00BF6E
:1018100080B58AB000AF3B464FF08040194606F0D5
:10182000E7FC3B46184622A3D3E9002306F072FDED
:101830004FF0804006F020FE4FF00003BB844FF0D5
:101840000003FB8340F2E7333B624FF00003BB83AE
:101850004FF0000387F8263007F11C034FF080405B
:10186000194607F045FC4FF080404FF001014FF062
:10187000010207F0D9FC4FF01C033B764FF0010347
:10188000FB764FF00E037B764FF00003BB7607F13B
:101890001803184607F048F84FF080404FF0010158
:1018A00007F0A2FC07F12807BD4680BDAFF300801A
:1018B0000000000080842E4180B500AF0448054937
:1018C000054A41F68863C2F2000300F007F880BDC4
:1018D000000020416F12033B6F12833A80B588B03D
:1018E00004AFF860B9607A603B603B684FF000027B
:1018F0005A603B684FF000021A803B68FA689A60B1
:101900003B68BA68DA603B687A681A613B689B6832
:101910001846204908F0A2F903461F48194608F066
:1019200059FB0346184608F0F1FB03469AB23B68A0
:101930009A823B68DB681846164908F08FF903461F
:101940001648194608F046FB0346184608F0DEFB29
:1019500002463B689A614AF23043C0F600034FF0FA
:10196000010200924FF0000201924FF00002029239
:101970004FF00002039241F6F120C0F60000194634
:101980004FF080024FF0000302F036FA07F1100723
:10199000BD4680BD0000803F000070420000804EC8
:1019A00090B589B000AF0B463A600246FA80BB8022
:1019B000FA88BB88D31A9BB27B823B689B8AB7F9B3
:1019C00012201BB29A4203DD4FF03C03FB831EE062
:1019D000B7F912203B689B8A1BB2C3F100039A42FD
:1019E00003DA4FF6C473FB8311E03B689C68B7F9D8
:1019F0001230184608F0E6F903462046194608F06A
:101A000035FA0346184608F081FB0346FB833B6822
:101A10005A68B7F91230D318FB603B689A69FB68C3
:101A20009A4207DA6FF04043BB613B689A693B68B2
:101A30005A6027E03B689B69C3F10002FB689A4249
:101A40000BDD4FF00103CCF20003BB613B689B69E7
:101A5000C3F100023B685A6014E03B68FA685A60C0
:101A60003B68DC683B685B68184608F0ABF90346E6
:101A70002046194608F0FAF90346184608F046FBD6
:101A80000346BB613B681C693B681B881AB2B7F907
:101A90000430D31A184608F095F903462046194633
:101AA00008F0E4F90346184608F030FB03467B8152
:101AB0003B68BA881A80B7F91E20BB69D218B7F9FB
:101AC0000A30D3187B617B693C2B03DD4FF03C036C
:101AD0007B6105E07B69002B02DA4FF000037B613C
:101AE0007B699BB21BB2184607F12407BD4690BD27
:101AF00080B582B000AF786000E000BF42F2CC4316
:101B0000C2F200031B6818464FF000014FF0FF328D
:101B10004FF0000304F03CFF0346012BEDD141F6EA
:101B2000B463C2F200031B68184600F0FDFA0346D6
:101B30004FF42F70194641F68862C2F20002FFF797
:101B40002FFF0346DBB2184601F090FDD6E700BF39
:101B500080B400AFBD4680BC704700BF80B483B086
:101B600000AF0346FB7107F10C07BD4680BC704710
:101B700080B400AFBD4680BC704700BF80B400AFEA
:101B8000BD4680BC704700BF80B400AFBD4680BC7E
:101B9000704700BF80B582B000AF4FF002004FF039
:101BA000010100F057FE4FF004004FF0010100F07A
:101BB00051FE4FF480633B604FF000037B714FF0A8
:101BC00001033B714FF00003BB714FF00003FB7149
:101BD0003B464FF48060C4F20200194603F04CF912
:101BE0004FF48060C4F202004FF480614FF00002B5
:101BF00003F02CFA07F10807BD4680BD80B485B01C
:101C000000AF78604FF00003FB604FF4E043C4F294
:101C100000031B68FB60FB6823F0E003FB60FA68CD
:101C20007B6842EA0303FB604FF4E043C4F2000325
:101C3000FA681A6007F11407BD4680BC704700BF00
:101C400080B483B000AF0346FB714FF01003C4F2C1
:101C50000E23FA791A6007F10C07BD4680BC704765
:101C600080B582B000AF4AF22453C0F600037B6017
:101C700040F20003C2F200033B600BE07B681A688D
:101C80003B681A603B6803F104033B607B6803F127
:101C900004037B603A6840F22C13C2F200039A42BC
:101CA000ECD3074807494FF000028842B8BF40F81C
:101CB000042BFADB00F09EFC07F10807BD4680BD4F
:101CC00030010020B02E002080B400AFFEE700BF3E
:101CD00080B584B004AF00F021F84AF23443C0F676
:101CE00000034FF0010200924FF0000201924FF00A
:101CF000000202924FF00002039241F60170C0F61A
:101D0000000019464FF080024FF0000302F074F813
:101D10004FF000031846BD4680BD00BF80B588B0B7
:101D200000AF4FF002004FF0010100F093FD4FF4BF
:101D300080404FF0010100F0E9FD4FF42043BB610A
:101D40004FF002037B774FF002033B774FF0000325
:101D5000BB774FF00003FB7707F118034FF4806067
:101D6000C4F20200194603F087F84FF48043BB61C8
:101D70004FF002037B774FF002033B774FF00003F5
:101D8000BB774FF00003FB7707F118034FF4806037
:101D9000C4F20200194603F06FF84FF48053BB61A0
:101DA0004FF001033B774FF00003BB774FF0000388
:101DB000FB774FF002037B7707F118034FF4806045
:101DC000C4F20200194603F057F84FF48060C4F2E1
:101DD00002004FF00D014FF0050203F04FF94FF4F0
:101DE0008060C4F202004FF00F014FF0050203F0D3
:101DF00045F94FF48060C4F202004FF00E014FF03D
:101E0000050203F03BF94FF00003BB804FF48273EF
:101E1000FB804FF000033B814FF000037B814FF0CC
:101E20000103BB814FF40073FB814FF028033B8219
:101E30004FF000037B8207F104034FF46050C4F2BB
:101E40000000194606F0E4FB4FF46050C4F20000B5
:101E50004FF0000106F048FC4FF46050C4F200005F
:101E60004FF0010106F020FC4FF48063C4F202033E
:101E70004FF48062C4F20202128B92B242F480529A
:101E800092B21A8307F12007BD4680BD80B483B0AB
:101E900000AF0346FB7100BF4FF46053C4F2000370
:101EA0001B899BB203F00203002BF5D04FF4605363
:101EB000C4F20003FA7992B29A8100BF4FF46053E2
:101EC000C4F200031B899BB203F00103002BF5D081
:101ED0004FF46053C4F200039B899BB2DBB21846F7
:101EE00007F10C07BD4680BC704700BF80B500AF4E
:101EF0004FF0FF00FFF7CAFF0346184680BD00BF42
:101F000080B58CB000AF786041F6B463C2F20003D4
:101F10004FF0000283F824204FF48063C4F20203E0
:101F20004FF48062C4F20202528B92B242F48052A9
:101F300092B25A834FF00600FFF7A8FF4FF00A0055
:101F400002F056F84FF04000FFF7A0FF4FF00600F8
:101F5000FFF79CFF4FF00A0002F04AF84FF04800EC
:101F6000FFF794FF4FF05600FFF790FF4FF00A0085
:101F700002F03EF84FF04C00FFF788FF4FF0620090
:101F8000FFF784FF4FF00A0002F032F84FF008002C
:101F9000FFF77CFF00BF4FF48060C4F202004FF4F3
:101FA000804103F033F80346012BF4D0FFF79EFF86
:101FB00003461A4641F6B063C2F200031A6041F6C6
:101FC000B063C2F200031B684FEA032241F6B0631C
:101FD000C2F200031A60FFF789FF03461A4641F672
:101FE000B063C2F200031B681A4341F6B063C2F249
:101FF00000031A6041F6B063C2F200031B684FEAA7
:10200000032241F6B063C2F200031A60FFF76EFFCD
:1020100003461A4641F6B063C2F200031B681A4336
:1020200041F6B063C2F200031A6041F6B063C2F237
:1020300000031A684FF6FF73C0F27F039A420ED96D
:1020400041F6B063C2F200031B6803F17F4202F164
:10205000010241F6A463C2F200031A600AE041F6ED
:10206000B063C2F200031B681A4641F6A463C2F2D1
:1020700000031A6041F6A463C2F200031A6841F635
:10208000B463C2F200031A6041F6B463C2F2000303
:102090001B6807F10C0210464AF24441C0F60001E9
:1020A0001A4601F0F5F907F10C034FF000004FF06C
:1020B00000011A4601F0FAFD41F6B463C2F20003D2
:1020C0001B68184600F030F80346FB85B7F92E3040
:1020D000002B0BDBFB8D07F10C0210464AF250413E
:1020E000C0F600011A4601F0D3F90EE0FB8DC3F1F2
:1020F00000039BB29BB207F10C0210464AF25C410E
:10210000C0F600011A4601F0C3F907F10C034FF0C5
:1021100000004FF001011A4601F0C8FD4FF06400C5
:1021200001F066FF32E700BF90B587B000AF78607E
:102130004FF00003FB8242F66253C0F233033B616F
:102140004FF01803C0F25A03FB607A683B69D31A58
:10215000184607F037FE03461846114907F086FE79
:1021600003461C46FA683B69D31A184607F02AFE54
:1021700003462046194607F02DFF03461846094935
:1021800007F06CFD0346184607F0C0FF0346FB82CC
:10219000FB8A1BB2184607F11C07BD4690BD00BF65
:1021A0000000FA440000000080B584B000AFF86081
:1021B0007A603B600B46FB72F86803F001FCF8683C
:1021C00000F01EF8FB683A68C3F8E025FB68BA69BE
:1021D000C3F8E425FB687A68C3F8E825FB7AF86859
:1021E000194606F015FCFB68D3F8E4351B689847E0
:1021F000F86803F065FC07F11007BD4680BD00BF1D
:1022000080B483B000AF78604FF00003184607F148
:102210000C07BD4680BC704780B584B000AF7860C5
:1022200007F108037868194604F008F93B7A03F0CF
:102230001F03012B0AD0022B0FD0002B14D107F162
:1022400008037868194603F0C1FC16E007F108039B
:102250007868194603F00CFD0FE007F10803786871
:10226000194603F03DFD08E03B7A23F07F03DBB223
:102270007868194606F07EFD00BF4FF0000318464F
:1022800007F11007BD4680BD80B584B000AF78600F
:102290000B46FB70FB78002B45D17B6803F55C7324
:1022A000FB607B6893F81131032B4FD1FB68DA692F
:1022B000FB689B689A4221D9FB68DA69FB689B68D6
:1022C000D21AFB68DA617B68DB78012B06D1FB68E8
:1022D000DA68FB689B68D218FB68DA60FB68DA682A
:1022E000FB689968FB68DB69994238BF0B469BB273
:1022F000786811461A4606F0A7FE27E07B68D3F8F7
:10230000E0351B69002B0AD07B6893F81231032B50
:1023100005D17B68D3F8E0351B6978689847786801
:1023200006F0AAFE12E07B68D3F8E0359B69002B2B
:102330000CD07B6893F81231032B07D17B68D3F85C
:10234000E0359B69FA787868114698474FF00003AA
:10235000184607F11007BD4680BD00BF80B584B0A8
:1023600000AF78600B46FB70FB78002B63D17B6875
:1023700003F58C73FB607B6893F81131022B6ED1EF
:10238000FB68DA69FB689B689A421CD9FB68DA69CA
:10239000FB689B68D21AFB68DA617B68DB78012BEB
:1023A00006D1FB68DA68FB689B68D218FB68DA60C4
:1023B000FB68DA68FB68DB699BB2786811461A46ED
:1023C00006F006FE4CE0FB681B6AFA689268B3FBF5
:1023D000F2F102FB01F29B1A002B17D1FB681A6A7B
:1023E000FB689B689A4211D3FB681A6AFB685B6AB8
:1023F0009A420BD278684FF000014FF0000206F0CD
:10240000E7FDFB684FF000025A6229E07B68D3F8D1
:10241000E035DB68002B0AD07B6893F81231032B80
:1024200005D17B68D3F8E035DB6878689847786831
:1024300006F040FE14E07B68D3F8E0355B69002BC2
:102440000ED07B6893F81231032B09D17B68D3F847
:10245000E0355B69FA7878681146984700E000BF7C
:102460004FF00003184607F11007BD4680BD00BFBE
:1024700080B582B000AF786078684FF000014FF00F
:1024800040024FF0000306F059FB78684FF08001DE
:102490004FF040024FF0000306F050FB7B684FF016
:1024A000010283F812217B68D3F8E4355B687A680F
:1024B0009278104698474FF00003184607F1080736
:1024C000BD4680BD80B582B000AF78607B68D3F830
:1024D000E4351B6998477B684FF0030283F81221AB
:1024E0004FF00003184607F10807BD4680BD00BF46
:1024F00080B582B000AF78607B684FF0040283F84B
:1025000012217B68D3F8E435DB6898474FF000036D
:10251000184607F10807BD4680BD00BF80B582B0F0
:1025200000AF78607B68D3F8E035DB69002B05D01D
:102530007B68D3F8E035DB69786898474FF0000393
:10254000184607F10807BD4680BD00BF80B582B0C0
:1025500000AF78600B46FB707B68D3F8E0351B68F2
:10256000FA787868114698477B68D3F8E4359B6819
:1025700098474FF00003184607F10807BD4680BD95
:1025800080B582B000AF78600B46FB707B68D3F8F3
:10259000E0355B68FA787868114698474FF0000399
:1025A000184607F10807BD4680BD00BF80B582B060
:1025B00000AF78607B68D3F8E0351B6A786898478D
:1025C0004FF00003184607F10807BD4680BD00BF65
:1025D00080B582B000AF78607B68D3F8E0355B6A85
:1025E000786898474FF00003184607F10807BD4682
:1025F00080BD00BF80B582B002AF02F075FFFFF76B
:10260000C9FA06F063FE00F077FF4FF014004FF0B8
:10261000040101F01FF9FFF75BFB03F057F8FFF728
:102620004BF940F20003C2F20003009341F6DC6074
:10263000C2F200004FF0010140F26002C2F200025B
:1026400040F20013C2F20003FFF7AEFD01F0FEFC02
:10265000FEE700BF80B400AFFEE700BF80B483B0E8
:1026600000AF78603960FEE780B582B000AF06F059
:102670007DFC03467B607B6807F10807BD4680BD93
:1026800080B489B000AF78604FF00003BB614FF0B9
:1026900000037B614FF00003FB614FF002033B61DD
:1026A0004FF00003FB604FF00203BB604FF4605338
:1026B000C4F202039B6803F00C03BB61BB69042BEB
:1026C0000AD0082B0FD0002B64D17A684FF4105336
:1026D000C0F2F403136064E07A6847F64003C0F286
:1026E0007D1313605DE04FF46053C4F202035B6836
:1026F00003F480034FEA9353FB604FF46053C4F23A
:1027000002035B6803F03F03BB60FB68002B16D03D
:1027100047F64003C0F27D13BA68B3FBF2F24FF400
:102720006053C4F202035B68194647F6C07301EABE
:1027300003034FEA931303FB02F3FB6115E04FF42D
:102740001053C0F2F403BA68B3FBF2F24FF46053D3
:10275000C4F202035B68194647F6C07301EA03033B
:102760004FEA931303FB02F3FB614FF46053C4F28F
:1027700002035B6803F440334FEA134303F10103A0
:102780004FEA43033B61FA693B69B2FBF3F27B68B2
:102790001A6006E07A684FF41053C0F2F403136035
:1027A00000BF4FF46053C4F202039B6803F0F003D0
:1027B000BB61BB694FEA1313BB6140F24C03C2F229
:1027C0000003BA699B181B78DBB27B617B681A68CF
:1027D0007B6922FA03F27B685A604FF46053C4F2BB
:1027E00002039B6803F4E053BB61BB694FEA932388
:1027F000BB6140F24C03C2F20003BA699B181B781C
:10280000DBB27B617B685A687B6922FA03F27B68E2
:102810009A604FF46053C4F202039B6803F4604370
:10282000BB61BB694FEA5333BB6140F24C03C2F258
:102830000003BA699B181B78DBB27B617B685A681E
:102840007B6922FA03F27B68DA6007F12407BD4650
:1028500080BC704780B483B000AF78600B46FB70DB
:10286000FB78002B0ED04FF46053C4F202034FF4F8
:102870006052C4F20202126B11467A6841EA020207
:102880001A630FE04FF46053C4F202034FF4605236
:10289000C4F20202126B11467A686FEA020201EA80
:1028A00002021A6307F10C07BD4680BC704700BFE7
:1028B00080B483B000AF78600B46FB70FB78002BD0
:1028C0000ED04FF46053C4F202034FF46052C4F2CE
:1028D0000202526B11467A6841EA02025A630FE023
:1028E0004FF46053C4F202034FF46052C4F2020288
:1028F000526B11467A686FEA020201EA02025A63D9
:1029000007F10C07BD4680BC704700BF80B483B0A0
:1029100000AF78600B46FB70FB78002B0ED04FF4B5
:102920006053C4F202034FF46052C4F20202126C0C
:1029300011467A6841EA02021A640FE04FF46053CC
:10294000C4F202034FF46052C4F20202126C114648
:102950007A686FEA020201EA02021A6407F10C07C0
:10296000BD4680BC704700BF80B483B000AF7860C4
:102970000B46FB70FB78002B0ED04FF46053C4F273
:1029800002034FF46052C4F20202526C11467A689C
:1029900041EA02025A640FE04FF46053C4F20203AA
:1029A0004FF46052C4F20202526C11467A686FEA28
:1029B000020201EA02025A6407F10C07BD4680BC1C
:1029C000704700BF80B483B000AF78600B46FB70E7
:1029D000FB78002B0ED04FF46053C4F202034FF487
:1029E0006052C4F20202126A11467A6841EA020297
:1029F0001A620FE04FF46053C4F202034FF46052C6
:102A0000C4F20202126A11467A686FEA020201EA0F
:102A100002021A6207F10C07BD4680BC704700BF76
:102A200080B483B000AF78600B46FB70FB78002B5E
:102A30000ED04FF46053C4F202034FF46052C4F25C
:102A40000202526A11467A6841EA02025A620FE0B3
:102A50004FF46053C4F202034FF46052C4F2020216
:102A6000526A11467A686FEA020201EA02025A6269
:102A700007F10C07BD4680BC704700BF80B500AFB2
:102A80004FF480704FF00101FFF7CAFF4FF48070E0
:102A90004FF00001FFF7C4FF80BD00BF80B485B0D8
:102AA00000AF786039604FF00003FB604FF0000327
:102AB000FB727B685B68FB60FB6823F0407323F468
:102AC0008073FB603B681B794FEA03223B681B68FD
:102AD00042EA0303FA6842EA0303FB607B68FA6890
:102AE0005A607B689B68FB60FA684FF2FD73CCF21A
:102AF000FF0302EA0303FB603B681A693B68DB687B
:102B00001A433B689B681A433B685B794FEA43036F
:102B100042EA0303FA6842EA0303FB607B68FA684F
:102B20009A607B68DB6AFB60FB6823F47003FB60E0
:102B30003B681B7D03F1FF33DAB2FB7A42EA030301
:102B4000FB72FB7A4FEA0353FA6842EA0303FB6025
:102B50007B68FA68DA6207F11407BD4680BC7047EB
:102B600080B483B000AF78607B684FF000021A60D9
:102B70007B684FF000021A717B684FF000025A71B7
:102B80007B684FF000029A607B684FF00002DA60C9
:102B90007B684FF000021A617B684FF001021A75E2
:102BA00007F10C07BD4680BC704700BF80B485B0FC
:102BB00000AF78604FF00003FB604FF40C53C4F299
:102BC00001035B68FB60FA6843F2E003CFF6FC7335
:102BD00002EA0303FB607B681A687B685B681A4340
:102BE0007B689B681A437B68DB6842EA0303FA68E8
:102BF00042EA0303FB604FF40C53C4F20103FA688A
:102C00005A6007F11407BD4680BC704780B483B09A
:102C100000AF78607B684FF000021A607B684FF06D
:102C200000025A607B684FF000029A607B684FF0A8
:102C30000002DA6007F10C07BD4680BC704700BF98
:102C400080B483B000AF78600B46FB70FB78002B3C
:102C500006D07B689B6843F001027B689A6005E0C0
:102C60007B689B6823F001027B689A6007F10C0780
:102C7000BD4680BC704700BF80B485B000AF7860AF
:102C8000F970BA707B704FF00003FB604FF00003E7
:102C9000BB60FB78092B29D97B68DB68FB60FA787D
:102CA00013464FEA43039B18A3F11E034FF007029C
:102CB00002FA03F3BB60BB686FEA0303FA6802EA37
:102CC0000303FB607978FA7813464FEA43039B18B5
:102CD000A3F11E0301FA03F3BB60FA68BB6842EA82
:102CE0000303FB607B68FA68DA6024E07B681B6999
:102CF000FB60FA7813464FEA43039B184FF0070234
:102D000002FA03F3BB60BB686FEA0303FA6802EAE6
:102D10000303FB607978FA7813464FEA43039B1864
:102D200001FA03F3BB60FA68BB6842EA0303FB6085
:102D30007B68FA681A61BB78062B29D87B685B6BC5
:102D4000FB60BB7803F1FF3213464FEA83039B1805
:102D50004FF01F0202FA03F3BB60BB686FEA030384
:102D6000FA6802EA0303FB60F978BB7803F1FF32EB
:102D700013464FEA83039B1801FA03F3BB60FA681A
:102D8000BB6842EA0303FB607B68FA685A6355E05C
:102D9000BB780C2B29D87B681B6BFB60BA78134679
:102DA0004FEA83039B18A3F123034FF01F0202FA9B
:102DB00003F3BB60BB686FEA0303FA6802EA03032C
:102DC000FB60F978BA7813464FEA83039B18A3F1A6
:102DD000230301FA03F3BB60FA68BB6842EA03030A
:102DE000FB607B68FA681A6328E07B68DB6AFB603B
:102DF000BA7813464FEA83039B18A3F141034FF0BF
:102E00001F0202FA03F3BB60BB686FEA0303FA68B0
:102E100002EA0303FB60F978BA7813464FEA8303AA
:102E20009B18A3F1410301FA03F3BB60FA68BB6886
:102E300042EA0303FB607B68FA68DA6207F1140771
:102E4000BD4680BC704700BF80B485B000AF7860DD
:102E50000B46FB704FF00003FB737B681B681A4640
:102E6000FB7802EA0303002B03D04FF00103FB734E
:102E700002E04FF00003FB73FB7B184607F11407D9
:102E8000BD4680BC704700BF80B483B000AF78609F
:102E90000B46FB707B68FA781A704FF001031846F6
:102EA00007F10C07BD4680BC704700BF80B485B0F9
:102EB00000AF786039604FF00003FB600FE03B68C3
:102EC0001A787B681A707B6803F101037B603B68AA
:102ED00003F101033B60FB6803F10103FB603B6806
:102EE0001B78002BEBD1FB68184607F11407BD4691
:102EF00080BC704780B586B000AFF8607A603B60F8
:102F00000B46FB724FF000037B617B6803F1FF33DC
:102F10007B603B68092B25D93A684CF6CD43CCF64B
:102F2000CC43A3FB02134FEAD303FA7AF8681146A5
:102F30007A68FFF7DFFF78617B69FA68D318FB6076
:102F400013E0FB7AF8681946FFF79EFFFB6803F170
:102F50000103FB607B6903F101037B617B6803F183
:102F6000FF337B607B68002BEBDC39684CF6CD438C
:102F7000CCF6CC43A3FB01234FEAD30213464FEA1E
:102F800083039B184FEA4303CA1AD3B203F13003F9
:102F9000DBB2F8681946FFF777FF03467A69D31862
:102FA0007B617B69184607F11807BD4680BD00BFED
:102FB00080B586B000AFF8607A603B600B46FB726C
:102FC0004FF000037B613B68002B04DA3B68C3F1E0
:102FD00000033B6101E03B683B617B6803F1FF3329
:102FE0007B603B69092B2AD93B68002B12DA3A69CE
:102FF0004CF6CD43CCF6CC43A3FB02134FEAD303EC
:10300000C3F10003FA7AF86811467A68FFF7D0FF37
:1030100078610FE03A694CF6CD43CCF6CC43A3FB84
:1030200002134FEAD303FA7AF86811467A68FFF779
:10303000BFFF78617B69FA68D318FB602BE03B68BF
:10304000002B15DA7B6803F1FF337B6010E0FB7A1D
:10305000F8681946FFF718FFFB6803F10103FB60EE
:103060007B6903F101037B617B6803F1FF337B60C4
:103070007B68002BEBDC3B68002B0CDAF8684FF028
:103080002D01FFF701FF03467A69D3187B61FB68C6
:1030900003F10103FB6039694CF6CD43CCF6CC4318
:1030A000A3FB01234FEAD30213464FEA83039B1885
:1030B0004FEA4303CA1AD3B203F13003DBB2F86814
:1030C0001946FFF7E1FE03467A69D3187B617B69F5
:1030D000184607F11807BD4680BD00BF80B588B00F
:1030E00002AFF8607A600A46FA72FB704FF0000394
:1030F0007B617B6803F1FF337B603B6A4FEA13130C
:10310000002B24D03B6A4FEA1311FA7AFB78009126
:10311000F86811467A68FFF7E1FF03467A69D31829
:103120007B617B69FA68D318FB6013E0FB7AF8686F
:103130001946FFF7A9FEFB6803F10103FB607B69F9
:1031400003F101037B617B6803F1FF337B607B68E4
:10315000002BEBDC3B6A03F00F03092B0CD83B6A16
:10316000DBB203F00F03DBB203F13003DBB2F8682C
:103170001946FFF789FE1BE0FB78002B0CD03B6A59
:10318000DBB203F00F03DBB203F13703DBB2F86805
:103190001946FFF779FE0BE03B6ADBB203F00F0341
:1031A000DBB203F15703DBB2F8681946FFF76CFE98
:1031B0007B6903F101037B617B69184607F11807FE
:1031C000BD4680BD80B58AB002AFF860B9607A6054
:1031D0003B604FF00003BB614FF000037B61FB6875
:1031E000002B00F01C81FB684FF000021A7017E101
:1031F0007B681B78252B10D07B681A78FB681A70C7
:10320000FB6803F10103FB607B6803F101037B6052
:103210007B6903F101037B6102E17B6803F1010338
:103220001B78252B10D1FB684FF025021A70FB6824
:1032300003F10103FB607B6803F102037B607B69A0
:1032400003F101037B61EBE04FF02003FB774FF0CC
:103250000003BB777B6803F101037B607B681B780D
:10326000302B1BD14FF03003FB777B6803F1010358
:103270007B6014E0BB7F1A464FEA8202D3184FEA04
:103280004303DAB27B681B78D318DBB2A3F13003B7
:10329000BB777B6803F101037B6000E000BF7B68C4
:1032A0001B782F2B03D97B681B78392BE2D9BA7F87
:1032B0007B69D3181A46BB689A4205D9BB68DAB253
:1032C0007B69DBB2D31ABB777B681B78A3F1580309
:1032D000202B00F2948001A252F823F0B1330008B1
:1032E000FF330008FF330008FF330008FF330008F6
:1032F000FF330008FF330008FF330008FF330008E6
:10330000FF330008FF330008E7330008613300088B
:10331000FF330008FF330008FF330008FF330008C5
:1033200061330008FF330008FF330008FF33000853
:10333000FF330008FF330008FF330008FF330008A5
:10334000FF330008FF330008D1330008FF330008C3
:1033500079330008FF330008FF3300089133000879
:10336000BA7F3B6803F1040139601B68F97FF86894
:10337000FFF71EFEB86145E0BA7F3B6803F1040128
:1033800039601B68F97FF868FFF7B4FDB86139E070
:10339000BA7F3B6803F1040139601968FB7F009133
:1033A000F86819464FF00003FFF798FEB86129E06E
:1033B000BA7F3B6803F1040139601968FB7F009113
:1033C000F86819464FF00103FFF788FEB86119E06D
:1033D0003B6803F104023A601B68F8681946FFF77E
:1033E00065FDB8610EE03B6803F104023A601B68BA
:1033F000DBB2F8681946FFF747FDB86102E04FF00D
:10340000FF332CE07B6803F101037B60BB69FA6842
:10341000D318FB607A69BB69D3187B6100E000BFF9
:103420007B681B78002B04D07A69BB689A42FFF452
:10343000DFAE7A69BB689A4204D2FB684FF00002A3
:103440001A700BE0FB6803F1FF33FB60FB684FF081
:1034500000021A707B6903F1FF337B617B691846B8
:1034600007F12007BD4680BD80B584B000AFF8608D
:10347000B9607A60F8684FF06401BA687B68FFF75A
:10348000A1FE0346184607F11007BD4680BD00BFE8
:103490000EB480B585B000AF786007F12003BB6043
:1034A0007868F969BA68FFF7DFFFF860FB681846CB
:1034B00007F11407BD46BDE8804003B0704700BF68
:1034C00080B483B000AF0346FB714FF46143CEF28A
:1034D000000397F907204FEA5212F97901F01F0112
:1034E0004FF0010000FA01F143F8221007F10C0738
:1034F000BD4680BC704700BF80B586B000AF4FF0BE
:1035000002004FF00101FFF7A5F94FF480404FF0A2
:103510000101FFF729FA4FF003033B614FF000036D
:103520003B754FF00103FB7507F110034FF480600A
:10353000C4F20200194601F09FFC4FF004033B6106
:103540004FF001033B754FF00203FB7507F11003C9
:103550004FF48060C4F20200194601F08DFC4FF078
:1035600001004FF00001FCF70FFE4FF00103BB60BC
:103570004FF000033B734FF008037B734FF00103E0
:10358000BB7307F10803184605F0CEF84FF00100B1
:103590004FF00101FCF7F8FD4FF00203BB604FF064
:1035A00000033B734FF008037B734FF00103BB73C1
:1035B00007F10803184605F0B7F84FF4407005F01E
:1035C0009FF94FF006033B714FF00E037B714FF0F4
:1035D0000103BB714FF00103FB7107F104031846AF
:1035E00005F0A2F94FF007033B714FF00E037B711A
:1035F0004FF00103BB714FF00103FB7107F10403AE
:10360000184605F091F94FF00600FFF759FF4FF00B
:103610000700FFF755FF4FF001004FF000014FF09A
:10362000030203F05BF8024642F2CC43C2F200030D
:103630001A6042F2CC43C2F200031B68002B0DD08B
:1036400042F2CC43C2F200031B6818464FF000015F
:103650004FF000024FF0000303F088F84FF0050030
:1036600000F004F807F11807BD4680BD80B483B0B0
:1036700000AF0346FB71FB793C2B11D84FF470531C
:10368000C4F201034FF47052C4F20102126822F036
:1036900001021A6042F2D043C2F20003FA791A71B1
:1036A0004FF47053C4F201034FF47052C4F201029C
:1036B000126842F001021A6007F10C07BD4680BC97
:1036C000704700BF80B500AF40F24413C2F2000360
:1036D0004FF000021A604FF0010005F0D1F80346E8
:1036E000002B77D04FF0010005F0FAF842F2D043FA
:1036F000C2F200031B8803F101039AB242F2D043E5
:10370000C2F200031A8042F2D043C2F200031A79D7
:1037100040F24013C2F200031B78DBB29A420ED98A
:103720004FF48063C4F202034FF48062C4F20202D9
:10373000128B92B242F0040292B21A833CE04FF430
:103740008063C4F202034FF48062C4F20202528B1F
:1037500092B242F0040292B25A8340F24013C2F293
:1037600000031B78DBB23B2B26D940F24013C2F298
:1037700000034FF000021A7042F2CC43C2F2000381
:103780001B6818464FF0000140F24412C2F20002DA
:103790004FF0000303F096F840F24413C2F2000326
:1037A0001B68002B08D040F24413C2F200031B68D0
:1037B000002B01D003F046FB40F24013C2F200039D
:1037C0001B78DBB203F10103DAB240F24013C2F21C
:1037D00000031A7080BD00BF80B500AF4FF002003B
:1037E00005F04EF80346002B10D04FF0020005F014
:1037F00077F842F2D043C2F200035B8803F1010381
:103800009AB242F2D043C2F200035A8080BD00BF98
:1038100080B485B000AF78604FF080435B6AFB6096
:1038200000BF00E000BF4FF080435B6A1A46FB68B0
:103830009A42F8D04FF080435B6AFB607B6803F1EB
:10384000FF337B607B68002BECD107F11407BD468A
:1038500080BC704780B582B000AF02460B46FA715B
:10386000BB71FDF7BFFF00F085F84AF6C870FFF79F
:10387000CFFF42F2D843C2F20003BA79DA7042F2C3
:10388000D843C2F20003FA791A7142F2D843C2F265
:1038900000034FF000025A7142F2D843C2F2000313
:1038A0004FF000029A7142F2D843C2F200034FF087
:1038B00000025A70BB79012B0CD942F2D843C2F2F4
:1038C00000035B7843F00803DAB242F2D843C2F255
:1038D00000035A704FF0030000F048F941F29410D1
:1038E000FFF796FF4FF0030000F040F941F294100B
:1038F000FFF78EFF4FF0030000F038F941F294100B
:10390000FFF786FF4FF0020000F030F94FF064003F
:10391000FFF77EFF42F2D843C2F200035B7843F028
:103920002003DBB2184600F0DDF842F2D843C2F2C1
:1039300000034FF004021A7000F042FA00F0C6F8DB
:1039400042F2D843C2F200034FF002029A7042F2F0
:10395000D843C2F200039B7843F00403DBB218465D
:1039600000F0C0F841F29410FFF752FF07F108078A
:10397000BD4680BD80B582B000AF4FF00C004FF067
:103980000101FEF767FF4FF001033B714FF00003A9
:10399000BB714FF00103FB714FF000037B714FF0DF
:1039A00001033B603B464FF40060C4F2020019463D
:1039B00001F062FA4FF40060C4F202004FF001011E
:1039C0004FF0000201F042FB4FF002033B603B4628
:1039D0004FF40060C4F20200194601F04DFA4FF4B2
:1039E0000060C4F202004FF002014FF0000201F04B
:1039F0002DFB4FF040033B603B464FF40060C4F2A8
:103A00000200194601F038FA4FF40060C4F20200D7
:103A10004FF040014FF0000201F018FB4FF080031F
:103A20003B603B464FF40060C4F20200194601F0CF
:103A300023FA4FF40060C4F202004FF080014FF00F
:103A4000000201F003FB4FF480733B603B464FF4F0
:103A50000060C4F20200194601F00EFA4FF4006053
:103A6000C4F202004FF480714FF0000201F0EEFA50
:103A70004FF400733B603B464FF40060C4F2020019
:103A8000194601F0F9F94FF40060C4F202004FF456
:103A900000714FF0000201F0D9FA4FF004033B60CF
:103AA0003B464FF44060C4F20200194601F0E4F9CD
:103AB0004FF44060C4F202004FF004014FF00102E5
:103AC00001F0C4FA07F10807BD4680BD80B500AF1C
:103AD0004FF0010000F006F840F6B830FFF798FE0E
:103AE00080BD00BF80B582B000AF0346FB714FF4CC
:103AF0000060C4F202004FF001014FF0000201F03B
:103B0000A5FAFB794FEA1313DBB2184600F02EF842
:103B1000FB7903F00F03DBB2184600F027F807F13A
:103B20000807BD4680BD00BF80B582B000AF034628
:103B3000FB714FF40060C4F202004FF001014FF03E
:103B4000010201F083FAFB794FEA1313DBB2184646
:103B500000F00CF8FB7903F00F03DBB2184600F01D
:103B600005F807F10807BD4680BD00BF80B582B0EB
:103B700000AF0346FB71FB7903F00803002B0CBF79
:103B800000230123DBB24FF40060C4F202004FF4C3
:103B900000711A4601F05AFAFB7903F00403002B76
:103BA0000CBF00230123DBB24FF40060C4F202001B
:103BB0004FF480711A4601F049FAFB7903F00203D1
:103BC000002B0CBF00230123DBB24FF40060C4F2D2
:103BD00002004FF080011A4601F038FAFB7903F039
:103BE0000103DBB24FF40060C4F202004FF0400169
:103BF0001A4601F02BFA4FF40060C4F202004FF0B5
:103C000002014FF0010201F021FA4FF01400FFF71A
:103C1000FFFD4FF40060C4F202004FF002014FF0CC
:103C2000000201F013FA4FF01400FFF7F1FD07F165
:103C30000807BD4680BD00BF80B584B000AF024616
:103C40000B46FA71BB714AF26843C0F600031B6869
:103C5000FB6042F2D843C2F20003DB78BA799A42A1
:103C600002D34FF00003BB7142F2D843C2F200030B
:103C7000FA795A7142F2D843C2F20003BA799A71C2
:103C8000BB7907F11002D31813F8042CFB79D31871
:103C9000DBB2DBB263F07F03DBB2DBB21846FFF7C7
:103CA00021FF07F11007BD4680BD00BF80B582B07F
:103CB00000AF0B463A600246FA71BB71FA79BB79E4
:103CC00010461946FFF7B8FF72E042F2D843C2F23D
:103CD00000035A7942F2D843C2F200031B799A4298
:103CE00021D342F2D843C2F200034FF000025A71CE
:103CF00042F2D843C2F200039B7903F10103DAB226
:103D000042F2D843C2F200039A7142F2D843C2F29F
:103D100000035A7942F2D843C2F200039B7910465D
:103D20001946FFF789FF3B681B780A2B1BD142F22B
:103D3000D843C2F200039B7903F10103DAB242F2E5
:103D4000D843C2F200039A7142F2D843C2F2000390
:103D50005A7942F2D843C2F200039B7910461946C1
:103D6000FFF76AFF20E03B681B780D2B0AD142F277
:103D7000D843C2F200039B794FF000001946FFF7C9
:103D80005BFF11E03B681B781846FFF7CDFE42F25F
:103D9000D843C2F200035B7903F10103DAB242F2C5
:103DA000D843C2F200035A713B6803F101033B6040
:103DB0003B681B78002B88D107F10807BD4680BD02
:103DC00080B500AF42F2D843C2F200031B7843F043
:103DD0000403DAB242F2D843C2F200031A7042F28C
:103DE000D843C2F200031B7843F00803DBB2184645
:103DF000FFF778FE80BD00BF80B58AB002AFF860E3
:103E0000B9603B601346FB80FB68002B04D14FF088
:103E1000500080F31188FEE7BB6A042B04D94FF0F1
:103E2000500080F31188FEE7FB881846396B00F0DC
:103E300023FEB861BB69002B00F0BB80BB691A6B25
:103E4000FB8803F1FF334FEA8303D3187B617B695F
:103E500023F007037B617B6903F00703002B04D089
:103E60004FF0500080F31188FEE7FB880093B8699B
:103E7000B968BA6A7B6B00F0DDFC7869F9683A686A
:103E800002F06CFF03461A46BB691A60BB691B68E7
:103E900003F00703002B04D04FF0500080F311888B
:103EA000FEE7FB6A002B02D0FB6ABA691A6002F0D7
:103EB000D5FF40F22023C2F200031B6803F1010288
:103EC00040F22023C2F200031A6040F24813C2F20B
:103ED00000031B68002B0FD140F24813C2F200030D
:103EE000BA691A6040F22023C2F200031B68012B5A
:103EF00018D100F0DDFC15E040F23023C2F20003DF
:103F00001B68002B0ED140F24813C2F200031B685D
:103F1000DA6ABB6A9A4205D840F24813C2F200033B
:103F2000BA691A60BB69DA6A40F22823C2F2000358
:103F30001B689A4206D9BB69DA6A40F22823C2F2AA
:103F400000031A6040F24423C2F200031B6803F12D
:103F5000010240F24423C2F200031A60BB69DA6A2C
:103F600040F22C23C2F200031B689A4206D9BB69B7
:103F7000DA6A40F22C23C2F200031A60BB69DA6AE3
:103F800013464FEA83039B184FEA83031A4640F215
:103F90004C13C2F20003D218BB6903F104031046AC
:103FA000194601F011FA4FF00103FB6102F06CFFBA
:103FB00002E04FF0FF33FB61FB69012B11D140F2AE
:103FC0003023C2F200031B68002B0AD040F24813D2
:103FD000C2F200031B68DA6ABB6A9A4201D202F09D
:103FE00031FFFB69184607F12007BD4680BD00BFC1
:103FF00080B584B000AF78604FF00003FB607B6851
:10400000002B19D000F064F840F22423C2F2000320
:104010001A687B68D318BB6040F24813C2F20003F1
:104020001B6803F10403184601F034FAB86800F085
:10403000DDFC00F05FF8F860FB68002B01D102F0B6
:1040400001FF07F11007BD4680BD00BF80B586B0F7
:1040500004AF4AF26C43C0F600034FF00002009236
:104060004FF0000201924FF0000202924FF0000266
:10407000039244F61100C0F6000019464FF04602C4
:104080004FF00003FFF7B8FE78607B68012B13D177
:104090004FF0500080F3118840F23023C2F2000349
:1040A0004FF001021A6040F22423C2F200034FF0E5
:1040B00000021A6002F09CFE7B68002B04D14FF0D6
:1040C000500080F31188FEE707F10807BD4680BD68
:1040D00080B400AF40F23423C2F200031B6803F146
:1040E000010240F23423C2F200031A60BD4680BCD4
:1040F000704700BF90B583B000AF4FF000037B6006
:1041000040F23423C2F200031B68002B04D14FF0AD
:10411000500080F31188FEE702F0A0FE40F2342345
:10412000C2F200031B6803F1FF3240F23423C2F2F3
:1041300000031A6040F23423C2F200031B68002B14
:1041400040F0868040F22023C2F200031B68002B5F
:104150007ED04FF000033B603DE040F2E013C2F23E
:104160000003DB68DB681C4604F11803184601F005
:1041700091F904F10403184601F08CF9E26A40F267
:104180002C23C2F200031B689A4205D9E26A40F26E
:104190002C23C2F200031A60E26A13464FEA83033B
:1041A0009B184FEA83031A4640F24C13C2F20003F5
:1041B000D21804F104031046194601F005F9E26A29
:1041C00040F24813C2F200031B68DB6A9A4202D332
:1041D0004FF001033B6040F2E013C2F200031B68A2
:1041E000002BBAD140F23823C2F200031B68002B27
:1041F00018D00DE000F034F840F23823C2F200038A
:104200001B6803F1FF3240F23823C2F200031A6048
:1042100040F23823C2F200031B68002BEAD14FF0B2
:1042200001033B603B68012B06D040F23C23C2F205
:1042300000031B68012B0BD14FF001037B6040F2A0
:104240003C23C2F200034FF000021A6002F0FAFDB4
:1042500002F01AFE7B68184607F10C07BD4690BDB8
:1042600080B584B000AF40F23423C2F200031B6873
:10427000002B40F0CD8040F22423C2F200031B68E3
:1042800003F1010240F22423C2F200031A6040F25B
:104290002423C2F200031B68002B4DD140F2D81337
:1042A000C2F200031B681B68002B04D04FF05000C3
:1042B00080F31188FEE740F2D813C2F200031B68B6
:1042C000FB6040F2DC13C2F200031A6840F2D8131C
:1042D000C2F200031A6040F2DC13C2F20003FA6873
:1042E0001A6040F24023C2F200031B6803F101028E
:1042F00040F24023C2F200031A6040F2D813C2F227
:1043000000031B681B68002B07D140F25C03C2F25C
:1043100000034FF0FF321A600EE040F2D813C2F2F1
:1043200000031B68DB68DB68BB60BB685A6840F24F
:104330005C03C2F200031A6040F22423C2F20003BD
:104340001A6840F25C03C2F200031B689A426BD306
:1043500040F2D813C2F200031B681B68002B07D180
:1043600040F25C03C2F200034FF0FF321A605BE0E0
:1043700040F2D813C2F200031B68DB68DB68BB6045
:10438000BB685B687B6040F22423C2F200031A68BA
:104390007B689A4206D240F25C03C2F200037A685C
:1043A0001A6041E0BB6803F10403184601F072F89B
:1043B000BB689B6A002B05D0BB6803F11803184645
:1043C00001F068F8BB68DA6A40F22C23C2F20003FD
:1043D0001B689A4206D9BB68DA6A40F22C23C2F203
:1043E00000031A60BB68DA6A13464FEA83039B181E
:1043F0004FEA83031A4640F24C13C2F20003D2186C
:10440000BB6803F104031046194600F0DDFF9FE787
:1044100040F23823C2F200031B6803F1010240F2AC
:104420003823C2F200031A6007F11007BD4680BDB1
:1044300080B582B000AF40F23423C2F200031B68A3
:10444000002B07D040F23C23C2F200034FF00102E0
:104450001A609CE040F24813C2F200031B681A681D
:1044600040F24813C2F200031B681B6B9A420FD83C
:1044700040F24813C2F200031A6840F24813C2F235
:1044800000031B6803F1340310461946FEF7E6F8F3
:1044900040F24813C2F200031B681B6B18464AF235
:1044A0007441C0F600014FF0140205F055FE0346BA
:1044B000002B29D040F24813C2F200031A6840F2E0
:1044C0004813C2F200031B6803F134031046194677
:1044D000FEF7C4F819E040F22C23C2F200031B6877
:1044E000002B04D14FF0500080F31188FEE740F21A
:1044F0002C23C2F200031B6803F1FF3240F22C238D
:10450000C2F200031A6000E000BF40F22C23C2F2A6
:1045100000031A6813464FEA83039B184FEA83038C
:104520001A4640F24C13C2F20003D3181B68002B4A
:10453000D1D040F22C23C2F200031A6813464FEA8E
:1045400083039B184FEA83031A4640F24C13C2F2CE
:104550000003D3187B607B685B685B681A467B68E6
:104560005A607B685A687B6803F108039A4205D158
:104570007B685B685B681A467B685A607B685B682F
:10458000DB681A4640F24813C2F200031A6007F1D2
:104590000807BD4680BD00BF80B584B000AF78601D
:1045A00039607B68002B04D14FF0500080F31188F4
:1045B000FEE740F24813C2F200031B6803F1180340
:1045C0007868194600F02AFF40F24813C2F200034F
:1045D0001B6803F10403184600F05CFF3B68B3F16D
:1045E000FF3F0ED140F24813C2F200031B6803F1F3
:1045F000040340F20C20C2F20000194600F0E4FE71
:104600000AE040F22423C2F200031A683B68D31880
:10461000FB60F86800F0EAF907F11007BD4680BDBD
:1046200080B584B000AF78607B68DB68DB68BB6016
:10463000BB68002B04D14FF0500080F31188FEE7D7
:10464000BB6803F11803184600F024FF40F234233E
:10465000C2F200031B68002B2BD1BB6803F10403DB
:10466000184600F017FFBB68DA6A40F22C23C2F24A
:1046700000031B689A4206D9BB68DA6A40F22C2311
:10468000C2F200031A60BB68DA6A13464FEA83037A
:104690009B184FEA83031A4640F24C13C2F2000300
:1046A000D218BB6803F104031046194600F08CFED3
:1046B00009E0BB6803F1180340F2E010C2F2000009
:1046C000194600F081FEBB68DA6A40F24813C2F274
:1046D00000031B68DB6A9A4203D34FF00103FB60BF
:1046E00002E04FF00003FB60FB68184607F110077B
:1046F000BD4680BD80B483B000AF78607B68002B7E
:1047000004D14FF0500080F31188FEE740F24023BF
:10471000C2F200031A687B681A6040F22423C2F2D6
:1047200000031A687B685A6007F10C07BD4680BC1D
:10473000704700BF80B584B000AF786039607B6897
:10474000002B04D14FF0500080F31188FEE73B6846
:10475000002B04D14FF0500080F31188FEE702F0E7
:104760007DFB3B681B68B3F1FF3F03D14FF00003B3
:10477000FB6038E07B681A6840F24023C2F2000315
:104780001B689A420CD07B685A6840F22423C2F21C
:1047900000031B689A4203D84FF00103FB6022E03C
:1047A00040F22423C2F200031A687B685B68D21AC5
:1047B0003B681B689A4213D23B681A687B68596849
:1047C00040F22423C2F200031B68CB1AD2183B68C4
:1047D0001A607868FFF78EFF4FF00003FB6002E07D
:1047E0004FF00103FB6002F04FFBFB68184607F136
:1047F0001007BD4680BD00BF80B400AF40F23C232F
:10480000C2F200034FF001021A60BD4680BC70473F
:1048100080B582B000AF786000F09CF840F24C1395
:10482000C2F200031B68012B01D902F00BFBFDF75C
:104830001BFFF1E780B584B000AFF860B9607A6023
:104840003B60FB6803F134031A46BB681046194607
:104850004FF00A0205F0AEFDFB684FF0000283F84E
:104860003D207B68042B02D94FF004037B60FB687A
:104870007A68DA62FB687A681A64FB6803F10403F9
:10488000184600F093FDFB6803F11803184600F08A
:104890008DFDFB68FA681A617B68C3F10502FB684D
:1048A0009A61FB68FA685A6207F11007BD4680BD3D
:1048B00080B582B000AF4FF000037B6013E07A68F0
:1048C00013464FEA83039B184FEA83031A4640F2CC
:1048D0004C13C2F20003D318184600F043FD7B6866
:1048E00003F101037B607B68042BE8D940F2B01030
:1048F000C2F2000000F036FD40F2C410C2F2000027
:1049000000F030FD40F2E010C2F2000000F02AFD9D
:1049100040F2F410C2F2000000F024FD40F20C203E
:10492000C2F2000000F01EFD40F2D813C2F20003F4
:1049300040F2B012C2F200021A6040F2DC13C2F27E
:10494000000340F2C412C2F200021A6007F1080725
:10495000BD4680BD80B582B000AF40F20823C2F2F0
:1049600000031B68002B3CD0FFF7B2FB40F2F413AE
:10497000C2F200031B68002B14BF002301237B60DD
:10498000FFF7B8FB7B68002B2BD102F067FA40F2EF
:10499000F413C2F20003DB68DB683B603B6803F1A1
:1049A0000403184600F076FD40F22023C2F2000313
:1049B0001B6803F1FF3240F22023C2F200031A60A9
:1049C00040F20823C2F200031B6803F1FF3240F2F9
:1049D0000823C2F200031A6002F056FA386800F0A9
:1049E00085F807F10807BD4680BD00BF80B582B0DD
:1049F00000AF786040F24813C2F200031B687A6887
:104A00005A6040F22423C2F200031B687A689A427B
:104A100010D240F2DC13C2F200031A6840F24813CD
:104A2000C2F200031B6803F104031046194600F0AC
:104A3000F5FC1DE040F2D813C2F200031A6840F200
:104A40004813C2F200031B6803F104031046194621
:104A500000F0E4FC40F25C03C2F200031B687A68D9
:104A60009A4205D240F25C03C2F200037A681A60EF
:104A700007F10807BD4680BD80B584B000AF03468E
:104A80003960FB804FF0440004F014FA0346FB60E9
:104A9000FB68002B23D03B68002B07D1FB884FEA33
:104AA0008303184604F006FA034600E03B68FA6800
:104AB0001363FB681B6B002B06D1F86804F04CFAFB
:104AC0004FF00003FB600AE0FB681A6BFB884FEABB
:104AD000830310464FF0A5011A4605F011FCFB6850
:104AE000184607F11007BD4680BD00BF80B582B0F3
:104AF00000AF78607B681B6B184604F02DFA78686D
:104B000004F02AFA07F10807BD4680BD80B483B0DF
:104B100000AF40F24813C2F200031B687B607B6861
:104B2000184607F10C07BD4680BC704780B584B0BD
:104B300000AF78607B68FB607B68002B04D14FF08E
:104B4000500080F31188FEE7FB68DA6A40F24813F0
:104B5000C2F200031B68DB6A9A4257D240F2481344
:104B6000C2F200031B68DB6AC3F10502FB689A61AD
:104B7000FB685969FB68DA6A13464FEA83039B189E
:104B80004FEA83031A4640F24C13C2F20003D318D3
:104B9000994233D1FB6803F10403184600F07AFC14
:104BA00040F24813C2F200031B68DA6AFB68DA625B
:104BB000FB68DA6A40F22C23C2F200031B689A42B7
:104BC00006D9FB68DA6A40F22C23C2F200031A60AD
:104BD000FB68DA6A13464FEA83039B184FEA8303A4
:104BE0001A4640F24C13C2F20003D218FB6803F1DC
:104BF00004031046194600F0E7FB07E040F24813B3
:104C0000C2F200031B68DA6AFB68DA6207F1100778
:104C1000BD4680BD80B584B000AF78607B68FB6026
:104C20007B68002B3AD0FB68DA6AFB681B6C9A42FF
:104C300034D0FB6803F10403184600F02BFCFB683A
:104C40001A6CFB68DA62FB68DB6AC3F10502FB6879
:104C50009A61FB68DA6A40F22C23C2F200031B68F7
:104C60009A4206D9FB68DA6A40F22C23C2F20003AA
:104C70001A60FB68DA6A13464FEA83039B184FEA0F
:104C800083031A4640F24C13C2F20003D218FB68A9
:104C900003F104031046194600F096FB07F11007D4
:104CA000BD4680BD80B483B000AF03463960FB7160
:104CB0003B684FF012021A8040F27C03C2F20003FC
:104CC000184607F10C07BD4680BC704780B483B01E
:104CD00000AF03463960FB713B684FF004021A8055
:104CE00040F29C03C2F20003184607F10C07BD46D0
:104CF00080BC704780B582B000AF03463960FB715D
:104D0000FB79002B0BD14AF28840C0F6000042F23A
:104D1000F051C2F200013A6801F016FC0AE04AF2D2
:104D2000AC40C0F6000042F2F051C2F200013A6815
:104D300001F00AFC42F2F053C2F20003184607F1F8
:104D40000807BD4680BD00BF80B582B000AF0346F6
:104D50003960FB714AF2D040C0F6000042F2F051D7
:104D6000C2F200013A6801F0EFFB42F2F053C2F2E6
:104D70000003184607F10807BD4680BD80B582B024
:104D800000AF03463960FB71FB79002B0BD14AF26F
:104D9000E440C0F6000042F2F051C2F200013A686D
:104DA00001F0D2FB0AE04AF2F440C0F6000042F201
:104DB000F051C2F200013A6801F0C6FB42F2F05332
:104DC000C2F20003184607F10807BD4680BD00BFC8
:104DD00080B582B000AF03463960FB71FB79002BD0
:104DE0000BD14AF20450C0F6000042F2F051C2F278
:104DF00000013A6801F0A8FB0AE04AF20450C0F64C
:104E0000000042F2F051C2F200013A6801F09CFB4E
:104E100042F2F053C2F20003184607F10807BD46FC
:104E200080BD00BF80B582B000AF03463960FB7122
:104E3000FB79002B0BD14AF21050C0F6000042F271
:104E4000F051C2F200013A6801F07EFB0AE04AF23A
:104E50001050C0F6000042F2F051C2F200013A6870
:104E600001F072FB42F2F053C2F20003184607F160
:104E70000807BD4680BD00BF80B487B000AF786032
:104E800039604FF000037B614FF000033B614FF04E
:104E90000003FB604FF000037B618FE07B694FF004
:104EA000010202FA03F33B613B681A683B6902EABC
:104EB0000303FB60FA683B699A427BD17B681B68FD
:104EC0001A467B694FEA43034FF0030101FA03F3EB
:104ED0006FEA03031A407B681A607B681B681A46F6
:104EE0003B681B7919467B694FEA430301FA03F3D8
:104EF0001A437B681A603B681B79012B03D03B681F
:104F00001B79022B38D17B689B681A467B694FEA74
:104F100043034FF0030101FA03F36FEA03031A405E
:104F20007B689A607B689B681A463B685B79194688
:104F30007B694FEA430301FA03F31A437B689A60E3
:104F40007B685B681A467B699BB24FF0010101FAEE
:104F500003F36FEA03031A407B685A607B685B685F
:104F60001A463B689B7919467B699BB201FA03F3A9
:104F70009BB21A437B685A607B68DB681A467B6980
:104F80009BB24FEA43034FF0030101FA03F36FEAC8
:104F900003031A407B68DA607B68DB681A463B686B
:104FA000DB7919467B694FEA430301FA03F31A439D
:104FB0007B68DA607B6903F101037B617B690F2BFE
:104FC0007FF66CAF07F11C07BD4680BC704700BF81
:104FD00080B483B000AF78607B684FF6FF721A60D0
:104FE0007B684FF000021A717B684FF000025A7123
:104FF0007B684FF000029A717B684FF00002DA7113
:1050000007F10C07BD4680BC704700BF80B485B077
:1050100000AF78600B467B804FF00003FB737B682A
:105020001B691A467B8802EA0303002B03D04FF06A
:105030000103FB7302E04FF00003FB73FB7B184698
:1050400007F11407BD4680BC704700BF80B483B031
:1050500000AF786013460A467A807B707B78002B1D
:1050600003D07B687A881A8302E07B687A885A8347
:1050700007F10C07BD4680BC704700BF80B485B007
:1050800000AF786013460A467A807B704FF00003C9
:10509000FB604FF00003BB607A787B8803F0070366
:1050A0004FEA830302FA03F3FB607B884FEAD303E2
:1050B0009BB21A467B884FEAD3039BB219467B68A2
:1050C00001F1080153F8213019467B8803F00703EA
:1050D0004FEA83034FF00F0000FA03F36FEA030374
:1050E00019407B6802F1080243F822107B884FEADE
:1050F000D3039BB21A467B6802F1080253F82230B0
:105100001A46FB6842EA0303BB607B884FEAD3037D
:105110009BB21A467B6802F10802B96843F8221074
:1051200007F11407BD4680BC704700BF80B400AFD4
:105130004FF000031846BD4680BC704780B400AFF6
:105140004FF000031846BD4680BC704780B485B060
:1051500000AFF860B9607A60FB68232B4AD801A2DF
:1051600052F823F0F5510008F5510008F5510008F8
:10517000F5510008F5510008F5510008F5510008F7
:10518000F5510008F5510008F5510008F5510008E7
:10519000F5510008F5510008F5510008F5510008D7
:1051A000F5510008F5510008F5510008F5510008C7
:1051B000F5510008F5510008F5510008F5510008B7
:1051C000F5510008F5510008F5510008F5510008A7
:1051D000F5510008F5510008F5510008F551000897
:1051E000F5510008F5510008F5510008F551000887
:1051F000F551000800BF4FF00003184607F11407EF
:10520000BD4680BC704700BF80B485B000AF7860F9
:1052100039604FF00003FB6027E040F26423C2F2E4
:1052200000031A687968FB68CB18197842F2B063FA
:10523000C2F20003995402F1010240F26423C2F267
:1052400000031A6040F26423C2F200031B68B3F546
:10525000006F06D140F26423C2F200034FF0000257
:105260001A60FB6803F10103FB60FA683B689A422D
:10527000D3D34FF00003184607F11407BD4680BC96
:10528000704700BF80B483B000AF7860396040F2EF
:105290004823C2F200034FF000021A6045E040F2DA
:1052A0006423C2F200031A6840F24C23C2F20003E6
:1052B0001B687968CB18197842F2B063C2F2000318
:1052C000995440F26423C2F200031B6803F1010207
:1052D00040F26423C2F200031A6040F24823C2F293
:1052E00000031B6803F1010240F24823C2F20003ED
:1052F0001A6040F24C23C2F200031B6803F1010262
:1053000040F24C23C2F200031A6040F26423C2F25E
:1053100000031A6840F2FF739A4206D940F26423F0
:10532000C2F200034FF000021A6040F24823C2F2BA
:1053300000031A683B689A42B1D340F24C23C2F290
:1053400000031B68402B06D940F24C23C2F2000335
:105350004FF000021A60184607F10C07BD4680BCEA
:10536000704700BF80B483B000AF78607B6803F102
:1053700008031A467B685A607B684FF0FF329A60D8
:105380007B6803F108031A467B68DA607B6803F1E7
:1053900008031A467B681A617B684FF000021A60A6
:1053A00007F10C07BD4680BC704700BF80B483B0D6
:1053B00000AF78607B684FF000021A6107F10C07BC
:1053C000BD4680BC704700BF80B485B000AF786038
:1053D00039607B685B68FB60FB685B681A463B680A
:1053E0005A607B685A683B689A60FB685B683A68F9
:1053F0009A603A68FB685A603A687B685A603B6812
:105400007A681A617B681B6803F101027B681A6085
:1054100007F11407BD4680BC704700BF80B485B05B
:1054200000AF786039603B681B68BB60BB68B3F154
:10543000FF3F03D17B681B69FB600EE07B6803F1D3
:105440000803FB6002E0FB685B68FB60FB685B686D
:105450001B681A46BB689A42F5D9FB685B681A4616
:105460003B685A603B685B683A689A603B68FA68D8
:105470009A603A68FB685A603B687A681A617B6890
:105480001B6803F101027B681A6007F11407BD462F
:1054900080BC704780B485B000AF78607B685B6883
:1054A0007A6892689A607B689B687A6852685A60EA
:1054B0007B681B69FB60FB685A687B689A4203D172
:1054C0007B689A68FB685A607B684FF000021A613B
:1054D000FB681B6803F1FF32FB681A6007F11407D1
:1054E000BD4680BC704700BF80B500AF4FF460532D
:1054F000C4F202034FF46052C4F20202126842F096
:1055000001021A604FF46053C4F202034FF000022C
:105510009A604FF46053C4F202034FF46052C4F235
:105520000202126822F0847222F480321A604FF470
:105530006053C4F2020343F21002C2F200425A6006
:105540004FF46053C4F202034FF46052C4F20202FB
:10555000126822F480221A604FF46053C4F20203EE
:105560004FF00002DA6000F009F84FF46D43CEF21C
:1055700000034FF000629A6080BD00BF80B483B02A
:1055800000AF4FF000037B604FF000033B604FF42F
:105590006053C4F202034FF46052C4F20202126874
:1055A00042F480321A604FF46053C4F202031B6865
:1055B00003F400333B607B6803F101037B603B68CD
:1055C000002B03D17B68B3F5A06FECD14FF460538F
:1055D000C4F202031B6803F40033002B03D04FF026
:1055E00001033B6002E04FF000033B603B68012B8E
:1055F00067D14FF46053C4F202034FF46052C4F217
:10560000020292689A604FF46053C4F202034FF4AE
:105610006052C4F2020292689A604FF46053C4F27E
:1056200002034FF46052C4F20202926842F48052C4
:105630009A604FF46053C4F2020343F20402C0F6CE
:1056400043025A604FF46053C4F202034FF46052B5
:10565000C4F20202126842F080721A6000BF4FF476
:105660006053C4F202031B6803F00073002BF6D0F2
:105670004FF47053C4F2020340F201721A604FF407
:105680006053C4F202034FF46052C4F20202926803
:1056900022F003029A604FF46053C4F202034FF405
:1056A0006052C4F20202926842F002029A6000BFA5
:1056B0004FF46053C4F202039B6803F00C03082B01
:1056C000F6D107F10C07BD4680BC704780B590B09D
:1056D00004AF07F118031846FDF742FA07F1080373
:1056E0001846FDF793FA4FF001004FF00101FDF766
:1056F000B1F83B461846FFF76BFC4FF003033B71D4
:105700004FF0FF033B603B464FF00000C4F2020045
:105710001946FFF7B1FB4FF480704FF00101FDF720
:1057200023F9FDF7ABF94FF00003BB604FF44033B2
:10573000FB604FF000033B614FF000037B6107F11A
:1057400008031846FDF732FA4FF000033B774FF09D
:1057500000037B774FF000037B624FF00003BB62D6
:105760004FF0010387F82C3007F118034FF4005075
:10577000C4F201001946FDF791F94FF40050C4F24C
:1057800001004FF000014FF001024FF00703FDF759
:1057900073FA4FF40050C4F201004FF00101FDF71D
:1057A0004FFA4AF22053C0F600034FF00102009274
:1057B0004FF0000201924FF0000202924FF00002FF
:1057C000039245F68500C0F6000019464FF08002AE
:1057D0004FF00003FEF710FB07F13007BD4680BD18
:1057E00080B485B000AF78600B467B807B8803F186
:1057F000FF33FB813DE04FF00003BB8131E0BB890B
:105800004FEA43037A68D3181A88BB8903F101036E
:105810004FEA43037968CB181B889A421DD9BB898C
:105820004FEA43037A68D3181B887B81BB894FEA10
:1058300043037A68D318BA8902F101024FEA42029F
:1058400079688A1812881A80BB8903F101034FEA2C
:1058500043037A68D3187A891A80BB8903F101035C
:10586000BB81BA89FB899A42C9D3FB8903F1FF3313
:10587000FB81FB89002BBED107F11407BD4680BC1C
:10588000704700BF80B58CB000AF78604FF0000368
:1058900087F82F304FF0000387F82E304FF00003C9
:1058A00087F82F3080E04FF0000387F82E3071E04A
:1058B00097F82E304FF40050C4F2010019464FF013
:1058C00001024FF00703FDF7D7F94FF40053C4F27C
:1058D00001034FF40052C4F20102926842F0804288
:1058E0009A6001E001F0AEFA4FF40050C4F20100FA
:1058F0004FF00201FDF7A8FA0346002BF2D097F80B
:105900002E0097F82F204FF40053C4F20103DB6CF4
:1059100099B242F2E043C2F200034FEA001082184B
:1059200002F1080223F81210244A97F82E304FEAA9
:105930004313D31818464FF01001FFF751FF97F8A3
:105940002E2097F82E1042F2E043C2F200034FEAF5
:1059500041115B1803F11E031B88194697F82E00AE
:1059600042F2E043C2F2000300F101004FEA4010AE
:105970001B181B88CB184FEA630399B242F2E0432D
:10598000C2F2000323F8121097F82E3003F101033E
:1059900087F82E3097F82E30072B89D997F82F30BB
:1059A00003F1010387F82F3097F82F300F2B7FF684
:1059B0007AAF4FF49670FEF71BFB6FE7F0240020E0
:1059C00080B584B000AF78604FF001004FF0010166
:1059D000FCF740FF4FF4D853BB604FF003037B73D9
:1059E0004FF002033B734FF00003BB734FF0000313
:1059F000FB7307F108034FF00000C4F202001946E0
:105A0000FFF73AFA4FF00000C4F202004FF008012D
:105A10004FF00A02FFF732FB4FF00000C4F2020021
:105A20004FF009014FF00A02FFF728FB4FF000008A
:105A3000C4F202004FF00B014FF00A02FFF71EFB09
:105A40004FF00000C4F202004FF00C014FF00A02C8
:105A5000FFF714FB4FF48063BB604FF00103BB738F
:105A60004FF00103FB734FF003037B7307F108034F
:105A70004FF00000C4F202001946FFF7FDF94FF0A5
:105A80000000C4F202004FF00A014FF00A02FFF7D3
:105A9000F5FA4FF480404FF00101FCF765FF4FF03D
:105AA00080004FF00101FCF703FF4FF080504FF0F2
:105AB0000101FCF787FF07F11007BD4680BD00BF5D
:105AC00080B584B000AF78604FF4407002F018FFEA
:105AD0004FF043033B734FF001037B734FF003031D
