:020000040800F2
:10000000903E00205D310008C5310008C531000870
:10001000C5310008C5310008C531000800000000E6
:10002000000000000000000000000000B9B300085C
:10003000C531000800000000BDB40008F9B4000894
:10004000C531000871DD0008C5310008C531000860
:10005000C5310008C531000875630008C96400088F
:10006000C5310008C5310008C5310008C531000898
:10007000C5310008C5310008C5310008C531000888
:10008000C5310008C5310008C5310008C531000878
:10009000C5310008C5310008C5310008C531000868
:1000A000C5310008C5310008C5310008C531000858
:1000B00095170008C531000895900008C531000863
:1000C000C5310008C5310008C5310008C531000838
:1000D000C5310008C5310008C5310008C531000828
:1000E000C5310008C531000871A10008C5310008FC
:1000F000C5310008C5310008C5310008C531000808
:10010000C5310008C5310008C5310008C5310008F7
:10011000C5310008C5310008C5310008C5310008E7
:10012000C5310008C5310008C5310008C5310008D7
:10013000C5310008C5310008C5310008C5310008C7
:10014000C5310008C5310008C5310008B5A1000857
:10015000C5310008C5310008C5310008C5310008A7
:10016000C5310008C5310008C5310008C531000897
:10017000C5310008C5310008C5310008C531000887
:10018000C5310008C531000890B484B000AF024604
:100190000B46FA71BB714FF00003FB60BB7903F0B3
:1001A00003034FEA83034FF00F0202FA03F3FB60ED
:1001B0004FF46053C4F20103BA794FEA9202D2B20B
:1001C00010464FF46052C4F20102B9794FEA91012E
:1001D000C9B201F1020152F821201146FA686FEA12
:1001E0000202114000F1020243F822104FF4605362
:1001F000C4F20103BA794FEA9202D2B210464FF428
:100200006052C4F20102B9794FEA9101C9B201F119
:10021000020152F821201146FC79BA7902F003025A
:100220004FEA820204FA02F2114300F1020243F89B
:10023000221007F11007BD4690BC704780B485B00E
:1002400000AF78604FF00003FB607B68DB684FF025
:10025000FF325A607B68DB684FF0FF325A61FB68FF
:1002600043F00043FB60FB6843F40063FB607B6882
:10027000DB68FA689A6107F11407BD4680BC7047D5
:1002800080B586B000AF78604FF00003FB744FF08C
:1002900000037B614FF00003FB604FF0030009F0A7
:1002A0002BFF7B68DB681B69FB607B6903F1010343
:1002B0007B617A694FF45463C0F203039A4202D916
:1002C0004FF000032AE0FB6803F00043002BE4D06A
:1002D0004FF000037B61FB6843F00103FB607B6828
:1002E000DB68FA681A617B68DB681B69FB607B6905
:1002F00003F101037B617A694FF45463C0F2030395
:100300009A4205D8FB6803F00103002BEBD100E013
:1003100000BF4FF0030009F0EFFEFB7C184607F129
:100320001807BD4680BD00BF80B489B000AFF8603B
:10033000B960FA71BB804FF00003FB76FB68DB7895
:10034000002B2DD14FF000037B614FF00003FB61C8
:10035000BB8803F1030303F10302002BB8BF13466C
:100360004FEAA3037B61FB79FA6803F132034FEA9A
:100370008303D3189B683B614FF00003FB610BE0E4
:10038000BB681A683B691A60FB6903F10103FB61F2
:10039000BB6803F10403BB60FA697B699A42EFD33F
:1003A000FB7E184607F12407BD4680BC704700BF9E
:1003B00080B489B000AFF860B9601346FB804FF09D
:1003C0000003FB61FB8803F1030303F10302002B2D
:1003D000B8BF13464FEAA303BB61FB68D3F8D03024
:1003E0007B614FF00003FB610BE0BB687A69126828
:1003F0001A60FB6903F10103FB61BB6803F10403AD
:10040000BB60FA69BB699A42EFD3BB68184607F133
:100410002407BD4680BC704780B487B000AF7860C9
:100420000B46FB704FF000033B614FF00003FB7382
:100430007B684FF00002DA707B684FF001029A701F
:100440007B684FF040029A80FB78012B17D14FF068
:10045000A0433B617B684FF00102DA727B684FF08A
:1004600008021A707B684FF004025A707B684FF4E0
:10047000A072DA807B684FF002021A7217E0FB78F4
:10048000002B14D14FF00003C4F204033B617B68DE
:100490004FF00002DA727B684FF00C021A707B6832
:1004A0004FF006025A707B684FF4A062DA803A6916
:1004B0007B68DA603B6903F500631A467B681A6162
:1004C0004FF000037B6123E07B694FEA43123B69F5
:1004D000D31803F510631A4679687B6903F10403A6
:1004E0004FEA8303CB189A607B694FEA43123B695A
:1004F000D31803F530631A4679687B6903F1140356
:100500004FEA8303CB185A607B6903F101037B61D7
:100510007B685B781A467B699A42D5D83B6903F5BC
:1005200080631A467B685A613B6903F588631A4603
:100530007B68C3F8CC204FF000037B6113E07B693C
:100540004FEA43123B69D31803F5A0631A46796852
:100550007B6903F122034FEA8303CB189A607B691E
:1005600003F101037B617B681B781A467B699A4221
:10057000E5D84FF000037B6113E07B694FEA03325B
:100580003B69D31803F580531A4679687B6903F1F8
:1005900032034FEA8303CB189A607B6903F10103AE
:1005A0007B617B681B781A467B699A42E5D83B6978
:1005B00003F560631A467B68C3F80C21FB7B184681
:1005C00007F11C07BD4680BC704700BF80B588B0EE
:1005D00000AF78604FF00003FB774FF00003BB6182
:1005E0004FF000037B614FF00003FB607B681B7AD8
:1005F000012B51D17B68DB689B6B7B617B696FF35F
:1006000010437B617B685B7A002B03D07B6943F4EA
:1006100080137B617B68DB687A699A634FF0000323
:10062000BB617B68DB68DB68BB61BB696FF386130A
:10063000BB61BB696FF39653BB61BB6943F01003A9
:10064000BB61BB696FF3C303BB61BB696FF3C713C6
:10065000BB61BB696FF35143BB61BB696FF3D343AC
:10066000BB617B68DB68BA69DA607868FFF708FE0F
:100670007B68DB78012B40F08980FB684FF0050236
:1006800062F34403FB60FB6843F02003FB607B687C
:10069000DB68FA689A6079E07B68DB68DB68BB61DD
:1006A000BB6943F04003BB617B68DB68BA69DA6011
:1006B0007868FFF7E5FD4FF000037B617B6943F449
:1006C00080337B617B681B7A032B03D17B6943F406
:1006D00000337B617B6943F480237B617B6943F456
:1006E00000237B617B6943F400137B617B685B7A49
:1006F000002B03D07B6943F480137B617B68DB684C
:100700007A699A634FF0140009F022FD7B68DB6878
:10071000DB68BB617B681B7A032B03D1BB6943F4A5
:100720008033BB617B68DB68BA69DA607B681B7AFF
:10073000032B2BD17B68DB681B6B3B613B694FF064
:10074000010262F39B633B613B696FF3D7533B61EB
:100750003B6943F080533B613B694FF02D0262F3EC
:1007600016433B617B68DB683A691A634FF0C80047
:1007700009F0EEFC3B6943F400033B617B68DB68F6
:100780003A691A634FF0C80009F0E2FC7B68DB7835
:10079000012B11D17B68DB689B68FB60FB684FF025
:1007A000050262F34403FB60FB6843F02003FB6037
:1007B0007B68DB68FA689A60FB7F184607F12007C0
:1007C000BD4680BD80B485B000AF78604FF00003B7
:1007D000FB734FF00003BB60BB6843F00103BB60D9
:1007E0007B68DB687A68D26892681146BA6841EA29
:1007F00002029A60FB7B184607F11407BD4680BCD5
:10080000704700BF80B485B000AF78604FF0000340
:10081000FB734FF00003BB60BB6843F00103BB6098
:100820007B68DB687A68D26892681146BA686FEABA
:10083000020201EA02029A60FB7B184607F11407E4
:10084000BD4680BC704700BF80B586B000AF786001
:1008500039604FF00003FB744FF000037B614FF0F1
:100860000003FB60FB6843F02003FB603B68DBB2E6
:1008700003F01F03DAB2FB6862F38A13FB607B6844
:10088000DB68FA681A617B68DB681B69FB607B695F
:1008900003F101037B617A694FF45463C0F20303EF
:1008A0009A4205D8FB6803F02003002BEBD100E04F
:1008B00000BF4FF0030009F01FFCFB7C184607F156
:1008C0001807BD4680BD00BF80B586B000AF786018
:1008D0004FF00003FB744FF000037B614FF0000307
:1008E000FB60FB6843F01003FB607B68DB68FA6821
:1008F0001A617B68DB681B69FB607B6903F101039C
:100900007B617A694FF45463C0F203039A4205D8BD
:10091000FB6803F01003002BEBD100E000BF4FF0A9
:10092000030009F0E9FBFB7C184607F11807BD46F8
:1009300080BD00BF80B584B000AF78600B46FB700F
:100940004FF00003FB737B68DB68DB68BB60BB6850
:100950006FF35D73BB60BB686FF39E73BB60FB7826
:10096000012B04D1BB6843F00053BB6006E0FB7869
:10097000002B03D1BB6843F08043BB607B68DB681E
:10098000BA68DA604FF0320009F0E2FBFB7B1846F0
:1009900007F11007BD4680BD80B483B000AF78601A
:1009A0007B68DB685B6903F00103184607F10C07FD
:1009B000BD4680BC704700BF80B582B000AF786094
:1009C0007868FFF7E9FF0346012B0CBF00230123E2
:1009D000DBB2184607F10807BD4680BD80B485B07C
:1009E00000AF78604FF00003FB607B68DB685B69F9
:1009F000FB607B68DB689B69FA6802EA0303FB60C3
:100A0000FB68184607F11407BD4680BC704700BF5D
:100A100080B485B000AF78600B46FB707B681B69C3
:100A20001B68FB60FB7803F00303DAB2FB6862F338
:100A30000103FB607B681B69FA681A6007F1140701
:100A4000BD4680BC704700BF80B58CB000AF7860F9
:100A50004FF0000387F82B304FF000037B624FF01C
:100A600000033B624FF00003FB614FF00003BB61EA
:100A70004FF000037B617B68D3F80C314FF000022C
:100A80001A607B681B691B683B623B6A6FF3CC236F
:100A90003B627B681B693A6A1A607B68DB7A012BD0
:100AA00040D178684FF00301FFF7B2FF7B68DB6845
:100AB0004FF080025A624FF02003FB834FF0800317
:100AC000BB837B68DB68FA699A62BA8BFB8BD318AD
:100AD0009BB23B834FF080037B837B68DB68BA6902
:100AE000C3F804213A8B7B8BD3189BB23B834FF026
:100AF00020037B837B68DB6803F5827303F10403C7
:100B0000BA691A603A8B7B8BD3189BB23B834FF048
:100B100000037B837B68DB6803F5827303F10803C2
:100B2000BA691A6078684FF01001FFF78DFE786897
:100B3000FFF7CAFE7B681B694FF000021A617B68F1
:100B40001B694FF000025A617B681B694FF0FF324E
:100B50009A617B681B694FF00002DA614FF0000375
:100B6000FB6243E07A68FB6A03F104034FEA830304
:100B7000D3189B681B687B6297F8273023F07F03AC
:100B8000DBB2002B0BD04FF000037B627B6A43F09B
:100B900080437B627B6A43F000637B6202E04FF03C
:100BA00000037B627A68FB6A03F104034FEA830364
:100BB000D3189B687A6A1A607A68FB6A03F10403A7
:100BC0004FEA8303D3189B684FF000021A617A68DA
:100BD000FB6A03F104034FEA8303D3189B684FF0C9
:100BE000FF029A60FB6A03F10103FB627B685B789A
:100BF0001A46FB6A9A42B5D84FF00003FB6242E006
:100C00007A68FB6A03F114034FEA8303D3185B6825
:100C10001B68FB60FB7B23F07F03DBB2002B0BD058
:100C20004FF00003FB60FB6843F08043FB60FB6810
:100C300043F00063FB6002E04FF00003FB607A6862
:100C4000FB6A03F114034FEA8303D3185B68FA6865
:100C50001A607A68FB6A03F114034FEA8303D3181E
:100C60005B684FF000021A617A68FB6A03F11403B3
:100C70004FEA8303D3185B684FF0FF029A60FB6A68
:100C800003F10103FB627B685B781A46FB6A9A42B8
:100C9000B6D84FF000037B617B6943F480737B61BE
:100CA0007B681B697A681269126911467A696FEA72
:100CB000020211407A6941EA02021A617B68DB781C
:100CC000012B1ED14FF000033B613B6943F0010350
:100CD0003B613B6943F002033B613B694FF04002DB
:100CE00062F38A033B613B6943F480333B613B69B8
:100CF0004FF0400262F359433B617B681B693A69DC
:100D00001A63786800F008F897F82B30184607F156
:100D10003007BD4680BD00BF80B584B000AF7860AD
:100D20004FF00003FB734FF00003BB607B68DB6890
:100D30004FF000029A617B68DB684FF0FF325A6126
:100D40007868FFF77BFA7B68DB78002B03D1BB6800
:100D500043F01003BB60BB6843F40063BB60BB6837
:100D600043F48053BB60BB6843F40053BB60BB6873
:100D700043F48023BB60BB6843F40023BB60BB68C3
:100D800043F00803BB60BB6843F48013BB60BB68DF
:100D900043F40013BB607B68DB687A68D2689269B1
:100DA0001146BA686FEA02021140BA6841EA0202CB
:100DB0009A61FB7B184607F11007BD4680BD00BF56
:100DC00080B485B000AF78604FF00003FB737B68A0
:100DD0001B699B68BB60BB68C3F34103DBB2022B9A
:100DE0000BD0032B05D0012B03D04FF00303FB7373
:100DF00007E04FF00203FB7303E04FF00103FB73C6
:100E000000BFFB7B184607F11407BD4680BC704746
:100E100080B487B000AF78604FF00003FB754FF0EF
:100E20000003BB607B681B699B683B617B689B69B7
:100E30001B68FB603B69C3F34103DBB2022B04D0A8
:100E4000FB686FF30A03FB6006E0FB684FF00302E8
:100E500062F30A03FB6000BF7B689B69FA681A6053
:100E6000BB6843F48073BB607B681B697A68126956
:100E700052681146BA686FEA02021140BA6841EA44
:100E800002025A60FB7D184607F11C07BD4680BC74
:100E9000704700BF80B487B000AF786039604FF012
:100EA0000003FB744FF00003FB604FF00003BB60D6
:100EB0003B685B78012B12D13B681B787A6803F1A1
:100EC00004034FEA8303D3189B687B613B681B785C
:100ED0004FF0010202FA03F39BB23B8111E03B6841
:100EE0001B787A6803F114034FEA8303D3185B6815
:100EF0007B613B681B784FF0010202FA03F39BB25F
:100F00007B817B691B68FB607B7B23F07F03DBB20B
:100F1000002B29D13B689B689BB24FEA43534FEAB1
:100F200053539AB2FB6862F30A03FB603B68DB78B9
:100F300003F00303DAB2FB6862F39343FB603B68A0
:100F4000DB88DBB203F00F03DAB2FB6862F399537C
:100F5000FB60FB6843F08053FB60FB6843F4004395
:100F6000FB60FA687B691A607B681B697A681269A2
:100F7000D2691146BA6841EA0202DA61FB7C18467E
:100F800007F11C07BD4680BC704700BF80B487B026
:100F900000AF786039604FF00003FB744FF000033E
:100FA000FB604FF00003BB603B685B78012B12D104
:100FB0003B681B787A6803F104034FEA8303D31874
:100FC0009B687B613B681B784FF0010202FA03F3D8
:100FD0009BB23B8111E03B681B787A6803F11403F4
:100FE0004FEA8303D3185B687B613B681B784FF043
:100FF000010202FA03F39BB27B81FB686FF3CF33EC
:10100000FB60FA687B691A607B681B697A68126901
:10101000D2691146BA686FEA020201EA0202DA6195
:10102000FB7C184607F11C07BD4680BC704700BF1B
:1010300080B588B000AF786039604FF00003FB776F
:101040004FF00003BB614FF000037B614FF00003E2
:101050003B613B685B78012B40F0BF803B681B78AD
:101060007A6803F104034FEA8303D3189B681B6873
:101070007B613B681B787A6803F104034FEA8303C2
:10108000D3189B681B693B613B685B69002B0AD1E5
:101090003B696FF312033B613B694FF0010262F35E
:1010A000DC433B6128E03B685B6923F07F4222F42C
:1010B00078023B6962F312033B613B685A693B6803
:1010C0009B68D31803F1FF323B689B68B2FBF3F3D4
:1010D0009BB24FEA83534FEA93539AB23B6962F350
:1010E000DC433B613B68DB78012B05D13B694FF06A
:1010F000010262F35E733B613B681B787A6803F11F
:1011000004034FEA8303D3189B683A691A617B682A
:10111000DB78012B0CD13B681B787A6803F1040360
:101120004FEA8303D3189B683A6812695A6118E042
:101130003B68DB78012B14D03B685B69002B10D037
:101140003B681B784FF0010202FA03F3BB617B6836
:101150001B697A681269526B1146BA6941EA020248
:101160005A633B68DB78012B14D17B681B699B6851
:10117000FB60FB68C3F30D239BB203F00103002B5C
:1011800004D17B6943F000537B6103E07B6943F04A
:1011900080537B617B6943F080637B617B6943F0B3
:1011A00000437B613B681B787A6803F104034FEAD4
:1011B0008303D3189B687A691A603B68DB78012B3C
:1011C00040F09A803B68D9683B681A783B685B6955
:1011D0009BB27868FFF7A8F88EE03B681B787A68C6
:1011E00003F114034FEA8303D3185B681B687B6128
:1011F0003B681B787A6803F114034FEA8303D31822
:101200005B681B693B613B685B69002B10D13B68E5
:101210009B6823F07F4222F478023B6962F3120359
:101220003B613B694FF0010262F3DC433B6124E028
:101230003B685A693B689B68D31803F1FF323B68EF
:101240009B68B2FBF3F39BB24FEA83534FEA93538D
:101250009AB23B6962F3DC433B613B69C3F3C94328
:101260009BB23A68926802FB03F323F07F4222F4B8
:1012700078023B6962F312033B613B681B787A6832
:1012800003F114034FEA8303D3185B683A691A61C8
:101290007B68DB78012B0BD13B681B787A6803F104
:1012A00014034FEA8303D3185B683A6812695A61E2
:1012B0003B68DB78012B0CD13B685B79002B04D0B9
:1012C0007B6943F000537B6103E07B6943F080530B
:1012D0007B617B6943F080637B617B6943F0004302
:1012E0007B613B681B787A6803F114034FEA830340
:1012F000D3185B687A691A60FB7F184607F12007EC
:10130000BD4680BD80B489B000AF786039604FF0D1
:101310000003FB774FF00003BB614FF000033B611C
:101320004FF00003BB603B685B78012B79D17B6891
:101330009B697B617B691B683B617B691B69BB6047
:101340003B685B69002B0AD13B7A6FF306033B7263
:10135000BB7A4FF0010262F3C403BB7224E03B6826
:101360005A693B689B689A420ED93B689A683B6809
:101370005A613B689B68DBB203F07F03DAB23B7AC9
:1013800062F306033B7209E03B685B69DBB203F082
:101390007F03DAB23B7A62F306033B72BB7A4FF00B
:1013A000010262F3C403BB72BA687B691A617B688D
:1013B000DB78012B0BD13B681B787A6803F10403BF
:1013C0004FEA8303D3189B683A6812695A613B69F4
:1013D00043F080633B613B6943F000433B613A6902
:1013E0007B691A607B68DB78002B40F087803B6864
:1013F0005B69002B00F082803B681B784FF0010294
:1014000002FA03F3BA6942EA0303BB617B681B6912
:101410007A681269526B1146BA6941EA02025A634C
:101420006CE03B681B787A6803F114034FEA83038E
:10143000D3185B681B683B613B681B787A6803F1D3
:1014400014034FEA8303D3185B681B69BB603B68D6
:101450005B69002B10D13B689B68DBB203F07F0314
:10146000DAB23B7A62F306033B72BB7A4FF00102B9
:1014700062F3C403BB7213E03B689A683B685A612D
:101480003B689B68DBB203F07F03DAB23B7A62F31E
:1014900006033B72BB7A4FF0010262F3C403BB72D6
:1014A0003B681B787A6803F114034FEA8303D3186F
:1014B0005B68BA681A617B68DB78012B0BD13B68EB
:1014C0001B787A6803F114034FEA8303D3185B682F
:1014D0003A6812695A613B6943F080633B613B693A
:1014E00043F000433B613B681B787A6803F11403C7
:1014F0004FEA8303D3185B683A691A60FB7F18468A
:1015000007F12407BD4680BC704700BF80B487B098
:1015100000AF786039604FF00003FB754FF00003B7
:10152000FB603B685B78012B1ED13B681B787A68B7
:1015300003F104034FEA8303D3189B683B613B69C3
:101540001B68FB60FB7B23F07F03DBB2002B03D027
:10155000FB6843F08043FB60FB6843F40013FB60CF
:10156000FA683B691A6013E03B681B787A6803F1FC
:1015700014034FEA8303D3185B683B613B691B6824
:10158000FB60FB6843F40013FB60FA683B691A6078
:10159000FB7D184607F11C07BD4680BC704700BFA5
:1015A00080B487B000AF786039604FF00003FB74FF
:1015B0004FF00003FB603B685B78012B0AD13B686E
:1015C0001B787A6803F104034FEA8303D3189B68FE
:1015D0007B6109E03B681B787A6803F114034FEAEA
:1015E0008303D3185B687B617B691B68FB60FB68C6
:1015F0006FF35553FB603B68DB78032B03D03B68EC
:10160000DB78022B03D1FB6843F08053FB60FA6860
:101610007B691A60FB7C184607F11C07BD4680BC3D
:10162000704700BF80B485B000AF78607B681B69ED
:101630009B69FB607B681B69DB69FA6802EA03034C
:10164000FB60FB684FEA1343184607F11407BD46D9
:1016500080BC704780B485B000AF78600B46FB70EB
:10166000FB787A6803F114034FEA8303D3185B68AD
:101670009B68FB607B681B695B69FA6802EA03038D
:10168000FB60FB68184607F11407BD4680BC704735
:1016900080B485B000AF78607B681B699B69FB6094
:1016A0007B681B69DB69FA6802EA0303FB60FB687D
:1016B0004FEA03434FEA1343184607F11407BD46A8
:1016C00080BC704780B487B000AF78604FF00003F3
:1016D0003B61FB7C43F0C003FB74BB7C4FF0010219
:1016E00062F3C403BB743B7C4FF0180262F3060341
:1016F0003B747B685B6D3A691A617B68DB78012B10
:1017000019D14FF00003FB607B685B6D7A6802F5CE
:10171000B9625A617B685B6D1B68FB60FB6843F0D4
:101720000043FB604FF40043C8F20003FB607B689A
:101730005B6DFA681A6007F11C07BD4680BC7047F4
:1017400080B485B000AF78607B689B7A002B1BD09B
:101750007B681B699B68FB603B7B03F00103DBB28A
:10176000002B11D07B6803F586731B68BB60BB68D8
:101770006FF34103BB60BB686FF30003BB607B6822
:10178000D3F80C31BA681A6007F11407BD4680BC63
:10179000704700BF80B500AF4FF080404FF00101AF
:1017A0000CF07AFA40F20423C2F200031B6803F142
:1017B000010240F20423C2F200031A6040F208233F
:1017C000C2F200031B68002B0BD040F20823C2F2C8
:1017D00000031B6803F1FF3240F20823C2F200034A
:1017E0001A6080BD80B500AF40F20C23C2F2000346
:1017F0001B78002B09D100F00BF840F20C23C2F249
:1018000000034FF001021A7000E000BF80BD00BF6E
:1018100080B58AB000AF3B464FF0804019460BF0D0
:101820004DF83B46184622A3D3E900230BF0D8F825
:101830004FF080400BF086F94FF00003BB844FF06F
:101840000003FB8340F2E7333B624FF00003BB83AE
:101850004FF0000387F8263007F11C034FF080405B
:1018600019460CF029F94FF080404FF001014FF07C
:1018700001020CF0EBF94FF01C033B764FF0010333
:10188000FB764FF00E037B764FF00003BB7607F13B
:10189000180318460BF02CFD4FF080404FF001016B
:1018A0000CF0B4F907F12807BD4680BDAFF3008006
:1018B0000000000080842E4180B400AFBD4680BC93
:1018C000704700BF80B400AFBD4680BC704700BF0A
:1018D00080B487B000AF786013460A467A803B80B8
:1018E0004FF00003FB754FF00003FB8140F206034D
:1018F000C2F200034FF010021A704FF00003FB8198
:1019000019E040F21023C2F20003FA894FEA820282
:101910009A18F98942F29463C2F200034FF09800DA
:1019200000FB01F15B1803F188031B681360FB895E
:1019300003F10103FB81FB89062BE2D940F210235E
:10194000C2F2000303F11C0242F29463C2F20003EC
:10195000D3F84434136040F20403C2F200031B784E
:101960007A889A4246D37A883B88D21840F2040398
:10197000C2F200031B78194640F20603C2F20003CC
:101980001B78CB189A4235DC7A8840F20803C2F201
:1019900000031B78D31A3B6128E040F21023C2F207
:1019A00000033A6933F812309BB24FEA13239BB21B
:1019B000DAB27B681A707B6803F101037B6040F246
:1019C0001023C2F200033A6933F812309BB2DAB244
:1019D0007B681A707B6803F101037B603B6903F14C
:1019E00001033B613B8803F1FF333B803B88002BC5
:1019F000D3D102E04FF00103FB75FB7D184607F1E0
:101A00001C07BD4680BC704780B588B000AFF86049
:101A100079813A81FB714FF00003FB77FB683B61F2
:101A20004FF00003FB8240F20503C2F200031B7873
:101A30007A899A42C0F04E837A893B89D21840F263
:101A40000503C2F200031B78194640F20703C2F2F5
:101A500000031B78CB189A4200F33C837A8940F24A
:101A60000903C2F200031B78D31ABB6140F20703DB
:101A7000C2F200034FF018021A70FB79002B03D05A
:101A8000012B00F0218328E34FF00003FB8217E0D5
:101A900040F20003C2F200031B681A46FB8A4FEAB9
:101AA0008303D218F98A42F29463C2F2000301F56B
:101AB0008A7153F821301360FB8A03F10103FB8222
:101AC000FB8A062BE4D940F20003C2F200031B6834
:101AD00003F11C0242F29463C2F20003D3F86C34A7
:101AE000136040F20003C2F200031B6803F12002FE
:101AF00042F29463C2F20003D3F87034136040F2F0
:101B00000003C2F200031B6803F1240242F2946353
:101B1000C2F20003D3F87434136040F20003C2F23F
:101B200000031B6803F1280242F29463C2F200032F
:101B3000D3F87834136040F20003C2F200031B684C
:101B400003F12C0242F29463C2F20003D3F87C3416
:101B500013602CE040F20003C2F200031A68BB6974
:101B60004FEA4303D3181B884FEA13239BB2DAB220
:101B7000FB681A70FB6803F10103FB6040F200038D
:101B8000C2F200031A68BB694FEA4303D3181B88EB
:101B9000DAB2FB681A70FB6803F10103FB60BB69F2
:101BA00003F10103BB613B8903F1FF333B813B89B7
:101BB000002BCFD18DE2BB69002B63DBBB690D2B02
:101BC00060DCA04ABB694FEA63034FEA830303F179
:101BD0000103D318FA6812781A70FB6803F1010345
:101BE000FB60984ABB694FEA63034FEA8303D3184B
:101BF000FA6812781A70FB6803F10103FB60914ADE
:101C0000BB694FEA63034FEA830303F10303D3186D
:101C1000FA6812781A70FB6803F10103FB60894AC5
:101C2000BB694FEA63034FEA830303F10203D3184E
:101C3000FA6812781A70FB6803F10103FB6042F244
:101C40009463C2F20003D3F890341A46BB694FEA9A
:101C500063034FEA8303D218BB694FEA63034FEA79
:101C60008301784BCB18104619464FF0040201F05F
:101C7000BDFABB6903F10203BB613B89A3F1020317
:101C80003B8121E2BB69A3F10E030E2B00F21B8204
:101C900001A252F823F000BFD51C0008C72000089D
:101CA0004F1D0008C7200008C91D0008C7200008F4
:101CB000551E0008C7200008CF1E0008C7200008D6
:101CC000491F0008C7200008C31F0008C7200008DC
:101CD0004D2000085C4B03F10103FA6812781A707A
:101CE000FB6803F10103FB60574BFA6812781A7026
:101CF000FB6803F10103FB60534B03F10303FA6834
:101D000012781A70FB6803F10103FB604E4B03F17C
:101D10000203FA6812781A70FB6803F10103FB6092
:101D2000BB6903F10203BB613B89A3F102033B8161
:101D300042F29463C2F20003D3F8903403F11C031F
:101D4000184641494FF0040201F050FABCE13F4B04
:101D500003F10103FA6812781A70FB6803F10103BA
:101D6000FB603A4BFA6812781A70FB6803F10103C2
:101D7000FB60364B03F10303FA6812781A70FB68B4
:101D800003F10103FB60314B03F10203FA6812789F
:101D90001A70FB6803F10103FB60BB6903F10203E6
:101DA000BB613B89A3F102033B8142F29463C2F21F
:101DB0000003D3F8903403F12003184623494FF071
:101DC000040201F013FA7FE1214B03F10103FA68E9
:101DD00012781A70FB6803F10103FB601C4BFA6870
:101DE00012781A70FB6803F10103FB60184B03F1D2
:101DF0000303FA6812781A70FB6803F10103FB60B1
:101E0000134B03F10203FA6812781A70FB6803F1AE
:101E10000103FB60BB6903F10203BB613B89A3F1D2
:101E200002033B8142F29463C2F20003D3F8903480
:101E300003F12403184606494FF0040201F0D6F9D5
:101E400042E100BFE42A0020002B0020042B0020E8
:101E5000082B0020794B03F10103FA6812781A70FD
:101E6000FB6803F10103FB60744BFA6812781A7087
:101E7000FB6803F10103FB60704B03F10303FA6895
:101E800012781A70FB6803F10103FB606B4B03F1DE
:101E90000203FA6812781A70FB6803F10103FB6011
:101EA000BB6903F10203BB613B89A3F102033B81E0
:101EB00042F29463C2F20003D3F8903403F1280392
:101EC00018465E494FF0040201F090F9FCE05C4BCB
:101ED00003F10103FA6812781A70FB6803F1010339
:101EE000FB60574BFA6812781A70FB6803F1010324
:101EF000FB60534B03F10303FA6812781A70FB6816
:101F000003F10103FB604E4B03F10203FA68127800
:101F10001A70FB6803F10103FB60BB6903F1020364
:101F2000BB613B89A3F102033B8142F29463C2F29D
:101F30000003D3F8903403F12C03184640494FF0C6
:101F4000040201F053F9BFE03E4B03F10103FA68CC
:101F500012781A70FB6803F10103FB60394BFA68D1
:101F600012781A70FB6803F10103FB60354B03F133
:101F70000303FA6812781A70FB6803F10103FB602F
:101F8000304B03F10203FA6812781A70FB6803F110
:101F90000103FB60BB6903F10203BB613B89A3F151
:101FA00002033B8142F29463C2F20003D3F89034FF
:101FB00003F13003184623494FF0040201F016F9EB
:101FC00082E0214B03F10103FA6812781A70FB6872
:101FD00003F10103FB601C4BFA6812781A70FB686E
:101FE00003F10103FB60184B03F10303FA68127855
:101FF0001A70FB6803F10103FB60134B03F102034A
:10200000FA6812781A70FB6803F10103FB60BB6980
:1020100003F10203BB613B89A3F102033B8142F25E
:102020009463C2F20003D3F8903403F134031846EA
:1020300005494FF0040201F0D9F845E00C2B0020CF
:10204000102B0020142B0020182B0020264B03F10E
:102050000103FA6812781A70FB6803F10103FB6050
:10206000214BFA6812781A70FB6803F10103FB60D8
:102070001D4B03F10303FA6812781A70FB6803F131
:102080000103FB60184B03F10203FA6812781A701F
:10209000FB6803F10103FB60BB6903F10203BB6151
:1020A0003B89A3F102033B8142F29463C2F2000335
:1020B000D3F8903403F1380318460B494FF004026B
:1020C00001F094F800E000BF3B89002B7FF473AD72
:1020D00000BF02E04FF00103FB77FB7F184607F1DA
:1020E0002007BD4680BD00BF1C2B002080B485B0FA
:1020F00000AFF86079813A81FB714FF00103184617
:1021000007F11407BD4680BC704700BF80B483B0A0
:1021100000AF786013460A467A803B804FF0010397
:10212000184607F10C07BD4680BC704780B584B0E7
:1021300000AF3B600346FB710B46BB7113467B71DE
:102140004FF00003FB73BB79002B05D0BB79002B4C
:1021500002D0BB79F72B03D94FF00203FB7379E070
:1021600040F29023C2F20003BA791A70FB79002B77
:1021700054D140F29823C2F2000349F24552C0F60E
:1021800000021A6040F29C23C2F2000349F271522D
:10219000C0F600021A6040F29423C2F2000349F232
:1021A0002D62C0F600021A6040F2A023C2F20003C2
:1021B00049F29152C0F600021A6040F2A423C2F222
:1021C00000034FF000021A6042F26003C2F2000303
:1021D00049F25172C0F600021A6042F25803C2F28C
:1021E000000349F64102C0F600021A6042F25C03A5
:1021F000C2F2000349F6E502C0F600021A6040F29E
:102200009023C2F2000319787A793B7E0846114682
:102210003A6807F055F90346FB7302E04FF00203FA
:10222000FB73FB7B002B15D100F0D8FC0346002B81
:1022300003D14FF00303FB730CE040F29123C2F291
:102240000003FA791A7040F20C03C2F200034FF057
:1022500001021A70FB7B184607F11007BD4680BDCE
:1022600080B582B000AF4FF00003FB7140F20C0369
:10227000C2F200031B78012B0DD140F29823C2F269
:1022800000031B68984740F20C03C2F200034FF0B2
:1022900000021A7002E04FF00603FB71FB7918464A
:1022A00007F10807BD4680BD90B583B000AF4FF081
:1022B0000003FB7040F20C03C2F200031B78002BFA
:1022C00002D04FF0060308E107F10203184600F0C0
:1022D000AFFC0346012B40F0FE80BB78032B00F2DD
:1022E000FA8001A252F823F0D7240008F92200084E
:1022F0005B230008D724000840F2A023C2F20003A9
:102300001B6840F2A820C2F2000040F2AC21C2F2E9
:10231000000140F2B022C2F2000298470346FB706F
:10232000FB78002B40F0D28040F2A823C2F20003D9
:102330001A7840F29023C2F200031B789A4207D029
:1023400040F2A823C2F200031B78002B40F0C080AB
:102350004FF0020000F052FCBDE040F2AC23C2F2AC
:1023600000031B681A7840F2B223C2F200031A700D
:1023700040F2B323C2F200034FF001021A704FF093
:1023800000037B6036E040F21003C2F200037A687B
:1023900013F83230002B31D040F21003C2F20003A8
:1023A0007A6813F8322040F2B223C2F200031B789D
:1023B0009A421BD140F21002C2F200027B684FEA3F
:1023C000C303D3185A6840F2AC23C2F200031B685F
:1023D000184640F2B021C2F20001904703461A4667
:1023E00040F2B323C2F200031A7008E07B6803F1E5
:1023F00001037B607B680F2BC5DD00E000BF40F26E
:10240000A823C2F200031B78002B63D040F2B32351
:10241000C2F200031B78002B3DD040F2B023C2F281
:1024200000034FF000021A8040F2AC23C2F2000316
:10243000196840F2B023C2F200031A881346C91883
:1024400040F2B223C2F200031B7863F07F03DBB2D9
:102450000B7002F101039AB240F2B023C2F2000302
:102460001A8040F2AC23C2F20003196840F2B02394
:10247000C2F200031A881346C91840F2B323C2F20D
:1024800000031B780B7002F101039AB240F2B023F3
:10249000C2F200031A8040F29423C2F200031C68C7
:1024A00040F29023C2F20003197840F2AC23C2F24A
:1024B00000031A6840F2B023C2F200031B880846EA
:1024C00011461A46A0470346FB7004E000BF02E035
:1024D00000BF00E000BF4FF00003184607F10C07F3
:1024E000BD4690BD80B500AF42F29463C2F20003D6
:1024F00093F84D34002B1BD142F29463C2F20003D7
:10250000D3F8741442F29463C2F20003D3F878242F
:1025100042F29463C2F20003D3F87C3408461146B9
:102520001A4642F26C03C2F2000300F003F800E026
:1025300000BF80BD80B58AB004AFF860B9607A6032
:102540003B603B68394A5A603B68384A1A603B68CE
:10255000FA689A603B68BA68DA603B687A681A6120
:102560003B689B68184632490CF0DAF8034631485C
:1025700019460CF091FA03461A463B685A613B68CB
:10258000DB6818462A490CF0CBF803462A4819465E
:102590000CF082FA03461A463B689A614FF002003B
:1025A0004FF0010102F02EFF4FF000033B754FF09A
:1025B0000003BB754FF00103FB754FF000037B7503
:1025C0004FF440733B6107F110034FF48060C4F295
:1025D0000200194606F026FB42F29463C2F20003A1
:1025E0004FF0000283F84E244FF22003C0F60003A0
:1025F0004FF00102009242F28802C2F20002019200
:102600004FF0000202924FF00002039242F61500D2
:10261000C0F6000019464FF080024FF0000305F0AD
:1026200001F807F11807BD4680BD00BF000000009B
:102630000000803F000048420000C84190B58BB0C8
:1026400000AFF860B9607A60F868B9680CF066F8B5
:102650000346BB617B685B694FF001021446184674
:10266000B9690CF003FB0346002B02D14FF00003C5
:102670001C46E3B2002B02D0614B7B6228E07B68F2
:102680005B6983F000434FF0010214461846B969B4
:102690000CF00AFB0346002B02D14FF000031C464E
:1026A000E3B2002B02D0574B7B6211E07B689B6842
:1026B0001846B9690CF03CF9034618460CF0FEFACE
:1026C00003469BB21BB218460CF0DEF803467B6251
:1026D0007B685B681846B9690CF022F803467B6199
:1026E0007B689B694FF001021446184679690CF02B
:1026F000BDFA0346002B02D14FF000031C46E3B2A3
:10270000002B06D0404B3B627B689A697B685A601D
:1027100029E07B689B6983F000434FF00102144677
:10272000184679690CF0C0FA0346002B02D14FF02D
:1027300000031C46E3B2002B08D0344B3B627B689D
:102740009B6983F000427B685A600CE07B687A6981
:102750005A607B68DA687B685B68104619460CF043
:10276000E7F803463B627B681C697B681B68184678
:10277000B9680BF0D3FF0346204619460CF0D8F891
:1027800003463B617B68BA681A60786A396A0BF065
:10279000C7FF0346184639690BF0C2FF0346FB61C9
:1027A0004FF001031C46F86915490CF07DFA034609
:1027B000002B02D14FF000031C46E3B2002B02D0E5
:1027C0000F4BFB6111E04FF001031C46F869104903
:1027D0000CF04CFA0346002B02D14FF000031C46CC
:1027E000E3B2002B01D00A4BFB61F8690CF066FAEA
:1027F00003469BB21BB2184607F12C07BD4690BD9D
:1028000000004842000048C20000C8410000C8C1A2
:102810000000000080B582B000AF786000E000BF2B
:1028200042F62C33C2F200031B6818464FF0000139
:102830004FF0FF324FF0000308F0A8FB0346012BD6
:10284000EDD14FF48060C4F202004FF4007106F045
:10285000D5FA0346002B5FD142F29463C2F2000323
:1028600093F84E34002B3DD042F29463C2F2000341
:102870004FF0000283F84E2442F26C03C2F20003D0
:10288000554A5A6042F26C03C2F20003524A1A607F
:1028900042F26C03C2F200039B6818464F490BF0EA
:1028A0003FFF03464E4819460CF0F6F803461A4619
:1028B00042F26C03C2F200035A6142F26C03C2F2AC
:1028C0000003DB68184645490BF02AFF03464548DC
:1028D00019460CF0E1F803461A4642F26C03C2F2C4
:1028E00000039A6142F29463C2F20003D3F86C24AD
:1028F00042F29463C2F20003D3F8443410461946FE
:1029000042F26C02C2F20002FFF798FE0346DBB20D
:10291000184603F01BFD83E742F29463C2F2000302
:1029200093F84E34012B3DD042F29463C2F200037F
:102930004FF0010283F84E2442F26C03C2F200030E
:10294000254A5A6042F26C03C2F20003224A1A601E
:1029500042F26C03C2F200039B6818461F490BF059
:10296000DFFE03461E4819460CF096F803461A4649
:1029700042F26C03C2F200035A6142F26C03C2F2EB
:102980000003DB68184615490BF0CAFE03461548DC
:1029900019460CF081F803461A4642F26C03C2F263
:1029A00000039A6142F29463C2F20003D3F87024E8
:1029B00042F29463C2F20003D3F84434104619463D
:1029C00042F26C02C2F20002FFF738FE0346DBB2AD
:1029D000184603F0BBFC23E7000000000000803F26
:1029E000000048420000C84180B586B004AF4FF0F7
:1029F000000300934FF000004FF00A014FF0000277
:102A00004FF46143FFF792FB0346FB714FF224033F
:102A1000C0F600034FF0010200924FF00002019255
:102A20004FF0000202924FF00002039242F64D2056
:102A3000C0F6000019464FF480724FF0000304F016
:102A4000F1FD07F10807BD4680BD00BF80B582B02B
:102A500000AF7860FFF704FCFFF726FC4FF00A0098
:102A600004F03CFFF8E700BF80B586B000AF7860A7
:102A700039604FF00003BB753B681B88052B40F0A5
:102A800082807B6803F101031B784FEA0323BB823A
:102A90007B6803F102031B781A46BB8A42EA0303F0
:102AA000BB82BB8A03F10103BB827B6803F1030392
:102AB0001B784FEA03237B827B6803F104031B78B6
:102AC0001A467B8A42EA03037B827B8A002B56D01C
:102AD0007A8A40F2CF739A4251D87B68FB603B6898
:102AE0004FF000021A80FB684FF002021A70FB6878
:102AF00003F10103FB603B681B8803F101039AB2F9
:102B00003B681A807B8A03F00703002B08D07B8A7E
:102B10004FEAD3039BB2DBB203F10103FB7504E080
:102B20007B8A4FEAD3039BB2FB75FB68FA7D1A7070
:102B3000FB6803F10103FB603B681B8803F10103A1
:102B40009AB23B681A80BA8A7B8AF86811461A469C
:102B5000FFF7DCFA0346FB72FB7A002B06D0FB7A08
:102B6000184600F0D7FA0346BB750FE03B681A8899
:102B7000FB7D9BB2D3189AB23B681A8006E04FF0F7
:102B80000303BB7502E04FF00303BB75BB7D184622
:102B900007F11807BD4680BD80B400AFBD4680BCBC
:102BA000704700BF80B483B000AF0346FB7107F1EC
:102BB0000C07BD4680BC704780B400AFBD4680BCEA
:102BC000704700BF80B400AFBD4680BC704700BFF7
:102BD00080B400AFBD4680BC704700BF80B400AF7A
:102BE00040F2B523C2F200034FF000021A704FF01A
:102BF00001031846BD4680BC704700BF80B483B057
:102C000000AF0346FB7140F2B523C2F200034FF060
:102C100001021A7040F2B423C2F20003FA791A706A
:102C20004FF00103184607F10C07BD4680BC704702
:102C300080B485B000AF78604FF00003FB7340F2C2
:102C4000B523C2F200031B78002B10D040F2B4234E
:102C5000C2F200031A787B681A7040F2B523C2F200
:102C600000034FF000021A704FF00103FB73FB7B6F
:102C7000184607F11407BD4680BC704780B586B082
:102C800004AF4FF002004FF0010102F0BBFB4FF028
:102C900004004FF0010102F0B5FB4FF480633B608C
:102CA0004FF000037B714FF001033B714FF00003C5
:102CB000BB714FF00003FB713B464FF48060C4F2E0
:102CC0000200194605F0AEFF4FF48060C4F2020026
:102CD0004FF480614FF0000206F0B0F84FF22C0381
:102CE000C0F600034FF00102009242F28C02C2F2E1
:102CF000000201924FF0000202924FF00002039294
:102D000042F62150C0F6000019464FF040024FF045
:102D1000000304F087FC07F10807BD4680BD00BF33
:102D200080B582B000AF786042F29003C2F2000337
:102D30001B78012B40F0088142F29003C2F200039D
:102D40005B78072B00F2FC8001A252F823F000BF51
:102D5000712D0008AB2D0008E52D00081F2E00087E
:102D6000592E0008932E0008CD2E0008072F0008CA
:102D70004FF48060C4F202004FF480614FF0010212
:102D800006F05CF84FF4FA7004F0A8FD4FF4806090
:102D9000C4F202004FF480614FF0000206F04EF8DA
:102DA0004FF4FA7004F09AFDCEE04FF48060C4F264
:102DB00002004FF480614FF0010206F03FF84FF03F
:102DC000640004F08BFD4FF48060C4F202004FF405
:102DD00080614FF0000206F031F84FF0C80004F0B7
:102DE0007DFDB1E04FF48060C4F202004FF48061D9
:102DF0004FF0010206F022F84FF0640004F06EFD7F
:102E00004FF48060C4F202004FF480614FF0000282
:102E100006F014F84FF0C80004F060FD94E04FF4A1
:102E20008060C4F202004FF480614FF0010206F0AE
:102E300005F84FF0640004F051FD4FF48060C4F2D7
:102E400002004FF480614FF0000205F0F7FF4FF0F1
:102E5000C80004F043FD77E04FF48060C4F2020044
:102E60004FF480614FF0010205F0E8FF4FF064007D
:102E700004F034FD4FF48060C4F202004FF480612E
:102E80004FF0000205F0DAFF4FF0C80004F026FD15
:102E90005AE04FF48060C4F202004FF480614FF0BA
:102EA000010205F0CBFF4FF0640004F017FD4FF472
:102EB0008060C4F202004FF480614FF0000205F020
:102EC000BDFF4FF0C80004F009FD3DE04FF4806005
:102ED000C4F202004FF480614FF0010205F0AEFF32
:102EE0004FF0640004F0FAFC4FF48060C4F202007A
:102EF0004FF480614FF0000205F0A0FF4FF0C800D2
:102F000004F0ECFC20E04FF48060C4F202004FF4C7
:102F100080614FF0010205F091FF4FF0640004F072
:102F2000DDFC4FF48060C4F202004FF480614FF08A
:102F3000000205F083FF4FF0C80004F0CFFC03E06F
:102F40004FF4FA7004F0CAFC42F63833C2F20003C0
:102F50009B6803F1010242F63833C2F200039A6023
:102F6000E2E600BF80B582B000AF02460B46FA71C0
:102F7000BB71BB7903F00103DBB2002B1DD042F221
:102F80009003C2F200031B78002B0ED142F28C0397
:102F9000C2F200031B68184604F05EFD42F2900383
:102FA000C2F200034FF001021A7042F63833C2F247
:102FB00000034FF000021A7326E042F29003C2F2BF
:102FC00000031B78012B0ED142F28C03C2F20003E6
:102FD0001B68184604F0B0FC42F29003C2F20003F2
:102FE0004FF000021A7042F63833C2F200034FF07D
:102FF00001021A734FF48060C4F202004FF4806142
:103000004FF0000205F01AFFFB7903F00703DAB274
:1030100042F29003C2F200035A7007F10807BD465E
:1030200080BD00BF80B582B000AF786039607B683A
:1030300003F1010240F2D823C2F200031B881046BC
:1030400040F2B821C2F200011A460BF0A9FE40F28C
:10305000D823C2F200031B8803F101039AB23B6834
:103060001A804FF00003184607F10807BD4680BDDF
:1030700080B483B000AF0346FB714FF02003C4F26D
:103080000E23FA791A6007F10C07BD4680BC704721
:1030900080B485B000AF78604FF00003FB604FF460
:1030A000E043C4F200031B68FB60FB6823F0E0030D
:1030B000FB60FA687B6842EA0303FB604FF4E0437D
:1030C000C4F20003FA681A6007F11407BD4680BC19
:1030D000704700BF80B483B000AF0346FB714FF070
:1030E0001003C4F20E23FA791A6007F10C07BD46EB
:1030F00080BC704780B483B000AF0346FB714FF0D3
:10310000A403C4F20E23FA791A6007F10C07BD4636
:1031100080BC704780B485B000AF0346FB71FB797B
:10312000012B07D0072B09D0002B0BD14FF0000348
:10313000FB730BE04FF00203FB7307E04FF0060355
:10314000FB7303E04FF00403FB7300BFFB7B1846E7
:1031500007F11407BD4680BC704700BF80B582B040
:1031600000AF4FF26843C0F600037B6040F20003FB
:10317000C2F200033B600BE07B681A683B681A6090
:103180003B6803F104033B607B6803F104037B604D
:103190003A6840F20023C2F200039A42ECD3074897
:1031A00007494FF000028842B8BF40F8042BFADB11
:1031B00000F0B8FE07F10807BD4680BD0002002000
:1031C0008C36002080B400AFFEE700BF80B500AFB2
:1031D0004FF480204FF0010102F014F94FF08050BD
:1031E0004FF0010102F06AF980BD00BF80B586B0E2
:1031F00000AFF860B9601346FB714FF00003FB7538
:1032000044F24003C4F202033B614FF00100FFF7B8
:103210002FFF4FF00100FFF76DFF4FF00003FB752C
:103220000BE0FA68FB7DD318B968FA7D8A1812782A
:103230001A70FB7D03F10103FB75FA7DFB799A425D
:10324000EFD342F29463C2F20003D3F890341846ED
:103250004FF0400101F0A8FF0346DAB23B691A7053
:103260004FF00000FFF704FF07F11807BD4680BDCF
:1032700080B584B004AF00F021F84FF23403C0F6FB
:1032800000034FF0010200924FF0000201924FF054
:10329000000202924FF00002039243F2A140C0F6F6
:1032A000000019464FF080024FF0000304F0BAF915
:1032B0004FF000031846BD4680BD00BF80B588B002
:1032C00000AF4FF002004FF0010102F09BF84FF405
:1032D00080404FF0010102F0F1F84FF42043BB6150
:1032E0004FF002037B774FF002033B774FF0000370
:1032F000BB774FF00003FB7707F118034FF48060B2
:10330000C4F20200194605F08DFC4FF48043BB6106
:103310004FF002037B774FF002033B774FF000033F
:10332000BB774FF00003FB7707F118034FF4806081
:10333000C4F20200194605F075FC4FF48053BB61DE
:103340004FF001033B774FF00003BB774FF00003D2
:10335000FB774FF002037B7707F118034FF480608F
:10336000C4F20200194605F05DFC4FF48060C4F21F
:1033700002004FF00D014FF0050205F077FD4FF40C
:103380008060C4F202004FF00F014FF0050205F01B
:103390006DFD4FF48060C4F202004FF00E014FF05B
:1033A000050205F063FD4FF00003BB804FF482730C
:1033B000FB804FF000033B814FF000037B814FF017
:1033C0000103BB814FF40073FB814FF028033B8264
:1033D0004FF000037B8207F104034FF46050C4F206
:1033E0000000194609F07AFC4FF46050C4F2000066
:1033F0004FF0000109F0DEFC4FF46050C4F2000011
:103400004FF0010109F0B6FC4FF48063C4F20203EF
:103410004FF48062C4F20202128B92B242F48052E4
:1034200092B21A8307F12007BD4680BD80B483B0F5
:1034300000AF0346FB7100BF4FF46053C4F20003BA
:103440001B899BB203F00203002BF5D04FF46053AD
:10345000C4F20003FA7992B29A8100BF4FF460532C
:10346000C4F200031B899BB203F00103002BF5D0CB
:103470004FF46053C4F200039B899BB2DBB2184641
:1034800007F10C07BD4680BC704700BF80B500AF98
:103490004FF0FF00FFF7CAFF0346184680BD00BF8C
:1034A00080B582B000AF78604FF48063C4F202034D
:1034B0004FF48062C4F20202528B92B242F4805204
:1034C00092B25A834FF00600FFF7B0FF4FF00A00A8
:1034D00004F004FA4FF04000FFF7A8FF4FF0060099
:1034E000FFF7A4FF4FF00A0004F0F8F94FF048008E
:1034F000FFF79CFF4FF05600FFF798FF4FF00A00D0
:1035000004F0ECF94FF04C00FFF790FF4FF0620031
:10351000FFF78CFF4FF00A0004F0E0F94FF00800CD
:10352000FFF784FF00BF4FF48060C4F202004FF445
:10353000804105F063FC0346012BF4D0FFF7A6FFA2
:1035400003461A4642F2A003C2F200031A6042F296
:10355000A003C2F200031B684FEA032242F2A00359
:10356000C2F200031A60FFF791FF03461A4642F2C7
:10357000A003C2F200031B681A4342F2A003C2F286
:1035800000031A6042F2A003C2F200031B684FEA74
:10359000032242F2A003C2F200031A60FFF776FF93
:1035A00003461A4642F2A003C2F200031B681A4304
:1035B00042F2A003C2F200031A6042F2A003C2F278
:1035C00000031A684FF6FF73C0F27F039A420ED9C8
:1035D00042F2A003C2F200031B6803F17F4202F132
:1035E000010242F29403C2F200031A600AE042F2BE
:1035F000A003C2F200031B681A4642F29403C2F20F
:1036000000031A6042F29403C2F200031B681846DA
:1036100000F00CF8024642F29463C2F20003C3F8D1
:1036200044244FF0640004F059F977E7B0B586B050
:1036300000AF7860244B7B6142F66253C0F23303E3
:103640003B614FF01803C0F25A03FB607A683B6994
:10365000D31A18460BF018F9034618460AF0FCFC7A
:1036600002460B46104619464FF000024FF08043C9
:1036700003F5D2030AF044FD02460B4614461D46EC
:10368000FA683B69D31A18460AF0D4FC02460B4686
:10369000204629460AF05EFE02460B4610461946B1
:1036A0004FF000024FF000030AF078FB02460B4691
:1036B000104619460AF0DEFF03467B617B69184617
:1036C00007F11807BD46B0BD0000000080B584B00A
:1036D00000AF786039604FF00003FB733B681B88D4
:1036E000052B2BD17B6803F101031B784FEA0323E1
:1036F000BB817B6803F102031B781A46BB8942EA4F
:103700000303BB81BB8903F10103BB817B6803F128
:103710000302BB89104619464FF001024FF0010326
:10372000FEF772F90346FB72FB7A002B09D0FB7A95
:103730001846FFF7EFFC0346FB7302E04FF003036C
:10374000FB73FB7B184607F11007BD4680BD00BF29
:1037500080B584B000AF786039604FF00003FB7330
:103760003B681B88052B57D97B6803F101031B7845
:103770004FEA0323BB817B6803F102031B781A46DF
:10378000BB8942EA0303BB81BB8903F10103BB810F
:103790007B6803F103031B784FEA03237B817B687B
:1037A00003F104031B781A467B8942EA03037B81F9
:1037B0007B6803F105031B787B727B89002B27D084
:1037C0007B89782B24D87B89DBB24FEA4303DBB2B9
:1037D0007A7A9A421CD17B6803F10601BA897B8907
:1037E000084611461A464FF00103FEF70DF903464D
:1037F0003B723B7A002B06D03B7A1846FFF78AFCD7
:103800000346FB730BE03B684FF005021A8006E0AD
:103810004FF00303FB7302E04FF00303FB73FB7BEA
:10382000184607F11007BD4680BD00BF80B586B0C1
:1038300000AF786039604FF00003FB753B681B8870
:10384000052B70D17B6803F101031B784FEA03233A
:10385000BB827B6803F102031B781A46BB8A42EAEB
:103860000303BB82BB8A03F10103BB827B6803F1C4
:1038700003031B784FEA03237B827B6803F1040375
:103880001B787B827B8A002B49D07B8A7D2B46D894
:103890007B68FB603B684FF000021A80FB684FF0CA
:1038A00003021A70FB6803F10103FB603B681B888D
:1038B00003F101039AB23B681A807B8ADBB24FEABC
:1038C0004303DAB2FB681A70FB6803F10103FB6083
:1038D0003B681B8803F101039AB23B681A80BA8ADD
:1038E0007B8AF86811461A464FF00003FEF78CF801
:1038F0000346FB72FB7A002B06D0FB7A1846FFF7D3
:1039000009FC0346FB7511E03B681A887B8A4FEA85
:1039100043039BB2D3189AB23B681A8006E04FF07B
:103920000303FB7502E04FF00303FB75FB7D1846B4
:1039300007F11807BD4680BD80B586B000AF78603E
:1039400039604FF00003FB753B681B88092B40F280
:10395000BC807B6803F101031B784FEA0323BB8221
:103960007B6803F102031B781A46BB8A42EA030311
:10397000BB82BB8A03F10103BB827B6803F10303B3
:103980001B784FEA03237B827B6803F104031B78D7
:103990001A467B8A42EA03037B827B6803F10503B4
:1039A0001B784FEA03233B827B6803F106031B78F5
:1039B0001A463B8A42EA03033B823B8A03F1010336
:1039C0003B827B6803F107031B784FEA0323FB81EB
:1039D0007B6803F108031B781A46FB8942EA03035C
:1039E000FB817B6803F109031B787B737B8A002BC7
:1039F00068D07B8A7D2B65D8FB89002B62D0FB8940
:103A0000792B5FD8FB894FEA43027B7B9A4259D1DD
:103A10007B6803F10A013A8AFB89084611461A4677
:103A20004FF00103FDF7F0FF0346BB75BB7D002B94
:103A30003ED17B68BB603B684FF000021A80BB68D8
:103A40004FF017021A70BB6803F10103BB603B68BB
:103A50001B8803F101039AB23B681A807B8ADBB2B0
:103A60004FEA4303DAB2BB681A70BB6803F1010383
:103A7000BB603B681B8803F101039AB23B681A8064
:103A8000BA8A7B8AB86811461A464FF00003FDF7E0
:103A9000BBFF0346BB75BB7D002B09D13B681A8871
:103AA0007B8A4FEA43039BB2D3189AB23B681A80D1
:103AB000BB7D002B09D0BB7D1846FFF72BFB0346CF
:103AC000FB7502E04FF00303FB75FB7D184607F121
:103AD0001807BD4680BD00BF80B584B000AFF86058
:103AE0007A603B600B46FB72F86806F06DFAF86886
:103AF00000F01EF8FB683A68C3F8E025FB68BA6975
:103B0000C3F8E425FB687A68C3F8E825FB7AF8680F
:103B1000194609F061FCFB68D3F8E4351B68984747
:103B2000F86806F0CBFA07F11007BD4680BD00BF6C
:103B300080B483B000AF78604FF00003184607F1FF
:103B40000C07BD4680BC704780B584B000AF78607C
:103B500007F108037868194606F06EFF3B7A03F018
:103B60001F03012B0AD0022B0FD0002B14D107F119
:103B700008037868194606F027FB16E007F10803EA
:103B80007868194606F072FB0FE007F108037868C1
:103B9000194606F0A3FB08E03B7A23F07F03DBB273
:103BA0007868194609F0CAFD00BF4FF000031846B7
:103BB00007F11007BD4680BD80B584B000AF7860C6
:103BC0000B46FB70FB78002B45D17B6803F55C73DB
:103BD000FB607B6893F81131032B4FD1FB68DA69E6
:103BE000FB689B689A4221D9FB68DA69FB689B688D
:103BF000D21AFB68DA617B68DB78012B06D1FB689F
:103C0000DA68FB689B68D218FB68DA60FB68DA68E0
:103C1000FB689968FB68DB69994238BF0B469BB229
:103C2000786811461A4609F0F3FE27E07B68D3F85E
:103C3000E0351B69002B0AD07B6893F81231032B07
:103C400005D17B68D3F8E0351B69786898477868B8
:103C500009F0F6FE12E07B68D3F8E0359B69002B93
:103C60000CD07B6893F81231032B07D17B68D3F813
:103C7000E0359B69FA787868114698474FF0000361
:103C8000184607F11007BD4680BD00BF80B584B05F
:103C900000AF78600B46FB70FB78002B63D17B682C
:103CA00003F58C73FB607B6893F81131022B6ED1A6
:103CB000FB68DA69FB689B689A421CD9FB68DA6981
:103CC000FB689B68D21AFB68DA617B68DB78012BA2
:103CD00006D1FB68DA68FB689B68D218FB68DA607B
:103CE000FB68DA68FB68DB699BB2786811461A46A4
:103CF00009F052FE4CE0FB681B6AFA689268B3FB5D
:103D0000F2F102FB01F29B1A002B17D1FB681A6A31
:103D1000FB689B689A4211D3FB681A6AFB685B6A6E
:103D20009A420BD278684FF000014FF0000209F080
:103D300033FEFB684FF000025A6229E07B68D3F83B
:103D4000E035DB68002B0AD07B6893F81231032B37
:103D500005D17B68D3F8E035DB68786898477868E8
:103D600009F08CFE14E07B68D3F8E0355B69002B2A
:103D70000ED07B6893F81231032B09D17B68D3F8FE
:103D8000E0355B69FA7878681146984700E000BF33
:103D90004FF00003184607F11007BD4680BD00BF75
:103DA00080B582B000AF786078684FF000014FF0C6
:103DB00040024FF0000309F0A5FB78684FF0800146
:103DC0004FF040024FF0000309F09CFB7B684FF07E
:103DD000010283F812217B68D3F8E4355B687A68C6
:103DE0009278104698474FF00003184607F10807ED
:103DF000BD4680BD80B582B000AF78607B68D3F8E7
:103E0000E4351B6998477B684FF0030283F8122161
:103E10004FF00003184607F10807BD4680BD00BFFC
:103E200080B582B000AF78607B684FF0040283F801
:103E300012217B68D3F8E435DB6898474FF0000324
:103E4000184607F10807BD4680BD00BF80B582B0A7
:103E500000AF78607B68D3F8E035DB69002B05D0D4
:103E60007B68D3F8E035DB69786898474FF000034A
:103E7000184607F10807BD4680BD00BF80B582B077
:103E800000AF78600B46FB707B68D3F8E0351B68A9
:103E9000FA787868114698477B68D3F8E4359B68D0
:103EA00098474FF00003184607F10807BD4680BD4C
:103EB00080B582B000AF78600B46FB707B68D3F8AA
:103EC000E0355B68FA787868114698474FF0000350
:103ED000184607F10807BD4680BD00BF80B582B017
:103EE00000AF78607B68D3F8E0351B6A7868984744
:103EF0004FF00003184607F10807BD4680BD00BF1C
:103F000080B582B000AF78607B68D3F8E0355B6A3B
:103F1000786898474FF00003184607F10807BD4638
:103F200080BD00BF80B582B002AF05F00BFD42F24C
:103F30009463C2F200034FF0000283F84D2409F0AD
:103F4000D7FEFFF743F902F009F902F0ADFBFFF7E6
:103F50008FF905F0E9FD00F0E9FCFEF7C3FA00F087
:103F60007DF8FEF78BFE04F0EBFC40F29003C2F20A
:103F70000003009342F2A400C2F200004FF00101DE
:103F800040F22012C2F2000240F2D413C2F2000347
:103F9000FFF7A2FDFEF728FD03F0BCFDFEE700BF22
:103FA00080B400AFFEE700BF80B483B000AF78609C
:103FB0003960FEE780B582B000AF09F0BBFC034674
:103FC0007B607B6807F10807BD4680BD80B485B083
:103FD00000AF78600B467B804FF0FF03FB734FF020
:103FE000FF03BB731DE07B681A78BB7B82EA030387
:103FF000DBB2BB607B6803F101037B604FF24403DB
:10400000C0F60003BA689B181A78FB7B82EA0303A8
:10401000BB734FF24413C0F60003BA689B181B78B9
:10402000FB737B88002B0CBF00230123DBB27A8853
:1040300002F1FF327A80002BD5D1FB7B4FEA0323BC
:104040009AB2BB7B9BB242EA03039BB29BB2184677
:1040500007F11407BD4680BC704700BF80B586B02D
:1040600004AF4FF00003FB714FF00003BB7142F24D
:104070009463C2F2000393F84D34002B40F091801A
:104080004FF00003FB7165E0FA7942F29463C2F2EB
:1040900000034FF0980101FB02F29B1803F190031B
:1040A0004FF002021A70FA7942F29463C2F20003EE
:1040B0004FF0980101FB02F29B1803F188034FF0C7
:1040C00000029A80FA7942F29463C2F200034FF040
:1040D000980101FB02F29B1803F18803334A1A602E
:1040E000FA7942F29463C2F200034FF0980101FBA7
:1040F00002F29B1803F188034FF00002DA80FA798C
:1041000042F29463C2F200034FF0980101FB02F205
:104110009B18FA791A704FF00003BB7113E0F9791C
:10412000BB7942F29462C2F200024FF0260000FB1B
:1041300001F1CB184FEA8303D3181D4A5A60BB79AB
:1041400003F10103BB71BB791F2BE8D9FB7903F1A4
:104150000103FB71FB79062B96D942F29463C2F2FC
:1041600000034FF0000283F84C244FF24423C0F6C2
:1041700000034FF0010200924FF0000201924FF055
:10418000000202924FF00002039244F2B510C0F612
:10419000000019464FF080024FF0000303F042FA8E
:1041A00000E000BF07F10807BD4680BD0000000029
:1041B0000000484390B58BB004AF78604FF0000327
:1041C000FB8242F29463C2F2000393F84E34002B58
:1041D00007D142F29463C2F20003D3F86C343B611E
:1041E00006E042F29463C2F20003D3F870343B61FC
:1041F00042F29463C2F20003D3F84434184639699A
:104200000AF08CFA0346FB604FF001031C46F86885
:1042100051490AF02BFD0346002B02D14FF0000359
:104220001C46E3B2002B52D0FB6883F00043FB60D6
:104230004EE042F29463C2F20003D3F844341846CD
:1042400039690AF06BFA0346FB604FF001031C4624
:10425000F86841490AF00AFD0346002B02D14FF0ED
:1042600000031C46E3B2002B03D0FB6883F000433D
:10427000FB604FF47A7003F031FBFB8A03F101031A
:10428000FB8242F29463C2F20003B3F88C34FA8AE0
:104290009A421DD342F29463C2F200034FF005022A
:1042A00083F84C2442F29463C2F200034FF00402FC
:1042B00083F84D244FF000004FF00101FEF752FE4D
:1042C00002F01CF94FF0000003F0A8FA00E000BF74
:1042D0004FF001031C46F86820490AF0E5FC03464C
:1042E000002B02D14FF000031C46E3B2002BA0D1FB
:1042F00042F29463C2F2000393F84D34002B22D1B2
:1043000042F29463C2F200034FF0010283F84C249E
:104310004FF25C23C0F600034FF0010200924FF011
:10432000000201924FF0000202924FF0000203924D
:1043300044F26130C0F6000019464FF080024FF0A1
:10434000000303F06FF94FF0000003F067FA07F184
:104350001C07BD4690BD00BF000000000000803F6C
:1043600080B584B000AF78604FF00003FB7300E0CD
:1043700000BF42F6D843C2F200031B6818464FF054
:1043800000014FF0FF324FF0000306F0FFFD03463F
:10439000012BEDD14FF00003FB7310E0FB7B4FF0DE
:1043A000980202FB03F242F29463C2F20003D318B4
:1043B000184600F09FF9FB7B03F10103FB73FB7BC5
:1043C000062BEBD9D5E700BF90B589B000AF786078
:1043D0000B46FB704FF00003FB774FF00003BB77F9
:1043E0004FF000037B774FF000033B774FF0000363
:1043F000FB7624E0FB7E7A684FF0980101FB03F323
:10440000D31803F190031B78012B14D1FA7F79683C
:10441000FB7E4FF0980000FB03F3C9187B6802F5A0
:10442000857243F82210FB7F03F10103FB77BB7F0A
:1044300003F10103BB77FB7E03F10103FB76FA7EF8
:10444000FB789A42D6D3BB7F002B47D0FB7F03F18A
:10445000FF33FB763FE04FF00003BB7633E0BA7EDC
:104460007B6802F5857253F822301A78BB7E03F11F
:1044700001017B6801F5857153F821301B789A4260
:104480001DD9BA7E7B6802F5857253F822307B61B4
:10449000BA7EBB7E03F101017B6801F5857153F89B
:1044A00021107B6802F5857243F82210BB7E03F170
:1044B000010279697B6802F5857243F82210BB7EA0
:1044C00003F10103BB76BA7EFB7E9A42C7D3FB7E23
:1044D00003F1FF33FB76FB7E002BBCD14FF00003D2
:1044E000FB7624E0FB7E7A684FF0980101FB03F332
:1044F000D31803F190031B78002B14D1FA7F79684D
:10450000FB7E4FF0980000FB03F3C9187B6802F5AF
:10451000857243F82210FB7F03F10103FB777B7F59
:1045200003F101037B77FB7E03F10103FB76FA7E47
:10453000FB789A42D6D37B7F002B5BD0FB7F03F1C5
:10454000FF33FB7650E0FA7F7B7FD31ABB7643E0E4
:10455000BA7E7B6802F5857253F82230D3F8882042
:10456000BB7E03F101017B6801F5857153F82130B1
:10457000D3F888304FF001010C46104619460AF076
:1045800093FB0346002B02D14FF000031C46E3B21D
:10459000002B1DD0BA7E7B6802F5857253F822305D
:1045A0003B61BA7EBB7E03F101017B6801F5857139
:1045B00053F821107B6802F5857243F82210BB7E08
:1045C00003F1010239697B6802F5857243F8221014
:1045D000BB7E03F10103BB76BA7EFB7E9A42B7D362
:1045E000FB7E03F1FF33FB76FA7EF97F7B7FCB1AEC
:1045F0009A42A8DC4FF00003FB7624E0FB7E7A6849
:104600004FF0980101FB03F3D31803F190031B78DB
:10461000022B14D1FA7F7968FB7E4FF0980000FBE3
:1046200003F3C9187B6802F5857243F82210FB7FFB
:1046300003F10103FB773B7F03F101033B77FB7E33
:1046400003F10103FB76FA7EFB789A42D6D33B7FD7
:10465000002B4BD0FB7F03F1FF33FB7640E0FA7F6A
:104660003B7FD31ABB7633E0BA7E7B6802F5857256
:1046700053F822301A78BB7E03F101017B6801F503
:10468000857153F821301B789A421DD9BA7E7B6818
:1046900002F5857253F82230FB60BA7EBB7E03F1CF
:1046A00001017B6801F5857153F821107B6802F5E3
:1046B000857243F82210BB7E03F10102F9687B6822
:1046C00002F5857243F82210BB7E03F10103BB762D
:1046D000BA7EFB7E9A42C7D3FB7E03F1FF33FB76A3
:1046E000FA7EF97F3B7FCB1A9A42B8DC07F12407A8
:1046F000BD4690BD90B589B000AF78607B6893F8F7
:104700009030012B00F00481022B02D0002B57D0F7
:1047100005E17B6893F884307A684FEA8303D31805
:104720005A687B6893F88430194642F29463C2F267
:104730000003B3F88E34CB1A03F01F0379684FEAF5
:104740008303CB185B681046194609F0E7FF034660
:104750007B6142F29463C2F20003D3F880344FF0DD
:1047600001021446184679690AF080FA0346002BC4
:1047700002D14FF000031C46E3B2002B00F0CA80C8
:104780007B68D3F8882042F29463C2F20003D3F826
:1047900084344FF001010C46104619460AF084FAA1
:1047A0000346002B02D14FF000031C46E3B2002B5E
:1047B00000F0B2807B684FF0000283F89020AEE0FA
:1047C000594B3B61584BFB617B6893F88430FB731A
:1047D00042F29463C2F20003B3F88E34DBB2FA7B88
:1047E000D31ADBB203F01F03FB7611E0FB7E03F06C
:1047F0001F037A684FEA8303D3185B68F869194688
:1048000009F08EFF0346FB61FB7E03F10103FB769B
:10481000FB7E03F01F02FB7B9A42E7D142F29463D6
:10482000C2F20003B3F88E3418460AF02DF803469E
:10483000F86919460AF030F903463B617B681B783A
:104840001A4642F29463C2F2000302F58A7253F8E8
:1048500022304FF001021446184639690AF006FA70
:104860000346002B02D14FF000031C46E3B2002B9D
:1048700012D07B684FF0010283F8902042F29463DB
:10488000C2F200034FF0010283F84C244FF0000005
:104890004FF00101FEF766FB7B6893F884307A687D
:1048A0004FEA8303D3185A687B6893F8843019461B
:1048B00042F29463C2F20003B3F88E34CB1A03F0D1
:1048C0001F0379684FEA8303CB185B6810461946CB
:1048D00009F024FF0346BB6042F29463C2F2000376
:1048E000D3F888344FF0010214461846B9680AF02C
:1048F000DBF90346002B02D14FF000031C46E3B264
:10490000002B0BD07B684FF0020283F8902006E06A
:1049100000BF04E000BF02E000BF00E000BF184697
:1049200007F12407BD4690BD0000000090B585B09A
:1049300000AF4FF00003FB7342F29463C2F2000336
:104940004FF48042C4F20202C3F8902444F24003C0
:10495000C4F20203BB6042F29463C2F20003D3F8D4
:10496000903418464FF0400100F01EFC0346FB71E6
:10497000BB681B78FA799A4240F0A0834FF000039D
:10498000FB7368E042F29463C2F20003D3F8903400
:10499000FA7B53F822304FF0010214461846CB49F7
:1049A0000AF078F90346002B02D14FF000031C46B1
:1049B000E3B2002B2BD042F29463C2F20003D3F88F
:1049C0009034FA7B53F822304FF001021446184617
:1049D000BF490AF055F90346002B02D14FF00003FE
:1049E0001C46E3B2002B12D0FA7B42F29463C2F26F
:1049F0000003D3F89034F97B53F8211042F294630A
:104A0000C2F2000302F58A7243F822101FE0FA7B1B
:104A100042F29463C2F2000302F58A72AD4943F890
:104A2000221042F29463C2F20003D3F890341A4683
:104A3000FB7B4FEA8303D218FB7B4FEA83019F4B3A
:104A4000CB18104619464FF00402FEF7CFFBFB7B54
:104A500003F10103FB73FB7B062B93D942F29463B2
:104A6000C2F20003D3F89034DB694FF00102144620
:104A7000184696490AF00EF90346002B02D14FF072
:104A800000031C46E3B2002B24D042F29463C2F22E
:104A90000003D3F89034DB694FF001021446184646
:104AA0008B490AF0EDF80346002B02D14FF00003CA
:104AB0001C46E3B2002B0DD042F29463C2F2000315
:104AC000D3F89034DA6942F29463C2F20003C3F877
:104AD0006C2414E042F29463C2F200037E4AC3F8ED
:104AE0006C2442F29463C2F20003D3F8903403F1D1
:104AF0001C03184672494FF00402FEF777FB42F29E
:104B00009463C2F20003D3F890341B6A4FF00102A1
:104B1000144618466D490AF0BDF80346002B02D131
:104B20004FF000031C46E3B2002B24D042F2946302
:104B3000C2F20003D3F890341B6A4FF0010214460E
:104B4000184663490AF09CF80346002B02D14FF047
:104B500000031C46E3B2002B0DD042F29463C2F274
:104B60000003D3F890341A6A42F29463C2F200034D
:104B7000C3F8702414E042F29463C2F20003564A70
:104B8000C3F8702442F29463C2F20003D3F8903465
:104B900003F1200318464B494FF00402FEF726FBB1
:104BA00042F29463C2F20003D3F890345B6A4FF090
:104BB00001021446184645490AF06CF80346002BDA
:104BC00002D14FF000031C46E3B2002B24D042F286
:104BD0009463C2F20003D3F890345B6A4FF0010291
:104BE000144618463D490AF04BF80346002B02D103
:104BF0004FF000031C46E3B2002B0DD042F2946349
:104C0000C2F20003D3F890345A6A42F29463C2F2BB
:104C10000003C3F8742414E042F29463C2F2000368
:104C20002F4AC3F8742442F29463C2F20003D3F80B
:104C3000903403F12403184623494FF00402FEF791
:104C4000D5FA42F29463C2F20003D3F890349B6A1F
:104C50004FF001021446184622490AF01BF8034699
:104C6000002B02D14FF000031C46E3B2002B3DD0D5
:104C700042F29463C2F20003D3F890349B6A4FF07F
:104C8000010214461846184909F0FAFF0346002BA2
:104C900002D14FF000031C46E3B2002B26D042F2B3
:104CA0009463C2F20003D3F890349A6A42F2946398
:104CB000C2F20003C3F878242DE000BFE42A0020EC
:104CC000002B0020042B0020082B002000000000F7
:104CD000000048430000DC420000E64200401C4661
:104CE0000000F0420000C8C20000C84242F29463D3
:104CF000C2F20003BF4AC3F8782442F29463C2F2BE
:104D00000003D3F8903403F128031846B4494FF058
:104D10000402FEF76BFA42F29463C2F20003D3F886
:104D20009034DB6A4FF0010214461846B24909F08C
:104D3000B1FF0346002B02D14FF000031C46E3B243
:104D4000002B24D042F29463C2F20003D3F89034D3
:104D5000DB6A4FF0010214461846A84909F090FF9B
:104D60000346002B02D14FF000031C46E3B2002B98
:104D70000DD042F29463C2F20003D3F89034DA6AA1
:104D800042F29463C2F20003C3F87C2414E042F2BE
:104D90009463C2F200039A4AC3F87C2442F29463FB
:104DA000C2F20003D3F8903403F12C0318468D4966
:104DB0004FF00402FEF71AFA42F29463C2F20003C3
:104DC000D3F890341B6B4FF00102144618468C49FF
:104DD00009F060FF0346002B02D14FF000031C4690
:104DE000E3B2002B24D042F29463C2F20003D3F862
:104DF00090341B6B4FF0010214461846814909F0AC
:104E00003FFF0346002B02D14FF000031C46E3B2E4
:104E1000002B0DD042F29463C2F20003D3F8903419
:104E20001A6B42F29463C2F20003C3F8802414E0C8
:104E300042F29463C2F20003734AC3F8802442F240
:104E40009463C2F20003D3F8903403F130031846A0
:104E500065494FF00402FEF7C9F942F29463C2F2C9
:104E60000003D3F890349B6B4FF0010214461846B0
:104E7000664909F00FFF0346002B02D14FF00003F3
:104E80001C46E3B2002B24D042F29463C2F200032A
:104E9000D3F890349B6B4FF00102144618465C49DE
:104EA00009F0EEFE0346002B02D14FF000031C4632
:104EB000E3B2002B0DD042F29463C2F20003D3F8A8
:104EC00090349A6B42F29463C2F20003C3F88824D0
:104ED00014E042F29463C2F200034E4AC3F88824FD
:104EE00042F29463C2F20003D3F8903403F1380322
:104EF00018463E494FF00402FEF778F942F29463F7
:104F0000C2F20003D3F890345B6B4FF001021446F9
:104F10001846414909F0BEFE0346002B02D14FF06E
:104F200000031C46E3B2002B24D042F29463C2F289
:104F30000003D3F890345B6B4FF00102144618461F
:104F40002E4909F09DFE0346002B02D14FF00003CD
:104F50001C46E3B2002B0DD042F29463C2F2000370
:104F6000D3F890345A6B42F29463C2F20003C3F850
:104F7000842414E042F29463C2F20003274AC3F887
:104F8000842442F29463C2F20003D3F8903403F114
:104F90003403184616494FF00402FEF727F942F28F
:104FA0009463C2F20003D3F890349B8F092B37D956
:104FB00042F29463C2F20003D3F890349B8FB3F5AE
:104FC0007A7F2DD842F29463C2F20003D3F8903472
:104FD0009A8F42F29463C2F20003A3F88C2435E066
:104FE0000C2B0020102B0020142B00201C2B002049
:104FF000182B0020000040400000C8C20000C8423A
:10500000000000000000204100008040000020C19E
:10501000000080BF000000C00000204200003442B9
:1050200042F29463C2F200034FF03C02A3F88C24D6
:1050300042F29463C2F20003D3F8903403F13C03CC
:1050400018464F494FF00202FEF7D0F842F294633F
:10505000C2F20003D3F89034DB8F092B17D942F248
:105060009463C2F20003D3F89034DB8FB3F57A7FF8
:105070000DD842F29463C2F20003D3F89034DA8F71
:1050800042F29463C2F20003A3F88E2473E042F26A
:105090009463C2F200034FF00A02A3F88E2442F296
:1050A0009463C2F20003D3F8903403F13E03184630
:1050B00034494FF00202FEF799F85CE04FF000032C
:1050C000FB730DE0FA7B42F29463C2F2000302F537
:1050D0008A722D4943F82210FB7B03F10103FB7315
:1050E000FB7B062BEED942F29463C2F20003274AFF
:1050F000C3F8742442F29463C2F20003244AC3F852
:10510000782442F29463C2F20003224AC3F87C245A
:1051100042F29463C2F200031F4AC3F86C2442F2C5
:105120009463C2F200031C4AC3F8702442F29463F1
:10513000C2F20003194AC3F8802442F29463C2F217
:105140000003174AC3F8882442F29463C2F20003B2
:10515000144AC3F8842442F29463C2F200034FF06D
:105160003C02A3F88C2442F29463C2F200034FF095
:105170000A02A3F88E2407F11407BD4690BD00BFB4
:10518000202B0020222B00200000DC420000F042F7
:1051900000004040000000000000E64200008040A7
:1051A000000000C00000344280B487B000AF7860D7
:1051B0000B46FB704FF00003FB757B683B61FB788F
:1051C000FB732BE03B691A78FB7D82EA0303FB75D6
:1051D0003B6903F101033B61FB7D03F00103DBB29B
:1051E000002B02D04FF0800301E04FF00003FA7D66
:1051F0004FEA5202D2B2D1B21A460B4642EA030338
:10520000DBB2FB75FB7D5BB2002B03DAFB7D83F029
:105210003C03FB75FB7B03F1FF33FB73FB7B002B34
:10522000D0D1FB7D184607F11C07BD4680BC7047F6
:1052300080B489B000AF78604FF00003BB614FF0DD
:1052400000037B614FF00003FB614FF002033B6101
:105250004FF00003FB604FF00203BB604FF460535C
:10526000C4F202039B6803F00C03BB61BB69042B0F
:105270000AD0082B0FD0002B64D17A684FF410535A
:10528000C0F2F403136064E07A6847F64003C0F2AA
:105290007D1313605DE04FF46053C4F202035B685A
:1052A00003F480034FEA9353FB604FF46053C4F25E
:1052B00002035B6803F03F03BB60FB68002B16D062
:1052C00047F64003C0F27D13BA68B3FBF2F24FF425
:1052D0006053C4F202035B68194647F6C07301EAE3
:1052E00003034FEA931303FB02F3FB6115E04FF452
:1052F0001053C0F2F403BA68B3FBF2F24FF46053F8
:10530000C4F202035B68194647F6C07301EA03035F
:105310004FEA931303FB02F3FB614FF46053C4F2B3
:1053200002035B6803F440334FEA134303F10103C4
:105330004FEA43033B61FA693B69B2FBF3F27B68D6
:105340001A6006E07A684FF41053C0F2F403136059
:1053500000BF4FF46053C4F202039B6803F0F003F4
:10536000BB61BB694FEA1313BB6140F2DC03C2F2BD
:105370000003BA699B181B78DBB27B617B681A68F3
:105380007B6922FA03F27B685A604FF46053C4F2DF
:1053900002039B6803F4E053BB61BB694FEA9323AC
:1053A000BB6140F2DC03C2F20003BA699B181B78B0
:1053B000DBB27B617B685A687B6922FA03F27B6807
:1053C0009A604FF46053C4F202039B6803F4604395
:1053D000BB61BB694FEA5333BB6140F2DC03C2F2ED
:1053E0000003BA699B181B78DBB27B617B685A6843
:1053F0007B6922FA03F27B68DA6007F12407BD4675
:1054000080BC704780B483B000AF78600B46FB70FF
:10541000FB78002B0ED04FF46053C4F202034FF41C
:105420006052C4F20202126B11467A6841EA02022B
:105430001A630FE04FF46053C4F202034FF460525A
:10544000C4F20202126B11467A686FEA020201EAA4
:1054500002021A6307F10C07BD4680BC704700BF0B
:1054600080B483B000AF78600B46FB70FB78002BF4
:105470000ED04FF46053C4F202034FF46052C4F2F2
:105480000202526B11467A6841EA02025A630FE047
:105490004FF46053C4F202034FF46052C4F20202AC
:1054A000526B11467A686FEA020201EA02025A63FD
:1054B00007F10C07BD4680BC704700BF80B483B0C5
:1054C00000AF78600B46FB70FB78002B0ED04FF4DA
:1054D0006053C4F202034FF46052C4F20202126C31
:1054E00011467A6841EA02021A640FE04FF46053F1
:1054F000C4F202034FF46052C4F20202126C11466D
:105500007A686FEA020201EA02021A6407F10C07E4
:10551000BD4680BC704700BF80B483B000AF7860E8
:105520000B46FB70FB78002B0ED04FF46053C4F297
:1055300002034FF46052C4F20202526C11467A68C0
:1055400041EA02025A640FE04FF46053C4F20203CE
:105550004FF46052C4F20202526C11467A686FEA4C
:10556000020201EA02025A6407F10C07BD4680BC40
:10557000704700BF80B483B000AF78600B46FB700B
:10558000FB78002B0ED04FF46053C4F202034FF4AB
:105590006052C4F20202526A11467A6841EA02027B
:1055A0005A620FE04FF46053C4F202034FF46052AA
:1055B000C4F20202526A11467A686FEA020201EAF4
:1055C00002025A6207F10C07BD4680BC704700BF5B
:1055D00080B500AF4FF480704FF00101FFF7CAFFB4
:1055E0004FF480704FF00001FFF7C4FF80BD00BF93
:1055F00080B485B000AF786039604FF00003FB6085
:105600004FF00003FB727B685B68FB60FB6823F074
:10561000407323F48073FB603B681B794FEA0322DD
:105620003B681B6842EA0303FA6842EA0303FB6033
:105630007B68FA685A607B689B68FB60FA684FF287
:10564000FD73CCF2FF0302EA0303FB603B681A69B7
:105650003B68DB681A433B689B681A433B685B798D
:105660004FEA430342EA0303FA6842EA0303FB609A
:105670007B68FA689A607B68DB6AFB60FB6823F4EE
:105680007003FB603B681B7D03F1FF33DAB2FB7AEA
:1056900042EA0303FB72FB7A4FEA0353FA6842EAD9
:1056A0000303FB607B68FA68DA6207F11407BD4602
:1056B00080BC704780B483B000AF78607B684FF0E7
:1056C00000021A607B684FF000021A717B684FF08D
:1056D00000025A717B684FF000029A607B684FF0BD
:1056E0000002DA607B684FF000021A617B684FF0BD
:1056F00001021A7507F10C07BD4680BC704700BF58
:1057000080B485B000AF78604FF00003FB604FF4C9
:105710000C53C4F201035B68FB60FA6843F2E003D8
:10572000CFF6FC7302EA0303FB607B681A687B68B0
:105730005B681A437B689B681A437B68DB6842EAB4
:105740000303FA6842EA0303FB604FF40C53C4F20C
:105750000103FA685A6007F11407BD4680BC704720
:1057600080B483B000AF78607B684FF000021A60AD
:105770007B684FF000025A607B684FF000029A602D
:105780007B684FF00002DA6007F10C07BD4680BC71
:10579000704700BF80B483B000AF78600B46FB70E9
:1057A000FB78002B06D07B689B6843F001027B6886
:1057B0009A6005E07B689B6823F001027B689A6031
:1057C00007F10C07BD4680BC704700BF80B485B0B0
:1057D00000AF7860F970BA707B704FF00003FB6027
:1057E0004FF00003BB60FB78092B29D97B68DB688D
:1057F000FB60FA7813464FEA43039B18A3F11E039C
:105800004FF0070202FA03F3BB60BB686FEA0303C1
:10581000FA6802EA0303FB607978FA7813464FEAE4
:1058200043039B18A3F11E0301FA03F3BB60FA685C
:10583000BB6842EA0303FB607B68FA68DA6024E035
:105840007B681B69FB60FA7813464FEA43039B1899
:105850004FF0070202FA03F3BB60BB686FEA030371
:10586000FA6802EA0303FB607978FA7813464FEA94
:1058700043039B1801FA03F3BB60FA68BB6842EA72
:105880000303FB607B68FA681A61BB78062B29D892
:105890007B685B6BFB60BB7803F1FF3213464FEA1A
:1058A00083039B184FF01F0202FA03F3BB60BB682F
:1058B0006FEA0303FA6802EA0303FB60F978BB7836
:1058C00003F1FF3213464FEA83039B1801FA03F3F7
:1058D000BB60FA68BB6842EA0303FB607B68FA6856
:1058E0005A6355E0BB780C2B29D87B681B6BFB6097
:1058F000BA7813464FEA83039B18A3F123034FF0B2
:105900001F0202FA03F3BB60BB686FEA0303FA6885
:1059100002EA0303FB60F978BA7813464FEA83037F
:105920009B18A3F1230301FA03F3BB60FA68BB6879
:1059300042EA0303FB607B68FA681A6328E07B682D
:10594000DB6AFB60BA7813464FEA83039B18A3F126
:1059500041034FF01F0202FA03F3BB60BB686FEA1A
:105960000303FA6802EA0303FB60F978BA78134686
:105970004FEA83039B18A3F1410301FA03F3BB60D1
:10598000FA68BB6842EA0303FB607B68FA68DA6284
:1059900007F11407BD4680BC704700BF80B485B0D6
:1059A00000AF78600B46FB704FF00003FB737B6821
:1059B0001B681A46FB7802EA0303002B03D04FF062
:1059C0000103FB7302E04FF00003FB73FB7B1846FF
:1059D00007F11407BD4680BC704700BF80B586B094
:1059E00000AF786039604FF00003FB753B681B889F
:1059F000052B72D17B6803F101031B784FEA032367
:105A0000BB827B6803F102031B781A46BB8A42EA19
:105A10000303BB82BB8A03F10103BB827B6803F1F2
:105A200003031B784FEA03237B827B6803F10403A3
:105A30001B781A467B8A42EA03037B827B8A002B0F
:105A400047D07B8A7C2B44D87B68FB603B684FF057
:105A500000021A80FB684FF004021A70FB6803F121
:105A60000103FB603B681B8803F101039AB23B68AA
:105A70001A807B8ADBB24FEA4303DAB2FB681A7002
:105A8000FB6803F10103FB603B681B8803F1010322
:105A90009AB23B681A80BA8A7B8AF86811461A461D
:105AA000FBF716FF0346FB72FB7A002B06D0FB7A4E
:105AB0001846FDF72FFB0346FB7511E03B681A887B
:105AC0007B8A4FEA43039BB2D3189AB23B681A8091
:105AD00006E04FF00303FB7502E04FF00303FB7594
