:020000040800F2
:10000000703B0020C1210008292200082922000895
:1000100029220008292200082922000800000000E7
:10002000000000000000000000000000CD7E00087D
:100030002922000800000000D17F00080D80000880
:10004000292200085DA400082922000829220008AE
:100050002922000829220008393E00084D3F0008E7
:100060002922000829220008292200082922000844
:100070002922000829220008292200082922000834
:100080002922000829220008292200082922000824
:100090002922000829220008292200082922000814
:1000A0002922000829220008292200082922000804
:1000B0009517000829220008292200082922000893
:1000C00029220008292200082922000829220008E4
:1000D00029220008292200082922000829220008D4
:1000E0002922000829220008856C0008292200081E
:1000F00029220008292200082922000829220008B4
:1001000029220008292200082922000829220008A3
:100110002922000829220008292200082922000893
:100120002922000829220008292200082922000883
:100130002922000829220008292200082922000873
:10014000292200082922000829220008C96C000879
:100150002922000829220008292200082922000853
:100160002922000829220008292200082922000843
:100170002922000829220008292200082922000833
:10018000292200082922000890B484B000AF02465A
:100190000B46FA71BB714FF00003FB60BB7903F0B3
:1001A00003034FEA83034FF00F0202FA03F3FB60ED
:1001B0004FF46053C4F20103BA794FEA9202D2B20B
:1001C00010464FF46052C4F20102B9794FEA91012E
:1001D000C9B201F1020152F821201146FA686FEA12
:1001E0000202114000F1020243F822104FF4605362
:1001F000C4F20103BA794FEA9202D2B210464FF428
:100200006052C4F20102B9794FEA9101C9B201F119
:10021000020152F821201146FC79BA7902F003025A
:100220004FEA820204FA02F2114300F1020243F89B
:10023000221007F11007BD4690BC704780B485B00E
:1002400000AF78604FF00003FB607B68DB684FF025
:10025000FF325A607B68DB684FF0FF325A61FB68FF
:1002600043F00043FB60FB6843F40063FB607B6882
:10027000DB68FA689A6107F11407BD4680BC7047D5
:1002800080B586B000AF78604FF00003FB744FF08C
:1002900000037B614FF00003FB604FF0030006F0AA
:1002A000B5FC7B68DB681B69FB607B6903F10103BC
:1002B0007B617A694FF45463C0F203039A4202D916
:1002C0004FF000032AE0FB6803F00043002BE4D06A
:1002D0004FF000037B61FB6843F00103FB607B6828
:1002E000DB68FA681A617B68DB681B69FB607B6905
:1002F00003F101037B617A694FF45463C0F2030395
:100300009A4205D8FB6803F00103002BEBD100E013
:1003100000BF4FF0030006F079FCFB7C184607F1A4
:100320001807BD4680BD00BF80B489B000AFF8603B
:10033000B960FA71BB804FF00003FB76FB68DB7895
:10034000002B2DD14FF000037B614FF00003FB61C8
:10035000BB8803F1030303F10302002BB8BF13466C
:100360004FEAA3037B61FB79FA6803F132034FEA9A
:100370008303D3189B683B614FF00003FB610BE0E4
:10038000BB681A683B691A60FB6903F10103FB61F2
:10039000BB6803F10403BB60FA697B699A42EFD33F
:1003A000FB7E184607F12407BD4680BC704700BF9E
:1003B00080B489B000AFF860B9601346FB804FF09D
:1003C0000003FB61FB8803F1030303F10302002B2D
:1003D000B8BF13464FEAA303BB61FB68D3F8D03024
:1003E0007B614FF00003FB610BE0BB687A69126828
:1003F0001A60FB6903F10103FB61BB6803F10403AD
:10040000BB60FA69BB699A42EFD3BB68184607F133
:100410002407BD4680BC704780B487B000AF7860C9
:100420000B46FB704FF000033B614FF00003FB7382
:100430007B684FF00002DA707B684FF001029A701F
:100440007B684FF040029A80FB78012B17D14FF068
:10045000A0433B617B684FF00102DA727B684FF08A
:1004600008021A707B684FF004025A707B684FF4E0
:10047000A072DA807B684FF002021A7217E0FB78F4
:10048000002B14D14FF00003C4F204033B617B68DE
:100490004FF00002DA727B684FF00C021A707B6832
:1004A0004FF006025A707B684FF4A062DA803A6916
:1004B0007B68DA603B6903F500631A467B681A6162
:1004C0004FF000037B6123E07B694FEA43123B69F5
:1004D000D31803F510631A4679687B6903F10403A6
:1004E0004FEA8303CB189A607B694FEA43123B695A
:1004F000D31803F530631A4679687B6903F1140356
:100500004FEA8303CB185A607B6903F101037B61D7
:100510007B685B781A467B699A42D5D83B6903F5BC
:1005200080631A467B685A613B6903F588631A4603
:100530007B68C3F8CC204FF000037B6113E07B693C
:100540004FEA43123B69D31803F5A0631A46796852
:100550007B6903F122034FEA8303CB189A607B691E
:1005600003F101037B617B681B781A467B699A4221
:10057000E5D84FF000037B6113E07B694FEA03325B
:100580003B69D31803F580531A4679687B6903F1F8
:1005900032034FEA8303CB189A607B6903F10103AE
:1005A0007B617B681B781A467B699A42E5D83B6978
:1005B00003F560631A467B68C3F80C21FB7B184681
:1005C00007F11C07BD4680BC704700BF80B588B0EE
:1005D00000AF78604FF00003FB774FF00003BB6182
:1005E0004FF000037B614FF00003FB607B681B7AD8
:1005F000012B51D17B68DB689B6B7B617B696FF35F
:1006000010437B617B685B7A002B03D07B6943F4EA
:1006100080137B617B68DB687A699A634FF0000323
:10062000BB617B68DB68DB68BB61BB696FF386130A
:10063000BB61BB696FF39653BB61BB6943F01003A9
:10064000BB61BB696FF3C303BB61BB696FF3C713C6
:10065000BB61BB696FF35143BB61BB696FF3D343AC
:10066000BB617B68DB68BA69DA607868FFF708FE0F
:100670007B68DB78012B40F08980FB684FF0050236
:1006800062F34403FB60FB6843F02003FB607B687C
:10069000DB68FA689A6079E07B68DB68DB68BB61DD
:1006A000BB6943F04003BB617B68DB68BA69DA6011
:1006B0007868FFF7E5FD4FF000037B617B6943F449
:1006C00080337B617B681B7A032B03D17B6943F406
:1006D00000337B617B6943F480237B617B6943F456
:1006E00000237B617B6943F400137B617B685B7A49
:1006F000002B03D07B6943F480137B617B68DB684C
:100700007A699A634FF0140006F0ACFA7B68DB68F4
:10071000DB68BB617B681B7A032B03D1BB6943F4A5
:100720008033BB617B68DB68BA69DA607B681B7AFF
:10073000032B2BD17B68DB681B6B3B613B694FF064
:10074000010262F39B633B613B696FF3D7533B61EB
:100750003B6943F080533B613B694FF02D0262F3EC
:1007600016433B617B68DB683A691A634FF0C80047
:1007700006F078FA3B6943F400033B617B68DB6871
:100780003A691A634FF0C80006F06CFA7B68DB78B0
:10079000012B11D17B68DB689B68FB60FB684FF025
:1007A000050262F34403FB60FB6843F02003FB6037
:1007B0007B68DB68FA689A60FB7F184607F12007C0
:1007C000BD4680BD80B485B000AF78604FF00003B7
:1007D000FB734FF00003BB60BB6843F00103BB60D9
:1007E0007B68DB687A68D26892681146BA6841EA29
:1007F00002029A60FB7B184607F11407BD4680BCD5
:10080000704700BF80B485B000AF78604FF0000340
:10081000FB734FF00003BB60BB6843F00103BB6098
:100820007B68DB687A68D26892681146BA686FEABA
:10083000020201EA02029A60FB7B184607F11407E4
:10084000BD4680BC704700BF80B586B000AF786001
:1008500039604FF00003FB744FF000037B614FF0F1
:100860000003FB60FB6843F02003FB603B68DBB2E6
:1008700003F01F03DAB2FB6862F38A13FB607B6844
:10088000DB68FA681A617B68DB681B69FB607B695F
:1008900003F101037B617A694FF45463C0F20303EF
:1008A0009A4205D8FB6803F02003002BEBD100E04F
:1008B00000BF4FF0030006F0A9F9FB7C184607F1D2
:1008C0001807BD4680BD00BF80B586B000AF786018
:1008D0004FF00003FB744FF000037B614FF0000307
:1008E000FB60FB6843F01003FB607B68DB68FA6821
:1008F0001A617B68DB681B69FB607B6903F101039C
:100900007B617A694FF45463C0F203039A4205D8BD
:10091000FB6803F01003002BEBD100E000BF4FF0A9
:10092000030006F073F9FB7C184607F11807BD4673
:1009300080BD00BF80B584B000AF78600B46FB700F
:100940004FF00003FB737B68DB68DB68BB60BB6850
:100950006FF35D73BB60BB686FF39E73BB60FB7826
:10096000012B04D1BB6843F00053BB6006E0FB7869
:10097000002B03D1BB6843F08043BB607B68DB681E
:10098000BA68DA604FF0320006F06CF9FB7B18466B
:1009900007F11007BD4680BD80B483B000AF78601A
:1009A0007B68DB685B6903F00103184607F10C07FD
:1009B000BD4680BC704700BF80B582B000AF786094
:1009C0007868FFF7E9FF0346012B0CBF00230123E2
:1009D000DBB2184607F10807BD4680BD80B485B07C
:1009E00000AF78604FF00003FB607B68DB685B69F9
:1009F000FB607B68DB689B69FA6802EA0303FB60C3
:100A0000FB68184607F11407BD4680BC704700BF5D
:100A100080B485B000AF78600B46FB707B681B69C3
:100A20001B68FB60FB7803F00303DAB2FB6862F338
:100A30000103FB607B681B69FA681A6007F1140701
:100A4000BD4680BC704700BF80B58CB000AF7860F9
:100A50004FF0000387F82B304FF000037B624FF01C
:100A600000033B624FF00003FB614FF00003BB61EA
:100A70004FF000037B617B68D3F80C314FF000022C
:100A80001A607B681B691B683B623B6A6FF3CC236F
:100A90003B627B681B693A6A1A607B68DB7A012BD0
:100AA00040D178684FF00301FFF7B2FF7B68DB6845
:100AB0004FF080025A624FF02003FB834FF0800317
:100AC000BB837B68DB68FA699A62BA8BFB8BD318AD
:100AD0009BB23B834FF080037B837B68DB68BA6902
:100AE000C3F804213A8B7B8BD3189BB23B834FF026
:100AF00020037B837B68DB6803F5827303F10403C7
:100B0000BA691A603A8B7B8BD3189BB23B834FF048
:100B100000037B837B68DB6803F5827303F10803C2
:100B2000BA691A6078684FF01001FFF78DFE786897
:100B3000FFF7CAFE7B681B694FF000021A617B68F1
:100B40001B694FF000025A617B681B694FF0FF324E
:100B50009A617B681B694FF00002DA614FF0000375
:100B6000FB6243E07A68FB6A03F104034FEA830304
:100B7000D3189B681B687B6297F8273023F07F03AC
:100B8000DBB2002B0BD04FF000037B627B6A43F09B
:100B900080437B627B6A43F000637B6202E04FF03C
:100BA00000037B627A68FB6A03F104034FEA830364
:100BB000D3189B687A6A1A607A68FB6A03F10403A7
:100BC0004FEA8303D3189B684FF000021A617A68DA
:100BD000FB6A03F104034FEA8303D3189B684FF0C9
:100BE000FF029A60FB6A03F10103FB627B685B789A
:100BF0001A46FB6A9A42B5D84FF00003FB6242E006
:100C00007A68FB6A03F114034FEA8303D3185B6825
:100C10001B68FB60FB7B23F07F03DBB2002B0BD058
:100C20004FF00003FB60FB6843F08043FB60FB6810
:100C300043F00063FB6002E04FF00003FB607A6862
:100C4000FB6A03F114034FEA8303D3185B68FA6865
:100C50001A607A68FB6A03F114034FEA8303D3181E
:100C60005B684FF000021A617A68FB6A03F11403B3
:100C70004FEA8303D3185B684FF0FF029A60FB6A68
:100C800003F10103FB627B685B781A46FB6A9A42B8
:100C9000B6D84FF000037B617B6943F480737B61BE
:100CA0007B681B697A681269126911467A696FEA72
:100CB000020211407A6941EA02021A617B68DB781C
:100CC000012B1ED14FF000033B613B6943F0010350
:100CD0003B613B6943F002033B613B694FF04002DB
:100CE00062F38A033B613B6943F480333B613B69B8
:100CF0004FF0400262F359433B617B681B693A69DC
:100D00001A63786800F008F897F82B30184607F156
:100D10003007BD4680BD00BF80B584B000AF7860AD
:100D20004FF00003FB734FF00003BB607B68DB6890
:100D30004FF000029A617B68DB684FF0FF325A6126
:100D40007868FFF77BFA7B68DB78002B03D1BB6800
:100D500043F01003BB60BB6843F40063BB60BB6837
:100D600043F48053BB60BB6843F40053BB60BB6873
:100D700043F48023BB60BB6843F40023BB60BB68C3
:100D800043F00803BB60BB6843F48013BB60BB68DF
:100D900043F40013BB607B68DB687A68D2689269B1
:100DA0001146BA686FEA02021140BA6841EA0202CB
:100DB0009A61FB7B184607F11007BD4680BD00BF56
:100DC00080B485B000AF78604FF00003FB737B68A0
:100DD0001B699B68BB60BB68C3F34103DBB2022B9A
:100DE0000BD0032B05D0012B03D04FF00303FB7373
:100DF00007E04FF00203FB7303E04FF00103FB73C6
:100E000000BFFB7B184607F11407BD4680BC704746
:100E100080B487B000AF78604FF00003FB754FF0EF
:100E20000003BB607B681B699B683B617B689B69B7
:100E30001B68FB603B69C3F34103DBB2022B04D0A8
:100E4000FB686FF30A03FB6006E0FB684FF00302E8
:100E500062F30A03FB6000BF7B689B69FA681A6053
:100E6000BB6843F48073BB607B681B697A68126956
:100E700052681146BA686FEA02021140BA6841EA44
:100E800002025A60FB7D184607F11C07BD4680BC74
:100E9000704700BF80B487B000AF786039604FF012
:100EA0000003FB744FF00003FB604FF00003BB60D6
:100EB0003B685B78012B12D13B681B787A6803F1A1
:100EC00004034FEA8303D3189B687B613B681B785C
:100ED0004FF0010202FA03F39BB23B8111E03B6841
:100EE0001B787A6803F114034FEA8303D3185B6815
:100EF0007B613B681B784FF0010202FA03F39BB25F
:100F00007B817B691B68FB607B7B23F07F03DBB20B
:100F1000002B29D13B689B689BB24FEA43534FEAB1
:100F200053539AB2FB6862F30A03FB603B68DB78B9
:100F300003F00303DAB2FB6862F39343FB603B68A0
:100F4000DB88DBB203F00F03DAB2FB6862F399537C
:100F5000FB60FB6843F08053FB60FB6843F4004395
:100F6000FB60FA687B691A607B681B697A681269A2
:100F7000D2691146BA6841EA0202DA61FB7C18467E
:100F800007F11C07BD4680BC704700BF80B487B026
:100F900000AF786039604FF00003FB744FF000033E
:100FA000FB604FF00003BB603B685B78012B12D104
:100FB0003B681B787A6803F104034FEA8303D31874
:100FC0009B687B613B681B784FF0010202FA03F3D8
:100FD0009BB23B8111E03B681B787A6803F11403F4
:100FE0004FEA8303D3185B687B613B681B784FF043
:100FF000010202FA03F39BB27B81FB686FF3CF33EC
:10100000FB60FA687B691A607B681B697A68126901
:10101000D2691146BA686FEA020201EA0202DA6195
:10102000FB7C184607F11C07BD4680BC704700BF1B
:1010300080B588B000AF786039604FF00003FB776F
:101040004FF00003BB614FF000037B614FF00003E2
:101050003B613B685B78012B40F0BF803B681B78AD
:101060007A6803F104034FEA8303D3189B681B6873
:101070007B613B681B787A6803F104034FEA8303C2
:10108000D3189B681B693B613B685B69002B0AD1E5
:101090003B696FF312033B613B694FF0010262F35E
:1010A000DC433B6128E03B685B6923F07F4222F42C
:1010B00078023B6962F312033B613B685A693B6803
:1010C0009B68D31803F1FF323B689B68B2FBF3F3D4
:1010D0009BB24FEA83534FEA93539AB23B6962F350
:1010E000DC433B613B68DB78012B05D13B694FF06A
:1010F000010262F35E733B613B681B787A6803F11F
:1011000004034FEA8303D3189B683A691A617B682A
:10111000DB78012B0CD13B681B787A6803F1040360
:101120004FEA8303D3189B683A6812695A6118E042
:101130003B68DB78012B14D03B685B69002B10D037
:101140003B681B784FF0010202FA03F3BB617B6836
:101150001B697A681269526B1146BA6941EA020248
:101160005A633B68DB78012B14D17B681B699B6851
:10117000FB60FB68C3F30D239BB203F00103002B5C
:1011800004D17B6943F000537B6103E07B6943F04A
:1011900080537B617B6943F080637B617B6943F0B3
:1011A00000437B613B681B787A6803F104034FEAD4
:1011B0008303D3189B687A691A603B68DB78012B3C
:1011C00040F09A803B68D9683B681A783B685B6955
:1011D0009BB27868FFF7A8F88EE03B681B787A68C6
:1011E00003F114034FEA8303D3185B681B687B6128
:1011F0003B681B787A6803F114034FEA8303D31822
:101200005B681B693B613B685B69002B10D13B68E5
:101210009B6823F07F4222F478023B6962F3120359
:101220003B613B694FF0010262F3DC433B6124E028
:101230003B685A693B689B68D31803F1FF323B68EF
:101240009B68B2FBF3F39BB24FEA83534FEA93538D
:101250009AB23B6962F3DC433B613B69C3F3C94328
:101260009BB23A68926802FB03F323F07F4222F4B8
:1012700078023B6962F312033B613B681B787A6832
:1012800003F114034FEA8303D3185B683A691A61C8
:101290007B68DB78012B0BD13B681B787A6803F104
:1012A00014034FEA8303D3185B683A6812695A61E2
:1012B0003B68DB78012B0CD13B685B79002B04D0B9
:1012C0007B6943F000537B6103E07B6943F080530B
:1012D0007B617B6943F080637B617B6943F0004302
:1012E0007B613B681B787A6803F114034FEA830340
:1012F000D3185B687A691A60FB7F184607F12007EC
:10130000BD4680BD80B489B000AF786039604FF0D1
:101310000003FB774FF00003BB614FF000033B611C
:101320004FF00003BB603B685B78012B79D17B6891
:101330009B697B617B691B683B617B691B69BB6047
:101340003B685B69002B0AD13B7A6FF306033B7263
:10135000BB7A4FF0010262F3C403BB7224E03B6826
:101360005A693B689B689A420ED93B689A683B6809
:101370005A613B689B68DBB203F07F03DAB23B7AC9
:1013800062F306033B7209E03B685B69DBB203F082
:101390007F03DAB23B7A62F306033B72BB7A4FF00B
:1013A000010262F3C403BB72BA687B691A617B688D
:1013B000DB78012B0BD13B681B787A6803F10403BF
:1013C0004FEA8303D3189B683A6812695A613B69F4
:1013D00043F080633B613B6943F000433B613A6902
:1013E0007B691A607B68DB78002B40F087803B6864
:1013F0005B69002B00F082803B681B784FF0010294
:1014000002FA03F3BA6942EA0303BB617B681B6912
:101410007A681269526B1146BA6941EA02025A634C
:101420006CE03B681B787A6803F114034FEA83038E
:10143000D3185B681B683B613B681B787A6803F1D3
:1014400014034FEA8303D3185B681B69BB603B68D6
:101450005B69002B10D13B689B68DBB203F07F0314
:10146000DAB23B7A62F306033B72BB7A4FF00102B9
:1014700062F3C403BB7213E03B689A683B685A612D
:101480003B689B68DBB203F07F03DAB23B7A62F31E
:1014900006033B72BB7A4FF0010262F3C403BB72D6
:1014A0003B681B787A6803F114034FEA8303D3186F
:1014B0005B68BA681A617B68DB78012B0BD13B68EB
:1014C0001B787A6803F114034FEA8303D3185B682F
:1014D0003A6812695A613B6943F080633B613B693A
:1014E00043F000433B613B681B787A6803F11403C7
:1014F0004FEA8303D3185B683A691A60FB7F18468A
:1015000007F12407BD4680BC704700BF80B487B098
:1015100000AF786039604FF00003FB754FF00003B7
:10152000FB603B685B78012B1ED13B681B787A68B7
:1015300003F104034FEA8303D3189B683B613B69C3
:101540001B68FB60FB7B23F07F03DBB2002B03D027
:10155000FB6843F08043FB60FB6843F40013FB60CF
:10156000FA683B691A6013E03B681B787A6803F1FC
:1015700014034FEA8303D3185B683B613B691B6824
:10158000FB60FB6843F40013FB60FA683B691A6078
:10159000FB7D184607F11C07BD4680BC704700BFA5
:1015A00080B487B000AF786039604FF00003FB74FF
:1015B0004FF00003FB603B685B78012B0AD13B686E
:1015C0001B787A6803F104034FEA8303D3189B68FE
:1015D0007B6109E03B681B787A6803F114034FEAEA
:1015E0008303D3185B687B617B691B68FB60FB68C6
:1015F0006FF35553FB603B68DB78032B03D03B68EC
:10160000DB78022B03D1FB6843F08053FB60FA6860
:101610007B691A60FB7C184607F11C07BD4680BC3D
:10162000704700BF80B485B000AF78607B681B69ED
:101630009B69FB607B681B69DB69FA6802EA03034C
:10164000FB60FB684FEA1343184607F11407BD46D9
:1016500080BC704780B485B000AF78600B46FB70EB
:10166000FB787A6803F114034FEA8303D3185B68AD
:101670009B68FB607B681B695B69FA6802EA03038D
:10168000FB60FB68184607F11407BD4680BC704735
:1016900080B485B000AF78607B681B699B69FB6094
:1016A0007B681B69DB69FA6802EA0303FB60FB687D
:1016B0004FEA03434FEA1343184607F11407BD46A8
:1016C00080BC704780B487B000AF78604FF00003F3
:1016D0003B61FB7C43F0C003FB74BB7C4FF0010219
:1016E00062F3C403BB743B7C4FF0180262F3060341
:1016F0003B747B685B6D3A691A617B68DB78012B10
:1017000019D14FF00003FB607B685B6D7A6802F5CE
:10171000B9625A617B685B6D1B68FB60FB6843F0D4
:101720000043FB604FF40043C8F20003FB607B689A
:101730005B6DFA681A6007F11C07BD4680BC7047F4
:1017400080B485B000AF78607B689B7A002B1BD09B
:101750007B681B699B68FB603B7B03F00103DBB28A
:10176000002B11D07B6803F586731B68BB60BB68D8
:101770006FF34103BB60BB686FF30003BB607B6822
:10178000D3F80C31BA681A6007F11407BD4680BC63
:10179000704700BF80B500AF4FF080404FF00101AF
:1017A00008F0F0FD40F23413C2F200031B6803F1AD
:1017B000010240F23413C2F200031A6040F23813FF
:1017C000C2F200031B68002B0BD040F23813C2F2A8
:1017D00000031B6803F1FF3240F23813C2F200032A
:1017E0001A6080BD80B500AF40F23C13C2F2000326
:1017F0001B78002B09D100F00BF840F23C13C2F229
:1018000000034FF001021A7000E000BF80BD00BF6E
:1018100080B58AB000AF3B464FF08040194607F0D4
:101820006FFD3B46184622A3D3E9002307F0FAFDDB
:101830004FF0804007F0A8FE4FF00003BB844FF04C
:101840000003FB8340F2E7333B624FF00003BB83AE
:101850004FF0000387F8263007F11C034FF080405B
:10186000194608F0CDFC4FF080404FF001014FF0D9
:10187000010208F061FD4FF01C033B764FF00103BD
:10188000FB764FF00E037B764FF00003BB7607F13B
:101890001803184608F0D0F84FF080404FF00101CF
:1018A00008F02AFD07F12807BD4680BDAFF3008090
:1018B0000000000080842E4180B500AF0448054937
:1018C000054A41F6B063C2F2000300F007F880BD9C
:1018D0000000F042000040400000000080B58AB0E7
:1018E00004AFF860B9607A603B603B68344A5A6084
:1018F0003B68334A1A603B68FA689A603B68BA688A
:10190000DA603B687A681A613B689B6818462D4923
:1019100009F07CFA03462C48194609F033FC0346CB
:101920001A463B685A613B68DB681846254909F04E
:101930006DFA03462548194609F024FC03461A4669
:101940003B689A614FF002004FF0010101F03CFB4F
:101950004FF000033B754FF00003BB754FF00103E0
:10196000FB754FF000037B754FF440733B6107F14B
:1019700010034FF48060C4F20200194604F00EFA1E
:101980004BF20C73C0F600034FF0010200924FF0CF
:10199000000201924FF0000202924FF00002039207
:1019A00041F6A930C0F6000019464FF080024FF012
:1019B000000303F01FF807F11807BD4680BD00BF04
:1019C000000000000000803F000070420000F04175
:1019D00090B58BB000AFF860B9607A60F868B9680C
:1019E00009F012FA0346BB617B685B694FF00102A4
:1019F00014461846B96909F0AFFC0346002B02D122
:101A00004FF000031C46E3B2002B02D0614B7B6217
:101A100028E07B685B6983F000434FF001021446C5
:101A20001846B96909F0B6FC0346002B02D14FF005
:101A300000031C46E3B2002B02D0574B7B6211E03F
:101A40007B689B681846B96909F0E8FA03461846AE
:101A500009F0AAFC03469BB21BB2184609F08AFAA9
:101A600003467B627B685B681846B96909F0CEF96A
:101A700003467B617B689B694FF001021446184660
:101A8000796909F069FC0346002B02D14FF000038D
:101A90001C46E3B2002B06D0404B3B627B689A6940
:101AA0007B685A6029E07B689B6983F000434FF0B4
:101AB000010214461846796909F06CFC0346002BB4
:101AC00002D14FF000031C46E3B2002B08D0344B88
:101AD0003B627B689B6983F000427B685A600CE044
:101AE0007B687A695A607B68DA687B685B68104655
:101AF000194609F093FA03463B627B681C697B68D0
:101B00001B681846B96809F07FF903462046194654
:101B100009F084FA03463B617B68BA681A60786A08
:101B2000396A09F073F903461846396909F06EF904
:101B30000346FB614FF001031C46F869154909F0A3
:101B400029FC0346002B02D14FF000031C46E3B2F0
:101B5000002B02D00F4BFB6111E04FF001031C463C
:101B6000F869104909F0F8FB0346002B02D14FF049
:101B700000031C46E3B2002B01D00A4BFB61F8695D
:101B800009F012FC03469BB21BB2184607F12C0762
:101B9000BD4690BD00007042000070C20000F041E0
:101BA0000000F0C10000000080B582B000AF786096
:101BB00000E000BF42F69413C2F200031B6818460F
:101BC0004FF000014FF0FF324FF0000305F068FFC7
:101BD0000346012BEDD14FF48060C4F202004FF4B4
:101BE000007104F0A5F90346002B5AD140F24013CE
:101BF000C2F200031B68002B3CD040F24013C2F23B
:101C000000034FF000021A6041F6B063C2F2000315
:101C1000514A5A6041F6B063C2F200034E4A1A605C
:101C200041F6B063C2F200039B6818464B4909F0C5
:101C3000EDF803464A48194609F0A4FA03461A4645
:101C400041F6B063C2F200035A6141F6B063C2F2DA
:101C50000003DB681846414909F0D8F803464148BB
:101C6000194609F08FFA03461A4641F6B063C2F2EC
:101C700000039A6141F6E463C2F200031B68184650
:101C800000F0B8FC03463848194641F6B062C2F28B
:101C90000002FFF79DFE0346DBB2184602F0A0F8F3
:101CA00088E740F24013C2F200031B68012B3CD0CE
:101CB00040F24013C2F200034FF001021A6041F6F5
:101CC000B063C2F20003244A5A6041F6B063C2F224
:101CD0000003214A1A6041F6B063C2F200039B6818
:101CE00018461E4909F092F803461D48194609F0A6
:101CF00049FA03461A4641F6B063C2F200035A613C
:101D000041F6B063C2F20003DB681846134909F0DC
:101D10007DF803461348194609F034FA03461A467B
:101D200041F6B063C2F200039A6141F6E463C2F285
:101D300000031B68184600F05DFC03460B4819467B
:101D400041F6B062C2F20002FFF742FE0346DBB288
:101D5000184602F045F82DE7000000000000803F23
:101D6000000070420000F04100008C420000484238
:101D700080B400AFBD4680BC704700BF80B483B064
:101D800000AF0346FB7107F10C07BD4680BC7047EE
:101D900080B400AFBD4680BC704700BF80B400AFC8
:101DA000BD4680BC704700BF80B400AFBD4680BC5C
:101DB000704700BF80B586B004AF4FF002004FF00F
:101DC000010101F001F94FF004004FF0010101F0B1
:101DD000FBF84FF480633B604FF000037B714FF0E2
:101DE00001033B714FF00003BB714FF00003FB7127
:101DF0003B464FF48060C4F20200194603F0CEFF68
:101E00004FF48060C4F202004FF480614FF0000292
:101E100004F0AEF84BF21073C0F600034FF001026D
:101E2000009241F6CC62C2F2000201924FF0000231
:101E300002924FF00002039241F65960C0F6000092
:101E400019464FF040024FF0000302F0D3FD07F1B6
:101E50000807BD4680BD00BF80B582B000AF786086
:101E600041F6D063C2F200031B78012B40F00881D9
:101E700041F6D063C2F200035B78072B00F2FC80CE
:101E800001A252F823F000BFA91E0008E31E0008BB
:101E90001D1F0008571F0008911F0008CB1F0008D6
:101EA000052000083F2000084FF48060C4F20200C3
:101EB0004FF480614FF0010204F05AF84FF4FA70C9
:101EC00002F094FE4FF48060C4F202004FF480618F
:101ED0004FF0000204F04CF84FF4FA7002F086FE66
:101EE000CEE04FF48060C4F202004FF480614FF006
:101EF000010204F03DF84FF0640002F077FE4FF469
:101F00008060C4F202004FF480614FF0000204F0E0
:101F10002FF84FF0C80002F069FEB1E04FF4806086
:101F2000C4F202004FF480614FF0010204F020F887
:101F30004FF0640002F05AFE4FF48060C4F20200D9
:101F40004FF480614FF0000204F012F84FF0C80027
:101F500002F04CFE94E04FF48060C4F202004FF4B3
:101F600080614FF0010204F003F84FF0640002F0CA
:101F70003DFE4FF48060C4F202004FF480614FF0E8
:101F8000000203F0F5FF4FF0C80002F02FFE77E0EB
:101F90004FF48060C4F202004FF480614FF0010200
:101FA00003F0E6FF4FF0640002F020FE4FF4806083
:101FB000C4F202004FF480614FF0000203F0D8FF3A
:101FC0004FF0C80002F012FE5AE04FF48060C4F2F5
:101FD00002004FF480614FF0010203F0C9FF4FF09F
:101FE000640002F003FE4FF48060C4F202004FF47C
:101FF00080614FF0000203F0BBFF4FF0C80002F019
:10200000F5FD3DE04FF48060C4F202004FF48061C2
:102010004FF0010203F0ACFF4FF0640002F0E6FD68
:102020004FF48060C4F202004FF480614FF0000270
:1020300003F09EFF4FF0C80002F0D8FD20E04FF4FF
:102040008060C4F202004FF480614FF0010203F09F
:102050008FFF4FF0640002F0C9FD4FF48060C4F2BE
:1020600002004FF480614FF0000203F081FF4FF057
:10207000C80002F0BBFD03E04FF4FA7002F0B6FDB9
:1020800042F6A013C2F200039B6803F1010242F67C
:10209000A013C2F200039A60E2E600BF80B582B0EE
:1020A00000AF02460B46FA71BB71BB7903F0010326
:1020B000DBB2002B1DD041F6D063C2F200031B78C7
:1020C000002B0ED141F6CC63C2F200031B68184608
:1020D00002F04AFE41F6D063C2F200034FF0010263
:1020E0001A7042F6A013C2F200034FF000021A73F6
:1020F00026E041F6D063C2F200031B78012B0ED11B
:1021000041F6CC63C2F200031B68184602F09CFD46
:1021100041F6D063C2F200034FF000021A7042F69B
:10212000A013C2F200034FF001021A734FF4806053
:10213000C4F202004FF480614FF0000203F018FF78
:10214000FB7903F00703DAB241F6D063C2F2000371
:102150005A7007F10807BD4680BD00BF80B485B046
:1021600000AF78604FF00003FB604FF4E043C4F22F
:1021700000031B68FB60FB6823F0E003FB60FA6868
:102180007B6842EA0303FB604FF4E043C4F20003C0
:10219000FA681A6007F11407BD4680BC704700BF9B
:1021A00080B483B000AF0346FB714FF01003C4F25C
:1021B0000E23FA791A6007F10C07BD4680BC704700
:1021C00080B582B000AF4BF65403C0F600037B60CD
:1021D00040F20003C2F200033B600BE07B681A6828
:1021E0003B681A603B6803F104033B607B6803F1C2
:1021F00004037B603A6840F22C13C2F200039A4257
:10220000ECD3074807494FF000028842B8BF40F8B6
:10221000042BFADB00F064FC07F10807BD4680BD23
:10222000300100206C33002080B400AFFEE700BF17
:1022300080B584B004AF00F021F84BF21873C0F6FB
:1022400000034FF0010200924FF0000201924FF0A4
:10225000000202924FF00002039242F26140C0F687
:10226000000019464FF080024FF0000302F0C2FB5D
:102270004FF000031846BD4680BD00BF80B588B052
:1022800000AF4FF002004FF0010100F09DFE4FF44F
:1022900080404FF0010100F0F3FE4FF42043BB619A
:1022A0004FF002037B774FF002033B774FF00003C0
:1022B000BB774FF00003FB7707F118034FF4806002
:1022C000C4F20200194603F069FD4FF48043BB617C
:1022D0004FF002037B774FF002033B774FF0000390
:1022E000BB774FF00003FB7707F118034FF48060D2
:1022F000C4F20200194603F051FD4FF48053BB6154
:102300004FF001033B774FF00003BB774FF0000322
:10231000FB774FF002037B7707F118034FF48060DF
:10232000C4F20200194603F039FD4FF48060C4F294
:1023300002004FF00D014FF0050203F031FE4FF4A3
:102340008060C4F202004FF00F014FF0050203F06D
:1023500027FE4FF48060C4F202004FF00E014FF0F0
:10236000050203F01DFE4FF00003BB804FF48273A3
:10237000FB804FF000033B814FF000037B814FF067
:102380000103BB814FF40073FB814FF028033B82B4
:102390004FF000037B8207F104034FF46050C4F256
:1023A0000000194607F0BCF94FF46050C4F2000079
:1023B0004FF0000107F020FA4FF46050C4F2000023
:1023C0004FF0010107F0F8F94FF48063C4F2020303
:1023D0004FF48062C4F20202128B92B242F4805235
:1023E00092B21A8307F12007BD4680BD80B483B046
:1023F00000AF0346FB7100BF4FF46053C4F200030B
:102400001B899BB203F00203002BF5D04FF46053FD
:10241000C4F20003FA7992B29A8100BF4FF460537C
:10242000C4F200031B899BB203F00103002BF5D01B
:102430004FF46053C4F200039B899BB2DBB2184691
:1024400007F10C07BD4680BC704700BF80B500AFE8
:102450004FF0FF00FFF7CAFF0346184680BD00BFDC
:1024600080B582B000AF786041F6E463C2F2000349
:102470004FF0000283F824204FF48063C4F202037B
:102480004FF48062C4F20202528B92B242F4805244
:1024900092B25A834FF00600FFF7A8FF4FF00A00F0
:1024A00002F0A4FB4FF04000FFF7A0FF4FF0060042
:1024B000FFF79CFF4FF00A0002F098FB4FF0480036
:1024C000FFF794FF4FF05600FFF790FF4FF00A0020
:1024D00002F08CFB4FF04C00FFF788FF4FF06200DA
:1024E000FFF784FF4FF00A0002F080FB4FF0080076
:1024F000FFF77CFF00BF4FF48060C4F202004FF48E
:10250000804103F015FD0346012BF4D0FFF79EFF39
:1025100003461A4641F6E063C2F200031A6041F630
:10252000E063C2F200031B684FEA032241F6E06356
:10253000C2F200031A60FFF789FF03461A4641F60C
:10254000E063C2F200031B681A4341F6E063C2F283
:1025500000031A6041F6E063C2F200031B684FEA11
:10256000032241F6E063C2F200031A60FFF76EFF38
:1025700003461A4641F6E063C2F200031B681A43A1
:1025800041F6E063C2F200031A6041F6E063C2F272
:1025900000031A684FF6FF73C0F27F039A420ED908
:1025A00041F6E063C2F200031B6803F17F4202F1CF
:1025B000010241F6D463C2F200031A600AE041F658
:1025C000E063C2F200031B681A4641F6D463C2F20C
:1025D00000031A6041F6D463C2F200031A6841F6A0
:1025E000E463C2F200031A604FF0640002F0FEFAE6
:1025F0007CE700BFB0B586B000AF7860244B7B614C
:1026000042F66253C0F233033B614FF01803C0F24D
:102610005A03FB607A683B69D31A184608F0AAFC93
:102620000346184608F08EF802460B461046194637
:102630004FF000024FF0804303F5D20308F0D6F8C4
:1026400002460B4614461D46FA683B69D31A1846E3
:1026500008F066F802460B462046294608F0F0F9D5
:1026600002460B46104619464FF000024FF0000399
:1026700007F00AFF02460B461046194608F070FBA9
:1026800003467B617B69184607F11807BD46B0BD5C
:102690000000000080B584B000AFF8607A603B6055
:1026A0000B46FB72F86804F013FAF86800F01EF8A5
:1026B000FB683A68C3F8E025FB68BA69C3F8E4250B
:1026C000FB687A68C3F8E825FB7AF868194607F0D2
:1026D00027FAFB68D3F8E4351B689847F86804F0DC
:1026E00077FA07F11007BD4680BD00BF80B483B004
:1026F00000AF78604FF00003184607F10C07BD46A5
:1027000080BC704780B584B000AF786007F10803E3
:102710007868194604F01AFF3B7A03F01F03012B77
:102720000AD0022B0FD0002B14D107F108037868D0
:10273000194604F0D3FA16E007F108037868194641
:1027400004F01EFB0FE007F108037868194604F057
:102750004FFB08E03B7A23F07F03DBB27868194631
:1027600007F090FB00BF4FF00003184607F1100779
:10277000BD4680BD80B584B000AF78600B46FB706D
:10278000FB78002B45D17B6803F55C73FB607B68AD
:1027900093F81131032B4FD1FB68DA69FB689B6812
:1027A0009A4221D9FB68DA69FB689B68D21AFB68F8
:1027B000DA617B68DB78012B06D1FB68DA68FB689D
:1027C0009B68D218FB68DA60FB68DA68FB68996876
:1027D000FB68DB69994238BF0B469BB278681146AB
:1027E0001A4607F0B9FC27E07B68D3F8E0351B698F
:1027F000002B0AD07B6893F81231032B05D17B683C
:10280000D3F8E0351B6978689847786807F0BCFC16
:1028100012E07B68D3F8E0359B69002B0CD07B6815
:1028200093F81231032B07D17B68D3F8E0359B690D
:10283000FA787868114698474FF00003184607F178
:102840001007BD4680BD00BF80B584B000AF786082
:102850000B46FB70FB78002B63D17B6803F58C7310
:10286000FB607B6893F81131022B6ED1FB68DA694B
:10287000FB689B689A421CD9FB68DA69FB689B6815
:10288000D21AFB68DA617B68DB78012B06D1FB6822
:10289000DA68FB689B68D218FB68DA60FB68DA6864
:1028A000FB68DB699BB2786811461A4607F018FC92
:1028B0004CE0FB681B6AFA689268B3FBF2F102FB1A
:1028C00001F29B1A002B17D1FB681A6AFB689B6800
:1028D0009A4211D3FB681A6AFB685B6A9A420BD270
:1028E00078684FF000014FF0000207F0F9FBFB6839
:1028F0004FF000025A6229E07B68D3F8E035DB68CC
:10290000002B0AD07B6893F81231032B05D17B682A
:10291000D3F8E035DB6878689847786807F052FCB0
:1029200014E07B68D3F8E0355B69002B0ED07B6840
:1029300093F81231032B09D17B68D3F8E0355B693A
:10294000FA7878681146984700E000BF4FF000031E
:10295000184607F11007BD4680BD00BF80B582B0A4
:1029600000AF786078684FF000014FF040024FF000
:10297000000307F06BF978684FF080014FF04002D8
:102980004FF0000307F062F97B684FF0010283F813
:1029900012217B68D3F8E4355B687A689278104638
:1029A00098474FF00003184607F10807BD4680BD61
:1029B00080B582B000AF78607B68D3F8E4351B69DE
:1029C00098477B684FF0030283F812214FF0000311
:1029D000184607F10807BD4680BD00BF80B582B02C
:1029E00000AF78607B684FF0040283F812217B68A7
:1029F000D3F8E435DB6898474FF00003184607F139
:102A00000807BD4680BD00BF80B582B000AF7860CA
:102A10007B68D3F8E035DB69002B05D07B68D3F801
:102A2000E035DB69786898474FF00003184607F1F6
:102A30000807BD4680BD00BF80B582B000AF78609A
:102A40000B46FB707B68D3F8E0351B68FA78786832
:102A5000114698477B68D3F8E4359B6898474FF058
:102A60000003184607F10807BD4680BD80B582B057
:102A700000AF78600B46FB707B68D3F8E0355B688D
:102A8000FA787868114698474FF00003184607F126
:102A90000807BD4680BD00BF80B582B000AF78603A
:102AA0007B68D3F8E0351B6A786898474FF00003DD
:102AB000184607F10807BD4680BD00BF80B582B04B
:102AC00000AF78607B68D3F8E0355B6A7868984738
:102AD0004FF00003184607F10807BD4680BD00BF50
:102AE00080B582B002AF03F091FCFFF763F907F005
:102AF00075FC01F0BBF801F045FAFFF799FB03F014
:102B000077FDFEF7D9FE00F033F8FFF753F903F035
:102B10009FF840F20003C2F20003009341F60C70EC
:102B2000C2F200004FF0010140F26002C2F2000266
:102B300040F20013C2F20003FFF7ACFD02F072F99D
:102B4000FEE700BF80B400AFFEE700BF80B483B0F3
:102B500000AF78603960FEE780B582B000AF07F063
:102B60008DFA03467B607B6807F10807BD4680BD90
:102B700080B586B004AF4FF00003FB714FF0000347
:102B8000BB714FF00003FB715AE0FA7942F2FC434B
:102B9000C2F200034FF0A40101FB02F29B1803F103
:102BA000A0034FF002021A70FA7942F2FC43C2F21B
:102BB00000034FF0A40101FB02F29B1803F188030C
:102BC0004FF000021A80FA7942F2FC43C2F200038D
:102BD0004FF0A40101FB02F29B1803F18403294A80
:102BE0001A60FA7942F2FC43C2F200034FF0A401EA
:102BF00001FB02F29B1803F188034FF000025A8098
:102C00004FF00003BB7114E0F979B87942F2FC424D
:102C1000C2F200020B464FEA83035B184FEAC3037C
:102C20005B181B18184942F82310BB7903F1010304
:102C3000BB71BB791F2BE7D9FB7903F10103FB7152
:102C4000FB79062BA1D94BF22873C0F600034FF095
:102C5000010200924FF0000201924FF00002029236
:102C60004FF00002039242F68D40C0F60000194674
:102C70004FF080024FF0000301F0BCFE07F108079F
:102C8000BD4680BD000000000000484380B584B010
:102C900000AF78604FF00003FB7300E000BF42F626
:102CA000B813C2F200031B6818464FF000014FF042
:102CB000FF324FF0000304F0F3FE0346012BEDD189
:102CC0004FF00003FB7310E0FB7B4FF0A40202FB0C
:102CD00003F242F2FC43C2F20003D318184600F09C
:102CE00009F8FB7B03F10103FB73FB7B062BEBD99C
:102CF000D5E700BF90B585B000AF78607B6893F8EA
:102D0000A030012B63D0022B02D0002B40D065E015
:102D10007B6893F880301A467B6853F822207B68E2
:102D200093F88030A3F10A0303F01F017B6853F886
:102D300021301046194608F067F80346FB604FF053
:102D400001031C46F868284908F024FB0346002BC1
:102D500002D14FF000031C46E3B2002B39D07B6850
:102D6000D3F884304FF00102144618461F4908F08A
:102D700011FB0346002B02D14FF000031C46E3B2C7
:102D8000002B28D07B684FF0000283F8A02025E0BC
:102D90007B68D3F884304FF001021446184614497A
:102DA00008F0F8FA0346002B02D14FF000031C464E
:102DB000E3B2002B11D07B684FF0010283F8A02012
:102DC0004FF000004FF00101FFF768F906E000BF87
:102DD00004E000BF02E000BF00E000BF184607F1BA
:102DE0001407BD4690BD00BF0000A040000048424F
:102DF0000000904280B489B000AF78604FF00003CB
:102E0000BB614FF000037B614FF00003FB614FF0AB
:102E100002033B614FF00003FB604FF00203BB6015
:102E20004FF46053C4F202039B6803F00C03BB61D0
:102E3000BB69042B0AD0082B0FD0002B64D17A6811
:102E40004FF41053C0F2F403136064E07A6847F65D
:102E50004003C0F27D1313605DE04FF46053C4F291
:102E600002035B6803F480034FEA9353FB604FF463
:102E70006053C4F202035B6803F03F03BB60FB686E
:102E8000002B16D047F64003C0F27D13BA68B3FB9F
:102E9000F2F24FF46053C4F202035B68194647F63E
:102EA000C07301EA03034FEA931303FB02F3FB61D0
:102EB00015E04FF41053C0F2F403BA68B3FBF2F21A
:102EC0004FF46053C4F202035B68194647F6C073BF
:102ED00001EA03034FEA931303FB02F3FB614FF490
:102EE0006053C4F202035B6803F440334FEA1343B8
:102EF00003F101034FEA43033B61FA693B69B2FB0B
:102F0000F3F27B681A6006E07A684FF41053C0F25F
:102F1000F403136000BF4FF46053C4F202039B68D4
:102F200003F0F003BB61BB694FEA1313BB6140F2CE
:102F30004C03C2F20003BA699B181B78DBB27B61B9
:102F40007B681A687B6922FA03F27B685A604FF447
:102F50006053C4F202039B6803F4E053BB61BB6996
:102F60004FEA9323BB6140F24C03C2F20003BA69FB
:102F70009B181B78DBB27B617B685A687B6922FAFD
:102F800003F27B689A604FF46053C4F202039B68BB
:102F900003F46043BB61BB694FEA5333BB6140F24A
:102FA0004C03C2F20003BA699B181B78DBB27B6149
:102FB0007B685A687B6922FA03F27B68DA6007F162
:102FC0002407BD4680BC704780B483B000AF7860F2
:102FD0000B46FB70FB78002B0ED04FF46053C4F20D
:102FE00002034FF46052C4F20202126B11467A6877
:102FF00041EA02021A630FE04FF46053C4F2020385
:103000004FF46052C4F20202126B11467A686FEA02
:10301000020201EA02021A6307F10C07BD4680BCF6
:10302000704700BF80B483B000AF78600B46FB7080
:10303000FB78002B0ED04FF46053C4F202034FF420
:103040006052C4F20202526B11467A6841EA0202EF
:103050005A630FE04FF46053C4F202034FF460521E
:10306000C4F20202526B11467A686FEA020201EA68
:1030700002025A6307F10C07BD4680BC704700BFCF
:1030800080B483B000AF78600B46FB70FB78002BF8
:103090000ED04FF46053C4F202034FF46052C4F2F6
:1030A0000202126C11467A6841EA02021A640FE0C9
:1030B0004FF46053C4F202034FF46052C4F20202B0
:1030C000126C11467A686FEA020201EA02021A647F
:1030D00007F10C07BD4680BC704700BF80B483B0C9
:1030E00000AF78600B46FB70FB78002B0ED04FF4DE
:1030F0006053C4F202034FF46052C4F20202526CF5
:1031000011467A6841EA02025A640FE04FF46053B4
:10311000C4F202034FF46052C4F20202526C114630
:103120007A686FEA020201EA02025A6407F10C07A8
:10313000BD4680BC704700BF80B483B000AF7860EC
:103140000B46FB70FB78002B0ED04FF46053C4F29B
:1031500002034FF46052C4F20202126A11467A6806
:1031600041EA02021A620FE04FF46053C4F2020314
:103170004FF46052C4F20202126A11467A686FEA92
:10318000020201EA02021A6207F10C07BD4680BC86
:10319000704700BF80B483B000AF78600B46FB700F
:1031A000FB78002B0ED04FF46053C4F202034FF4AF
:1031B0006052C4F20202526A11467A6841EA02027F
:1031C0005A620FE04FF46053C4F202034FF46052AE
:1031D000C4F20202526A11467A686FEA020201EAF8
:1031E00002025A6207F10C07BD4680BC704700BF5F
:1031F00080B500AF4FF480704FF00101FFF7CAFFB8
:103200004FF480704FF00001FFF7C4FF80BD00BF96
:1032100080B485B000AF786039604FF00003FB6088
:103220004FF00003FB727B685B68FB60FB6823F078
:10323000407323F48073FB603B681B794FEA0322E1
:103240003B681B6842EA0303FA6842EA0303FB6037
:103250007B68FA685A607B689B68FB60FA684FF28B
:10326000FD73CCF2FF0302EA0303FB603B681A69BB
:103270003B68DB681A433B689B681A433B685B7991
:103280004FEA430342EA0303FA6842EA0303FB609E
:103290007B68FA689A607B68DB6AFB60FB6823F4F2
:1032A0007003FB603B681B7D03F1FF33DAB2FB7AEE
:1032B00042EA0303FB72FB7A4FEA0353FA6842EADD
:1032C0000303FB607B68FA68DA6207F11407BD4606
:1032D00080BC704780B483B000AF78607B684FF0EB
:1032E00000021A607B684FF000021A717B684FF091
:1032F00000025A717B684FF000029A607B684FF0C1
:103300000002DA607B684FF000021A617B684FF0C0
:1033100001021A7507F10C07BD4680BC704700BF5B
:1033200080B485B000AF78604FF00003FB604FF4CD
:103330000C53C4F201035B68FB60FA6843F2E003DC
:10334000CFF6FC7302EA0303FB607B681A687B68B4
:103350005B681A437B689B681A437B68DB6842EAB8
:103360000303FA6842EA0303FB604FF40C53C4F210
:103370000103FA685A6007F11407BD4680BC704724
:1033800080B483B000AF78607B684FF000021A60B1
:103390007B684FF000025A607B684FF000029A6031
:1033A0007B684FF00002DA6007F10C07BD4680BC75
:1033B000704700BF80B483B000AF78600B46FB70ED
:1033C000FB78002B06D07B689B6843F001027B688A
:1033D0009A6005E07B689B6823F001027B689A6035
:1033E00007F10C07BD4680BC704700BF80B485B0B4
:1033F00000AF7860F970BA707B704FF00003FB602B
:103400004FF00003BB60FB78092B29D97B68DB6890
:10341000FB60FA7813464FEA43039B18A3F11E039F
:103420004FF0070202FA03F3BB60BB686FEA0303C5
:10343000FA6802EA0303FB607978FA7813464FEAE8
:1034400043039B18A3F11E0301FA03F3BB60FA6860
:10345000BB6842EA0303FB607B68FA68DA6024E039
:103460007B681B69FB60FA7813464FEA43039B189D
:103470004FF0070202FA03F3BB60BB686FEA030375
:10348000FA6802EA0303FB607978FA7813464FEA98
:1034900043039B1801FA03F3BB60FA68BB6842EA76
:1034A0000303FB607B68FA681A61BB78062B29D896
:1034B0007B685B6BFB60BB7803F1FF3213464FEA1E
:1034C00083039B184FF01F0202FA03F3BB60BB6833
:1034D0006FEA0303FA6802EA0303FB60F978BB783A
:1034E00003F1FF3213464FEA83039B1801FA03F3FB
:1034F000BB60FA68BB6842EA0303FB607B68FA685A
:103500005A6355E0BB780C2B29D87B681B6BFB609A
:10351000BA7813464FEA83039B18A3F123034FF0B5
:103520001F0202FA03F3BB60BB686FEA0303FA6889
:1035300002EA0303FB60F978BA7813464FEA830383
:103540009B18A3F1230301FA03F3BB60FA68BB687D
:1035500042EA0303FB607B68FA681A6328E07B6831
:10356000DB6AFB60BA7813464FEA83039B18A3F12A
:1035700041034FF01F0202FA03F3BB60BB686FEA1E
:103580000303FA6802EA0303FB60F978BA7813468A
:103590004FEA83039B18A3F1410301FA03F3BB60D5
:1035A000FA68BB6842EA0303FB607B68FA68DA6288
:1035B00007F11407BD4680BC704700BF80B485B0DA
:1035C00000AF78600B46FB704FF00003FB737B6825
:1035D0001B681A46FB7802EA0303002B03D04FF066
:1035E0000103FB7302E04FF00003FB73FB7B184603
:1035F00007F11407BD4680BC704700BF80B483B09C
:1036000000AF78600B46FB707B68FA781A704FF059
:103610000103184607F10C07BD4680BC704700BF88
:1036200080B485B000AF786039604FF00003FB6074
:103630000FE03B681A787B681A707B6803F101031E
:103640007B603B6803F101033B60FB6803F101030E
:10365000FB603B681B78002BEBD1FB68184607F139
:103660001407BD4680BC704780B586B000AFF860D7
:103670007A603B600B46FB724FF000037B617B6816
:1036800003F1FF337B603B68092B25D93A684CF680
:10369000CD43CCF6CC43A3FB02134FEAD303FA7A13
:1036A000F86811467A68FFF7DFFF78617B69FA688E
:1036B000D318FB6013E0FB7AF8681946FFF79EFF0A
:1036C000FB6803F10103FB607B6903F101037B618C
:1036D0007B6803F1FF337B607B68002BEBDC396890
:1036E0004CF6CD43CCF6CC43A3FB01234FEAD302E7
:1036F00013464FEA83039B184FEA4303CA1AD3B217
:1037000003F13003DBB2F8681946FFF777FF034691
:103710007A69D3187B617B69184607F11807BD46A3
:1037200080BD00BF80B586B000AFF8607A603B60B6
:103730000B46FB724FF000037B613B68002B04DA01
:103740003B68C3F100033B6101E03B683B617B6880
:1037500003F1FF337B603B69092B2AD93B68002BBF
:1037600012DA3A694CF6CD43CCF6CC43A3FB0213F4
:103770004FEAD303C3F10003FA7AF86811467A6876
:10378000FFF7D0FF78610FE03A694CF6CD43CCF6F5
:10379000CC43A3FB02134FEAD303FA7AF86811462D
:1037A0007A68FFF7BFFF78617B69FA68D318FB601E
:1037B0002BE03B68002B15DA7B6803F1FF337B605D
:1037C00010E0FB7AF8681946FFF718FFFB6803F171
:1037D0000103FB607B6903F101037B617B6803F1FB
:1037E000FF337B607B68002BEBDC3B68002B0CDA43
:1037F000F8684FF02D01FFF701FF03467A69D318EF
:103800007B61FB6803F10103FB6039694CF6CD4332
:10381000CCF6CC43A3FB01234FEAD30213464FEA75
:1038200083039B184FEA4303CA1AD3B203F1300350
:10383000DBB2F8681946FFF7E1FE03467A69D31850
:103840007B617B69184607F11807BD4680BD00BF44
:1038500080B588B002AFF8607A600A46FA72FB70F1
:103860004FF000037B617B6803F1FF337B603B6AB1
:103870004FEA1313002B24D03B6A4FEA1311FA7A54
:10388000FB780091F86811467A68FFF7E1FF03467C
:103890007A69D3187B617B69FA68D318FB6013E0FF
:1038A000FB7AF8681946FFF7A9FEFB6803F10103EC
:1038B000FB607B6903F101037B617B6803F1FF33EC
:1038C0007B607B68002BEBDC3B6A03F00F03092B6A
:1038D0000CD83B6ADBB203F00F03DBB203F1300319
:1038E000DBB2F8681946FFF789FE1BE0FB78002B76
:1038F0000CD03B6ADBB203F00F03DBB203F13703FA
:10390000DBB2F8681946FFF779FE0BE03B6ADBB2E1
:1039100003F00F03DBB203F15703DBB2F86819467B
:10392000FFF76CFE7B6903F101037B617B6918463D
:1039300007F11807BD4680BD80B58AB002AFF860B8
:10394000B9607A603B604FF00003BB614FF0000349
:103950007B61FB68002B00F01C81FB684FF00002CC
:103960001A7017E17B681B78252B10D07B681A78BA
:10397000FB681A70FB6803F10103FB607B6803F1CD
:1039800001037B607B6903F101037B6102E17B68DA
:1039900003F101031B78252B10D1FB684FF02502A2
:1039A0001A70FB6803F10103FB607B6803F10203FB
:1039B0007B607B6903F101037B61EBE04FF0200347
:1039C000FB774FF00003BB777B6803F101037B605B
:1039D0007B681B78302B1BD14FF03003FB777B6863
:1039E00003F101037B6014E0BB7F1A464FEA8202B9
:1039F000D3184FEA4303DAB27B681B78D318DBB2E3
:103A0000A3F13003BB777B6803F101037B6000E027
:103A100000BF7B681B782F2B03D97B681B78392B61
:103A2000E2D9BA7F7B69D3181A46BB689A4205D996
:103A3000BB68DAB27B69DBB2D31ABB777B681B78D1
:103A4000A3F15803202B00F2948001A252F823F036
:103A5000253B0008733B0008733B0008733B0008DC
:103A6000733B0008733B0008733B0008733B00087E
:103A7000733B0008733B0008733B00085B3B000886
:103A8000D53A0008733B0008733B0008733B0008FD
:103A9000733B0008D53A0008733B0008733B0008ED
:103AA000733B0008733B0008733B0008733B00083E
:103AB000733B0008733B0008733B0008453B00085C
:103AC000733B0008ED3A0008733B0008733B0008A5
:103AD000053B0008BA7F3B6803F1040139601B68AD
:103AE000F97FF868FFF71EFEB86145E0BA7F3B68D2
:103AF00003F1040139601B68F97FF868FFF7B4FD32
:103B0000B86139E0BA7F3B6803F104013960196894
:103B1000FB7F0091F86819464FF00003FFF798FE0D
:103B2000B86129E0BA7F3B6803F104013960196884
:103B3000FB7F0091F86819464FF00103FFF788FEFC
:103B4000B86119E03B6803F104023A601B68F86849
:103B50001946FFF765FDB8610EE03B6803F104020A
:103B60003A601B68DBB2F8681946FFF747FDB86199
:103B700002E04FF0FF332CE07B6803F101037B6030
:103B8000BB69FA68D318FB607A69BB69D3187B619B
:103B900000E000BF7B681B78002B04D07A69BB680B
:103BA0009A42FFF4DFAE7A69BB689A4204D2FB689E
:103BB0004FF000021A700BE0FB6803F1FF33FB606B
:103BC000FB684FF000021A707B6903F1FF337B61E1
:103BD0007B69184607F12007BD4680BD80B584B0DB
:103BE00000AFF860B9607A60F8684FF06401BA68B5
:103BF0007B68FFF7A1FE0346184607F11007BD4694
:103C000080BD00BF0EB480B585B000AF786007F10D
:103C10002003BB607868F969BA68FFF7DFFFF860D6
:103C2000FB68184607F11407BD46BDE8804003B0A5
:103C3000704700BF80B483B000AF0346FB714FF400
:103C40006143CEF2000397F907204FEA5212F97947
:103C500001F01F014FF0010000FA01F143F82210BA
:103C600007F10C07BD4680BC704700BF80B586B029
:103C700000AF4FF002004FF00101FFF7A5F94FF43C
:103C800080404FF00101FFF729FA4FF003033B6139
:103C90004FF000033B754FF00103FB7507F1100374
:103CA0004FF48060C4F20200194602F077F84FF03A
:103CB00004033B614FF001033B754FF00203FB75BA
:103CC00007F110034FF48060C4F20200194602F0BD
:103CD00065F84FF001004FF00001FCF755FA4FF086
:103CE0000103BB604FF000033B734FF008037B738D
:103CF0004FF00103BB7307F10803184605F09CFD64
:103D00004FF001004FF00101FCF73EFA4FF00203C3
:103D1000BB604FF000033B734FF008037B734FF021
:103D20000103BB7307F10803184605F085FD4FF446
:103D3000407005F06DFE4FF006033B714FF00E032F
:103D40007B714FF00103BB714FF00103FB7107F171
:103D50000403184605F070FE4FF007033B714FF067
:103D60000E037B714FF00103BB714FF00103FB7138
:103D700007F10403184605F05FFE4FF00600FFF759
:103D800059FF4FF00700FFF755FF4FF001004FF0CC
:103D900000014FF0030203F029FD024642F694139E
:103DA000C2F200031A6042F69413C2F200031B68C9
:103DB000002B0DD042F69413C2F200031B68184684
:103DC0004FF000014FF000024FF0000303F056FDEA
:103DD0004FF0050000F004F807F11807BD4680BD5C
:103DE00080B483B000AF0346FB71FB793C2B11D844
:103DF0004FF47053C4F201034FF47052C4F2010245
:103E0000126822F001021A6042F69813C2F200030F
:103E1000FA791A714FF47053C4F201034FF47052DF
:103E2000C4F20102126842F001021A6007F10C07A5
:103E3000BD4680BC704700BF80B500AF40F248135C
:103E4000C2F200034FF000021A604FF0010005F0CB
:103E50009FFD0346002B77D04FF0010005F0C8FD11
:103E600042F69813C2F200031B8803F101039AB2D1
:103E700042F69813C2F200031A8042F69813C2F277
:103E800000031A7940F24413C2F200031B78DBB23C
:103E90009A420ED94FF48063C4F202034FF4806259
:103EA000C4F20202128B92B242F0040292B21A835E
:103EB0003CE04FF48063C4F202034FF48062C4F22A
:103EC0000202528B92B242F0040292B25A8340F242
:103ED0004413C2F200031B78DBB23B2B26D940F21D
:103EE0004413C2F200034FF000021A7042F694131A
:103EF000C2F200031B6818464FF0000140F248125E
:103F0000C2F200024FF0000303F064FD40F24813D8
:103F1000C2F200031B68002B08D040F24813C2F223
:103F200000031B68002B01D004F014F840F2441386
:103F3000C2F200031B78DBB203F10103DAB240F2F4
:103F40004413C2F200031A7080BD00BF80B500AFF9
:103F50004FF0020005F01CFD0346002B10D04FF07F
:103F6000020005F045FD42F69813C2F200035B889B
:103F700003F101039AB242F69813C2F200035A8089
:103F800080BD00BF80B584B004AF4FF014004FF087
:103F9000040100F023FA4BF23C73C0F600034FF02B
:103FA000010200924FF0000201924FF000020292D3
:103FB0004FF00002039243F6D170C0F6000019469C
:103FC0004FF080024FF0000300F014FDBD4680BDAD
:103FD00090B585B000AF78604FF4967000F006FEA3
:103FE00040F24C13C2F200031B889BB2022B0DD986
:103FF0004FF014004FF0040100F078FA40F24C1337
:10400000C2F200034FF000021A800DE040F24C13A0
:10401000C2F200031B889BB203F101039AB240F283
:104020004C13C2F200031A8041F6E463C2F20003AB
:104030001B6840F25010C2F200004BF24C71C0F607
:1040400000011A46FFF7DEFD4FF000004FF00001BF
:1040500040F25012C2F2000200F026FC41F6E46386
:10406000C2F200031B681846FEF7C4FAF8604FF06E
:1040700001031C46F868C64907F082F90346002B85
:1040800002D14FF000031C46E3B2002B2BD0F8689E
:1040900007F0B0F903469BB21C46F868BD4906F02C
:1040A000BDFF0346184607F0A5F903469AB24CF641
:1040B000CD43CCF6CC43A3FB02134FEAD3010B460E
:1040C0004FEA83035B184FEA4303D31A9BB240F2D3
:1040D0005010C2F200004BF25C71C0F600012246A3
:1040E000FFF790FD30E0FB6883F00043184607F0CF
:1040F00081F903469BB21C46FB6883F000431846D7
:10410000A44906F08BFF0346184607F073F90346EF
:104110009AB24CF6CD43CCF6CC43A3FB02134FEA44
:10412000D3010B464FEA83035B184FEA4303D31ACC
:104130009BB240F25010C2F200004BF27471C0F614
:1041400000012246FFF75EFD4FF000004FF0010135
:1041500040F25012C2F2000200F0A6FB42F2FC4311
:10416000C2F20003D3F88430FB604FF001031C4619
:10417000F868874907F004F90346002B02D14FF095
:1041800000031C46E3B2002B2BD0F86807F032F98D
:1041900003469BB21C46F8687E4906F03FFF034683
:1041A000184607F027F903469AB24CF6CD43CCF6F1
:1041B000CC43A3FB02134FEAD3010B464FEA830320
:1041C0005B184FEA4303D31A9BB240F25010C2F27D
:1041D00000004BF25C71C0F600012246FFF712FDB1
:1041E00030E0FB6883F00043184607F003F903460C
:1041F0009BB21C46FB6883F000431846654906F0F5
:104200000DFF0346184607F0F5F803469AB24CF640
:10421000CD43CCF6CC43A3FB02134FEAD3010B46AC
:104220004FEA83035B184FEA4303D31A9BB240F271
:104230005010C2F200004BF27471C0F60001224629
:10424000FFF7E0FC4FF000004FF0020140F2501287
:10425000C2F2000200F028FB42F2FC43C2F200036B
:1042600093F880301A4642F2FC43C2F2000353F83E
:10427000222042F2FC43C2F2000393F88030A3F103
:104280000A0303F01F0142F2FC43C2F2000353F899
:1042900021301046194606F0B7FD0346FB604FF08B
:1042A00001031C46F8683A4907F06AF80346002BF8
:1042B00002D14FF000031C46E3B2002B2BD0F8686C
:1042C00007F098F803469BB21C46F868314906F09F
:1042D000A5FE0346184607F08DF803469AB24CF641
:1042E000CD43CCF6CC43A3FB02134FEAD3010B46DC
:1042F0004FEA83035B184FEA4303D31A9BB240F2A1
:104300005010C2F200004BF25C71C0F60001224670
:10431000FFF778FC30E0FB6883F00043184607F0B5
:1043200069F803469BB21C46FB6883F000431846BD
:10433000184906F073FE0346184607F05BF803467B
:104340009AB24CF6CD43CCF6CC43A3FB02134FEA12
:10435000D3010B464FEA83035B184FEA4303D31A9A
:104360009BB240F25010C2F200004BF27471C0F6E2
:1043700000012246FFF746FC4FF000004FF003011A
:1043800040F25012C2F2000200F08EFA24E600BFA2
:10439000000000000000204180B485B000AF7860CC
:1043A0004FF080435B6AFB6000BF00E000BF4FF04E
:1043B00080435B6A1A46FB689A42F8D04FF080430C
:1043C0005B6AFB607B6803F1FF337B607B68002BDB
:1043D000ECD107F11407BD4680BC704780B582B0B0
:1043E00000AF02460B46FA71BB71FDF7FBF900F016
:1043F000FDF849F64040FFF7CFFF42F6B013C2F296
:104400000003BA79DA7042F6B013C2F20003FA7907
:104410001A7142F6B013C2F200034FF000025A7153
:1044200042F6B013C2F200034FF000029A7142F656
:10443000B013C2F200034FF010025A70BB79012B87
:104440000CD942F6B013C2F200035B7843F00803C4
:10445000DAB242F6B013C2F200035A704FF0030012
:1044600000F038F941F29410FFF796FF4FF0030087
:1044700000F030F94FF09600FFF78EFF4FF0030089
:1044800000F028F94FF0FA00FFF786FF42F6B0136C
:10449000C2F200035B7843F02003DBB2184600F061
:1044A000F1F842F6B013C2F200034FF004021A70A2
:1044B00000F084FA00F0DAF842F6B013C2F200031A
:1044C0004FF002029A7042F6B013C2F200039B78DA
:1044D00043F00403DBB2184600F0D4F84FF0960026
:1044E000FFF75AFF07F10807BD4680BD80B582B0CF
:1044F00000AF02460B46FA71BB7142F6B013C2F22E
:104500000003BA79DA7042F6B013C2F20003FA7906
:104510001A7142F6B013C2F200034FF000025A7152
:1045200042F6B013C2F200034FF000029A7142F655
:10453000B013C2F200034FF010025A70BB79012B86
:104540000CD942F6B013C2F200035B7843F00803C3
:10455000DAB242F6B013C2F200035A704FF0030011
:1045600000F0B8F841F29410FFF716FF4FF0030087
:1045700000F0B0F84FF09600FFF70EFF4FF0030089
:1045800000F0A8F84FF0FA00FFF706FF42F6B0136C
:10459000C2F200035B7843F02003DBB2184600F060
:1045A00071F842F6B013C2F200034FF004021A7021
:1045B00000F004FA00F05AF842F6B013C2F2000319
:1045C0004FF002029A7042F6B013C2F200039B78D9
:1045D00043F00403DBB2184600F054F84FF09600A5
:1045E000FFF7DAFE07F10807BD4680BD80B582B04F
:1045F00000AF4FF00C004FF00101FEF7E5FC4FF06B
:1046000001033B714FF00003BB714FF00103FB71DD
:104610004FF003037B7140F2FF333B603B464FF4A6
:104620000060C4F20200194601F0B8FB4FF40063C9
:10463000C4F2020340F2FF325A834FF004033B609E
:104640003B464FF44060C4F20200194601F0A6FB5D
:104650004FF44060C4F202004FF004014FF0010239
:1046600001F086FC07F10807BD4680BD80B500AFAC
:104670004FF0010000F006F84FF4FA60FFF78CFEEF
:1046800080BD00BF80B582B000AF0346FB714FF420
:104690000063C4F202034FF001025A83FB7918460B
:1046A00000F070F807F10807BD4680BD80B582B004
:1046B00000AF0346FB714FF40063C4F202034FF0F6
:1046C00001021A83FB79184600F05CF807F108072D
:1046D000BD4680BD80B584B000AF0346FB71FB7959
:1046E000FB81FB894FEA83139BB203F47073FB8158
:1046F0004FF40063C4F202034FF40062C4F20202FA
:10470000526911464FF63F4201EA02025A614FF4E4
:104710000063C4F202034FF40062C4F20202526961
:104720001146FA8941EA02025A614FF01400FFF77C
:1047300033FE4FF40063C4F202034FF002021A8307
:104740004FF03200FFF728FE4FF40063C4F202037B
:104750004FF002025A834FF03200FFF71DFE4FF474
:104760000063C4F202034FF40062C4F20202526911
:1047700011464FF63F4201EA02025A6107F1100763
:10478000BD4680BD80B584B000AF0346FB71FB79A8
:10479000FB81FB894FEA83039BB203F47F73FB81A8
:1047A0004FF40063C4F202034FF40062C4F2020249
:1047B000526911464FF6034201EA02025A614FF470
:1047C0000063C4F202034FF40062C4F202025269B1
:1047D0001146FA8941EA02025A614FF01400FFF7CC
:1047E000DBFD4FF40063C4F202034FF002021A83B0
:1047F0004FF03200FFF7D0FD4FF40063C4F2020324
:104800004FF002025A834FF03200FFF7C5FD4FF41C
:104810000063C4F202034FF40062C4F20202526960
:1048200011464FF6034201EA02025A6107F11007EE
:10483000BD4680BD80B584B000AF02460B46FA711C
:10484000BB714BF28C73C0F600031B68FB6042F631
:10485000B013C2F20003DB78BA799A4202D34FF068
:104860000003BB7142F6B013C2F20003FA795A7129
:1048700042F6B013C2F20003BA799A71BB7907F11C
:104880001002D31813F8042CFB79D318DBB2DBB277
:1048900063F07F03DBB2DBB21846FFF7F3FE07F1EC
:1048A0001007BD4680BD00BF80B582B000AF0B468B
:1048B0003A600246FA71BB71FA79BB791046194623
:1048C000FFF7B8FF72E042F6B013C2F200035A7964
:1048D00042F6B013C2F200031B799A4221D342F68A
:1048E000B013C2F200034FF000025A7142F6B01347
:1048F000C2F200039B7903F10103DAB242F6B0136E
:10490000C2F200039A7142F6B013C2F200035A7960
:1049100042F6B013C2F200039B7910461946FFF726
:1049200089FF3B681B780A2B1BD142F6B013C2F2F9
:1049300000039B7903F10103DAB242F6B013C2F22D
:1049400000039A7142F6B013C2F200035A7942F69C
:10495000B013C2F200039B7910461946FFF76AFFB5
:1049600020E03B681B780D2B0AD142F6B013C2F24F
:1049700000039B794FF000001946FFF75BFF11E041
:104980003B681B781846FFF791FE42F6B013C2F25F
:1049900000035B7903F10103DAB242F6B013C2F20D
:1049A00000035A713B6803F101033B603B681B78CD
:1049B000002B88D107F10807BD4680BD80B500AF48
:1049C00042F6B013C2F200031B7843F00403DAB2DC
:1049D00042F6B013C2F200031A7042F6B013C2F2EC
:1049E00000031B7843F00803DBB21846FFF74AFECA
:1049F00080BD00BF80B58AB002AFF860B9603B608F
:104A00001346FB80FB68002B04D14FF0500080F36D
:104A10001188FEE7BB6A042B04D94FF0500080F3E5
:104A20001188FEE7FB881846396B00F011FFB8616A
:104A3000BB69002B00F0BB80BB691A6BFB8803F1DC
:104A4000FF334FEA8303D3187B617B6923F00703AD
:104A50007B617B6903F00703002B04D04FF050000B
:104A600080F31188FEE7FB880093B869B968BA6AD9
:104A70007B6B00F0CBFD7869F9683A6803F0F6F9D2
:104A800003461A46BB691A60BB691B6803F007033B
:104A9000002B04D04FF0500080F31188FEE7FB6A32
:104AA000002B02D0FB6ABA691A6003F05FFA40F289
:104AB0004823C2F200031B6803F1010240F24823BD
:104AC000C2F200031A6040F27013C2F200031B68C6
:104AD000002B0FD140F27013C2F20003BA691A60C2
:104AE00040F24823C2F200031B68012B18D100F0EA
:104AF000CBFD15E040F25823C2F200031B68002BE7
:104B00000ED140F27013C2F200031B68DA6ABB6A6E
:104B10009A4205D840F27013C2F20003BA691A60D3
:104B2000BB69DA6A40F25023C2F200031B689A4262
:104B300006D9BB69DA6A40F25023C2F200031A6058
:104B400040F26C23C2F200031B6803F1010240F241
:104B50006C23C2F200031A60BB69DA6A40F2542384
:104B6000C2F200031B689A4206D9BB69DA6A40F2B6
:104B70005423C2F200031A60BB69DA6A13464FEA93
:104B800083039B184FEA83031A4640F27413C2F260
:104B90000003D218BB6903F104031046194601F063
:104BA000A5FB4FF00103FB6103F0F6F902E04FF0C3
:104BB000FF33FB61FB69012B11D140F25823C2F294
:104BC00000031B68002B0AD040F27013C2F20003EE
:104BD0001B68DA6ABB6A9A4201D203F0BBF9FB692F
:104BE000184607F12007BD4680BD00BF80B584B0E0
:104BF00000AF78604FF00003FB607B68002B19D09A
:104C000000F052F940F24C23C2F200031A687B68AC
:104C1000D318BB6040F27013C2F200031B6803F1AB
:104C20000403184601F0C8FBB86800F0CBFD00F0A3
:104C30004DF9F860FB68002B01D103F08BF907F107
:104C40001007BD4680BD00BF80B584B000AF78605E
:104C500003F08CF940F27013C2F200031B687A680B
:104C60009A4202D14FF000037B607B68002B05D194
:104C700040F27013C2F200031B6800E07B68FB6027
:104C8000FB6803F10403184601F096FBFB689B6A7E
:104C9000002B05D0FB6803F11803184601F08CFBCC
:104CA000FB6803F1040340F23420C2F2000019460D
:104CB00001F01CFB03F070F97B68002B20D140F25F
:104CC0005823C2F200031B68002B02D003F042F904
:104CD00016E040F23423C2F200031B681A4640F289
:104CE0004823C2F200031B689A4207D140F27013B6
:104CF000C2F200034FF000021A6001E000F084FAF3
:104D000007F11007BD4680BD80B485B000AF786064
:104D10004FF00003FB607B68BB607B68002B04D115
:104D20004FF0500080F31188FEE7BB685A6940F2EB
:104D30003423C2F200039A420ED1BB689A6A40F251
:104D40000823C2F200039A4206D0BB689B6A002B7C
:104D500002D14FF00103FB60FB68184607F114070E
:104D6000BD4680BC704700BF80B584B000AF78609E
:104D70007B68002B04D14FF0500080F31188FEE7D0
:104D80007B68FB60FB68002B48D040F27013C2F2D6
:104D900000031B68FA689A4240D003F0E7F8F8680D
:104DA000FFF7B2FF0346012B36D1FB6803F1040382
:104DB000184601F001FBFB68DA6A40F25423C2F2A4
:104DC00000031B689A4206D9FB68DA6A40F2542352
:104DD000C2F200031A60FB68DA6A13464FEA8303E3
:104DE0009B184FEA83031A4640F27413C2F2000381
:104DF000D218FB6803F104031046194601F076FA55
:104E0000FB68DA6A40F27013C2F200031B68DB6AC7
:104E10009A4201D303F09EF803F0BEF807F11007A1
:104E2000BD4680BD80B586B004AF4BF29073C0F62E
:104E300000034FF0000200924FF0000201924FF089
:104E4000000202924FF00002039245F2E950C0F6D0
:104E5000000019464FF046024FF00003FFF7CAFD6D
:104E600078607B68012B13D14FF0500080F31188DC
:104E700040F25823C2F200034FF001021A6040F2E0
:104E80004C23C2F200034FF000021A6003F038F81E
:104E90007B68002B04D14FF0500080F31188FEE7AF
:104EA00007F10807BD4680BD80B400AF40F25C2327
:104EB000C2F200031B6803F1010240F25C23C2F25C
:104EC00000031A60BD4680BC704700BF90B583B038
:104ED00000AF4FF000037B6040F25C23C2F200039E
:104EE0001B68002B04D14FF0500080F31188FEE7BF
:104EF00003F03CF840F25C23C2F200031B6803F1AC
:104F0000FF3240F25C23C2F200031A6040F25C23DD
:104F1000C2F200031B68002B40F0868040F2482359
:104F2000C2F200031B68002B7ED04FF000033B60F1
:104F30003DE040F20823C2F20003DB68DB681C4658
:104F400004F11803184601F037FA04F10403184677
:104F500001F032FAE26A40F25423C2F200031B6805
:104F60009A4205D9E26A40F25423C2F200031A6061
:104F7000E26A13464FEA83039B184FEA83031A46FB
:104F800040F27413C2F20003D21804F10403104675
:104F9000194601F0ABF9E26A40F27013C2F2000365
:104FA0001B68DB6A9A4202D34FF001033B6040F278
:104FB0000823C2F200031B68002BBAD140F2602321
:104FC000C2F200031B68002B18D00DE000F034F88B
:104FD00040F26023C2F200031B6803F1FF3240F28B
:104FE0006023C2F200031A6040F26023C2F20003A1
:104FF0001B68002BEAD14FF001033B603B68012B9B
:1050000006D040F26423C2F200031B68012B0BD1CF
:105010004FF001037B6040F26423C2F200034FF0C3
:1050200000021A6002F096FF02F0B6FF7B68184695
:1050300007F10C07BD4690BD80B584B000AF40F2CB
:105040005C23C2F200031B68002B40F0CD8040F2CD
:105050004C23C2F200031B6803F1010240F24C230F
:10506000C2F200031A6040F24C23C2F200031B6834
:10507000002B4DD140F20023C2F200031B681B68D5
:10508000002B04D04FF0500080F31188FEE740F26F
:105090000023C2F200031B68FB6040F20423C2F24B
:1050A00000031A6840F20023C2F200031A6040F2C3
:1050B0000423C2F20003FA681A6040F26823C2F2C5
:1050C00000031B6803F1010240F26823C2F20003EF
:1050D0001A6040F20023C2F200031B681B68002B19
:1050E00007D140F25C03C2F200034FF0FF321A60B6
:1050F0000EE040F20023C2F200031B68DB68DB68AD
:10510000BB60BB685A6840F25C03C2F200031A60DD
:1051100040F24C23C2F200031A6840F25C03C2F270
:1051200000031B689A426BD340F20023C2F20003D3
:105130001B681B68002B07D140F25C03C2F200031E
:105140004FF0FF321A605BE040F20023C2F200032E
:105150001B68DB68DB68BB60BB685B687B6040F238
:105160004C23C2F200031A687B689A4206D240F2CE
:105170005C03C2F200037A681A6041E0BB6803F185
:105180000403184601F018F9BB689B6A002B05D090
:10519000BB6803F11803184601F00EF9BB68DA6A20
:1051A00040F25423C2F200031B689A4206D9BB683E
:1051B000DA6A40F25423C2F200031A60BB68DA6A6A
:1051C00013464FEA83039B184FEA83031A4640F2C3
:1051D0007413C2F20003D218BB6803F10403104633
:1051E000194601F083F89FE740F26023C2F2000302
:1051F0001B6803F1010240F26023C2F200031A604F
:1052000007F11007BD4680BD80B582B000AF40F207
:105210005C23C2F200031B68002B07D040F264231A
:10522000C2F200034FF001021A609CE040F27013DA
:10523000C2F200031B681A6840F27013C2F2000346
:105240001B681B6B9A420FD840F27013C2F2000326
:105250001A6840F27013C2F200031B6803F13403B2
:1052600010461946FDF772FC40F27013C2F20003BB
:105270001B681B6B18464BF29871C0F600014FF08B
:10528000140206F0D7F80346002B29D040F2701321
:10529000C2F200031A6840F27013C2F200031B68E6
:1052A00003F1340310461946FDF750FC19E040F2B3
:1052B0005423C2F200031B68002B04D14FF05000AE
:1052C00080F31188FEE740F25423C2F200031B680A
:1052D00003F1FF3240F25423C2F200031A6000E0EF
:1052E00000BF40F25423C2F200031A6813464FEA8B
:1052F00083039B184FEA83031A4640F27413C2F2E9
:105300000003D3181B68002BD1D040F25423C2F203
:1053100000031A6813464FEA83039B184FEA83037E
:105320001A4640F27413C2F20003D3187B607B6804
:105330005B685B681A467B685A607B685A687B6862
:1053400003F108039A4205D17B685B685B681A46E3
:105350007B685A607B685B68DB681A4640F27013B2
:10536000C2F200031A6007F10807BD4680BD00BF06
:1053700080B584B000AF786039607B68002B04D1C1
:105380004FF0500080F31188FEE740F27013C2F234
:1053900000031B6803F118037868194600F0D0FF7A
:1053A00040F27013C2F200031B6803F104031846B5
:1053B00001F002F83B68B3F1FF3F0ED140F27013E9
:1053C000C2F200031B6803F1040340F23420C2F26E
:1053D0000000194600F08AFF0AE040F24C23C2F2B6
:1053E00000031A683B68D318FB60F86800F0EAF91C
:1053F00007F11007BD4680BD80B584B000AF78606E
:105400007B68DB68DB68BB60BB68002B04D14FF0B6
:10541000500080F31188FEE7BB6803F118031846BB
:1054200000F0CAFF40F25C23C2F200031B68002BAD
:105430002BD1BB6803F10403184600F0BDFFBB6825
:10544000DA6A40F25423C2F200031B689A4206D97A
:10545000BB68DA6A40F25423C2F200031A60BB68E8
:10546000DA6A13464FEA83039B184FEA83031A460E
:1054700040F27413C2F20003D218BB6803F10403B4
:105480001046194600F032FF09E0BB6803F118032B
:1054900040F20820C2F20000194600F027FFBB6866
:1054A000DA6A40F27013C2F200031B68DB6A9A42A8
:1054B00003D34FF00103FB6002E04FF00003FB60F9
:1054C000FB68184607F11007BD4680BD80B483B065
:1054D00000AF78607B68002B04D14FF0500080F360
:1054E0001188FEE740F26823C2F200031A687B6865
:1054F0001A6040F24C23C2F200031A687B685A60BB
:1055000007F10C07BD4680BC704700BF80B584B072
:1055100000AF786039607B68002B04D14FF05000F9
:1055200080F31188FEE73B68002B04D14FF0500058
:1055300080F31188FEE702F019FD3B681B68B3F1A8
:10554000FF3F03D14FF00003FB6038E07B681A682F
:1055500040F26823C2F200031B689A420CD07B68B9
:105560005A6840F24C23C2F200031B689A4203D8E7
:105570004FF00103FB6022E040F24C23C2F2000333
:105580001A687B685B68D21A3B681B689A4213D220
:105590003B681A687B68596840F24C23C2F20003EA
:1055A0001B68CB1AD2183B681A607868FFF78EFF29
:1055B0004FF00003FB6002E04FF00103FB6002F0DC
:1055C000EBFCFB68184607F11007BD4680BD00BF25
:1055D00080B400AF40F26423C2F200034FF0010236
:1055E0001A60BD4680BC704780B582B000AF78605D
:1055F00000F09CF840F27413C2F200031B68012B08
:1056000001D902F0A7FCFDF7A7FAF1E780B584B055
:1056100000AFF860B9607A603B60FB6803F1340367
:105620001A46BB68104619464FF00A0206F030F8D9
:10563000FB684FF0000283F83D207B68042B02D901
:105640004FF004037B60FB687A68DA62FB687A6873
:105650001A64FB6803F10403184600F039FEFB6886
:1056600003F11803184600F033FEFB68FA681A616C
:105670007B68C3F10502FB689A61FB68FA685A62AD
:1056800007F11007BD4680BD80B582B000AF4FF076
:1056900000037B6013E07A6813464FEA83039B188C
:1056A0004FEA83031A4640F27413C2F20003D31880
:1056B000184600F0E9FD7B6803F101037B607B681D
:1056C000042BE8D940F2D810C2F2000000F0DCFD53
:1056D00040F2EC10C2F2000000F0D6FD40F20820CB
:1056E000C2F2000000F0D0FD40F21C20C2F2000027
:1056F00000F0CAFD40F23420C2F2000000F0C4FD08
:1057000040F20023C2F2000340F2D812C2F20002BB
:105710001A6040F20423C2F2000340F2EC12C2F21B
:1057200000021A6007F10807BD4680BD80B582B04F
:1057300000AF40F23023C2F200031B68002B3CD0C4
:10574000FFF7B2FB40F21C23C2F200031B68002BE0
:1057500014BF002301237B60FFF7B8FB7B68002B9D
:105760002BD102F003FC40F21C23C2F20003DB68E1
:10577000DB683B603B6803F10403184600F01CFE45
:1057800040F24823C2F200031B6803F1FF3240F2EB
:105790004823C2F200031A6040F23023C2F2000331
:1057A0001B6803F1FF3240F23023C2F200031A609B
:1057B00002F0F2FB386800F085F807F10807BD46F3
:1057C00080BD00BF80B582B000AF786040F270133A
:1057D000C2F200031B687A685A6040F24C23C2F29E
:1057E00000031B687A689A4210D240F20423C2F286
:1057F00000031A6840F27013C2F200031B6803F141
:1058000004031046194600F09BFD1DE040F2002302
:10581000C2F200031A6840F27013C2F200031B6860
:1058200003F104031046194600F08AFD40F25C03C0
:10583000C2F200031B687A689A4205D240F25C0308
:10584000C2F200037A681A6007F10807BD4680BDFE
:1058500080B584B000AF03463960FB804FF0440050
:1058600004F0B0FB0346FB60FB68002B23D03B68D1
:10587000002B07D1FB884FEA8303184604F0A2FBF4
:10588000034600E03B68FA681363FB681B6B002B60
:1058900006D1F86804F0E8FB4FF00003FB600AE073
:1058A000FB681A6BFB884FEA830310464FF0A50193
:1058B0001A4605F093FEFB68184607F11007BD462F
:1058C00080BD00BF80B582B000AF78607B681B6B85
:1058D000184604F0C9FB786804F0C6FB07F1080716
:1058E000BD4680BD80B483B000AF40F27013C2F2F9
:1058F00000031B687B607B68184607F10C07BD46F8
:1059000080BC704780B584B000AF78607B68FB6076
:105910007B68002B04D14FF0500080F31188FEE724
:10592000FB68DA6A40F27013C2F200031B68DB6A9C
:105930009A4257D240F27013C2F200031B68DB6A2E
:10594000C3F10502FB689A61FB685969FB68DA6A72
:1059500013464FEA83039B184FEA83031A4640F22B
:105960007413C2F20003D318994233D1FB6803F1D8
:105970000403184600F020FD40F27013C2F2000349
:105980001B68DA6AFB68DA62FB68DA6A40F2542361
:10599000C2F200031B689A4206D9FB68DA6A40F239
:1059A0005423C2F200031A60FB68DA6A13464FEA16
:1059B00083039B184FEA83031A4640F27413C2F222
:1059C0000003D218FB6803F104031046194600F0E7
:1059D0008DFC07E040F27013C2F200031B68DA6A24
:1059E000FB68DA6207F11007BD4680BD80B584B060
:1059F00000AF78607B68FB607B68002B3AD0FB6867
:105A0000DA6AFB681B6C9A4234D0FB6803F104032A
:105A1000184600F0D1FCFB681A6CFB68DA62FB6880
:105A2000DB6AC3F10502FB689A61FB68DA6A40F23F
:105A30005423C2F200031B689A4206D9FB68DA6A53
:105A400040F25423C2F200031A60FB68DA6A13467C
:105A50004FEA83039B184FEA83031A4640F27413FC
:105A6000C2F20003D218FB6803F104031046194682
:105A700000F03CFC07F11007BD4680BD80B483B048
:105A800000AF03463960FB713B684FF012021A8089
:105A900040F27C03C2F20003184607F10C07BD4632
:105AA00080BC704780B483B000AF03463960FB719F
:105AB0003B684FF004021A8040F29C03C2F20003DC
:105AC000184607F10C07BD4680BC704780B582B010
:105AD00000AF03463960FB71FB79002B0BD14BF211
